{
  "transactions": [
    {
      "hash": "0x91bb89a0c4b3ab08e80ead94f818322e05f4ae40c4b90a88848c3a8f2d426c73",
      "transactionType": "CALL",
      "contractName": "MocaTokenAdapter",
      "contractAddress": "0x859eba9f58873d9284ccd211611494ed9d842204",
      "function": "setOutboundLimit(uint32,uint256)",
      "arguments": [
        "40245",
        "10000000000000000000000000"
      ],
      "transaction": {
        "from": "0x8c9c001f821c04513616fd7962b2d8c62f925fd2",
        "to": "0x859eba9f58873d9284ccd211611494ed9d842204",
        "gas": "0xae7f",
        "value": "0x0",
        "input": "0x65d28a6b0000000000000000000000000000000000000000000000000000000000009d35000000000000000000000000000000000000000000084595161401484a000000",
        "nonce": "0x81",
        "chainId": "0xaa36a7"
      },
      "additionalContracts": [],
      "isFixedGasLimit": false
    },
    {
      "hash": "0xba67fc36c5219142def9b884c55df845382287065db3f9827bdcb9bc4d7c3e27",
      "transactionType": "CALL",
      "contractName": "MocaTokenAdapter",
      "contractAddress": "0x859eba9f58873d9284ccd211611494ed9d842204",
      "function": "setInboundLimit(uint32,uint256)",
      "arguments": [
        "40245",
        "10000000000000000000000000"
      ],
      "transaction": {
        "from": "0x8c9c001f821c04513616fd7962b2d8c62f925fd2",
        "to": "0x859eba9f58873d9284ccd211611494ed9d842204",
        "gas": "0xa52a",
        "value": "0x0",
        "input": "0x9a2fe9e40000000000000000000000000000000000000000000000000000000000009d35000000000000000000000000000000000000000000084595161401484a000000",
        "nonce": "0x82",
        "chainId": "0xaa36a7"
      },
      "additionalContracts": [],
      "isFixedGasLimit": false
    }
  ],
  "receipts": [
    {
      "status": "0x1",
      "cumulativeGasUsed": "0x199e548",
      "logs": [
        {
          "address": "0x859eba9f58873d9284ccd211611494ed9d842204",
          "topics": [
            "0x7628c1599617e8f71acfbf363d8064a2a32bdb6e63e074de3250cab57047bf79",
            "0x0000000000000000000000000000000000000000000000000000000000009d35"
          ],
          "data": "0x000000000000000000000000000000000000000000084595161401484a000000",
          "blockHash": "0x4ef0999b90109e88e783660fc420246ebacbe028472cca3502d3ade25f8c9106",
          "blockNumber": "0x78edaf",
          "blockTimestamp": "0x67d8dd0c",
          "transactionHash": "0x91bb89a0c4b3ab08e80ead94f818322e05f4ae40c4b90a88848c3a8f2d426c73",
          "transactionIndex": "0x95",
          "logIndex": "0x131",
          "removed": false
        }
      ],
      "logsBloom": "0x00000000000000000000000000000000000000000000000000000000400000000000000000000000000000000000000000000000000000000000000000008000000000000000000000000000000000000000000000000000080000000000800000000000000000000000000000000000000000000000008000000000000000000000000000000000000000000000000000000000020000000000000000000000000000000000000000000000000000000000000000000000000000000000000000000000000000000000000000080000000000000000008000000000000000000000000000000000000000000000000000000000000000100000000000000000",
      "type": "0x2",
      "transactionHash": "0x91bb89a0c4b3ab08e80ead94f818322e05f4ae40c4b90a88848c3a8f2d426c73",
      "transactionIndex": "0x95",
      "blockHash": "0x4ef0999b90109e88e783660fc420246ebacbe028472cca3502d3ade25f8c9106",
      "blockNumber": "0x78edaf",
      "gasUsed": "0x7751",
      "effectiveGasPrice": "0x3df11e",
      "from": "0x8c9c001f821c04513616fd7962b2d8c62f925fd2",
      "to": "0x859eba9f58873d9284ccd211611494ed9d842204",
      "contractAddress": null
    },
    {
      "status": "0x1",
      "cumulativeGasUsed": "0x19a5cdc",
      "logs": [
        {
          "address": "0x859eba9f58873d9284ccd211611494ed9d842204",
          "topics": [
            "0x9cc3784ef7ab64c61f0abf58d72c2a40ef45b319db540006be0aa3e4610b8433",
            "0x0000000000000000000000000000000000000000000000000000000000009d35"
          ],
          "data": "0x000000000000000000000000000000000000000000084595161401484a000000",
          "blockHash": "0x4ef0999b90109e88e783660fc420246ebacbe028472cca3502d3ade25f8c9106",
          "blockNumber": "0x78edaf",
          "blockTimestamp": "0x67d8dd0c",
          "transactionHash": "0xba67fc36c5219142def9b884c55df845382287065db3f9827bdcb9bc4d7c3e27",
          "transactionIndex": "0x96",
          "logIndex": "0x132",
          "removed": false
        }
      ],
      "logsBloom": "0x00000000000000000000000000000000000000000000000000000000400000000000000000000000000000000000000000000000000000000001000000008000000000000000000000000000000000000000000000000000080000000000000000000000000000000000000000000000000000000000008000000000000000000000000000000000000000000000000000000000020000000000000000008000000000000000000004000000000000000000000000000000000000000000000000000000000000000000000000000000000000000000000000000000000000000000000000000000000000000000000000000000000000100000000000000000",
      "type": "0x2",
      "transactionHash": "0xba67fc36c5219142def9b884c55df845382287065db3f9827bdcb9bc4d7c3e27",
      "transactionIndex": "0x96",
      "blockHash": "0x4ef0999b90109e88e783660fc420246ebacbe028472cca3502d3ade25f8c9106",
      "blockNumber": "0x78edaf",
      "gasUsed": "0x7794",
      "effectiveGasPrice": "0x3df11e",
      "from": "0x8c9c001f821c04513616fd7962b2d8c62f925fd2",
      "to": "0x859eba9f58873d9284ccd211611494ed9d842204",
      "contractAddress": null
    }
  ],
  "libraries": [],
  "pending": [],
  "returns": {},
  "timestamp": 1742265614,
  "chain": 11155111,
  "commit": "abe79db"
}