{
  "transactions": [
    {
      "hash": "0x8d6b44626bbc26dedae9b8026881162143c1c0c168e4fab4802aceb6fdc3f697",
      "transactionType": "CALL",
      "contractName": "MocaTokenMock",
      "contractAddress": "0x73ce27235b1d65028f1a7470b1f471df66a9504f",
      "function": "approve(address,uint256)",
      "arguments": [
        "0x859eba9f58873d9284ccd211611494ED9D842204",
        "10000000000000000000"
      ],
      "transaction": {
        "from": "0x8c9c001f821c04513616fd7962b2d8c62f925fd2",
        "to": "0x73ce27235b1d65028f1a7470b1f471df66a9504f",
        "gas": "0x9e0d",
        "value": "0x0",
        "input": "0x095ea7b3000000000000000000000000859eba9f58873d9284ccd211611494ed9d8422040000000000000000000000000000000000000000000000008ac7230489e80000",
        "nonce": "0x83",
        "chainId": "0xaa36a7"
      },
      "additionalContracts": [],
      "isFixedGasLimit": false
    },
    {
      "hash": "0x2b77c99cf61c5c53fbef30cf27deaa18b057988da2ee246d742b7d0552c60566",
      "transactionType": "CALL",
      "contractName": "MocaTokenAdapter",
      "contractAddress": "0x859eba9f58873d9284ccd211611494ed9d842204",
      "function": "send((uint32,bytes32,uint256,uint256,bytes,bytes,bytes),(uint256,uint256),address)",
      "arguments": [
        "(40245, 0x000000000000000000000000de05a1abb121113a33eed248bd91ddc254d5e9db, 1000000000000000000, 1000000000000000000, 0x, 0x, 0x)",
        "(121398942704996, 0)",
        "0xdE05a1Abb121113a33eeD248BD91ddC254d5E9Db"
      ],
      "transaction": {
        "from": "0x8c9c001f821c04513616fd7962b2d8c62f925fd2",
        "to": "0x859eba9f58873d9284ccd211611494ed9d842204",
        "gas": "0x509f3",
        "value": "0x6e6964db2564",
        "input": "0xc7c7f5b3000000000000000000000000000000000000000000000000000000000000008000000000000000000000000000000000000000000000000000006e6964db25640000000000000000000000000000000000000000000000000000000000000000000000000000000000000000de05a1abb121113a33eed248bd91ddc254d5e9db0000000000000000000000000000000000000000000000000000000000009d35000000000000000000000000de05a1abb121113a33eed248bd91ddc254d5e9db0000000000000000000000000000000000000000000000000de0b6b3a76400000000000000000000000000000000000000000000000000000de0b6b3a764000000000000000000000000000000000000000000000000000000000000000000e000000000000000000000000000000000000000000000000000000000000001000000000000000000000000000000000000000000000000000000000000000120000000000000000000000000000000000000000000000000000000000000000000000000000000000000000000000000000000000000000000000000000000000000000000000000000000000000000000000000000000000000000000000000",
        "nonce": "0x84",
        "chainId": "0xaa36a7"
      },
      "additionalContracts": [],
      "isFixedGasLimit": false
    }
  ],
  "receipts": [
    {
      "status": "0x1",
      "cumulativeGasUsed": "0xfb03cc",
      "logs": [
        {
          "address": "0x73ce27235b1d65028f1a7470b1f471df66a9504f",
          "topics": [
            "0x8c5be1e5ebec7d5bd14f71427d1e84f3dd0314c0f7b2291e5b200ac8c7c3b925",
            "0x0000000000000000000000008c9c001f821c04513616fd7962b2d8c62f925fd2",
            "0x000000000000000000000000859eba9f58873d9284ccd211611494ed9d842204"
          ],
          "data": "0x0000000000000000000000000000000000000000000000008ac7230489e80000",
          "blockHash": "0x7804427193722b7d7b7b79257d215f252f28697c38503053ee37ec1128df43eb",
          "blockNumber": "0x78edb6",
          "blockTimestamp": "0x67d8dd60",
          "transactionHash": "0x8d6b44626bbc26dedae9b8026881162143c1c0c168e4fab4802aceb6fdc3f697",
          "transactionIndex": "0x75",
          "logIndex": "0x130",
          "removed": false
        }
      ],
      "logsBloom": "0x00000000000000000000000000000800000000000000000000000000000000000000000000000000000000000000800000000000000000000000000000200000040400000000000000000000004000000000000000000000000000000000002000000000000000000000000000000000000000000000000000000000000000000000000000000000000000000000000000000000000000000000000020000000020000000000000000000000000000000000000000000000000080000000000000000000000000000000000000000000000000200000000000000000000000000010000000000000000000000000000000000000000000000000000000000000",
      "type": "0x2",
      "transactionHash": "0x8d6b44626bbc26dedae9b8026881162143c1c0c168e4fab4802aceb6fdc3f697",
      "transactionIndex": "0x75",
      "blockHash": "0x7804427193722b7d7b7b79257d215f252f28697c38503053ee37ec1128df43eb",
      "blockNumber": "0x78edb6",
      "gasUsed": "0x726e",
      "effectiveGasPrice": "0x46b328",
      "from": "0x8c9c001f821c04513616fd7962b2d8c62f925fd2",
      "to": "0x73ce27235b1d65028f1a7470b1f471df66a9504f",
      "contractAddress": null
    },
    {
      "status": "0x1",
      "cumulativeGasUsed": "0xfea9b3",
      "logs": [
        {
          "address": "0x73ce27235b1d65028f1a7470b1f471df66a9504f",
          "topics": [
            "0xddf252ad1be2c89b69c2b068fc378daa952ba7f163c4a11628f55a4df523b3ef",
            "0x0000000000000000000000008c9c001f821c04513616fd7962b2d8c62f925fd2",
            "0x000000000000000000000000859eba9f58873d9284ccd211611494ed9d842204"
          ],
          "data": "0x0000000000000000000000000000000000000000000000000de0b6b3a7640000",
          "blockHash": "0x7804427193722b7d7b7b79257d215f252f28697c38503053ee37ec1128df43eb",
          "blockNumber": "0x78edb6",
          "blockTimestamp": "0x67d8dd60",
          "transactionHash": "0x2b77c99cf61c5c53fbef30cf27deaa18b057988da2ee246d742b7d0552c60566",
          "transactionIndex": "0x76",
          "logIndex": "0x131",
          "removed": false
        },
        {
          "address": "0xcc1ae8cf5d3904cef3360a9532b477529b177cce",
          "topics": [
            "0x61ed099e74a97a1d7f8bb0952a88ca8b7b8ebd00c126ea04671f92a81213318a"
          ],
          "data": "0x000000000000000000000000718b92b5cb0a5552039b593faf724d182a881eda000000000000000000000000000000000000000000000000000067f9adc95c9e",
          "blockHash": "0x7804427193722b7d7b7b79257d215f252f28697c38503053ee37ec1128df43eb",
          "blockNumber": "0x78edb6",
          "blockTimestamp": "0x67d8dd60",
          "transactionHash": "0x2b77c99cf61c5c53fbef30cf27deaa18b057988da2ee246d742b7d0552c60566",
          "transactionIndex": "0x76",
          "logIndex": "0x132",
          "removed": false
        },
        {
          "address": "0xcc1ae8cf5d3904cef3360a9532b477529b177cce",
          "topics": [
            "0x07ea52d82345d6e838192107d8fd7123d9c2ec8e916cd0aad13fd2b60db24644"
          ],
          "data": "0x000000000000000000000000000000000000000000000000000000000000006000000000000000000000000000000000000000000000000000000000000000a000000000000000000000000000000000000000000000000000000000000000c000000000000000000000000000000000000000000000000000000000000000010000000000000000000000008eebf8b423b73bfca51a1db4b7354aa0bfca9193000000000000000000000000000000000000000000000000000000000000000000000000000000000000000000000000000000000000000000000000000000010000000000000000000000000000000000000000000000000000066fb711c8c6",
          "blockHash": "0x7804427193722b7d7b7b79257d215f252f28697c38503053ee37ec1128df43eb",
          "blockNumber": "0x78edb6",
          "blockTimestamp": "0x67d8dd60",
          "transactionHash": "0x2b77c99cf61c5c53fbef30cf27deaa18b057988da2ee246d742b7d0552c60566",
          "transactionIndex": "0x76",
          "logIndex": "0x133",
          "removed": false
        },
        {
          "address": "0x6edce65403992e310a62460808c4b910d972f10f",
          "topics": [
            "0x1ab700d4ced0c005b164c0f789fd09fcbb0156d4c2041b8a3bfbcd961cd1567f"
          ],
          "data": "0x00000000000000000000000000000000000000000000000000000000000000600000000000000000000000000000000000000000000000000000000000000120000000000000000000000000cc1ae8cf5d3904cef3360a9532b477529b177cce000000000000000000000000000000000000000000000000000000000000009901000000000000000300009ce1000000000000000000000000859eba9f58873d9284ccd211611494ed9d84220400009d3500000000000000000000000003946287b52b88c8357e813fba3f472c60fae72787c8f15df35882f3babb1a3f2baa8b10eaf98c8352fcd5e741dba9122563e76a000000000000000000000000de05a1abb121113a33eed248bd91ddc254d5e9db00000000000f424000000000000000000000000000000000000000000000000000000000000000000000000000001600030100110100000000000000000000000000030d4000000000000000000000",
          "blockHash": "0x7804427193722b7d7b7b79257d215f252f28697c38503053ee37ec1128df43eb",
          "blockNumber": "0x78edb6",
          "blockTimestamp": "0x67d8dd60",
          "transactionHash": "0x2b77c99cf61c5c53fbef30cf27deaa18b057988da2ee246d742b7d0552c60566",
          "transactionIndex": "0x76",
          "logIndex": "0x134",
          "removed": false
        },
        {
          "address": "0x859eba9f58873d9284ccd211611494ed9d842204",
          "topics": [
            "0xfff873bb909b73d08a8c1af4b21779e87103bb8ea8cf3b3a0067eb8526b8b80a",
            "0x87c8f15df35882f3babb1a3f2baa8b10eaf98c8352fcd5e741dba9122563e76a",
            "0x0000000000000000000000008c9c001f821c04513616fd7962b2d8c62f925fd2"
          ],
          "data": "0x0000000000000000000000000000000000000000000000000000000000009d350000000000000000000000000000000000000000000000000de0b6b3a7640000",
          "blockHash": "0x7804427193722b7d7b7b79257d215f252f28697c38503053ee37ec1128df43eb",
          "blockNumber": "0x78edb6",
          "blockTimestamp": "0x67d8dd60",
          "transactionHash": "0x2b77c99cf61c5c53fbef30cf27deaa18b057988da2ee246d742b7d0552c60566",
          "transactionIndex": "0x76",
          "logIndex": "0x135",
          "removed": false
        }
      ],
      "logsBloom": "0x000000000000000000000004000008000000000000000000300000000001000000000080000000002000000000808000000000000000000000000000000080000404000000000000000000080040000000000000000000000000000000000020000000000000000082000000000000000000000000000080008000100000000000000000000000200000000800000000000000000200000000000000200000000000000080000000001000000000000000000000004000000004c0000000000000000002000000000000000000000000000000280000000000000000000000000000040000000000000000000000002000000000000000000000000000000020",
      "type": "0x2",
      "transactionHash": "0x2b77c99cf61c5c53fbef30cf27deaa18b057988da2ee246d742b7d0552c60566",
      "transactionIndex": "0x76",
      "blockHash": "0x7804427193722b7d7b7b79257d215f252f28697c38503053ee37ec1128df43eb",
      "blockNumber": "0x78edb6",
      "gasUsed": "0x3a5e7",
      "effectiveGasPrice": "0x46b328",
      "from": "0x8c9c001f821c04513616fd7962b2d8c62f925fd2",
      "to": "0x859eba9f58873d9284ccd211611494ed9d842204",
      "contractAddress": null
    }
  ],
  "libraries": [],
  "pending": [],
  "returns": {},
  "timestamp": 1742265696,
  "chain": 11155111,
  "commit": "abe79db"
}