{
  "transactions": [
    {
      "hash": "0x180f6fdf6d472e750ab12ed1997c2f4f732c457616e32cbfdced0cd24dd89550",
      "transactionType": "CALL",
      "contractName": null,
      "contractAddress": "0x859eba9f58873d9284ccd211611494ed9d842204",
      "function": "setOutboundLimit(uint32,uint256)",
      "arguments": [
        "40245",
        "10000000000000000000000000"
      ],
      "transaction": {
        "from": "0x8c9c001f821c04513616fd7962b2d8c62f925fd2",
        "to": "0x859eba9f58873d9284ccd211611494ed9d842204",
        "gas": "0x10110",
        "value": "0x0",
        "input": "0x65d28a6b0000000000000000000000000000000000000000000000000000000000009d35000000000000000000000000000000000000000000084595161401484a000000",
        "nonce": "0x60",
        "chainId": "0xaa36a7"
      },
      "additionalContracts": [],
      "isFixedGasLimit": false
    },
    {
      "hash": "0x88bd51e2404c7a2c3b7bd38b6cb179651c127490b1b6337d1a1da2a2b10774ab",
      "transactionType": "CALL",
      "contractName": null,
      "contractAddress": "0x859eba9f58873d9284ccd211611494ed9d842204",
      "function": "setInboundLimit(uint32,uint256)",
      "arguments": [
        "40245",
        "10000000000000000000000000"
      ],
      "transaction": {
        "from": "0x8c9c001f821c04513616fd7962b2d8c62f925fd2",
        "to": "0x859eba9f58873d9284ccd211611494ed9d842204",
        "gas": "0x1016e",
        "value": "0x0",
        "input": "0x9a2fe9e40000000000000000000000000000000000000000000000000000000000009d35000000000000000000000000000000000000000000084595161401484a000000",
        "nonce": "0x61",
        "chainId": "0xaa36a7"
      },
      "additionalContracts": [],
      "isFixedGasLimit": false
    }
  ],
  "receipts": [
    {
      "status": "0x1",
      "cumulativeGasUsed": "0xa9672a",
      "logs": [
        {
          "address": "0x859eba9f58873d9284ccd211611494ed9d842204",
          "topics": [
            "0x7628c1599617e8f71acfbf363d8064a2a32bdb6e63e074de3250cab57047bf79",
            "0x0000000000000000000000000000000000000000000000000000000000009d35"
          ],
          "data": "0x000000000000000000000000000000000000000000084595161401484a000000",
          "blockHash": "0xe45bc31b222a6f99a1ff265d763bf1a04ebe4631f6052d9ddc63607327de8515",
          "blockNumber": "0x6e9ce1",
          "transactionHash": "0x180f6fdf6d472e750ab12ed1997c2f4f732c457616e32cbfdced0cd24dd89550",
          "transactionIndex": "0x4f",
          "logIndex": "0x9f",
          "removed": false
        }
      ],
      "logsBloom": "0x00000000000000000000000000000000000000000000000000000000400000000000000000000000000000000000000000000000000000000000000000008000000000000000000000000000000000000000000000000000080000000000800000000000000000000000000000000000000000000000008000000000000000000000000000000000000000000000000000000000020000000000000000000000000000000000000000000000000000000000000000000000000000000000000000000000000000000000000000080000000000000000008000000000000000000000000000000000000000000000000000000000000000100000000000000000",
      "type": "0x2",
      "transactionHash": "0x180f6fdf6d472e750ab12ed1997c2f4f732c457616e32cbfdced0cd24dd89550",
      "transactionIndex": "0x4f",
      "blockHash": "0xe45bc31b222a6f99a1ff265d763bf1a04ebe4631f6052d9ddc63607327de8515",
      "blockNumber": "0x6e9ce1",
      "gasUsed": "0xba1d",
      "effectiveGasPrice": "0x36a895071",
      "from": "0x8c9c001f821c04513616fd7962b2d8c62f925fd2",
      "to": "0x859eba9f58873d9284ccd211611494ed9d842204",
      "contractAddress": null
    },
    {
      "status": "0x1",
      "cumulativeGasUsed": "0xaa218a",
      "logs": [
        {
          "address": "0x859eba9f58873d9284ccd211611494ed9d842204",
          "topics": [
            "0x9cc3784ef7ab64c61f0abf58d72c2a40ef45b319db540006be0aa3e4610b8433",
            "0x0000000000000000000000000000000000000000000000000000000000009d35"
          ],
          "data": "0x000000000000000000000000000000000000000000084595161401484a000000",
          "blockHash": "0xe45bc31b222a6f99a1ff265d763bf1a04ebe4631f6052d9ddc63607327de8515",
          "blockNumber": "0x6e9ce1",
          "transactionHash": "0x88bd51e2404c7a2c3b7bd38b6cb179651c127490b1b6337d1a1da2a2b10774ab",
          "transactionIndex": "0x50",
          "logIndex": "0xa0",
          "removed": false
        }
      ],
      "logsBloom": "0x00000000000000000000000000000000000000000000000000000000400000000000000000000000000000000000000000000000000000000001000000008000000000000000000000000000000000000000000000000000080000000000000000000000000000000000000000000000000000000000008000000000000000000000000000000000000000000000000000000000020000000000000000008000000000000000000004000000000000000000000000000000000000000000000000000000000000000000000000000000000000000000000000000000000000000000000000000000000000000000000000000000000000100000000000000000",
      "type": "0x2",
      "transactionHash": "0x88bd51e2404c7a2c3b7bd38b6cb179651c127490b1b6337d1a1da2a2b10774ab",
      "transactionIndex": "0x50",
      "blockHash": "0xe45bc31b222a6f99a1ff265d763bf1a04ebe4631f6052d9ddc63607327de8515",
      "blockNumber": "0x6e9ce1",
      "gasUsed": "0xba60",
      "effectiveGasPrice": "0x36a895071",
      "from": "0x8c9c001f821c04513616fd7962b2d8c62f925fd2",
      "to": "0x859eba9f58873d9284ccd211611494ed9d842204",
      "contractAddress": null
    }
  ],
  "libraries": [],
  "pending": [],
  "returns": {},
  "timestamp": 1733819377,
  "chain": 11155111,
  "commit": "f9c0721"
}