{
  "transactions": [
    {
      "hash": "0x640c1b3a1973210b0cdae1c92f1ec18a2da78fe8443215104f3b635d3c56c0b2",
      "transactionType": "CALL",
      "contractName": null,
      "contractAddress": "0x73ce27235b1d65028f1a7470b1f471df66a9504f",
      "function": "approve(address,uint256)",
      "arguments": [
        "0x859eba9f58873d9284ccd211611494ED9D842204",
        "1000000000000000000"
      ],
      "transaction": {
        "from": "0x8c9c001f821c04513616fd7962b2d8c62f925fd2",
        "to": "0x73ce27235b1d65028f1a7470b1f471df66a9504f",
        "gas": "0x9e0d",
        "value": "0x0",
        "input": "0x095ea7b3000000000000000000000000859eba9f58873d9284ccd211611494ed9d8422040000000000000000000000000000000000000000000000000de0b6b3a7640000",
        "nonce": "0x64",
        "chainId": "0xaa36a7"
      },
      "additionalContracts": [],
      "isFixedGasLimit": false
    },
    {
      "hash": "0xf3d2d794720eeabc9b2501a96eb2d0273516da4b81ebeca3dd864e63825633f8",
      "transactionType": "CALL",
      "contractName": null,
      "contractAddress": "0x859eba9f58873d9284ccd211611494ed9d842204",
      "function": "send((uint32,bytes32,uint256,uint256,bytes,bytes,bytes),(uint256,uint256),address)",
      "arguments": [
        "(40245, 0x000000000000000000000000de05a1abb121113a33eed248bd91ddc254d5e9db, 1000000000000000000, 1000000000000000000, 0x0003010031020000000000000000001550f7dca70000000000000000000000000000de05a1abb121113a33eed248bd91ddc254d5e9db, 0x, 0x)",
        "(7253132631030226, 0)",
        "0xdE05a1Abb121113a33eeD248BD91ddC254d5E9Db"
      ],
      "transaction": {
        "from": "0x8c9c001f821c04513616fd7962b2d8c62f925fd2",
        "to": "0x859eba9f58873d9284ccd211611494ed9d842204",
        "gas": "0x53ea4",
        "value": "0x19c4af89fb39d2",
        "input": "0xc7c7f5b300000000000000000000000000000000000000000000000000000000000000800000000000000000000000000000000000000000000000000019c4af89fb39d20000000000000000000000000000000000000000000000000000000000000000000000000000000000000000de05a1abb121113a33eed248bd91ddc254d5e9db0000000000000000000000000000000000000000000000000000000000009d35000000000000000000000000de05a1abb121113a33eed248bd91ddc254d5e9db0000000000000000000000000000000000000000000000000de0b6b3a76400000000000000000000000000000000000000000000000000000de0b6b3a764000000000000000000000000000000000000000000000000000000000000000000e00000000000000000000000000000000000000000000000000000000000000140000000000000000000000000000000000000000000000000000000000000016000000000000000000000000000000000000000000000000000000000000000360003010031020000000000000000001550f7dca70000000000000000000000000000de05a1abb121113a33eed248bd91ddc254d5e9db0000000000000000000000000000000000000000000000000000000000000000000000000000000000000000000000000000000000000000000000000000000000000000000000000000",
        "nonce": "0x65",
        "chainId": "0xaa36a7"
      },
      "additionalContracts": [],
      "isFixedGasLimit": false
    }
  ],
  "receipts": [
    {
      "status": "0x1",
      "cumulativeGasUsed": "0x94102a",
      "logs": [
        {
          "address": "0x73ce27235b1d65028f1a7470b1f471df66a9504f",
          "topics": [
            "0x8c5be1e5ebec7d5bd14f71427d1e84f3dd0314c0f7b2291e5b200ac8c7c3b925",
            "0x0000000000000000000000008c9c001f821c04513616fd7962b2d8c62f925fd2",
            "0x000000000000000000000000859eba9f58873d9284ccd211611494ed9d842204"
          ],
          "data": "0x0000000000000000000000000000000000000000000000000de0b6b3a7640000",
          "blockHash": "0x6a2b4bbf5d515c0ecce7a91871445c43cf5d4f53f5351d675cd98eef505e638f",
          "blockNumber": "0x6e9cf7",
          "transactionHash": "0x640c1b3a1973210b0cdae1c92f1ec18a2da78fe8443215104f3b635d3c56c0b2",
          "transactionIndex": "0x4d",
          "logIndex": "0x96",
          "removed": false
        }
      ],
      "logsBloom": "0x00000000000000000000000000000800000000000000000000000000000000000000000000000000000000000000800000000000000000000000000000200000040400000000000000000000004000000000000000000000000000000000002000000000000000000000000000000000000000000000000000000000000000000000000000000000000000000000000000000000000000000000000020000000020000000000000000000000000000000000000000000000000080000000000000000000000000000000000000000000000000200000000000000000000000000010000000000000000000000000000000000000000000000000000000000000",
      "type": "0x2",
      "transactionHash": "0x640c1b3a1973210b0cdae1c92f1ec18a2da78fe8443215104f3b635d3c56c0b2",
      "transactionIndex": "0x4d",
      "blockHash": "0x6a2b4bbf5d515c0ecce7a91871445c43cf5d4f53f5351d675cd98eef505e638f",
      "blockNumber": "0x6e9cf7",
      "gasUsed": "0x726e",
      "effectiveGasPrice": "0x3706c3f2a",
      "from": "0x8c9c001f821c04513616fd7962b2d8c62f925fd2",
      "to": "0x73ce27235b1d65028f1a7470b1f471df66a9504f",
      "contractAddress": null
    },
    {
      "status": "0x1",
      "cumulativeGasUsed": "0x97dc37",
      "logs": [
        {
          "address": "0x73ce27235b1d65028f1a7470b1f471df66a9504f",
          "topics": [
            "0xddf252ad1be2c89b69c2b068fc378daa952ba7f163c4a11628f55a4df523b3ef",
            "0x0000000000000000000000008c9c001f821c04513616fd7962b2d8c62f925fd2",
            "0x000000000000000000000000859eba9f58873d9284ccd211611494ed9d842204"
          ],
          "data": "0x0000000000000000000000000000000000000000000000000de0b6b3a7640000",
          "blockHash": "0x6a2b4bbf5d515c0ecce7a91871445c43cf5d4f53f5351d675cd98eef505e638f",
          "blockNumber": "0x6e9cf7",
          "transactionHash": "0xf3d2d794720eeabc9b2501a96eb2d0273516da4b81ebeca3dd864e63825633f8",
          "transactionIndex": "0x4e",
          "logIndex": "0x97",
          "removed": false
        },
        {
          "address": "0xcc1ae8cf5d3904cef3360a9532b477529b177cce",
          "topics": [
            "0x61ed099e74a97a1d7f8bb0952a88ca8b7b8ebd00c126ea04671f92a81213318a"
          ],
          "data": "0x000000000000000000000000718b92b5cb0a5552039b593faf724d182a881eda0000000000000000000000000000000000000000000000000019c24de9dcfb58",
          "blockHash": "0x6a2b4bbf5d515c0ecce7a91871445c43cf5d4f53f5351d675cd98eef505e638f",
          "blockNumber": "0x6e9cf7",
          "transactionHash": "0xf3d2d794720eeabc9b2501a96eb2d0273516da4b81ebeca3dd864e63825633f8",
          "transactionIndex": "0x4e",
          "logIndex": "0x98",
          "removed": false
        },
        {
          "address": "0xcc1ae8cf5d3904cef3360a9532b477529b177cce",
          "topics": [
            "0x07ea52d82345d6e838192107d8fd7123d9c2ec8e916cd0aad13fd2b60db24644"
          ],
          "data": "0x000000000000000000000000000000000000000000000000000000000000006000000000000000000000000000000000000000000000000000000000000000a000000000000000000000000000000000000000000000000000000000000000c000000000000000000000000000000000000000000000000000000000000000010000000000000000000000008eebf8b423b73bfca51a1db4b7354aa0bfca91930000000000000000000000000000000000000000000000000000000000000000000000000000000000000000000000000000000000000000000000000000000100000000000000000000000000000000000000000000000000000261a01e3e7a",
          "blockHash": "0x6a2b4bbf5d515c0ecce7a91871445c43cf5d4f53f5351d675cd98eef505e638f",
          "blockNumber": "0x6e9cf7",
          "transactionHash": "0xf3d2d794720eeabc9b2501a96eb2d0273516da4b81ebeca3dd864e63825633f8",
          "transactionIndex": "0x4e",
          "logIndex": "0x99",
          "removed": false
        },
        {
          "address": "0x6edce65403992e310a62460808c4b910d972f10f",
          "topics": [
            "0x1ab700d4ced0c005b164c0f789fd09fcbb0156d4c2041b8a3bfbcd961cd1567f"
          ],
          "data": "0x00000000000000000000000000000000000000000000000000000000000000600000000000000000000000000000000000000000000000000000000000000120000000000000000000000000cc1ae8cf5d3904cef3360a9532b477529b177cce000000000000000000000000000000000000000000000000000000000000009901000000000000000200009ce1000000000000000000000000859eba9f58873d9284ccd211611494ed9d84220400009d3500000000000000000000000003946287b52b88c8357e813fba3f472c60fae7278eb75c69409b4b4a7ebe44a745b5bdd24a28100cce5bb5e95bbc67a783253b9e000000000000000000000000de05a1abb121113a33eed248bd91ddc254d5e9db00000000000f424000000000000000000000000000000000000000000000000000000000000000000000000000004a00030100110100000000000000000000000000030d40010031020000000000000000001550f7dca70000000000000000000000000000de05a1abb121113a33eed248bd91ddc254d5e9db00000000000000000000000000000000000000000000",
          "blockHash": "0x6a2b4bbf5d515c0ecce7a91871445c43cf5d4f53f5351d675cd98eef505e638f",
          "blockNumber": "0x6e9cf7",
          "transactionHash": "0xf3d2d794720eeabc9b2501a96eb2d0273516da4b81ebeca3dd864e63825633f8",
          "transactionIndex": "0x4e",
          "logIndex": "0x9a",
          "removed": false
        },
        {
          "address": "0x859eba9f58873d9284ccd211611494ed9d842204",
          "topics": [
            "0xfff873bb909b73d08a8c1af4b21779e87103bb8ea8cf3b3a0067eb8526b8b80a",
            "0x8eb75c69409b4b4a7ebe44a745b5bdd24a28100cce5bb5e95bbc67a783253b9e",
            "0x0000000000000000000000008c9c001f821c04513616fd7962b2d8c62f925fd2"
          ],
          "data": "0x0000000000000000000000000000000000000000000000000000000000009d350000000000000000000000000000000000000000000000000de0b6b3a7640000",
          "blockHash": "0x6a2b4bbf5d515c0ecce7a91871445c43cf5d4f53f5351d675cd98eef505e638f",
          "blockNumber": "0x6e9cf7",
          "transactionHash": "0xf3d2d794720eeabc9b2501a96eb2d0273516da4b81ebeca3dd864e63825633f8",
          "transactionIndex": "0x4e",
          "logIndex": "0x9b",
          "removed": false
        }
      ],
      "logsBloom": "0x000000000000000000000000000008000000000000000000300000000001000000000000000000002000000000808000000000000000000000000000000080000404000000000000000000080040000010000000000000000000000000000020000000000000000082000000000000000000000000000080000000100000000000000000000000200000000800000000000000000200000000000000200000000000000080000004001000000000000001000000004000000004c0000000000000000002000000000000000000000000000000280000000000000000000000000000040000000000000000000000002000000000000000000000000000000020",
      "type": "0x2",
      "transactionHash": "0xf3d2d794720eeabc9b2501a96eb2d0273516da4b81ebeca3dd864e63825633f8",
      "transactionIndex": "0x4e",
      "blockHash": "0x6a2b4bbf5d515c0ecce7a91871445c43cf5d4f53f5351d675cd98eef505e638f",
      "blockNumber": "0x6e9cf7",
      "gasUsed": "0x3cc0d",
      "effectiveGasPrice": "0x3706c3f2a",
      "from": "0x8c9c001f821c04513616fd7962b2d8c62f925fd2",
      "to": "0x859eba9f58873d9284ccd211611494ed9d842204",
      "contractAddress": null
    }
  ],
  "libraries": [],
  "pending": [],
  "returns": {},
  "timestamp": 1733819653,
  "chain": 11155111,
  "commit": "f9c0721"
}