{
  "transactions": [
    {
      "hash": "0x213f4d611e4080940389663562d083d5e3817b01df01735afaebcfebe920bd96",
      "transactionType": "CALL",
      "contractName": null,
      "contractAddress": "0x859eba9f58873d9284ccd211611494ed9d842204",
      "function": "setPeer(uint32,bytes32)",
      "arguments": [
        "40245",
        "0x00000000000000000000000003946287b52b88c8357e813fba3f472c60fae727"
      ],
      "transaction": {
        "from": "0x8c9c001f821c04513616fd7962b2d8c62f925fd2",
        "to": "0x859eba9f58873d9284ccd211611494ed9d842204",
        "gas": "0x1016a",
        "value": "0x0",
        "input": "0x3400288b0000000000000000000000000000000000000000000000000000000000009d3500000000000000000000000003946287b52b88c8357e813fba3f472c60fae727",
        "nonce": "0x5e",
        "chainId": "0xaa36a7"
      },
      "additionalContracts": [],
      "isFixedGasLimit": false
    }
  ],
  "receipts": [
    {
      "status": "0x1",
      "cumulativeGasUsed": "0x8e3e06",
      "logs": [
        {
          "address": "0x859eba9f58873d9284ccd211611494ed9d842204",
          "topics": [
            "0x238399d427b947898edb290f5ff0f9109849b1c3ba196a42e35f00c50a54b98b"
          ],
          "data": "0x0000000000000000000000000000000000000000000000000000000000009d3500000000000000000000000003946287b52b88c8357e813fba3f472c60fae727",
          "blockHash": "0x5ea1483394a11fe08d7cb4ea62728583cea68db0935538a5f169a369012ea7dd",
          "blockNumber": "0x6e9cc9",
          "transactionHash": "0x213f4d611e4080940389663562d083d5e3817b01df01735afaebcfebe920bd96",
          "transactionIndex": "0x4f",
          "logIndex": "0xad",
          "removed": false
        }
      ],
      "logsBloom": "0x00000000000000000000000000000000000000000000000000000000000000000000000000000000000000000000000000000000000000000800000000008000000000000000000000000000000000000000000000000000000000000000000000000000000000000000000000000000000000000000008000000000000000000000000000000000000000000000000000000000020000000000000000000000000000000000000000000000000000000000000000000000000002000000000000000000000000000000000000000000000000000000000000040000000000000000000000000000000000000000000000000000000000000000000000000000",
      "type": "0x2",
      "transactionHash": "0x213f4d611e4080940389663562d083d5e3817b01df01735afaebcfebe920bd96",
      "transactionIndex": "0x4f",
      "blockHash": "0x5ea1483394a11fe08d7cb4ea62728583cea68db0935538a5f169a369012ea7dd",
      "blockNumber": "0x6e9cc9",
      "gasUsed": "0xba5e",
      "effectiveGasPrice": "0x3382600d5",
      "from": "0x8c9c001f821c04513616fd7962b2d8c62f925fd2",
      "to": "0x859eba9f58873d9284ccd211611494ed9d842204",
      "contractAddress": null
    }
  ],
  "libraries": [],
  "pending": [],
  "returns": {},
  "timestamp": 1733819065,
  "chain": 11155111,
  "commit": "f9c0721"
}