{
  "transactions": [
    {
      "hash": "0x1d180e13435008003b7d35ba1357dbf8d26f80728fc06d73fbf7d05bcf3cbb9c",
      "transactionType": "CALL",
      "contractName": null,
      "contractAddress": "0x73ce27235b1d65028f1a7470b1f471df66a9504f",
      "function": "approve(address,uint256)",
      "arguments": [
        "0x859eba9f58873d9284ccd211611494ED9D842204",
        "10000000000000000000"
      ],
      "transaction": {
        "from": "0x8c9c001f821c04513616fd7962b2d8c62f925fd2",
        "to": "0x73ce27235b1d65028f1a7470b1f471df66a9504f",
        "gas": "0x1090a",
        "value": "0x0",
        "input": "0x095ea7b3000000000000000000000000859eba9f58873d9284ccd211611494ed9d8422040000000000000000000000000000000000000000000000008ac7230489e80000",
        "nonce": "0x62",
        "chainId": "0xaa36a7"
      },
      "additionalContracts": [],
      "isFixedGasLimit": false
    },
    {
      "hash": "0x155355026894d9e8e4f2846fc59771ccad2184a6a26039fac060287a3ba492aa",
      "transactionType": "CALL",
      "contractName": null,
      "contractAddress": "0x859eba9f58873d9284ccd211611494ed9d842204",
      "function": "send((uint32,bytes32,uint256,uint256,bytes,bytes,bytes),(uint256,uint256),address)",
      "arguments": [
        "(40245, 0x000000000000000000000000de05a1abb121113a33eed248bd91ddc254d5e9db, 1000000000000000000, 1000000000000000000, 0x, 0x, 0x)",
        "(53132631030226, 0)",
        "0xdE05a1Abb121113a33eeD248BD91ddC254d5E9Db"
      ],
      "transaction": {
        "from": "0x8c9c001f821c04513616fd7962b2d8c62f925fd2",
        "to": "0x859eba9f58873d9284ccd211611494ed9d842204",
        "gas": "0x6befb",
        "value": "0x3052e79939d2",
        "input": "0xc7c7f5b3000000000000000000000000000000000000000000000000000000000000008000000000000000000000000000000000000000000000000000003052e79939d20000000000000000000000000000000000000000000000000000000000000000000000000000000000000000de05a1abb121113a33eed248bd91ddc254d5e9db0000000000000000000000000000000000000000000000000000000000009d35000000000000000000000000de05a1abb121113a33eed248bd91ddc254d5e9db0000000000000000000000000000000000000000000000000de0b6b3a76400000000000000000000000000000000000000000000000000000de0b6b3a764000000000000000000000000000000000000000000000000000000000000000000e000000000000000000000000000000000000000000000000000000000000001000000000000000000000000000000000000000000000000000000000000000120000000000000000000000000000000000000000000000000000000000000000000000000000000000000000000000000000000000000000000000000000000000000000000000000000000000000000000000000000000000000000000000000",
        "nonce": "0x63",
        "chainId": "0xaa36a7"
      },
      "additionalContracts": [],
      "isFixedGasLimit": false
    }
  ],
  "receipts": [
    {
      "status": "0x1",
      "cumulativeGasUsed": "0x867e5f",
      "logs": [
        {
          "address": "0x73ce27235b1d65028f1a7470b1f471df66a9504f",
          "topics": [
            "0x8c5be1e5ebec7d5bd14f71427d1e84f3dd0314c0f7b2291e5b200ac8c7c3b925",
            "0x0000000000000000000000008c9c001f821c04513616fd7962b2d8c62f925fd2",
            "0x000000000000000000000000859eba9f58873d9284ccd211611494ed9d842204"
          ],
          "data": "0x0000000000000000000000000000000000000000000000008ac7230489e80000",
          "blockHash": "0xd9b7bd555df80242bc2a20a59b3a584d3724f3f838793c6bbd603f6a3abd26bb",
          "blockNumber": "0x6e9cf0",
          "transactionHash": "0x1d180e13435008003b7d35ba1357dbf8d26f80728fc06d73fbf7d05bcf3cbb9c",
          "transactionIndex": "0x3c",
          "logIndex": "0xa5",
          "removed": false
        }
      ],
      "logsBloom": "0x00000000000000000000000000000800000000000000000000000000000000000000000000000000000000000000800000000000000000000000000000200000040400000000000000000000004000000000000000000000000000000000002000000000000000000000000000000000000000000000000000000000000000000000000000000000000000000000000000000000000000000000000020000000020000000000000000000000000000000000000000000000000080000000000000000000000000000000000000000000000000200000000000000000000000000010000000000000000000000000000000000000000000000000000000000000",
      "type": "0x2",
      "transactionHash": "0x1d180e13435008003b7d35ba1357dbf8d26f80728fc06d73fbf7d05bcf3cbb9c",
      "transactionIndex": "0x3c",
      "blockHash": "0xd9b7bd555df80242bc2a20a59b3a584d3724f3f838793c6bbd603f6a3abd26bb",
      "blockNumber": "0x6e9cf0",
      "gasUsed": "0xb53a",
      "effectiveGasPrice": "0x3f34158fb",
      "from": "0x8c9c001f821c04513616fd7962b2d8c62f925fd2",
      "to": "0x73ce27235b1d65028f1a7470b1f471df66a9504f",
      "contractAddress": null
    },
    {
      "status": "0x1",
      "cumulativeGasUsed": "0x8cccad",
      "logs": [
        {
          "address": "0x73ce27235b1d65028f1a7470b1f471df66a9504f",
          "topics": [
            "0xddf252ad1be2c89b69c2b068fc378daa952ba7f163c4a11628f55a4df523b3ef",
            "0x0000000000000000000000008c9c001f821c04513616fd7962b2d8c62f925fd2",
            "0x000000000000000000000000859eba9f58873d9284ccd211611494ed9d842204"
          ],
          "data": "0x0000000000000000000000000000000000000000000000000de0b6b3a7640000",
          "blockHash": "0xd9b7bd555df80242bc2a20a59b3a584d3724f3f838793c6bbd603f6a3abd26bb",
          "blockNumber": "0x6e9cf0",
          "transactionHash": "0x155355026894d9e8e4f2846fc59771ccad2184a6a26039fac060287a3ba492aa",
          "transactionIndex": "0x3e",
          "logIndex": "0xa7",
          "removed": false
        },
        {
          "address": "0xcc1ae8cf5d3904cef3360a9532b477529b177cce",
          "topics": [
            "0x61ed099e74a97a1d7f8bb0952a88ca8b7b8ebd00c126ea04671f92a81213318a"
          ],
          "data": "0x000000000000000000000000718b92b5cb0a5552039b593faf724d182a881eda00000000000000000000000000000000000000000000000000002df1477afb58",
          "blockHash": "0xd9b7bd555df80242bc2a20a59b3a584d3724f3f838793c6bbd603f6a3abd26bb",
          "blockNumber": "0x6e9cf0",
          "transactionHash": "0x155355026894d9e8e4f2846fc59771ccad2184a6a26039fac060287a3ba492aa",
          "transactionIndex": "0x3e",
          "logIndex": "0xa8",
          "removed": false
        },
        {
          "address": "0xcc1ae8cf5d3904cef3360a9532b477529b177cce",
          "topics": [
            "0x07ea52d82345d6e838192107d8fd7123d9c2ec8e916cd0aad13fd2b60db24644"
          ],
          "data": "0x000000000000000000000000000000000000000000000000000000000000006000000000000000000000000000000000000000000000000000000000000000a000000000000000000000000000000000000000000000000000000000000000c000000000000000000000000000000000000000000000000000000000000000010000000000000000000000008eebf8b423b73bfca51a1db4b7354aa0bfca91930000000000000000000000000000000000000000000000000000000000000000000000000000000000000000000000000000000000000000000000000000000100000000000000000000000000000000000000000000000000000261a01e3e7a",
          "blockHash": "0xd9b7bd555df80242bc2a20a59b3a584d3724f3f838793c6bbd603f6a3abd26bb",
          "blockNumber": "0x6e9cf0",
          "transactionHash": "0x155355026894d9e8e4f2846fc59771ccad2184a6a26039fac060287a3ba492aa",
          "transactionIndex": "0x3e",
          "logIndex": "0xa9",
          "removed": false
        },
        {
          "address": "0x6edce65403992e310a62460808c4b910d972f10f",
          "topics": [
            "0x1ab700d4ced0c005b164c0f789fd09fcbb0156d4c2041b8a3bfbcd961cd1567f"
          ],
          "data": "0x00000000000000000000000000000000000000000000000000000000000000600000000000000000000000000000000000000000000000000000000000000120000000000000000000000000cc1ae8cf5d3904cef3360a9532b477529b177cce000000000000000000000000000000000000000000000000000000000000009901000000000000000100009ce1000000000000000000000000859eba9f58873d9284ccd211611494ed9d84220400009d3500000000000000000000000003946287b52b88c8357e813fba3f472c60fae727c7be2749f8fc8f91565e4a0b71161d51b8c4aa7446827eea9e46b38754699a08000000000000000000000000de05a1abb121113a33eed248bd91ddc254d5e9db00000000000f424000000000000000000000000000000000000000000000000000000000000000000000000000001600030100110100000000000000000000000000030d4000000000000000000000",
          "blockHash": "0xd9b7bd555df80242bc2a20a59b3a584d3724f3f838793c6bbd603f6a3abd26bb",
          "blockNumber": "0x6e9cf0",
          "transactionHash": "0x155355026894d9e8e4f2846fc59771ccad2184a6a26039fac060287a3ba492aa",
          "transactionIndex": "0x3e",
          "logIndex": "0xaa",
          "removed": false
        },
        {
          "address": "0x859eba9f58873d9284ccd211611494ed9d842204",
          "topics": [
            "0xfff873bb909b73d08a8c1af4b21779e87103bb8ea8cf3b3a0067eb8526b8b80a",
            "0xc7be2749f8fc8f91565e4a0b71161d51b8c4aa7446827eea9e46b38754699a08",
            "0x0000000000000000000000008c9c001f821c04513616fd7962b2d8c62f925fd2"
          ],
          "data": "0x0000000000000000000000000000000000000000000000000000000000009d350000000000000000000000000000000000000000000000000de0b6b3a7640000",
          "blockHash": "0xd9b7bd555df80242bc2a20a59b3a584d3724f3f838793c6bbd603f6a3abd26bb",
          "blockNumber": "0x6e9cf0",
          "transactionHash": "0x155355026894d9e8e4f2846fc59771ccad2184a6a26039fac060287a3ba492aa",
          "transactionIndex": "0x3e",
          "logIndex": "0xab",
          "removed": false
        }
      ],
      "logsBloom": "0x000000000000000000000000000008000000000000000000300000000001000000000000000000002000000000808000000000000000000000000000000080000404000000000000000000080040000000000000000000000100000000000020000000000040000082000000000000000000000000000080000000100000000000000000000000200000000800000000000000000200000000000000200000000000000080000000001000000000000000000000004000000004c0000000008000000002000000000000000000000000000000280000000000000000000000000000040000000000000000000000002000000000000000000000000000000020",
      "type": "0x2",
      "transactionHash": "0x155355026894d9e8e4f2846fc59771ccad2184a6a26039fac060287a3ba492aa",
      "transactionIndex": "0x3e",
      "blockHash": "0xd9b7bd555df80242bc2a20a59b3a584d3724f3f838793c6bbd603f6a3abd26bb",
      "blockNumber": "0x6e9cf0",
      "gasUsed": "0x4e24f",
      "effectiveGasPrice": "0x3f34158fb",
      "from": "0x8c9c001f821c04513616fd7962b2d8c62f925fd2",
      "to": "0x859eba9f58873d9284ccd211611494ed9d842204",
      "contractAddress": null
    }
  ],
  "libraries": [],
  "pending": [],
  "returns": {},
  "timestamp": 1733819570,
  "chain": 11155111,
  "commit": "f9c0721"
}