{
  "transactions": [
    {
      "hash": "0x1ecb51ff29738abe0faad58443f12300caab2176d9be2f897df92845d9b88a96",
      "transactionType": "CALL",
      "contractName": "MocaToken",
      "contractAddress": "0xE8d8fC1eB5BAbDE5FccFD5EFB788f075738E1044",
      "function": "approve(address,uint256)",
      "arguments": [
        "0x23E086A3AD04E8dAb40c263FE18Fa1f32ED28FB7",
        "10000000000000000000"
      ],
      "transaction": {
        "type": "0x02",
        "from": "0x8c9c001f821c04513616fd7962b2d8c62f925fd2",
        "to": "0xe8d8fc1eb5babde5fccfd5efb788f075738e1044",
        "gas": "0x1090a",
        "value": "0x0",
        "data": "0x095ea7b300000000000000000000000023e086a3ad04e8dab40c263fe18fa1f32ed28fb70000000000000000000000000000000000000000000000008ac7230489e80000",
        "nonce": "0x40",
        "accessList": []
      },
      "additionalContracts": [],
      "isFixedGasLimit": false
    },
    {
      "hash": null,
      "transactionType": "CALL",
      "contractName": "MocaTokenAdapter",
      "contractAddress": "0x23E086A3AD04E8dAb40c263FE18Fa1f32ED28FB7",
      "function": "send((uint32,bytes32,uint256,uint256,bytes,bytes,bytes),(uint256,uint256),address)",
      "arguments": [
        "(30109, 0x0000000000000000000000008c9c001f821c04513616fd7962b2d8c62f925fd2, 1000000000000000000, 1000000000000000000, 0x, 0x, 0x)",
        "(158768768918950, 0)",
        "0x8C9C001F821c04513616fd7962B2D8c62f925fD2"
      ],
      "transaction": {
        "type": "0x02",
        "from": "0x8c9c001f821c04513616fd7962b2d8c62f925fd2",
        "to": "0x23e086a3ad04e8dab40c263fe18fa1f32ed28fb7",
        "gas": "0x796ad",
        "value": "0x90663c12a5a6",
        "data": "0xc7c7f5b30000000000000000000000000000000000000000000000000000000000000080000000000000000000000000000000000000000000000000000090663c12a5a600000000000000000000000000000000000000000000000000000000000000000000000000000000000000008c9c001f821c04513616fd7962b2d8c62f925fd2000000000000000000000000000000000000000000000000000000000000759d0000000000000000000000008c9c001f821c04513616fd7962b2d8c62f925fd20000000000000000000000000000000000000000000000000de0b6b3a76400000000000000000000000000000000000000000000000000000de0b6b3a764000000000000000000000000000000000000000000000000000000000000000000e000000000000000000000000000000000000000000000000000000000000001000000000000000000000000000000000000000000000000000000000000000120000000000000000000000000000000000000000000000000000000000000000000000000000000000000000000000000000000000000000000000000000000000000000000000000000000000000000000000000000000000000000000000000",
        "nonce": "0x41",
        "accessList": []
      },
      "additionalContracts": [],
      "isFixedGasLimit": false
    }
  ],
  "receipts": [],
  "libraries": [],
  "pending": [
    "0x1ecb51ff29738abe0faad58443f12300caab2176d9be2f897df92845d9b88a96"
  ],
  "returns": {},
  "timestamp": 1713248205,
  "chain": 1,
  "commit": "f9c0721"
}