{
  "transactions": [
    {
      "hash": "0x1666e28388b28c654f2bf504339fba734176ca716a4a87436f002d5a8932bfdf",
      "transactionType": "CALL",
      "contractName": "MocaTokenAdapter",
      "contractAddress": "0x23E086A3AD04E8dAb40c263FE18Fa1f32ED28FB7",
      "function": "setPeer(uint32,bytes32)",
      "arguments": [
        "30109",
        "0x000000000000000000000000fdf8c03cdbc1851bf5bd42a73f4fba8102f4b515"
      ],
      "transaction": {
        "type": "0x02",
        "from": "0x8c9c001f821c04513616fd7962b2d8c62f925fd2",
        "to": "0x23e086a3ad04e8dab40c263fe18fa1f32ed28fb7",
        "gas": "0x9edf",
        "value": "0x0",
        "data": "0x3400288b000000000000000000000000000000000000000000000000000000000000759d000000000000000000000000fdf8c03cdbc1851bf5bd42a73f4fba8102f4b515",
        "nonce": "0x3f",
        "accessList": []
      },
      "additionalContracts": [],
      "isFixedGasLimit": false
    }
  ],
  "receipts": [
    {
      "transactionHash": "0x1666e28388b28c654f2bf504339fba734176ca716a4a87436f002d5a8932bfdf",
      "transactionIndex": "0xd",
      "blockHash": "0x5cac11881e485b3f0b415956fa1269ad3097feb26fbd90110029e46d38a5db42",
      "blockNumber": "0x12bad06",
      "from": "0x8C9C001F821c04513616fd7962B2D8c62f925fD2",
      "to": "0x23E086A3AD04E8dAb40c263FE18Fa1f32ED28FB7",
      "cumulativeGasUsed": "0xfaf31",
      "gasUsed": "0x6ca2",
      "contractAddress": null,
      "logs": [
        {
          "address": "0x23E086A3AD04E8dAb40c263FE18Fa1f32ED28FB7",
          "topics": [
            "0x238399d427b947898edb290f5ff0f9109849b1c3ba196a42e35f00c50a54b98b"
          ],
          "data": "0x000000000000000000000000000000000000000000000000000000000000759d000000000000000000000000fdf8c03cdbc1851bf5bd42a73f4fba8102f4b515",
          "blockHash": "0x5cac11881e485b3f0b415956fa1269ad3097feb26fbd90110029e46d38a5db42",
          "blockNumber": "0x12bad06",
          "transactionHash": "0x1666e28388b28c654f2bf504339fba734176ca716a4a87436f002d5a8932bfdf",
          "transactionIndex": "0xd",
          "logIndex": "0x20",
          "removed": false
        }
      ],
      "status": "0x1",
      "logsBloom": "0x00000000000000000000000000000000000000000000000000000000000000000000000000000000000000000000040000000000000000000800000000000000000000000000000000000000000000000000000000000040000000000000000000000000000000000000000000000000000000000000000000000000000000000000000000000000000000000000000000000000000000000000000000000000080000000000000000000000000000000000000000000000000002000000000000000000000000000000000000000000000000000000000000040000000000000000000000000000000000000000000000000000000000000000000000000000",
      "type": "0x2",
      "effectiveGasPrice": "0x54ca76489"
    }
  ],
  "libraries": [],
  "pending": [],
  "returns": {},
  "timestamp": 1712925291,
  "chain": 1,
  "commit": "f9c0721"
}