{
  "transactions": [
    {
      "hash": "0x407286566f909c3d015a01b6ca15779afc25c588a3c93fb165ec33283be77b0f",
      "transactionType": "CALL",
      "contractName": "MocaToken",
      "contractAddress": "0xE8d8fC1eB5BAbDE5FccFD5EFB788f075738E1044",
      "function": "approve(address,uint256)",
      "arguments": [
        "0x23E086A3AD04E8dAb40c263FE18Fa1f32ED28FB7",
        "10000000000000000000"
      ],
      "transaction": {
        "type": "0x02",
        "from": "0x8c9c001f821c04513616fd7962b2d8c62f925fd2",
        "to": "0xe8d8fc1eb5babde5fccfd5efb788f075738e1044",
        "gas": "0x9e0d",
        "value": "0x0",
        "data": "0x095ea7b300000000000000000000000023e086a3ad04e8dab40c263fe18fa1f32ed28fb70000000000000000000000000000000000000000000000008ac7230489e80000",
        "nonce": "0x48",
        "accessList": []
      },
      "additionalContracts": [],
      "isFixedGasLimit": false
    },
    {
      "hash": "0x5beb0124a4674bcc440850dedb4fafe142c0baba1f57a180274cd197a12f509c",
      "transactionType": "CALL",
      "contractName": "MocaTokenAdapter",
      "contractAddress": "0x23E086A3AD04E8dAb40c263FE18Fa1f32ED28FB7",
      "function": "send((uint32,bytes32,uint256,uint256,bytes,bytes,bytes),(uint256,uint256),address)",
      "arguments": [
        "(30109, 0x0000000000000000000000008c9c001f821c04513616fd7962b2d8c62f925fd2, 1000000000000000000, 1000000000000000000, 0x, 0x, 0x)",
        "(158768768918950, 0)",
        "0x8C9C001F821c04513616fd7962B2D8c62f925fD2"
      ],
      "transaction": {
        "type": "0x02",
        "from": "0x8c9c001f821c04513616fd7962b2d8c62f925fd2",
        "to": "0x23e086a3ad04e8dab40c263fe18fa1f32ed28fb7",
        "gas": "0x78758",
        "value": "0x90663c12a5a6",
        "data": "0xc7c7f5b30000000000000000000000000000000000000000000000000000000000000080000000000000000000000000000000000000000000000000000090663c12a5a600000000000000000000000000000000000000000000000000000000000000000000000000000000000000008c9c001f821c04513616fd7962b2d8c62f925fd2000000000000000000000000000000000000000000000000000000000000759d0000000000000000000000008c9c001f821c04513616fd7962b2d8c62f925fd20000000000000000000000000000000000000000000000000de0b6b3a76400000000000000000000000000000000000000000000000000000de0b6b3a764000000000000000000000000000000000000000000000000000000000000000000e000000000000000000000000000000000000000000000000000000000000001000000000000000000000000000000000000000000000000000000000000000120000000000000000000000000000000000000000000000000000000000000000000000000000000000000000000000000000000000000000000000000000000000000000000000000000000000000000000000000000000000000000000000000",
        "nonce": "0x49",
        "accessList": []
      },
      "additionalContracts": [],
      "isFixedGasLimit": false
    }
  ],
  "receipts": [
    {
      "transactionHash": "0x407286566f909c3d015a01b6ca15779afc25c588a3c93fb165ec33283be77b0f",
      "transactionIndex": "0x23",
      "blockHash": "0xaa45435a49d8f9b138c80ffc5bef98dbb582328e0fbe341924ce36d4c12af59e",
      "blockNumber": "0x12c193b",
      "from": "0x8C9C001F821c04513616fd7962B2D8c62f925fD2",
      "to": "0xE8d8fC1eB5BAbDE5FccFD5EFB788f075738E1044",
      "cumulativeGasUsed": "0x634543",
      "gasUsed": "0x726e",
      "contractAddress": null,
      "logs": [
        {
          "address": "0xE8d8fC1eB5BAbDE5FccFD5EFB788f075738E1044",
          "topics": [
            "0x8c5be1e5ebec7d5bd14f71427d1e84f3dd0314c0f7b2291e5b200ac8c7c3b925",
            "0x0000000000000000000000008c9c001f821c04513616fd7962b2d8c62f925fd2",
            "0x00000000000000000000000023e086a3ad04e8dab40c263fe18fa1f32ed28fb7"
          ],
          "data": "0x0000000000000000000000000000000000000000000000008ac7230489e80000",
          "blockHash": "0xaa45435a49d8f9b138c80ffc5bef98dbb582328e0fbe341924ce36d4c12af59e",
          "blockNumber": "0x12c193b",
          "transactionHash": "0x407286566f909c3d015a01b6ca15779afc25c588a3c93fb165ec33283be77b0f",
          "transactionIndex": "0x23",
          "logIndex": "0x7e",
          "removed": false
        }
      ],
      "status": "0x1",
      "logsBloom": "0x000000000000000000000000000008000000000000000000004000000000000000000000000000000000000000000c0000000000000000000000000000200000000000000000000000000000004000000020000000000000000000000000000000000000000000000000000000000000000000000000000000000000000000100000000000000000000000000000000000000000000000000000000000000000020000000000000000000000000000000000000000000000000080000000000000000000000000000000000000000040000000000000000000000000000000000010000000000000000000000000000000000000000000000000000000000000",
      "type": "0x2",
      "effectiveGasPrice": "0x2d8d9621a"
    },
    {
      "transactionHash": "0x5beb0124a4674bcc440850dedb4fafe142c0baba1f57a180274cd197a12f509c",
      "transactionIndex": "0x12",
      "blockHash": "0xb652987c1e98f95ddbfce9388d493c0d7284c9edb19387b327b076f4235ca11a",
      "blockNumber": "0x12c193c",
      "from": "0x8C9C001F821c04513616fd7962B2D8c62f925fD2",
      "to": "0x23E086A3AD04E8dAb40c263FE18Fa1f32ED28FB7",
      "cumulativeGasUsed": "0x1dc4ef",
      "gasUsed": "0x5735e",
      "contractAddress": null,
      "logs": [
        {
          "address": "0xE8d8fC1eB5BAbDE5FccFD5EFB788f075738E1044",
          "topics": [
            "0xddf252ad1be2c89b69c2b068fc378daa952ba7f163c4a11628f55a4df523b3ef",
            "0x0000000000000000000000008c9c001f821c04513616fd7962b2d8c62f925fd2",
            "0x00000000000000000000000023e086a3ad04e8dab40c263fe18fa1f32ed28fb7"
          ],
          "data": "0x0000000000000000000000000000000000000000000000000de0b6b3a7640000",
          "blockHash": "0xb652987c1e98f95ddbfce9388d493c0d7284c9edb19387b327b076f4235ca11a",
          "blockNumber": "0x12c193c",
          "transactionHash": "0x5beb0124a4674bcc440850dedb4fafe142c0baba1f57a180274cd197a12f509c",
          "transactionIndex": "0x12",
          "logIndex": "0x2d",
          "removed": false
        },
        {
          "address": "0xbB2Ea70C9E858123480642Cf96acbcCE1372dCe1",
          "topics": [
            "0x61ed099e74a97a1d7f8bb0952a88ca8b7b8ebd00c126ea04671f92a81213318a"
          ],
          "data": "0x000000000000000000000000173272739bd7aa6e4e214714048a9fe69945305900000000000000000000000000000000000000000000000000007d8e0d595478",
          "blockHash": "0xb652987c1e98f95ddbfce9388d493c0d7284c9edb19387b327b076f4235ca11a",
          "blockNumber": "0x12c193c",
          "transactionHash": "0x5beb0124a4674bcc440850dedb4fafe142c0baba1f57a180274cd197a12f509c",
          "transactionIndex": "0x12",
          "logIndex": "0x2e",
          "removed": false
        },
        {
          "address": "0xbB2Ea70C9E858123480642Cf96acbcCE1372dCe1",
          "topics": [
            "0x07ea52d82345d6e838192107d8fd7123d9c2ec8e916cd0aad13fd2b60db24644"
          ],
          "data": "0x0000000000000000000000000000000000000000000000000000000000000060000000000000000000000000000000000000000000000000000000000000010000000000000000000000000000000000000000000000000000000000000001200000000000000000000000000000000000000000000000000000000000000004000000000000000000000000589dedbd617e0cbcb916a9223f4d1300c294236b0000000000000000000000007e65bdd15c8db8995f80abf0d6593b57dc8be437000000000000000000000000a59ba433ac34d2927232918ef5b2eaafcf130ba5000000000000000000000000d56e4eab23cb81f43168f9f45211eb027b9ac7cc00000000000000000000000000000000000000000000000000000000000000000000000000000000000000000000000000000000000000000000000000000004000000000000000000000000000000000000000000000000000004bd550cbd41000000000000000000000000000000000000000000000000000004aec24feb56000000000000000000000000000000000000000000000000000004aec24feb56000000000000000000000000000000000000000000000000000004bd550cbd41",
          "blockHash": "0xb652987c1e98f95ddbfce9388d493c0d7284c9edb19387b327b076f4235ca11a",
          "blockNumber": "0x12c193c",
          "transactionHash": "0x5beb0124a4674bcc440850dedb4fafe142c0baba1f57a180274cd197a12f509c",
          "transactionIndex": "0x12",
          "logIndex": "0x2f",
          "removed": false
        },
        {
          "address": "0x1a44076050125825900e736c501f859c50fE728c",
          "topics": [
            "0x1ab700d4ced0c005b164c0f789fd09fcbb0156d4c2041b8a3bfbcd961cd1567f"
          ],
          "data": "0x00000000000000000000000000000000000000000000000000000000000000600000000000000000000000000000000000000000000000000000000000000120000000000000000000000000bb2ea70c9e858123480642cf96acbcce1372dce1000000000000000000000000000000000000000000000000000000000000009901000000000000000d0000759500000000000000000000000023e086a3ad04e8dab40c263fe18fa1f32ed28fb70000759d000000000000000000000000fdf8c03cdbc1851bf5bd42a73f4fba8102f4b515fdf9008660d132c1e8b47e7c0165ec19a60f19268e8c31b183b0578c210e060f0000000000000000000000008c9c001f821c04513616fd7962b2d8c62f925fd200000000000f424000000000000000000000000000000000000000000000000000000000000000000000000000001600030100110100000000000000000000000000030d4000000000000000000000",
          "blockHash": "0xb652987c1e98f95ddbfce9388d493c0d7284c9edb19387b327b076f4235ca11a",
          "blockNumber": "0x12c193c",
          "transactionHash": "0x5beb0124a4674bcc440850dedb4fafe142c0baba1f57a180274cd197a12f509c",
          "transactionIndex": "0x12",
          "logIndex": "0x30",
          "removed": false
        },
        {
          "address": "0x23E086A3AD04E8dAb40c263FE18Fa1f32ED28FB7",
          "topics": [
            "0xfff873bb909b73d08a8c1af4b21779e87103bb8ea8cf3b3a0067eb8526b8b80a",
            "0xfdf9008660d132c1e8b47e7c0165ec19a60f19268e8c31b183b0578c210e060f",
            "0x0000000000000000000000008c9c001f821c04513616fd7962b2d8c62f925fd2"
          ],
          "data": "0x000000000000000000000000000000000000000000000000000000000000759d0000000000000000000000000000000000000000000000000de0b6b3a7640000",
          "blockHash": "0xb652987c1e98f95ddbfce9388d493c0d7284c9edb19387b327b076f4235ca11a",
          "blockNumber": "0x12c193c",
          "transactionHash": "0x5beb0124a4674bcc440850dedb4fafe142c0baba1f57a180274cd197a12f509c",
          "transactionIndex": "0x12",
          "logIndex": "0x31",
          "removed": false
        }
      ],
      "status": "0x1",
      "logsBloom": "0x00000000000000000000000000000800000000000000000030c000000010000004000000000000000000000000800c00000000000000000000000000000000000000000000000000000000080040000000202000000000400000000000000000000000000000000080000000000000000000000000100000000000100000001000000000000000020010000800000000000000000000000000000800000000000800000080000000001000000000000000000000004000000004c0000000000000000002000000000000000000000040000000000000000000000000000000000000040000000000000000000000002000000000010000000000000000000000",
      "type": "0x2",
      "effectiveGasPrice": "0x2cf14b880"
    }
  ],
  "libraries": [],
  "pending": [],
  "returns": {},
  "timestamp": 1713261006,
  "chain": 1,
  "commit": "f9c0721"
}