{
  "transactions": [
    {
      "hash": "0xf0ab53107f53d49cec59a8cb0db992c5fa2cbfb8c551123e46e2bf39ffc8b4e9",
      "transactionType": "CALL",
      "contractName": "MocaTokenAdapter",
      "contractAddress": "0x23E086A3AD04E8dAb40c263FE18Fa1f32ED28FB7",
      "function": "send((uint32,bytes32,uint256,uint256,bytes,bytes,bytes),(uint256,uint256),address)",
      "arguments": [
        "(30109, 0x0000000000000000000000008c9c001f821c04513616fd7962b2d8c62f925fd2, 1000000000000000000, 1000000000000000000, 0x, 0x, 0x)",
        "(161299733057549, 0)",
        "0x8C9C001F821c04513616fd7962B2D8c62f925fD2"
      ],
      "transaction": {
        "type": "0x02",
        "from": "0x8c9c001f821c04513616fd7962b2d8c62f925fd2",
        "to": "0x23e086a3ad04e8dab40c263fe18fa1f32ed28fb7",
        "gas": "0x76d72",
        "value": "0x92b3854a900d",
        "data": "0xc7c7f5b30000000000000000000000000000000000000000000000000000000000000080000000000000000000000000000000000000000000000000000092b3854a900d00000000000000000000000000000000000000000000000000000000000000000000000000000000000000008c9c001f821c04513616fd7962b2d8c62f925fd2000000000000000000000000000000000000000000000000000000000000759d0000000000000000000000008c9c001f821c04513616fd7962b2d8c62f925fd20000000000000000000000000000000000000000000000000de0b6b3a76400000000000000000000000000000000000000000000000000000de0b6b3a764000000000000000000000000000000000000000000000000000000000000000000e000000000000000000000000000000000000000000000000000000000000001000000000000000000000000000000000000000000000000000000000000000120000000000000000000000000000000000000000000000000000000000000000000000000000000000000000000000000000000000000000000000000000000000000000000000000000000000000000000000000000000000000000000000000",
        "nonce": "0x3d",
        "accessList": []
      },
      "additionalContracts": [],
      "isFixedGasLimit": false
    }
  ],
  "receipts": [
    {
      "transactionHash": "0xf0ab53107f53d49cec59a8cb0db992c5fa2cbfb8c551123e46e2bf39ffc8b4e9",
      "transactionIndex": "0xe",
      "blockHash": "0xc874dd83576c44fcbd1f89c2dc777b891e67f58e56a6d42ec87267d1974bbe41",
      "blockNumber": "0x12bace3",
      "from": "0x8C9C001F821c04513616fd7962B2D8c62f925fD2",
      "to": "0x23E086A3AD04E8dAb40c263FE18Fa1f32ED28FB7",
      "cumulativeGasUsed": "0x1406d9",
      "gasUsed": "0x5609e",
      "contractAddress": null,
      "logs": [
        {
          "address": "0xE8d8fC1eB5BAbDE5FccFD5EFB788f075738E1044",
          "topics": [
            "0xddf252ad1be2c89b69c2b068fc378daa952ba7f163c4a11628f55a4df523b3ef",
            "0x0000000000000000000000008c9c001f821c04513616fd7962b2d8c62f925fd2",
            "0x00000000000000000000000023e086a3ad04e8dab40c263fe18fa1f32ed28fb7"
          ],
          "data": "0x0000000000000000000000000000000000000000000000000de0b6b3a7640000",
          "blockHash": "0xc874dd83576c44fcbd1f89c2dc777b891e67f58e56a6d42ec87267d1974bbe41",
          "blockNumber": "0x12bace3",
          "transactionHash": "0xf0ab53107f53d49cec59a8cb0db992c5fa2cbfb8c551123e46e2bf39ffc8b4e9",
          "transactionIndex": "0xe",
          "logIndex": "0x17",
          "removed": false
        },
        {
          "address": "0xbB2Ea70C9E858123480642Cf96acbcCE1372dCe1",
          "topics": [
            "0x61ed099e74a97a1d7f8bb0952a88ca8b7b8ebd00c126ea04671f92a81213318a"
          ],
          "data": "0x000000000000000000000000173272739bd7aa6e4e214714048a9fe6994530590000000000000000000000000000000000000000000000000000752d7cb3762b",
          "blockHash": "0xc874dd83576c44fcbd1f89c2dc777b891e67f58e56a6d42ec87267d1974bbe41",
          "blockNumber": "0x12bace3",
          "transactionHash": "0xf0ab53107f53d49cec59a8cb0db992c5fa2cbfb8c551123e46e2bf39ffc8b4e9",
          "transactionIndex": "0xe",
          "logIndex": "0x18",
          "removed": false
        },
        {
          "address": "0xbB2Ea70C9E858123480642Cf96acbcCE1372dCe1",
          "topics": [
            "0x07ea52d82345d6e838192107d8fd7123d9c2ec8e916cd0aad13fd2b60db24644"
          ],
          "data": "0x0000000000000000000000000000000000000000000000000000000000000060000000000000000000000000000000000000000000000000000000000000010000000000000000000000000000000000000000000000000000000000000001200000000000000000000000000000000000000000000000000000000000000004000000000000000000000000589dedbd617e0cbcb916a9223f4d1300c294236b0000000000000000000000007e65bdd15c8db8995f80abf0d6593b57dc8be437000000000000000000000000a59ba433ac34d2927232918ef5b2eaafcf130ba5000000000000000000000000d56e4eab23cb81f43168f9f45211eb027b9ac7cc000000000000000000000000000000000000000000000000000000000000000000000000000000000000000000000000000000000000000000000000000000040000000000000000000000000000000000000000000000000000076cec9da1320000000000000000000000000000000000000000000000000000075617adebbf0000000000000000000000000000000000000000000000000000075617adebbf0000000000000000000000000000000000000000000000000000076cec9da132",
          "blockHash": "0xc874dd83576c44fcbd1f89c2dc777b891e67f58e56a6d42ec87267d1974bbe41",
          "blockNumber": "0x12bace3",
          "transactionHash": "0xf0ab53107f53d49cec59a8cb0db992c5fa2cbfb8c551123e46e2bf39ffc8b4e9",
          "transactionIndex": "0xe",
          "logIndex": "0x19",
          "removed": false
        },
        {
          "address": "0x1a44076050125825900e736c501f859c50fE728c",
          "topics": [
            "0x1ab700d4ced0c005b164c0f789fd09fcbb0156d4c2041b8a3bfbcd961cd1567f"
          ],
          "data": "0x00000000000000000000000000000000000000000000000000000000000000600000000000000000000000000000000000000000000000000000000000000120000000000000000000000000bb2ea70c9e858123480642cf96acbcce1372dce1000000000000000000000000000000000000000000000000000000000000009901000000000000000b0000759500000000000000000000000023e086a3ad04e8dab40c263fe18fa1f32ed28fb70000759d000000000000000000000000fdf8c03cdbc1851bf5bd42a73f4fba8102f4b51577ae21bc3c062eee04c7766163637cc9d3ee561c869866d6502d93acf323ae730000000000000000000000008c9c001f821c04513616fd7962b2d8c62f925fd200000000000f424000000000000000000000000000000000000000000000000000000000000000000000000000001600030100110100000000000000000000000000030d4000000000000000000000",
          "blockHash": "0xc874dd83576c44fcbd1f89c2dc777b891e67f58e56a6d42ec87267d1974bbe41",
          "blockNumber": "0x12bace3",
          "transactionHash": "0xf0ab53107f53d49cec59a8cb0db992c5fa2cbfb8c551123e46e2bf39ffc8b4e9",
          "transactionIndex": "0xe",
          "logIndex": "0x1a",
          "removed": false
        },
        {
          "address": "0x23E086A3AD04E8dAb40c263FE18Fa1f32ED28FB7",
          "topics": [
            "0xfff873bb909b73d08a8c1af4b21779e87103bb8ea8cf3b3a0067eb8526b8b80a",
            "0x77ae21bc3c062eee04c7766163637cc9d3ee561c869866d6502d93acf323ae73",
            "0x0000000000000000000000008c9c001f821c04513616fd7962b2d8c62f925fd2"
          ],
          "data": "0x000000000000000000000000000000000000000000000000000000000000759d0000000000000000000000000000000000000000000000000de0b6b3a7640000",
          "blockHash": "0xc874dd83576c44fcbd1f89c2dc777b891e67f58e56a6d42ec87267d1974bbe41",
          "blockNumber": "0x12bace3",
          "transactionHash": "0xf0ab53107f53d49cec59a8cb0db992c5fa2cbfb8c551123e46e2bf39ffc8b4e9",
          "transactionIndex": "0xe",
          "logIndex": "0x1b",
          "removed": false
        }
      ],
      "status": "0x1",
      "logsBloom": "0x000000000000000000000000000008000000000000000000304000000010000004000000000000008000000000800c00000000000000000000000000000000000000000000000000000000080040000000202000000000400000000000000000000000000000000080000000000000008000000000100000000000100000001000000000000000000010001800000000000000000000000000000000000000000800000080000000001000000000000000000000004000000004c0000000000000000002000000000000000000000040000000000000000000000000000000000000040000000000000000000000002000000000010000000000000000000000",
      "type": "0x2",
      "effectiveGasPrice": "0x5031b049f"
    }
  ],
  "libraries": [],
  "pending": [],
  "returns": {},
  "timestamp": 1712924870,
  "chain": 1,
  "commit": "f9c0721"
}