{
  "transactions": [
    {
      "hash": "0xe79527277658dbebd8a6a738d527e4dffd1c30fef815fb69729fe541fda445b3",
      "transactionType": "CALL",
      "contractName": "MocaTokenAdapter",
      "contractAddress": "0x23E086A3AD04E8dAb40c263FE18Fa1f32ED28FB7",
      "function": "setPeer(uint32,bytes32)",
      "arguments": [
        "30109",
        "0x000000000000000000000000fdf8c03cdbc1851bf5bd42a73f4fba8102f4b515"
      ],
      "transaction": {
        "type": "0x02",
        "from": "0x8c9c001f821c04513616fd7962b2d8c62f925fd2",
        "to": "0x23e086a3ad04e8dab40c263fe18fa1f32ed28fb7",
        "gas": "0x9edf",
        "value": "0x0",
        "data": "0x3400288b000000000000000000000000000000000000000000000000000000000000759d000000000000000000000000fdf8c03cdbc1851bf5bd42a73f4fba8102f4b515",
        "nonce": "0x4c",
        "accessList": []
      },
      "additionalContracts": [],
      "isFixedGasLimit": false
    }
  ],
  "receipts": [
    {
      "transactionHash": "0xe79527277658dbebd8a6a738d527e4dffd1c30fef815fb69729fe541fda445b3",
      "transactionIndex": "0x16",
      "blockHash": "0x37d061bffd7fe23bee62cbf4f4db3e7925a3de9c5fec628ce3d66f9f2aa63a26",
      "blockNumber": "0x12c196b",
      "from": "0x8C9C001F821c04513616fd7962B2D8c62f925fD2",
      "to": "0x23E086A3AD04E8dAb40c263FE18Fa1f32ED28FB7",
      "cumulativeGasUsed": "0x164ba3",
      "gasUsed": "0x6ca2",
      "contractAddress": null,
      "logs": [
        {
          "address": "0x23E086A3AD04E8dAb40c263FE18Fa1f32ED28FB7",
          "topics": [
            "0x238399d427b947898edb290f5ff0f9109849b1c3ba196a42e35f00c50a54b98b"
          ],
          "data": "0x000000000000000000000000000000000000000000000000000000000000759d000000000000000000000000fdf8c03cdbc1851bf5bd42a73f4fba8102f4b515",
          "blockHash": "0x37d061bffd7fe23bee62cbf4f4db3e7925a3de9c5fec628ce3d66f9f2aa63a26",
          "blockNumber": "0x12c196b",
          "transactionHash": "0xe79527277658dbebd8a6a738d527e4dffd1c30fef815fb69729fe541fda445b3",
          "transactionIndex": "0x16",
          "logIndex": "0x2e",
          "removed": false
        }
      ],
      "status": "0x1",
      "logsBloom": "0x00000000000000000000000000000000000000000000000000000000000000000000000000000000000000000000040000000000000000000800000000000000000000000000000000000000000000000000000000000040000000000000000000000000000000000000000000000000000000000000000000000000000000000000000000000000000000000000000000000000000000000000000000000000080000000000000000000000000000000000000000000000000002000000000000000000000000000000000000000000000000000000000000040000000000000000000000000000000000000000000000000000000000000000000000000000",
      "type": "0x2",
      "effectiveGasPrice": "0x2ea6a5f69"
    }
  ],
  "libraries": [],
  "pending": [],
  "returns": {},
  "timestamp": 1713261576,
  "chain": 1,
  "commit": "f9c0721"
}