{
  "transactions": [
    {
      "hash": "0x1f563ef20f012c5fd3c89fbadd6f2a20786f9c89134867e9e580a841d7dd0cad",
      "transactionType": "CALL",
      "contractName": "MocaTokenAdapter",
      "contractAddress": "0x23E086A3AD04E8dAb40c263FE18Fa1f32ED28FB7",
      "function": "resetPeer(uint32)",
      "arguments": [
        "30109"
      ],
      "transaction": {
        "type": "0x02",
        "from": "0x8c9c001f821c04513616fd7962b2d8c62f925fd2",
        "to": "0x23e086a3ad04e8dab40c263fe18fa1f32ed28fb7",
        "gas": "0x94c3",
        "value": "0x0",
        "data": "0xa1aed37c000000000000000000000000000000000000000000000000000000000000759d",
        "nonce": "0x33",
        "accessList": []
      },
      "additionalContracts": [],
      "isFixedGasLimit": false
    }
  ],
  "receipts": [
    {
      "transactionHash": "0x1f563ef20f012c5fd3c89fbadd6f2a20786f9c89134867e9e580a841d7dd0cad",
      "transactionIndex": "0x28",
      "blockHash": "0x7dc1b09c1863030bf943a2d43d817277388efe0ffcad4db3fc9bdc05423586df",
      "blockNumber": "0x12babd6",
      "from": "0x8C9C001F821c04513616fd7962B2D8c62f925fD2",
      "to": "0x23E086A3AD04E8dAb40c263FE18Fa1f32ED28FB7",
      "cumulativeGasUsed": "0x57b5b0",
      "gasUsed": "0x6bb4",
      "contractAddress": null,
      "logs": [
        {
          "address": "0x23E086A3AD04E8dAb40c263FE18Fa1f32ED28FB7",
          "topics": [
            "0x238399d427b947898edb290f5ff0f9109849b1c3ba196a42e35f00c50a54b98b"
          ],
          "data": "0x000000000000000000000000000000000000000000000000000000000000759d0000000000000000000000000000000000000000000000000000000000000000",
          "blockHash": "0x7dc1b09c1863030bf943a2d43d817277388efe0ffcad4db3fc9bdc05423586df",
          "blockNumber": "0x12babd6",
          "transactionHash": "0x1f563ef20f012c5fd3c89fbadd6f2a20786f9c89134867e9e580a841d7dd0cad",
          "transactionIndex": "0x28",
          "logIndex": "0xc9",
          "removed": false
        }
      ],
      "status": "0x1",
      "logsBloom": "0x00000000000000000000000000000000000000000000000000000000000000000000000000000000000000000000040000000000000000000800000000000000000000000000000000000000000000000000000000000040000000000000000000000000000000000000000000000000000000000000000000000000000000000000000000000000000000000000000000000000000000000000000000000000080000000000000000000000000000000000000000000000000002000000000000000000000000000000000000000000000000000000000000040000000000000000000000000000000000000000000000000000000000000000000000000000",
      "type": "0x2",
      "effectiveGasPrice": "0x3859b23ff"
    }
  ],
  "libraries": [],
  "pending": [],
  "returns": {},
  "timestamp": 1712921585,
  "chain": 1,
  "commit": "f9c0721"
}