{
  "transactions": [
    {
      "hash": "0x12c1057d21f1a74edbd674e76c61b06f8165e89ab6491e172f624144b9919602",
      "transactionType": "CALL",
      "contractName": null,
      "contractAddress": "0x03946287b52b88c8357e813fba3f472c60fae727",
      "function": "setOutboundLimit(uint32,uint256)",
      "arguments": [
        "40161",
        "10000000000000000000000000"
      ],
      "transaction": {
        "from": "0x8c9c001f821c04513616fd7962b2d8c62f925fd2",
        "to": "0x03946287b52b88c8357e813fba3f472c60fae727",
        "gas": "0xae7f",
        "value": "0x0",
        "input": "0x65d28a6b0000000000000000000000000000000000000000000000000000000000009ce1000000000000000000000000000000000000000000084595161401484a000000",
        "nonce": "0xd8",
        "chainId": "0x14a34"
      },
      "additionalContracts": [],
      "isFixedGasLimit": false
    },
    {
      "hash": "0xb69607fff6b0f53330f831880db313a225c6e5505fb568edc68a9583b2263b57",
      "transactionType": "CALL",
      "contractName": null,
      "contractAddress": "0x03946287b52b88c8357e813fba3f472c60fae727",
      "function": "setInboundLimit(uint32,uint256)",
      "arguments": [
        "40161",
        "10000000000000000000000000"
      ],
      "transaction": {
        "from": "0x8c9c001f821c04513616fd7962b2d8c62f925fd2",
        "to": "0x03946287b52b88c8357e813fba3f472c60fae727",
        "gas": "0xa50b",
        "value": "0x0",
        "input": "0x9a2fe9e40000000000000000000000000000000000000000000000000000000000009ce1000000000000000000000000000000000000000000084595161401484a000000",
        "nonce": "0xd9",
        "chainId": "0x14a34"
      },
      "additionalContracts": [],
      "isFixedGasLimit": false
    }
  ],
  "receipts": [
    {
      "status": "0x1",
      "cumulativeGasUsed": "0x5ca0da",
      "logs": [
        {
          "address": "0x03946287b52b88c8357e813fba3f472c60fae727",
          "topics": [
            "0x7628c1599617e8f71acfbf363d8064a2a32bdb6e63e074de3250cab57047bf79",
            "0x0000000000000000000000000000000000000000000000000000000000009ce1"
          ],
          "data": "0x000000000000000000000000000000000000000000084595161401484a000000",
          "blockHash": "0x1926fb20ef3600f365caadebccdaf9a0b468dfd6b113db28b8af4df1fcbfd123",
          "blockNumber": "0x162bf19",
          "transactionHash": "0x12c1057d21f1a74edbd674e76c61b06f8165e89ab6491e172f624144b9919602",
          "transactionIndex": "0x1c",
          "logIndex": "0x78",
          "removed": false
        }
      ],
      "logsBloom": "0x00000000000000000000000000000000000000000000000000000000000000000000000000000000000000000000000000000000000000000000000000000000000000000000000000000000000000000000000000000000000000000000800000000000000000000000000000800000000000100000000000000000000010000000000000000000000000000000000000000000000000000000002000000000000000000000000000020000000000000000000000000000000000000000000000000000000000000000000000080000000000000000008000000000000000000000000000000000000000000000000200000000000000000000000000000000",
      "type": "0x2",
      "transactionHash": "0x12c1057d21f1a74edbd674e76c61b06f8165e89ab6491e172f624144b9919602",
      "transactionIndex": "0x1c",
      "blockHash": "0x1926fb20ef3600f365caadebccdaf9a0b468dfd6b113db28b8af4df1fcbfd123",
      "blockNumber": "0x162bf19",
      "gasUsed": "0x7751",
      "effectiveGasPrice": "0x8e7e52",
      "from": "0x8c9c001f821c04513616fd7962b2d8c62f925fd2",
      "to": "0x03946287b52b88c8357e813fba3f472c60fae727",
      "contractAddress": null,
      "l1BaseFeeScalar": "0x44d",
      "l1BlobBaseFee": "0x1",
      "l1BlobBaseFeeScalar": "0xa118b",
      "l1Fee": "0x65626b",
      "l1GasPrice": "0x398d4a",
      "l1GasUsed": "0x640"
    },
    {
      "status": "0x1",
      "cumulativeGasUsed": "0x70cf46",
      "logs": [
        {
          "address": "0x03946287b52b88c8357e813fba3f472c60fae727",
          "topics": [
            "0x9cc3784ef7ab64c61f0abf58d72c2a40ef45b319db540006be0aa3e4610b8433",
            "0x0000000000000000000000000000000000000000000000000000000000009ce1"
          ],
          "data": "0x000000000000000000000000000000000000000000084595161401484a000000",
          "blockHash": "0x1926fb20ef3600f365caadebccdaf9a0b468dfd6b113db28b8af4df1fcbfd123",
          "blockNumber": "0x162bf19",
          "transactionHash": "0xb69607fff6b0f53330f831880db313a225c6e5505fb568edc68a9583b2263b57",
          "transactionIndex": "0x23",
          "logIndex": "0x97",
          "removed": false
        }
      ],
      "logsBloom": "0x00000000000000000000000000000000000000000000000000000000000000000000000000000000000000000000000000000000000000000001000000000000000000000000000000000000000000000000000000000000000000000000000000000000000000000000000000800000000000100000000000000000000010000000000000000000000000000000000000000000000000000000002000008000000000000000000004020000000000000000000000000000000000000000000000000000000000000000000000000000000000000000000000000000000000000000000000000000000000000000000200000000000000000000000000000000",
      "type": "0x2",
      "transactionHash": "0xb69607fff6b0f53330f831880db313a225c6e5505fb568edc68a9583b2263b57",
      "transactionIndex": "0x23",
      "blockHash": "0x1926fb20ef3600f365caadebccdaf9a0b468dfd6b113db28b8af4df1fcbfd123",
      "blockNumber": "0x162bf19",
      "gasUsed": "0x777e",
      "effectiveGasPrice": "0x8e7e52",
      "from": "0x8c9c001f821c04513616fd7962b2d8c62f925fd2",
      "to": "0x03946287b52b88c8357e813fba3f472c60fae727",
      "contractAddress": null,
      "l1BaseFeeScalar": "0x44d",
      "l1BlobBaseFee": "0x1",
      "l1BlobBaseFeeScalar": "0xa118b",
      "l1Fee": "0x65626b",
      "l1GasPrice": "0x398d4a",
      "l1GasUsed": "0x640"
    }
  ],
  "libraries": [],
  "pending": [],
  "returns": {},
  "timestamp": 1742265619,
  "chain": 84532,
  "commit": "abe79db"
}