{
  "transactions": [
    {
      "hash": "0x18beedb5f2d850dd2fdcc77f351812d280ab40b1734582e4a4786407ba34704a",
      "transactionType": "CALL",
      "contractName": null,
      "contractAddress": "0x03946287b52b88c8357e813fba3f472c60fae727",
      "function": "setPeer(uint32,bytes32)",
      "arguments": [
        "40161",
        "0x000000000000000000000000859eba9f58873d9284ccd211611494ed9d842204"
      ],
      "transaction": {
        "from": "0x8c9c001f821c04513616fd7962b2d8c62f925fd2",
        "to": "0x03946287b52b88c8357e813fba3f472c60fae727",
        "gas": "0x1016a",
        "value": "0x0",
        "input": "0x3400288b0000000000000000000000000000000000000000000000000000000000009ce1000000000000000000000000859eba9f58873d9284ccd211611494ed9d842204",
        "nonce": "0x11",
        "chainId": "0x14a34"
      },
      "additionalContracts": [],
      "isFixedGasLimit": false
    }
  ],
  "receipts": [
    {
      "status": "0x1",
      "cumulativeGasUsed": "0x16bb8c",
      "logs": [
        {
          "address": "0x03946287b52b88c8357e813fba3f472c60fae727",
          "topics": [
            "0x238399d427b947898edb290f5ff0f9109849b1c3ba196a42e35f00c50a54b98b"
          ],
          "data": "0x0000000000000000000000000000000000000000000000000000000000009ce1000000000000000000000000859eba9f58873d9284ccd211611494ed9d842204",
          "blockHash": "0xf7a5fb6f9718f9f28452e353d913498d94229a462e5a16910775d2c68eb8108e",
          "blockNumber": "0x1224e2b",
          "transactionHash": "0x18beedb5f2d850dd2fdcc77f351812d280ab40b1734582e4a4786407ba34704a",
          "transactionIndex": "0x3",
          "logIndex": "0x9",
          "removed": false
        }
      ],
      "logsBloom": "0x00000000000000000000000000000000000000000000000000000000000000000000000000000000000000000000000000000000000000000800000000000000000000000000000000000000000000000000000000000000000000000000000000000000000000000000000000000000000000000000000000000000000010000000000000000000000000000000000000000000000000000000002000000000000000000000000000020000000000000000000000000000000002000000000000000000000000000000000000000000000000000000000000040000000000000000000000000000000000000000000000000000000000000000000000000000",
      "type": "0x2",
      "transactionHash": "0x18beedb5f2d850dd2fdcc77f351812d280ab40b1734582e4a4786407ba34704a",
      "transactionIndex": "0x3",
      "blockHash": "0xf7a5fb6f9718f9f28452e353d913498d94229a462e5a16910775d2c68eb8108e",
      "blockNumber": "0x1224e2b",
      "gasUsed": "0xba5e",
      "effectiveGasPrice": "0x187be",
      "from": "0x8c9c001f821c04513616fd7962b2d8c62f925fd2",
      "to": "0x03946287b52b88c8357e813fba3f472c60fae727",
      "contractAddress": null,
      "l1BaseFeeScalar": "0x44d",
      "l1BlobBaseFee": "0xd",
      "l1BlobBaseFeeScalar": "0xa118b",
      "l1Fee": "0x4fed82ce0",
      "l1GasPrice": "0x2d5f4c75b",
      "l1GasUsed": "0x640"
    }
  ],
  "libraries": [],
  "pending": [],
  "returns": {},
  "timestamp": 1733819191,
  "chain": 84532,
  "commit": "f9c0721"
}