{
  "transactions": [
    {
      "hash": "0x2f0889e2196d04f1a1e100f0a744614abed4042d17bd2cbf447c2ff267f562f4",
      "transactionType": "CALL",
      "contractName": "MocaTokenAdapter",
      "contractAddress": "0x859eba9f58873d9284ccd211611494ed9d842204",
      "function": "setPeer(uint32,bytes32)",
      "arguments": [
        "40245",
        "0x000000000000000000000000b35a100eac70ffc06a7e9a2a5dc94b3ac3213c68"
      ],
      "transaction": {
        "from": "0x8c9c001f821c04513616fd7962b2d8c62f925fd2",
        "to": "0x859eba9f58873d9284ccd211611494ed9d842204",
        "gas": "0xaede",
        "value": "0x0",
        "input": "0x3400288b0000000000000000000000000000000000000000000000000000000000009d35000000000000000000000000b35a100eac70ffc06a7e9a2a5dc94b3ac3213c68",
        "nonce": "0x66",
        "chainId": "0xaa36a7"
      },
      "additionalContracts": [],
      "isFixedGasLimit": false
    }
  ],
  "receipts": [
    {
      "status": "0x1",
      "cumulativeGasUsed": "0x12121bb",
      "logs": [
        {
          "address": "0x859eba9f58873d9284ccd211611494ed9d842204",
          "topics": [
            "0x238399d427b947898edb290f5ff0f9109849b1c3ba196a42e35f00c50a54b98b"
          ],
          "data": "0x0000000000000000000000000000000000000000000000000000000000009d35000000000000000000000000b35a100eac70ffc06a7e9a2a5dc94b3ac3213c68",
          "blockHash": "0xcb2a1f17f8e535d48f3935fc9fe4088af1d3044551fb755b1624938e90f6965a",
          "blockNumber": "0x73ad42",
          "transactionHash": "0x2f0889e2196d04f1a1e100f0a744614abed4042d17bd2cbf447c2ff267f562f4",
          "transactionIndex": "0x8a",
          "logIndex": "0x16b",
          "removed": false
        }
      ],
      "logsBloom": "0x00000000000000000000000000000000000000000000000000000000000000000000000000000000000000000000000000000000000000000800000000008000000000000000000000000000000000000000000000000000000000000000000000000000000000000000000000000000000000000000008000000000000000000000000000000000000000000000000000000000020000000000000000000000000000000000000000000000000000000000000000000000000002000000000000000000000000000000000000000000000000000000000000040000000000000000000000000000000000000000000000000000000000000000000000000000",
      "type": "0x2",
      "transactionHash": "0x2f0889e2196d04f1a1e100f0a744614abed4042d17bd2cbf447c2ff267f562f4",
      "transactionIndex": "0x8a",
      "blockHash": "0xcb2a1f17f8e535d48f3935fc9fe4088af1d3044551fb755b1624938e90f6965a",
      "blockNumber": "0x73ad42",
      "gasUsed": "0x7792",
      "effectiveGasPrice": "0x1ecfb2cb8",
      "from": "0x8c9c001f821c04513616fd7962b2d8c62f925fd2",
      "to": "0x859eba9f58873d9284ccd211611494ed9d842204",
      "contractAddress": null
    }
  ],
  "libraries": [],
  "pending": [],
  "returns": {},
  "timestamp": 1737973525,
  "chain": 11155111,
  "commit": "50f5bf2"
}