{
  "transactions": [
    {
      "hash": "0x0ae71ef05b4cc971800e66ba607ec1f910146ef75163f3217f7cd782defc2028",
      "transactionType": "CALL",
      "contractName": "MocaTokenAdapter",
      "contractAddress": "0x859eba9f58873d9284ccd211611494ed9d842204",
      "function": "setOutboundLimit(uint32,uint256)",
      "arguments": [
        "40245",
        "10000000000000000000000"
      ],
      "transaction": {
        "from": "0x8c9c001f821c04513616fd7962b2d8c62f925fd2",
        "to": "0x859eba9f58873d9284ccd211611494ed9d842204",
        "gas": "0xae7f",
        "value": "0x0",
        "input": "0x65d28a6b0000000000000000000000000000000000000000000000000000000000009d3500000000000000000000000000000000000000000000021e19e0c9bab2400000",
        "nonce": "0x7f",
        "chainId": "0xaa36a7"
      },
      "additionalContracts": [],
      "isFixedGasLimit": false
    },
    {
      "hash": "0x1f0f130841e0e7d8cb9169b7c6e286c8c8d915e21c3631ac59ec966ee47838f7",
      "transactionType": "CALL",
      "contractName": "MocaTokenAdapter",
      "contractAddress": "0x859eba9f58873d9284ccd211611494ed9d842204",
      "function": "setInboundLimit(uint32,uint256)",
      "arguments": [
        "40245",
        "10000000000000000000000"
      ],
      "transaction": {
        "from": "0x8c9c001f821c04513616fd7962b2d8c62f925fd2",
        "to": "0x859eba9f58873d9284ccd211611494ed9d842204",
        "gas": "0xa52a",
        "value": "0x0",
        "input": "0x9a2fe9e40000000000000000000000000000000000000000000000000000000000009d3500000000000000000000000000000000000000000000021e19e0c9bab2400000",
        "nonce": "0x80",
        "chainId": "0xaa36a7"
      },
      "additionalContracts": [],
      "isFixedGasLimit": false
    }
  ],
  "receipts": [
    {
      "status": "0x1",
      "cumulativeGasUsed": "0x90c315",
      "logs": [
        {
          "address": "0x859eba9f58873d9284ccd211611494ed9d842204",
          "topics": [
            "0x7628c1599617e8f71acfbf363d8064a2a32bdb6e63e074de3250cab57047bf79",
            "0x0000000000000000000000000000000000000000000000000000000000009d35"
          ],
          "data": "0x00000000000000000000000000000000000000000000021e19e0c9bab2400000",
          "blockHash": "0x62fab9edb2b52e217b069e976da400f81b44e23c1e3a92a3c2a2f8e7c1b60502",
          "blockNumber": "0x78ed9c",
          "blockTimestamp": "0x67d8dc28",
          "transactionHash": "0x0ae71ef05b4cc971800e66ba607ec1f910146ef75163f3217f7cd782defc2028",
          "transactionIndex": "0x90",
          "logIndex": "0x8c",
          "removed": false
        }
      ],
      "logsBloom": "0x00000000000000000000000000000000000000000000000000000000400000000000000000000000000000000000000000000000000000000000000000008000000000000000000000000000000000000000000000000000080000000000800000000000000000000000000000000000000000000000008000000000000000000000000000000000000000000000000000000000020000000000000000000000000000000000000000000000000000000000000000000000000000000000000000000000000000000000000000080000000000000000008000000000000000000000000000000000000000000000000000000000000000100000000000000000",
      "type": "0x2",
      "transactionHash": "0x0ae71ef05b4cc971800e66ba607ec1f910146ef75163f3217f7cd782defc2028",
      "transactionIndex": "0x90",
      "blockHash": "0x62fab9edb2b52e217b069e976da400f81b44e23c1e3a92a3c2a2f8e7c1b60502",
      "blockNumber": "0x78ed9c",
      "gasUsed": "0x7751",
      "effectiveGasPrice": "0x4562b6",
      "from": "0x8c9c001f821c04513616fd7962b2d8c62f925fd2",
      "to": "0x859eba9f58873d9284ccd211611494ed9d842204",
      "contractAddress": null
    },
    {
      "status": "0x1",
      "cumulativeGasUsed": "0x913aa9",
      "logs": [
        {
          "address": "0x859eba9f58873d9284ccd211611494ed9d842204",
          "topics": [
            "0x9cc3784ef7ab64c61f0abf58d72c2a40ef45b319db540006be0aa3e4610b8433",
            "0x0000000000000000000000000000000000000000000000000000000000009d35"
          ],
          "data": "0x00000000000000000000000000000000000000000000021e19e0c9bab2400000",
          "blockHash": "0x62fab9edb2b52e217b069e976da400f81b44e23c1e3a92a3c2a2f8e7c1b60502",
          "blockNumber": "0x78ed9c",
          "blockTimestamp": "0x67d8dc28",
          "transactionHash": "0x1f0f130841e0e7d8cb9169b7c6e286c8c8d915e21c3631ac59ec966ee47838f7",
          "transactionIndex": "0x91",
          "logIndex": "0x8d",
          "removed": false
        }
      ],
      "logsBloom": "0x00000000000000000000000000000000000000000000000000000000400000000000000000000000000000000000000000000000000000000001000000008000000000000000000000000000000000000000000000000000080000000000000000000000000000000000000000000000000000000000008000000000000000000000000000000000000000000000000000000000020000000000000000008000000000000000000004000000000000000000000000000000000000000000000000000000000000000000000000000000000000000000000000000000000000000000000000000000000000000000000000000000000000100000000000000000",
      "type": "0x2",
      "transactionHash": "0x1f0f130841e0e7d8cb9169b7c6e286c8c8d915e21c3631ac59ec966ee47838f7",
      "transactionIndex": "0x91",
      "blockHash": "0x62fab9edb2b52e217b069e976da400f81b44e23c1e3a92a3c2a2f8e7c1b60502",
      "blockNumber": "0x78ed9c",
      "gasUsed": "0x7794",
      "effectiveGasPrice": "0x4562b6",
      "from": "0x8c9c001f821c04513616fd7962b2d8c62f925fd2",
      "to": "0x859eba9f58873d9284ccd211611494ed9d842204",
      "contractAddress": null
    }
  ],
  "libraries": [],
  "pending": [],
  "returns": {},
  "timestamp": 1742265384,
  "chain": 11155111,
  "commit": "abe79db"
}