{
  "transactions": [
    {
      "hash": "0x4502b31e18a96bce182926022105220562c5d001fd6d011729d48a5909626a64",
      "transactionType": "CALL",
      "contractName": "MocaTokenAdapter",
      "contractAddress": "0x859eba9f58873d9284ccd211611494ed9d842204",
      "function": "send((uint32,bytes32,uint256,uint256,bytes,bytes,bytes),(uint256,uint256),address)",
      "arguments": [
        "(40245, 0x0000000000000000000000008c9c001f821c04513616fd7962b2d8c62f925fd2, 1000000000000000000, 1000000000000000000, 0x, 0x, 0x)",
        "(393287443038453, 0)",
        "0x8C9C001F821c04513616fd7962B2D8c62f925fD2"
      ],
      "transaction": {
        "from": "0x8c9c001f821c04513616fd7962b2d8c62f925fd2",
        "to": "0x859eba9f58873d9284ccd211611494ed9d842204",
        "gas": "0x509f0",
        "value": "0x165b15e5640f5",
        "input": "0xc7c7f5b30000000000000000000000000000000000000000000000000000000000000080000000000000000000000000000000000000000000000000000165b15e5640f500000000000000000000000000000000000000000000000000000000000000000000000000000000000000008c9c001f821c04513616fd7962b2d8c62f925fd20000000000000000000000000000000000000000000000000000000000009d350000000000000000000000008c9c001f821c04513616fd7962b2d8c62f925fd20000000000000000000000000000000000000000000000000de0b6b3a76400000000000000000000000000000000000000000000000000000de0b6b3a764000000000000000000000000000000000000000000000000000000000000000000e000000000000000000000000000000000000000000000000000000000000001000000000000000000000000000000000000000000000000000000000000000120000000000000000000000000000000000000000000000000000000000000000000000000000000000000000000000000000000000000000000000000000000000000000000000000000000000000000000000000000000000000000000000000",
        "nonce": "0x6b",
        "chainId": "0xaa36a7"
      },
      "additionalContracts": [],
      "isFixedGasLimit": false
    }
  ],
  "receipts": [
    {
      "status": "0x1",
      "cumulativeGasUsed": "0xce762a",
      "logs": [
        {
          "address": "0x73ce27235b1d65028f1a7470b1f471df66a9504f",
          "topics": [
            "0xddf252ad1be2c89b69c2b068fc378daa952ba7f163c4a11628f55a4df523b3ef",
            "0x0000000000000000000000008c9c001f821c04513616fd7962b2d8c62f925fd2",
            "0x000000000000000000000000859eba9f58873d9284ccd211611494ed9d842204"
          ],
          "data": "0x0000000000000000000000000000000000000000000000000de0b6b3a7640000",
          "blockHash": "0xe1c0c8305eb31d952138ae7a57368f6ea9369a215176f976cbed451e44bc5525",
          "blockNumber": "0x73b15f",
          "transactionHash": "0x4502b31e18a96bce182926022105220562c5d001fd6d011729d48a5909626a64",
          "transactionIndex": "0xa0",
          "logIndex": "0xc0",
          "removed": false
        },
        {
          "address": "0xcc1ae8cf5d3904cef3360a9532b477529b177cce",
          "topics": [
            "0x61ed099e74a97a1d7f8bb0952a88ca8b7b8ebd00c126ea04671f92a81213318a"
          ],
          "data": "0x000000000000000000000000718b92b5cb0a5552039b593faf724d182a881eda00000000000000000000000000000000000000000000000000010dd7f7a57569",
          "blockHash": "0xe1c0c8305eb31d952138ae7a57368f6ea9369a215176f976cbed451e44bc5525",
          "blockNumber": "0x73b15f",
          "transactionHash": "0x4502b31e18a96bce182926022105220562c5d001fd6d011729d48a5909626a64",
          "transactionIndex": "0xa0",
          "logIndex": "0xc1",
          "removed": false
        },
        {
          "address": "0xcc1ae8cf5d3904cef3360a9532b477529b177cce",
          "topics": [
            "0x07ea52d82345d6e838192107d8fd7123d9c2ec8e916cd0aad13fd2b60db24644"
          ],
          "data": "0x000000000000000000000000000000000000000000000000000000000000006000000000000000000000000000000000000000000000000000000000000000a000000000000000000000000000000000000000000000000000000000000000c000000000000000000000000000000000000000000000000000000000000000010000000000000000000000008eebf8b423b73bfca51a1db4b7354aa0bfca919300000000000000000000000000000000000000000000000000000000000000000000000000000000000000000000000000000000000000000000000000000001000000000000000000000000000000000000000000000000000057d966b0cb8c",
          "blockHash": "0xe1c0c8305eb31d952138ae7a57368f6ea9369a215176f976cbed451e44bc5525",
          "blockNumber": "0x73b15f",
          "transactionHash": "0x4502b31e18a96bce182926022105220562c5d001fd6d011729d48a5909626a64",
          "transactionIndex": "0xa0",
          "logIndex": "0xc2",
          "removed": false
        },
        {
          "address": "0x6edce65403992e310a62460808c4b910d972f10f",
          "topics": [
            "0x1ab700d4ced0c005b164c0f789fd09fcbb0156d4c2041b8a3bfbcd961cd1567f"
          ],
          "data": "0x00000000000000000000000000000000000000000000000000000000000000600000000000000000000000000000000000000000000000000000000000000120000000000000000000000000cc1ae8cf5d3904cef3360a9532b477529b177cce000000000000000000000000000000000000000000000000000000000000009901000000000000000200009ce1000000000000000000000000859eba9f58873d9284ccd211611494ed9d84220400009d35000000000000000000000000b35a100eac70ffc06a7e9a2a5dc94b3ac3213c68c63375c9618f44f06643736f9b9bc57a3cd3d8eaef41ff2336fba19eef7cf3dc0000000000000000000000008c9c001f821c04513616fd7962b2d8c62f925fd200000000000f424000000000000000000000000000000000000000000000000000000000000000000000000000001600030100110100000000000000000000000000030d4000000000000000000000",
          "blockHash": "0xe1c0c8305eb31d952138ae7a57368f6ea9369a215176f976cbed451e44bc5525",
          "blockNumber": "0x73b15f",
          "transactionHash": "0x4502b31e18a96bce182926022105220562c5d001fd6d011729d48a5909626a64",
          "transactionIndex": "0xa0",
          "logIndex": "0xc3",
          "removed": false
        },
        {
          "address": "0x859eba9f58873d9284ccd211611494ed9d842204",
          "topics": [
            "0xfff873bb909b73d08a8c1af4b21779e87103bb8ea8cf3b3a0067eb8526b8b80a",
            "0xc63375c9618f44f06643736f9b9bc57a3cd3d8eaef41ff2336fba19eef7cf3dc",
            "0x0000000000000000000000008c9c001f821c04513616fd7962b2d8c62f925fd2"
          ],
          "data": "0x0000000000000000000000000000000000000000000000000000000000009d350000000000000000000000000000000000000000000000000de0b6b3a7640000",
          "blockHash": "0xe1c0c8305eb31d952138ae7a57368f6ea9369a215176f976cbed451e44bc5525",
          "blockNumber": "0x73b15f",
          "transactionHash": "0x4502b31e18a96bce182926022105220562c5d001fd6d011729d48a5909626a64",
          "transactionIndex": "0xa0",
          "logIndex": "0xc4",
          "removed": false
        }
      ],
      "logsBloom": "0x000000000000000000000000000008000000000000000000300000000001000000000000000000002000000000808000000000000000002000000000000080000404000000000000000000080040000000000000000000000000000000000020000000000000000082000000000010000000000000000080000000100000000000000000000000200000000800000000000000000200000000000000200000000000000080000000001000000000000000000000004000010004c0000000000000000002000000000000000000000000000000280000000000000000000000000000040000000000000000000000002000000000000000000000000000000020",
      "type": "0x2",
      "transactionHash": "0x4502b31e18a96bce182926022105220562c5d001fd6d011729d48a5909626a64",
      "transactionIndex": "0xa0",
      "blockHash": "0xe1c0c8305eb31d952138ae7a57368f6ea9369a215176f976cbed451e44bc5525",
      "blockNumber": "0x73b15f",
      "gasUsed": "0x3a5e5",
      "effectiveGasPrice": "0x9751dbb46",
      "from": "0x8c9c001f821c04513616fd7962b2d8c62f925fd2",
      "to": "0x859eba9f58873d9284ccd211611494ed9d842204",
      "contractAddress": null
    }
  ],
  "libraries": [],
  "pending": [],
  "returns": {},
  "timestamp": 1737986858,
  "chain": 11155111,
  "commit": "50f5bf2"
}