{
  "transactions": [
    {
      "hash": "0x80dab440a5db06c3ec6e2fc5bcd4d95cd69c5a00313ba92319dcea8697b5c5b6",
      "transactionType": "CALL",
      "contractName": "MocaTokenAdapter",
      "contractAddress": "0x859eba9f58873d9284ccd211611494ed9d842204",
      "function": "setEnforcedOptions((uint32,uint16,bytes)[])",
      "arguments": [
        "[(40245, 1, 0x00030100110100000000000000000000000000030d40), (40245, 2, 0x000301001303000000000000000000000000000000000000)]"
      ],
      "transaction": {
        "from": "0x8c9c001f821c04513616fd7962b2d8c62f925fd2",
        "to": "0x859eba9f58873d9284ccd211611494ed9d842204",
        "gas": "0xdb9b",
        "value": "0x0",
        "input": "0xb98bd07000000000000000000000000000000000000000000000000000000000000000200000000000000000000000000000000000000000000000000000000000000002000000000000000000000000000000000000000000000000000000000000004000000000000000000000000000000000000000000000000000000000000000e00000000000000000000000000000000000000000000000000000000000009d3500000000000000000000000000000000000000000000000000000000000000010000000000000000000000000000000000000000000000000000000000000060000000000000000000000000000000000000000000000000000000000000001600030100110100000000000000000000000000030d40000000000000000000000000000000000000000000000000000000000000000000000000000000009d350000000000000000000000000000000000000000000000000000000000000002000000000000000000000000000000000000000000000000000000000000006000000000000000000000000000000000000000000000000000000000000000180003010013030000000000000000000000000000000000000000000000000000",
        "nonce": "0x67",
        "chainId": "0xaa36a7"
      },
      "additionalContracts": [],
      "isFixedGasLimit": false
    }
  ],
  "receipts": [
    {
      "status": "0x1",
      "cumulativeGasUsed": "0x1249b14",
      "logs": [
        {
          "address": "0x859eba9f58873d9284ccd211611494ed9d842204",
          "topics": [
            "0xbe4864a8e820971c0247f5992e2da559595f7bf076a21cb5928d443d2a13b674"
          ],
          "data": "0x00000000000000000000000000000000000000000000000000000000000000200000000000000000000000000000000000000000000000000000000000000002000000000000000000000000000000000000000000000000000000000000004000000000000000000000000000000000000000000000000000000000000000e00000000000000000000000000000000000000000000000000000000000009d3500000000000000000000000000000000000000000000000000000000000000010000000000000000000000000000000000000000000000000000000000000060000000000000000000000000000000000000000000000000000000000000001600030100110100000000000000000000000000030d40000000000000000000000000000000000000000000000000000000000000000000000000000000009d350000000000000000000000000000000000000000000000000000000000000002000000000000000000000000000000000000000000000000000000000000006000000000000000000000000000000000000000000000000000000000000000180003010013030000000000000000000000000000000000000000000000000000",
          "blockHash": "0x9a349d6c36301ab5ae3e755eb77bbce00573e1c552b594ccc071750563463fdc",
          "blockNumber": "0x73ad54",
          "transactionHash": "0x80dab440a5db06c3ec6e2fc5bcd4d95cd69c5a00313ba92319dcea8697b5c5b6",
          "transactionIndex": "0x7c",
          "logIndex": "0x19f",
          "removed": false
        }
      ],
      "logsBloom": "0x00000000000000000000000000000000000000000000000000000000000000000000000000000000000000000000000000000000000000000000400000008000000000000000000000000000000000000000000000000000000000000000000000000000000000000000000000000000000000000000008000000000000000000000000000000000000000000000000000000000020000000000000000080000000000000000000000000000000000000000000000000000000000000000000000000000000000000000000002000000000000000000000000000000000000000000000000000000000000000000000000000000000000000000000000000000",
      "type": "0x2",
      "transactionHash": "0x80dab440a5db06c3ec6e2fc5bcd4d95cd69c5a00313ba92319dcea8697b5c5b6",
      "transactionIndex": "0x7c",
      "blockHash": "0x9a349d6c36301ab5ae3e755eb77bbce00573e1c552b594ccc071750563463fdc",
      "blockNumber": "0x73ad54",
      "gasUsed": "0x9eff",
      "effectiveGasPrice": "0x184d603b4",
      "from": "0x8c9c001f821c04513616fd7962b2d8c62f925fd2",
      "to": "0x859eba9f58873d9284ccd211611494ed9d842204",
      "contractAddress": null
    }
  ],
  "libraries": [],
  "pending": [],
  "returns": {},
  "timestamp": 1737973740,
  "chain": 11155111,
  "commit": "50f5bf2"
}