{
  "transactions": [
    {
      "hash": "0x86e0badc1e2ef8902d8fc8bb73880854e1a853fe0353f6c7efed1073fcba2d11",
      "transactionType": "CALL",
      "contractName": "MocaTokenMock",
      "contractAddress": "0x73ce27235b1d65028f1a7470b1f471df66a9504f",
      "function": "approve(address,uint256)",
      "arguments": [
        "0x859eba9f58873d9284ccd211611494ED9D842204",
        "10000000000000000000"
      ],
      "transaction": {
        "from": "0x8c9c001f821c04513616fd7962b2d8c62f925fd2",
        "to": "0x73ce27235b1d65028f1a7470b1f471df66a9504f",
        "gas": "0x1090a",
        "value": "0x0",
        "input": "0x095ea7b3000000000000000000000000859eba9f58873d9284ccd211611494ed9d8422040000000000000000000000000000000000000000000000008ac7230489e80000",
        "nonce": "0x69",
        "chainId": "0xaa36a7"
      },
      "additionalContracts": [],
      "isFixedGasLimit": false
    },
    {
      "hash": "0xdd91a51130243b287a37f275e7ccbeac1c19c0a5fd4969465f3ec60d6f3df70f",
      "transactionType": "CALL",
      "contractName": "MocaTokenAdapter",
      "contractAddress": "0x859eba9f58873d9284ccd211611494ed9d842204",
      "function": "send((uint32,bytes32,uint256,uint256,bytes,bytes,bytes),(uint256,uint256),address)",
      "arguments": [
        "(40245, 0x0000000000000000000000008c9c001f821c04513616fd7962b2d8c62f925fd2, 1000000000000000000, 1000000000000000000, 0x, 0x, 0x)",
        "(447289370673717, 0)",
        "0x8C9C001F821c04513616fd7962B2D8c62f925fD2"
      ],
      "transaction": {
        "from": "0x8c9c001f821c04513616fd7962b2d8c62f925fd2",
        "to": "0x859eba9f58873d9284ccd211611494ed9d842204",
        "gas": "0x5b782",
        "value": "0x196ceac0d0235",
        "input": "0xc7c7f5b30000000000000000000000000000000000000000000000000000000000000080000000000000000000000000000000000000000000000000000196ceac0d023500000000000000000000000000000000000000000000000000000000000000000000000000000000000000008c9c001f821c04513616fd7962b2d8c62f925fd20000000000000000000000000000000000000000000000000000000000009d350000000000000000000000008c9c001f821c04513616fd7962b2d8c62f925fd20000000000000000000000000000000000000000000000000de0b6b3a76400000000000000000000000000000000000000000000000000000de0b6b3a764000000000000000000000000000000000000000000000000000000000000000000e000000000000000000000000000000000000000000000000000000000000001000000000000000000000000000000000000000000000000000000000000000120000000000000000000000000000000000000000000000000000000000000000000000000000000000000000000000000000000000000000000000000000000000000000000000000000000000000000000000000000000000000000000000000",
        "nonce": "0x6a",
        "chainId": "0xaa36a7"
      },
      "additionalContracts": [],
      "isFixedGasLimit": false
    }
  ],
  "receipts": [
    {
      "status": "0x1",
      "cumulativeGasUsed": "0xd933ec",
      "logs": [
        {
          "address": "0x73ce27235b1d65028f1a7470b1f471df66a9504f",
          "topics": [
            "0x8c5be1e5ebec7d5bd14f71427d1e84f3dd0314c0f7b2291e5b200ac8c7c3b925",
            "0x0000000000000000000000008c9c001f821c04513616fd7962b2d8c62f925fd2",
            "0x000000000000000000000000859eba9f58873d9284ccd211611494ed9d842204"
          ],
          "data": "0x0000000000000000000000000000000000000000000000008ac7230489e80000",
          "blockHash": "0xc958456026038dee5a24dafac3e47872b4496b734c98388ced36e918a6337f45",
          "blockNumber": "0x73af6c",
          "transactionHash": "0x86e0badc1e2ef8902d8fc8bb73880854e1a853fe0353f6c7efed1073fcba2d11",
          "transactionIndex": "0x7c",
          "logIndex": "0x85",
          "removed": false
        }
      ],
      "logsBloom": "0x00000000000000000000000000000800000000000000000000000000000000000000000000000000000000000000800000000000000000000000000000200000040400000000000000000000004000000000000000000000000000000000002000000000000000000000000000000000000000000000000000000000000000000000000000000000000000000000000000000000000000000000000020000000020000000000000000000000000000000000000000000000000080000000000000000000000000000000000000000000000000200000000000000000000000000010000000000000000000000000000000000000000000000000000000000000",
      "type": "0x2",
      "transactionHash": "0x86e0badc1e2ef8902d8fc8bb73880854e1a853fe0353f6c7efed1073fcba2d11",
      "transactionIndex": "0x7c",
      "blockHash": "0xc958456026038dee5a24dafac3e47872b4496b734c98388ced36e918a6337f45",
      "blockNumber": "0x73af6c",
      "gasUsed": "0xb53a",
      "effectiveGasPrice": "0x614fe683e",
      "from": "0x8c9c001f821c04513616fd7962b2d8c62f925fd2",
      "to": "0x73ce27235b1d65028f1a7470b1f471df66a9504f",
      "contractAddress": null
    },
    {
      "status": "0x1",
      "cumulativeGasUsed": "0xdd1c9d",
      "logs": [
        {
          "address": "0x73ce27235b1d65028f1a7470b1f471df66a9504f",
          "topics": [
            "0xddf252ad1be2c89b69c2b068fc378daa952ba7f163c4a11628f55a4df523b3ef",
            "0x0000000000000000000000008c9c001f821c04513616fd7962b2d8c62f925fd2",
            "0x000000000000000000000000859eba9f58873d9284ccd211611494ed9d842204"
          ],
          "data": "0x0000000000000000000000000000000000000000000000000de0b6b3a7640000",
          "blockHash": "0xc958456026038dee5a24dafac3e47872b4496b734c98388ced36e918a6337f45",
          "blockNumber": "0x73af6c",
          "transactionHash": "0xdd91a51130243b287a37f275e7ccbeac1c19c0a5fd4969465f3ec60d6f3df70f",
          "transactionIndex": "0x7d",
          "logIndex": "0x86",
          "removed": false
        },
        {
          "address": "0xcc1ae8cf5d3904cef3360a9532b477529b177cce",
          "topics": [
            "0x61ed099e74a97a1d7f8bb0952a88ca8b7b8ebd00c126ea04671f92a81213318a"
          ],
          "data": "0x000000000000000000000000718b92b5cb0a5552039b593faf724d182a881eda0000000000000000000000000000000000000000000000000001309ba421cba9",
          "blockHash": "0xc958456026038dee5a24dafac3e47872b4496b734c98388ced36e918a6337f45",
          "blockNumber": "0x73af6c",
          "transactionHash": "0xdd91a51130243b287a37f275e7ccbeac1c19c0a5fd4969465f3ec60d6f3df70f",
          "transactionIndex": "0x7d",
          "logIndex": "0x87",
          "removed": false
        },
        {
          "address": "0xcc1ae8cf5d3904cef3360a9532b477529b177cce",
          "topics": [
            "0x07ea52d82345d6e838192107d8fd7123d9c2ec8e916cd0aad13fd2b60db24644"
          ],
          "data": "0x000000000000000000000000000000000000000000000000000000000000006000000000000000000000000000000000000000000000000000000000000000a000000000000000000000000000000000000000000000000000000000000000c000000000000000000000000000000000000000000000000000000000000000010000000000000000000000008eebf8b423b73bfca51a1db4b7354aa0bfca9193000000000000000000000000000000000000000000000000000000000000000000000000000000000000000000000000000000000000000000000000000000010000000000000000000000000000000000000000000000000000663307eb368c",
          "blockHash": "0xc958456026038dee5a24dafac3e47872b4496b734c98388ced36e918a6337f45",
          "blockNumber": "0x73af6c",
          "transactionHash": "0xdd91a51130243b287a37f275e7ccbeac1c19c0a5fd4969465f3ec60d6f3df70f",
          "transactionIndex": "0x7d",
          "logIndex": "0x88",
          "removed": false
        },
        {
          "address": "0x6edce65403992e310a62460808c4b910d972f10f",
          "topics": [
            "0x1ab700d4ced0c005b164c0f789fd09fcbb0156d4c2041b8a3bfbcd961cd1567f"
          ],
          "data": "0x00000000000000000000000000000000000000000000000000000000000000600000000000000000000000000000000000000000000000000000000000000120000000000000000000000000cc1ae8cf5d3904cef3360a9532b477529b177cce000000000000000000000000000000000000000000000000000000000000009901000000000000000100009ce1000000000000000000000000859eba9f58873d9284ccd211611494ed9d84220400009d35000000000000000000000000b35a100eac70ffc06a7e9a2a5dc94b3ac3213c68115d16c977c89a752a463863fe541d36e2a96b6e0af599ebaa4873d40172e90f0000000000000000000000008c9c001f821c04513616fd7962b2d8c62f925fd200000000000f424000000000000000000000000000000000000000000000000000000000000000000000000000001600030100110100000000000000000000000000030d4000000000000000000000",
          "blockHash": "0xc958456026038dee5a24dafac3e47872b4496b734c98388ced36e918a6337f45",
          "blockNumber": "0x73af6c",
          "transactionHash": "0xdd91a51130243b287a37f275e7ccbeac1c19c0a5fd4969465f3ec60d6f3df70f",
          "transactionIndex": "0x7d",
          "logIndex": "0x89",
          "removed": false
        },
        {
          "address": "0x859eba9f58873d9284ccd211611494ed9d842204",
          "topics": [
            "0xfff873bb909b73d08a8c1af4b21779e87103bb8ea8cf3b3a0067eb8526b8b80a",
            "0x115d16c977c89a752a463863fe541d36e2a96b6e0af599ebaa4873d40172e90f",
            "0x0000000000000000000000008c9c001f821c04513616fd7962b2d8c62f925fd2"
          ],
          "data": "0x0000000000000000000000000000000000000000000000000000000000009d350000000000000000000000000000000000000000000000000de0b6b3a7640000",
          "blockHash": "0xc958456026038dee5a24dafac3e47872b4496b734c98388ced36e918a6337f45",
          "blockNumber": "0x73af6c",
          "transactionHash": "0xdd91a51130243b287a37f275e7ccbeac1c19c0a5fd4969465f3ec60d6f3df70f",
          "transactionIndex": "0x7d",
          "logIndex": "0x8a",
          "removed": false
        }
      ],
      "logsBloom": "0x000000000000000000000000000008000000000000000000300000000001000000000000000000002000000000808000000800000000000000000000000080000404000000000000000000080040000000000000000000000000000000000020000000000000000082000000000000000000000000000080000000100000008000000000000000200000000800000000000000000200000000000000200000000000000080000000001000000000000000000000004000000004c0000000000000000002000000000000000000000000000000280000000000000000000000000000040000000000000000000004002000000000000000000000000000000020",
      "type": "0x2",
      "transactionHash": "0xdd91a51130243b287a37f275e7ccbeac1c19c0a5fd4969465f3ec60d6f3df70f",
      "transactionIndex": "0x7d",
      "blockHash": "0xc958456026038dee5a24dafac3e47872b4496b734c98388ced36e918a6337f45",
      "blockNumber": "0x73af6c",
      "gasUsed": "0x3e8b1",
      "effectiveGasPrice": "0x614fe683e",
      "from": "0x8c9c001f821c04513616fd7962b2d8c62f925fd2",
      "to": "0x859eba9f58873d9284ccd211611494ed9d842204",
      "contractAddress": null
    }
  ],
  "libraries": [],
  "pending": [],
  "returns": {},
  "timestamp": 1737980569,
  "chain": 11155111,
  "commit": "50f5bf2"
}