{
  "transactions": [
    {
      "hash": "0x683704e54c679528c643f1704c8b6b42591413f62b7e7cfa6ba660ed98686dd4",
      "transactionType": "CALL",
      "contractName": "MocaTokenAdapter",
      "contractAddress": "0x859eba9f58873d9284ccd211611494ed9d842204",
      "function": "setEnforcedOptions((uint32,uint16,bytes)[])",
      "arguments": [
        "[(40245, 1, 0x00030100110100000000000000000000000000030d40), (40245, 2, 0x000301001303000000000000000000000000000000000000)]"
      ],
      "transaction": {
        "from": "0x8c9c001f821c04513616fd7962b2d8c62f925fd2",
        "to": "0x859eba9f58873d9284ccd211611494ed9d842204",
        "gas": "0xdb9b",
        "value": "0x0",
        "input": "0xb98bd07000000000000000000000000000000000000000000000000000000000000000200000000000000000000000000000000000000000000000000000000000000002000000000000000000000000000000000000000000000000000000000000004000000000000000000000000000000000000000000000000000000000000000e00000000000000000000000000000000000000000000000000000000000009d3500000000000000000000000000000000000000000000000000000000000000010000000000000000000000000000000000000000000000000000000000000060000000000000000000000000000000000000000000000000000000000000001600030100110100000000000000000000000000030d40000000000000000000000000000000000000000000000000000000000000000000000000000000009d350000000000000000000000000000000000000000000000000000000000000002000000000000000000000000000000000000000000000000000000000000006000000000000000000000000000000000000000000000000000000000000000180003010013030000000000000000000000000000000000000000000000000000",
        "nonce": "0x7e",
        "chainId": "0xaa36a7"
      },
      "additionalContracts": [],
      "isFixedGasLimit": false
    }
  ],
  "receipts": [
    {
      "status": "0x1",
      "cumulativeGasUsed": "0x11ebdb0",
      "logs": [
        {
          "address": "0x859eba9f58873d9284ccd211611494ed9d842204",
          "topics": [
            "0xbe4864a8e820971c0247f5992e2da559595f7bf076a21cb5928d443d2a13b674"
          ],
          "data": "0x00000000000000000000000000000000000000000000000000000000000000200000000000000000000000000000000000000000000000000000000000000002000000000000000000000000000000000000000000000000000000000000004000000000000000000000000000000000000000000000000000000000000000e00000000000000000000000000000000000000000000000000000000000009d3500000000000000000000000000000000000000000000000000000000000000010000000000000000000000000000000000000000000000000000000000000060000000000000000000000000000000000000000000000000000000000000001600030100110100000000000000000000000000030d40000000000000000000000000000000000000000000000000000000000000000000000000000000009d350000000000000000000000000000000000000000000000000000000000000002000000000000000000000000000000000000000000000000000000000000006000000000000000000000000000000000000000000000000000000000000000180003010013030000000000000000000000000000000000000000000000000000",
          "blockHash": "0x28e0df2c51d1539aaf2a1df2d4da36cbd595f684945e88f507536e7af28ff91d",
          "blockNumber": "0x78ed96",
          "blockTimestamp": "0x67d8dbe0",
          "transactionHash": "0x683704e54c679528c643f1704c8b6b42591413f62b7e7cfa6ba660ed98686dd4",
          "transactionIndex": "0x49",
          "logIndex": "0x5e",
          "removed": false
        }
      ],
      "logsBloom": "0x00000000000000000000000000000000000000000000000000000000000000000000000000000000000000000000000000000000000000000000400000008000000000000000000000000000000000000000000000000000000000000000000000000000000000000000000000000000000000000000008000000000000000000000000000000000000000000000000000000000020000000000000000080000000000000000000000000000000000000000000000000000000000000000000000000000000000000000000002000000000000000000000000000000000000000000000000000000000000000000000000000000000000000000000000000000",
      "type": "0x2",
      "transactionHash": "0x683704e54c679528c643f1704c8b6b42591413f62b7e7cfa6ba660ed98686dd4",
      "transactionIndex": "0x49",
      "blockHash": "0x28e0df2c51d1539aaf2a1df2d4da36cbd595f684945e88f507536e7af28ff91d",
      "blockNumber": "0x78ed96",
      "gasUsed": "0x9eff",
      "effectiveGasPrice": "0x4b1b05",
      "from": "0x8c9c001f821c04513616fd7962b2d8c62f925fd2",
      "to": "0x859eba9f58873d9284ccd211611494ed9d842204",
      "contractAddress": null
    }
  ],
  "libraries": [],
  "pending": [],
  "returns": {},
  "timestamp": 1742265313,
  "chain": 11155111,
  "commit": "abe79db"
}