{
  "transactions": [
    {
      "hash": "0x514a5917dcc66013867858f271f6257749ef3ca20d05d250a7c5b2f01fb93dbb",
      "transactionType": "CALL",
      "contractName": "MocaTokenAdapter",
      "contractAddress": "0x859eba9f58873d9284ccd211611494ed9d842204",
      "function": "send((uint32,bytes32,uint256,uint256,bytes,bytes,bytes),(uint256,uint256),address)",
      "arguments": [
        "(40245, 0x0000000000000000000000008c9c001f821c04513616fd7962b2d8c62f925fd2, 1000000000000000000, 1000000000000000000, 0x, 0x, 0x)",
        "(737310678330384, 0)",
        "0x8C9C001F821c04513616fd7962B2D8c62f925fD2"
      ],
      "transaction": {
        "from": "0x8c9c001f821c04513616fd7962b2d8c62f925fd2",
        "to": "0x859eba9f58873d9284ccd211611494ed9d842204",
        "gas": "0x509fd",
        "value": "0x29e9485122c10",
        "input": "0xc7c7f5b3000000000000000000000000000000000000000000000000000000000000008000000000000000000000000000000000000000000000000000029e9485122c1000000000000000000000000000000000000000000000000000000000000000000000000000000000000000008c9c001f821c04513616fd7962b2d8c62f925fd20000000000000000000000000000000000000000000000000000000000009d350000000000000000000000008c9c001f821c04513616fd7962b2d8c62f925fd20000000000000000000000000000000000000000000000000de0b6b3a76400000000000000000000000000000000000000000000000000000de0b6b3a764000000000000000000000000000000000000000000000000000000000000000000e000000000000000000000000000000000000000000000000000000000000001000000000000000000000000000000000000000000000000000000000000000120000000000000000000000000000000000000000000000000000000000000000000000000000000000000000000000000000000000000000000000000000000000000000000000000000000000000000000000000000000000000000000000000",
        "nonce": "0x6c",
        "chainId": "0xaa36a7"
      },
      "additionalContracts": [],
      "isFixedGasLimit": false
    }
  ],
  "receipts": [
    {
      "status": "0x1",
      "cumulativeGasUsed": "0x992ad5",
      "logs": [
        {
          "address": "0x73ce27235b1d65028f1a7470b1f471df66a9504f",
          "topics": [
            "0xddf252ad1be2c89b69c2b068fc378daa952ba7f163c4a11628f55a4df523b3ef",
            "0x0000000000000000000000008c9c001f821c04513616fd7962b2d8c62f925fd2",
            "0x000000000000000000000000859eba9f58873d9284ccd211611494ed9d842204"
          ],
          "data": "0x0000000000000000000000000000000000000000000000000de0b6b3a7640000",
          "blockHash": "0xfac223173f8b744db5a18eac687a487917ba295af157452f44a26112bc514cdf",
          "blockNumber": "0x73b495",
          "transactionHash": "0x514a5917dcc66013867858f271f6257749ef3ca20d05d250a7c5b2f01fb93dbb",
          "transactionIndex": "0x7e",
          "logIndex": "0x95",
          "removed": false
        },
        {
          "address": "0xcc1ae8cf5d3904cef3360a9532b477529b177cce",
          "topics": [
            "0x61ed099e74a97a1d7f8bb0952a88ca8b7b8ebd00c126ea04671f92a81213318a"
          ],
          "data": "0x000000000000000000000000718b92b5cb0a5552039b593faf724d182a881eda0000000000000000000000000000000000000000000000000001f2f2f002aa30",
          "blockHash": "0xfac223173f8b744db5a18eac687a487917ba295af157452f44a26112bc514cdf",
          "blockNumber": "0x73b495",
          "transactionHash": "0x514a5917dcc66013867858f271f6257749ef3ca20d05d250a7c5b2f01fb93dbb",
          "transactionIndex": "0x7e",
          "logIndex": "0x96",
          "removed": false
        },
        {
          "address": "0xcc1ae8cf5d3904cef3360a9532b477529b177cce",
          "topics": [
            "0x07ea52d82345d6e838192107d8fd7123d9c2ec8e916cd0aad13fd2b60db24644"
          ],
          "data": "0x000000000000000000000000000000000000000000000000000000000000006000000000000000000000000000000000000000000000000000000000000000a000000000000000000000000000000000000000000000000000000000000000c000000000000000000000000000000000000000000000000000000000000000010000000000000000000000008eebf8b423b73bfca51a1db4b7354aa0bfca9193000000000000000000000000000000000000000000000000000000000000000000000000000000000000000000000000000000000000000000000000000000010000000000000000000000000000000000000000000000000000aba1950f81e0",
          "blockHash": "0xfac223173f8b744db5a18eac687a487917ba295af157452f44a26112bc514cdf",
          "blockNumber": "0x73b495",
          "transactionHash": "0x514a5917dcc66013867858f271f6257749ef3ca20d05d250a7c5b2f01fb93dbb",
          "transactionIndex": "0x7e",
          "logIndex": "0x97",
          "removed": false
        },
        {
          "address": "0x6edce65403992e310a62460808c4b910d972f10f",
          "topics": [
            "0x1ab700d4ced0c005b164c0f789fd09fcbb0156d4c2041b8a3bfbcd961cd1567f"
          ],
          "data": "0x00000000000000000000000000000000000000000000000000000000000000600000000000000000000000000000000000000000000000000000000000000120000000000000000000000000cc1ae8cf5d3904cef3360a9532b477529b177cce000000000000000000000000000000000000000000000000000000000000009901000000000000000300009ce1000000000000000000000000859eba9f58873d9284ccd211611494ed9d84220400009d35000000000000000000000000b35a100eac70ffc06a7e9a2a5dc94b3ac3213c681ebdf958dc2929bda22e7717a234b7f72d3fd9e62d59079d8224a1fbe9585baf0000000000000000000000008c9c001f821c04513616fd7962b2d8c62f925fd200000000000f424000000000000000000000000000000000000000000000000000000000000000000000000000001600030100110100000000000000000000000000030d4000000000000000000000",
          "blockHash": "0xfac223173f8b744db5a18eac687a487917ba295af157452f44a26112bc514cdf",
          "blockNumber": "0x73b495",
          "transactionHash": "0x514a5917dcc66013867858f271f6257749ef3ca20d05d250a7c5b2f01fb93dbb",
          "transactionIndex": "0x7e",
          "logIndex": "0x98",
          "removed": false
        },
        {
          "address": "0x859eba9f58873d9284ccd211611494ed9d842204",
          "topics": [
            "0xfff873bb909b73d08a8c1af4b21779e87103bb8ea8cf3b3a0067eb8526b8b80a",
            "0x1ebdf958dc2929bda22e7717a234b7f72d3fd9e62d59079d8224a1fbe9585baf",
            "0x0000000000000000000000008c9c001f821c04513616fd7962b2d8c62f925fd2"
          ],
          "data": "0x0000000000000000000000000000000000000000000000000000000000009d350000000000000000000000000000000000000000000000000de0b6b3a7640000",
          "blockHash": "0xfac223173f8b744db5a18eac687a487917ba295af157452f44a26112bc514cdf",
          "blockNumber": "0x73b495",
          "transactionHash": "0x514a5917dcc66013867858f271f6257749ef3ca20d05d250a7c5b2f01fb93dbb",
          "transactionIndex": "0x7e",
          "logIndex": "0x99",
          "removed": false
        }
      ],
      "logsBloom": "0x000000000000000000000000000008000000000000000000300000000001000020000000000000002000000000808000000000000000000000000000000080000404000000000000000000080040000000000000000000000000000000000020000000000000000082000000000000000000000000000080000000100000000000000000000000200000000800000000000000000200000000000000200000000000000080000000001000000000000000000000004000000004c8000000000000000002000000000000000100000000000000280000000000000000000000000000040000000000000000000000002000000000000000000000000000000020",
      "type": "0x2",
      "transactionHash": "0x514a5917dcc66013867858f271f6257749ef3ca20d05d250a7c5b2f01fb93dbb",
      "transactionIndex": "0x7e",
      "blockHash": "0xfac223173f8b744db5a18eac687a487917ba295af157452f44a26112bc514cdf",
      "blockNumber": "0x73b495",
      "gasUsed": "0x3a5ef",
      "effectiveGasPrice": "0x82cf993c5",
      "from": "0x8c9c001f821c04513616fd7962b2d8c62f925fd2",
      "to": "0x859eba9f58873d9284ccd211611494ed9d842204",
      "contractAddress": null
    }
  ],
  "libraries": [],
  "pending": [],
  "returns": {},
  "timestamp": 1737996770,
  "chain": 11155111,
  "commit": "50f5bf2"
}