{
  "transactions": [
    {
      "hash": "0x5006923d392c83946835a6b55291db8d83665b73051aa9a8ce22501f34a4b2c2",
      "transactionType": "CALL",
      "contractName": null,
      "contractAddress": "0xb35a100eac70ffc06a7e9a2a5dc94b3ac3213c68",
      "function": "setEnforcedOptions((uint32,uint16,bytes)[])",
      "arguments": [
        "[(40161, 1, 0x00030100110100000000000000000000000000030d40), (40161, 2, 0x000301001303000000000000000000000000000000000000)]"
      ],
      "transaction": {
        "from": "0x8c9c001f821c04513616fd7962b2d8c62f925fd2",
        "to": "0xb35a100eac70ffc06a7e9a2a5dc94b3ac3213c68",
        "gas": "0x1affc",
        "value": "0x0",
        "input": "0xb98bd07000000000000000000000000000000000000000000000000000000000000000200000000000000000000000000000000000000000000000000000000000000002000000000000000000000000000000000000000000000000000000000000004000000000000000000000000000000000000000000000000000000000000000e00000000000000000000000000000000000000000000000000000000000009ce100000000000000000000000000000000000000000000000000000000000000010000000000000000000000000000000000000000000000000000000000000060000000000000000000000000000000000000000000000000000000000000001600030100110100000000000000000000000000030d40000000000000000000000000000000000000000000000000000000000000000000000000000000009ce10000000000000000000000000000000000000000000000000000000000000002000000000000000000000000000000000000000000000000000000000000006000000000000000000000000000000000000000000000000000000000000000180003010013030000000000000000000000000000000000000000000000000000",
        "nonce": "0x3c",
        "chainId": "0x14a34"
      },
      "additionalContracts": [],
      "isFixedGasLimit": false
    }
  ],
  "receipts": [
    {
      "status": "0x1",
      "cumulativeGasUsed": "0x126ed1",
      "logs": [
        {
          "address": "0xb35a100eac70ffc06a7e9a2a5dc94b3ac3213c68",
          "topics": [
            "0xbe4864a8e820971c0247f5992e2da559595f7bf076a21cb5928d443d2a13b674"
          ],
          "data": "0x00000000000000000000000000000000000000000000000000000000000000200000000000000000000000000000000000000000000000000000000000000002000000000000000000000000000000000000000000000000000000000000004000000000000000000000000000000000000000000000000000000000000000e00000000000000000000000000000000000000000000000000000000000009ce100000000000000000000000000000000000000000000000000000000000000010000000000000000000000000000000000000000000000000000000000000060000000000000000000000000000000000000000000000000000000000000001600030100110100000000000000000000000000030d40000000000000000000000000000000000000000000000000000000000000000000000000000000009ce10000000000000000000000000000000000000000000000000000000000000002000000000000000000000000000000000000000000000000000000000000006000000000000000000000000000000000000000000000000000000000000000180003010013030000000000000000000000000000000000000000000000000000",
          "blockHash": "0x3bb312b17e8ec8a32c0e78af887231c65fbcd41817e104bf272241076ead67a4",
          "blockNumber": "0x1420098",
          "transactionHash": "0x5006923d392c83946835a6b55291db8d83665b73051aa9a8ce22501f34a4b2c2",
          "transactionIndex": "0xd",
          "logIndex": "0x12",
          "removed": false
        }
      ],
      "logsBloom": "0x00000000000000000000000000000000000000000000000000000000000000000000000000000000000000000000000000000000000000000000400000000000000000000000000000000000000000000000000000000000000000000000000000000000000000000000000000000000000000000000000000002000000000000000000000000000000000000000000000000000000000000000000000080000000000000000000000000000000000000000000000000000000000000000000000000000000000000000000002000000000000000000000000000010000000000000000000000000000000000000000000000000000040000000000000000000",
      "type": "0x2",
      "transactionHash": "0x5006923d392c83946835a6b55291db8d83665b73051aa9a8ce22501f34a4b2c2",
      "transactionIndex": "0xd",
      "blockHash": "0x3bb312b17e8ec8a32c0e78af887231c65fbcd41817e104bf272241076ead67a4",
      "blockNumber": "0x1420098",
      "gasUsed": "0x138c0",
      "effectiveGasPrice": "0x645b1e62",
      "from": "0x8c9c001f821c04513616fd7962b2d8c62f925fd2",
      "to": "0xb35a100eac70ffc06a7e9a2a5dc94b3ac3213c68",
      "contractAddress": null,
      "l1BaseFeeScalar": "0x44d",
      "l1BlobBaseFee": "0x2",
      "l1BlobBaseFeeScalar": "0xa118b",
      "l1Fee": "0x4932b629a",
      "l1GasPrice": "0x1d8d3d63b",
      "l1GasUsed": "0x8c9"
    }
  ],
  "libraries": [],
  "pending": [],
  "returns": {},
  "timestamp": 1737973776,
  "chain": 84532,
  "commit": "50f5bf2"
}