{
  "transactions": [
    {
      "hash": "0x9f5fc2f74dfdb24bc17ef9db1034da4e0a806f478037e9ac5e5accf672795ccd",
      "transactionType": "CALL",
      "contractName": null,
      "contractAddress": "0xb35a100eac70ffc06a7e9a2a5dc94b3ac3213c68",
      "function": "setWhitelist(address,bool)",
      "arguments": [
        "0x8C9C001F821c04513616fd7962B2D8c62f925fD2",
        "false"
      ],
      "transaction": {
        "from": "0x8c9c001f821c04513616fd7962b2d8c62f925fd2",
        "to": "0xb35a100eac70ffc06a7e9a2a5dc94b3ac3213c68",
        "gas": "0x9600",
        "value": "0x0",
        "input": "0x53d6fd590000000000000000000000008c9c001f821c04513616fd7962b2d8c62f925fd20000000000000000000000000000000000000000000000000000000000000000",
        "nonce": "0x3e",
        "chainId": "0x14a34"
      },
      "additionalContracts": [],
      "isFixedGasLimit": false
    }
  ],
  "receipts": [
    {
      "status": "0x1",
      "cumulativeGasUsed": "0x421568",
      "logs": [
        {
          "address": "0xb35a100eac70ffc06a7e9a2a5dc94b3ac3213c68",
          "topics": [
            "0xf6019ec0a78d156d249a1ec7579e2321f6ac7521d6e1d2eacf90ba4a184dcceb",
            "0x0000000000000000000000008c9c001f821c04513616fd7962b2d8c62f925fd2"
          ],
          "data": "0x0000000000000000000000000000000000000000000000000000000000000000",
          "blockHash": "0xfea2d124d265776da3ea851803c08aad5167da3e87c833f2f7f4b9e91a2476e4",
          "blockNumber": "0x1422d41",
          "transactionHash": "0x9f5fc2f74dfdb24bc17ef9db1034da4e0a806f478037e9ac5e5accf672795ccd",
          "transactionIndex": "0x1b",
          "logIndex": "0x45",
          "removed": false
        }
      ],
      "logsBloom": "0x00000000000000000000000000000800000000000000000000000000000000000000000000000000000000000000000000000000000000000000000000000000000000000000000000000000004000000000000000000000000000000000000000000000000000000000000000000000020000000000000000002000000000000000000000000000000000000000000000000000000000000000000000000000000000000000000000000000000000000000000000020000000080000000020000000000000000000000000000000000000000000000000000000010000000000000000000000000000000000000000000000000000040000000000000000000",
      "type": "0x2",
      "transactionHash": "0x9f5fc2f74dfdb24bc17ef9db1034da4e0a806f478037e9ac5e5accf672795ccd",
      "transactionIndex": "0x1b",
      "blockHash": "0xfea2d124d265776da3ea851803c08aad5167da3e87c833f2f7f4b9e91a2476e4",
      "blockNumber": "0x1422d41",
      "gasUsed": "0x6691",
      "effectiveGasPrice": "0x5ed06ff8",
      "from": "0x8c9c001f821c04513616fd7962b2d8c62f925fd2",
      "to": "0xb35a100eac70ffc06a7e9a2a5dc94b3ac3213c68",
      "contractAddress": null,
      "l1BaseFeeScalar": "0x44d",
      "l1BlobBaseFee": "0x1",
      "l1BlobBaseFeeScalar": "0xa118b",
      "l1Fee": "0x1077d6a676",
      "l1GasPrice": "0x9592fe8b2",
      "l1GasUsed": "0x640"
    }
  ],
  "libraries": [],
  "pending": [],
  "returns": {},
  "timestamp": 1737996643,
  "chain": 84532,
  "commit": "50f5bf2"
}