{
  "transactions": [
    {
      "hash": "0x03d13d511c45d5fdddc073320760c2dc861d2bdfeef9f3b821d63612ccb76d05",
      "transactionType": "CALL",
      "contractName": null,
      "contractAddress": "0x03946287b52b88c8357e813fba3f472c60fae727",
      "function": "setEnforcedOptions((uint32,uint16,bytes)[])",
      "arguments": [
        "[(40161, 1, 0x00030100110100000000000000000000000000030d40), (40161, 2, 0x000301001303000000000000000000000000000000000000)]"
      ],
      "transaction": {
        "from": "0x8c9c001f821c04513616fd7962b2d8c62f925fd2",
        "to": "0x03946287b52b88c8357e813fba3f472c60fae727",
        "gas": "0xe867",
        "value": "0x0",
        "input": "0xb98bd07000000000000000000000000000000000000000000000000000000000000000200000000000000000000000000000000000000000000000000000000000000002000000000000000000000000000000000000000000000000000000000000004000000000000000000000000000000000000000000000000000000000000000e00000000000000000000000000000000000000000000000000000000000009ce100000000000000000000000000000000000000000000000000000000000000010000000000000000000000000000000000000000000000000000000000000060000000000000000000000000000000000000000000000000000000000000001600030100110100000000000000000000000000030d40000000000000000000000000000000000000000000000000000000000000000000000000000000009ce10000000000000000000000000000000000000000000000000000000000000002000000000000000000000000000000000000000000000000000000000000006000000000000000000000000000000000000000000000000000000000000000180003010013030000000000000000000000000000000000000000000000000000",
        "nonce": "0xd5",
        "chainId": "0x14a34"
      },
      "additionalContracts": [],
      "isFixedGasLimit": false
    }
  ],
  "receipts": [
    {
      "status": "0x1",
      "cumulativeGasUsed": "0x3190e5",
      "logs": [
        {
          "address": "0x03946287b52b88c8357e813fba3f472c60fae727",
          "topics": [
            "0xbe4864a8e820971c0247f5992e2da559595f7bf076a21cb5928d443d2a13b674"
          ],
          "data": "0x00000000000000000000000000000000000000000000000000000000000000200000000000000000000000000000000000000000000000000000000000000002000000000000000000000000000000000000000000000000000000000000004000000000000000000000000000000000000000000000000000000000000000e00000000000000000000000000000000000000000000000000000000000009ce100000000000000000000000000000000000000000000000000000000000000010000000000000000000000000000000000000000000000000000000000000060000000000000000000000000000000000000000000000000000000000000001600030100110100000000000000000000000000030d40000000000000000000000000000000000000000000000000000000000000000000000000000000009ce10000000000000000000000000000000000000000000000000000000000000002000000000000000000000000000000000000000000000000000000000000006000000000000000000000000000000000000000000000000000000000000000180003010013030000000000000000000000000000000000000000000000000000",
          "blockHash": "0x14bfcf468b81466a8b8def6af4ed299c050851a271fb1d4764957a7442f5a2b9",
          "blockNumber": "0x162be87",
          "transactionHash": "0x03d13d511c45d5fdddc073320760c2dc861d2bdfeef9f3b821d63612ccb76d05",
          "transactionIndex": "0x11",
          "logIndex": "0x4e",
          "removed": false
        }
      ],
      "logsBloom": "0x00000000000000000000000000000000000000000000000000000000000000000000000000000000000000000000000000000000000000000000400000000000000000000000000000000000000000000000000000000000000000000000000000000000000000000000000000000000000000000000000000000000000010000000000000000000000000000000000000000000000000000000002000080000000000000000000000020000000000000000000000000000000000000000000000000000000000000000000002000000000000000000000000000000000000000000000000000000000000000000000000000000000000000000000000000000",
      "type": "0x2",
      "transactionHash": "0x03d13d511c45d5fdddc073320760c2dc861d2bdfeef9f3b821d63612ccb76d05",
      "transactionIndex": "0x11",
      "blockHash": "0x14bfcf468b81466a8b8def6af4ed299c050851a271fb1d4764957a7442f5a2b9",
      "blockNumber": "0x162be87",
      "gasUsed": "0x9ee9",
      "effectiveGasPrice": "0x88f82c",
      "from": "0x8c9c001f821c04513616fd7962b2d8c62f925fd2",
      "to": "0x03946287b52b88c8357e813fba3f472c60fae727",
      "contractAddress": null,
      "l1BaseFeeScalar": "0x44d",
      "l1BlobBaseFee": "0x1",
      "l1BlobBaseFeeScalar": "0xa118b",
      "l1Fee": "0x7804c9",
      "l1GasPrice": "0x30be61",
      "l1GasUsed": "0x8bc"
    }
  ],
  "libraries": [],
  "pending": [],
  "returns": {},
  "timestamp": 1742265327,
  "chain": 84532,
  "commit": "abe79db"
}