{
  "transactions": [
    {
      "hash": "0x004add8f246e3b1af27863de95c1054332fcf1ad656cb195fb2b5ddf88c1c9cd",
      "transactionType": "CALL",
      "contractName": null,
      "contractAddress": "0x03946287b52b88c8357e813fba3f472c60fae727",
      "function": "setOutboundLimit(uint32,uint256)",
      "arguments": [
        "40161",
        "10000000000000000000000"
      ],
      "transaction": {
        "from": "0x8c9c001f821c04513616fd7962b2d8c62f925fd2",
        "to": "0x03946287b52b88c8357e813fba3f472c60fae727",
        "gas": "0xae7f",
        "value": "0x0",
        "input": "0x65d28a6b0000000000000000000000000000000000000000000000000000000000009ce100000000000000000000000000000000000000000000021e19e0c9bab2400000",
        "nonce": "0xd6",
        "chainId": "0x14a34"
      },
      "additionalContracts": [],
      "isFixedGasLimit": false
    },
    {
      "hash": "0x430df735aee199906b1f3e00f2acc600230faaf28500ead75e8d9d39c690c7e2",
      "transactionType": "CALL",
      "contractName": null,
      "contractAddress": "0x03946287b52b88c8357e813fba3f472c60fae727",
      "function": "setInboundLimit(uint32,uint256)",
      "arguments": [
        "40161",
        "10000000000000000000000"
      ],
      "transaction": {
        "from": "0x8c9c001f821c04513616fd7962b2d8c62f925fd2",
        "to": "0x03946287b52b88c8357e813fba3f472c60fae727",
        "gas": "0xa50b",
        "value": "0x0",
        "input": "0x9a2fe9e40000000000000000000000000000000000000000000000000000000000009ce100000000000000000000000000000000000000000000021e19e0c9bab2400000",
        "nonce": "0xd7",
        "chainId": "0x14a34"
      },
      "additionalContracts": [],
      "isFixedGasLimit": false
    }
  ],
  "receipts": [
    {
      "status": "0x1",
      "cumulativeGasUsed": "0x9ec8a6",
      "logs": [
        {
          "address": "0x03946287b52b88c8357e813fba3f472c60fae727",
          "topics": [
            "0x7628c1599617e8f71acfbf363d8064a2a32bdb6e63e074de3250cab57047bf79",
            "0x0000000000000000000000000000000000000000000000000000000000009ce1"
          ],
          "data": "0x00000000000000000000000000000000000000000000021e19e0c9bab2400000",
          "blockHash": "0x70c37c8f643b6e85cf5325e2ee0f3e4fe0b09e07c1d74a4df2d720001e098eca",
          "blockNumber": "0x162bea7",
          "transactionHash": "0x004add8f246e3b1af27863de95c1054332fcf1ad656cb195fb2b5ddf88c1c9cd",
          "transactionIndex": "0x2e",
          "logIndex": "0x10a",
          "removed": false
        }
      ],
      "logsBloom": "0x00000000000000000000000000000000000000000000000000000000000000000000000000000000000000000000000000000000000000000000000000000000000000000000000000000000000000000000000000000000000000000000800000000000000000000000000000800000000000100000000000000000000010000000000000000000000000000000000000000000000000000000002000000000000000000000000000020000000000000000000000000000000000000000000000000000000000000000000000080000000000000000008000000000000000000000000000000000000000000000000200000000000000000000000000000000",
      "type": "0x2",
      "transactionHash": "0x004add8f246e3b1af27863de95c1054332fcf1ad656cb195fb2b5ddf88c1c9cd",
      "transactionIndex": "0x2e",
      "blockHash": "0x70c37c8f643b6e85cf5325e2ee0f3e4fe0b09e07c1d74a4df2d720001e098eca",
      "blockNumber": "0x162bea7",
      "gasUsed": "0x7751",
      "effectiveGasPrice": "0x8a6860",
      "from": "0x8c9c001f821c04513616fd7962b2d8c62f925fd2",
      "to": "0x03946287b52b88c8357e813fba3f472c60fae727",
      "contractAddress": null,
      "l1BaseFeeScalar": "0x44d",
      "l1BlobBaseFee": "0x1",
      "l1BlobBaseFeeScalar": "0xa118b",
      "l1Fee": "0x53f32a",
      "l1GasPrice": "0x2fa7a7",
      "l1GasUsed": "0x640"
    },
    {
      "status": "0x1",
      "cumulativeGasUsed": "0xdba48a",
      "logs": [
        {
          "address": "0x03946287b52b88c8357e813fba3f472c60fae727",
          "topics": [
            "0x9cc3784ef7ab64c61f0abf58d72c2a40ef45b319db540006be0aa3e4610b8433",
            "0x0000000000000000000000000000000000000000000000000000000000009ce1"
          ],
          "data": "0x00000000000000000000000000000000000000000000021e19e0c9bab2400000",
          "blockHash": "0x70c37c8f643b6e85cf5325e2ee0f3e4fe0b09e07c1d74a4df2d720001e098eca",
          "blockNumber": "0x162bea7",
          "transactionHash": "0x430df735aee199906b1f3e00f2acc600230faaf28500ead75e8d9d39c690c7e2",
          "transactionIndex": "0x3a",
          "logIndex": "0x17e",
          "removed": false
        }
      ],
      "logsBloom": "0x00000000000000000000000000000000000000000000000000000000000000000000000000000000000000000000000000000000000000000001000000000000000000000000000000000000000000000000000000000000000000000000000000000000000000000000000000800000000000100000000000000000000010000000000000000000000000000000000000000000000000000000002000008000000000000000000004020000000000000000000000000000000000000000000000000000000000000000000000000000000000000000000000000000000000000000000000000000000000000000000200000000000000000000000000000000",
      "type": "0x2",
      "transactionHash": "0x430df735aee199906b1f3e00f2acc600230faaf28500ead75e8d9d39c690c7e2",
      "transactionIndex": "0x3a",
      "blockHash": "0x70c37c8f643b6e85cf5325e2ee0f3e4fe0b09e07c1d74a4df2d720001e098eca",
      "blockNumber": "0x162bea7",
      "gasUsed": "0x777e",
      "effectiveGasPrice": "0x8a6860",
      "from": "0x8c9c001f821c04513616fd7962b2d8c62f925fd2",
      "to": "0x03946287b52b88c8357e813fba3f472c60fae727",
      "contractAddress": null,
      "l1BaseFeeScalar": "0x44d",
      "l1BlobBaseFee": "0x1",
      "l1BlobBaseFeeScalar": "0xa118b",
      "l1Fee": "0x53f32a",
      "l1GasPrice": "0x2fa7a7",
      "l1GasUsed": "0x640"
    }
  ],
  "libraries": [],
  "pending": [],
  "returns": {},
  "timestamp": 1742265391,
  "chain": 84532,
  "commit": "abe79db"
}