{
  "transactions": [
    {
      "hash": "0x5bd4f03154c23aaba461359e0dd4c468548e3c0a81e837eb7617d7844e8553de",
      "transactionType": "CALL",
      "contractName": null,
      "contractAddress": "0xfdf8c03CdbC1851BF5bd42a73F4fBA8102F4b515",
      "function": "setPeer(uint32,bytes32)",
      "arguments": [
        "30101",
        "0x00000000000000000000000023e086a3ad04e8dab40c263fe18fa1f32ed28fb7"
      ],
      "transaction": {
        "type": "0x02",
        "from": "0x8c9c001f821c04513616fd7962b2d8c62f925fd2",
        "to": "0xfdf8c03cdbc1851bf5bd42a73f4fba8102f4b515",
        "gas": "0x1016a",
        "value": "0x0",
        "data": "0x3400288b000000000000000000000000000000000000000000000000000000000000759500000000000000000000000023e086a3ad04e8dab40c263fe18fa1f32ed28fb7",
        "nonce": "0x14",
        "accessList": []
      },
      "additionalContracts": [],
      "isFixedGasLimit": false
    }
  ],
  "receipts": [
    {
      "transactionHash": "0x5bd4f03154c23aaba461359e0dd4c468548e3c0a81e837eb7617d7844e8553de",
      "transactionIndex": "0x34",
      "blockHash": "0x4db62b9c74e90df918726c74db6a334f3427dd52e832958926a99f4053e9541e",
      "blockNumber": "0x35275d2",
      "from": "0x8C9C001F821c04513616fd7962B2D8c62f925fD2",
      "to": "0xfdf8c03CdbC1851BF5bd42a73F4fBA8102F4b515",
      "cumulativeGasUsed": "0x6bc448",
      "gasUsed": "0xba5e",
      "contractAddress": null,
      "logs": [
        {
          "address": "0xfdf8c03CdbC1851BF5bd42a73F4fBA8102F4b515",
          "topics": [
            "0x238399d427b947898edb290f5ff0f9109849b1c3ba196a42e35f00c50a54b98b"
          ],
          "data": "0x000000000000000000000000000000000000000000000000000000000000759500000000000000000000000023e086a3ad04e8dab40c263fe18fa1f32ed28fb7",
          "blockHash": "0x4db62b9c74e90df918726c74db6a334f3427dd52e832958926a99f4053e9541e",
          "blockNumber": "0x35275d2",
          "transactionHash": "0x5bd4f03154c23aaba461359e0dd4c468548e3c0a81e837eb7617d7844e8553de",
          "transactionIndex": "0x34",
          "logIndex": "0x104",
          "removed": false
        },
        {
          "address": "0x0000000000000000000000000000000000001010",
          "topics": [
            "0x4dfe1bbbcf077ddc3e01291eea2d5c70c2b422b415d95645b9adcfd678cb1d63",
            "0x0000000000000000000000000000000000000000000000000000000000001010",
            "0x0000000000000000000000008c9c001f821c04513616fd7962b2d8c62f925fd2",
            "0x000000000000000000000000127685d6dd6683085da4b6a041efcef1681e5c9c"
          ],
          "data": "0x000000000000000000000000000000000000000000000000000515c280112800000000000000000000000000000000000000000000000000b0ef668cdd6ae97d00000000000000000000000000000000000000000000040f427eb86f68dabb95000000000000000000000000000000000000000000000000b0ea50ca5d59c17d00000000000000000000000000000000000000000000040f4283ce31e8ebe395",
          "blockHash": "0x4db62b9c74e90df918726c74db6a334f3427dd52e832958926a99f4053e9541e",
          "blockNumber": "0x35275d2",
          "transactionHash": "0x5bd4f03154c23aaba461359e0dd4c468548e3c0a81e837eb7617d7844e8553de",
          "transactionIndex": "0x34",
          "logIndex": "0x105",
          "removed": false
        }
      ],
      "status": "0x1",
      "logsBloom": "0x00000000000000000020000000000800000000000000000000000000000000000040000000000000000000000000000000008000000000000800000000000000000000000000000000000000004000800000000000000000000100000000000000000000000000000000000000000000000000000000000080000000000000000000000000000000000000000000000000000000000000000000000000000000200000000000000000000400000000000000000000000000000082000000004000000000000000000001000000000000080000000000000000140000000000000000000000000000000000000000000000000000000004000000000000100020",
      "type": "0x2",
      "effectiveGasPrice": "0x39c7368886"
    }
  ],
  "libraries": [],
  "pending": [],
  "returns": {},
  "timestamp": 1712920384,
  "chain": 137,
  "commit": "f9c0721"
}