{
  "transactions": [
    {
      "hash": "0xe9d1638aebc09c60fb4ee920f1057a81e18f73fe58f1a7ac93882bcba006b8fa",
      "transactionType": "CALL",
      "contractName": null,
      "contractAddress": "0xfdf8c03CdbC1851BF5bd42a73F4fBA8102F4b515",
      "function": "setOperator(address,bool)",
      "arguments": [
        "0x81C2C46de0F533697C5AdFbf4a4C5746947109C9",
        "true"
      ],
      "transaction": {
        "type": "0x02",
        "from": "0x8c9c001f821c04513616fd7962b2d8c62f925fd2",
        "to": "0xfdf8c03cdbc1851bf5bd42a73f4fba8102f4b515",
        "gas": "0x10269",
        "value": "0x0",
        "data": "0x558a729700000000000000000000000081c2c46de0f533697c5adfbf4a4c5746947109c90000000000000000000000000000000000000000000000000000000000000001",
        "nonce": "0x23",
        "accessList": []
      },
      "additionalContracts": [],
      "isFixedGasLimit": false
    }
  ],
  "receipts": [
    {
      "transactionHash": "0xe9d1638aebc09c60fb4ee920f1057a81e18f73fe58f1a7ac93882bcba006b8fa",
      "transactionIndex": "0x42",
      "blockHash": "0xec7e7e3d0c32966974aa8c1b52c4e04eacfd016e883ac87453ab6274bc3d7fc1",
      "blockNumber": "0x354c019",
      "from": "0x8C9C001F821c04513616fd7962B2D8c62f925fD2",
      "to": "0xfdf8c03CdbC1851BF5bd42a73F4fBA8102F4b515",
      "cumulativeGasUsed": "0x948593",
      "gasUsed": "0xbb16",
      "contractAddress": null,
      "logs": [
        {
          "address": "0xfdf8c03CdbC1851BF5bd42a73F4fBA8102F4b515",
          "topics": [
            "0x1618a22a3b00b9ac70fd5a82f1f5cdd8cb272bd0f1b740ddf7c26ab05881dd5b",
            "0x00000000000000000000000081c2c46de0f533697c5adfbf4a4c5746947109c9"
          ],
          "data": "0x0000000000000000000000000000000000000000000000000000000000000001",
          "blockHash": "0xec7e7e3d0c32966974aa8c1b52c4e04eacfd016e883ac87453ab6274bc3d7fc1",
          "blockNumber": "0x354c019",
          "transactionHash": "0xe9d1638aebc09c60fb4ee920f1057a81e18f73fe58f1a7ac93882bcba006b8fa",
          "transactionIndex": "0x42",
          "logIndex": "0x115",
          "removed": false
        },
        {
          "address": "0x0000000000000000000000000000000000001010",
          "topics": [
            "0x4dfe1bbbcf077ddc3e01291eea2d5c70c2b422b415d95645b9adcfd678cb1d63",
            "0x0000000000000000000000000000000000000000000000000000000000001010",
            "0x0000000000000000000000008c9c001f821c04513616fd7962b2d8c62f925fd2",
            "0x0000000000000000000000007c7379531b2aee82e4ca06d4175d13b9cbeafd49"
          ],
          "data": "0x00000000000000000000000000000000000000000000000000048550996e9a180000000000000000000000000000000000000000000000006a347a0ef3210ff000000000000000000000000000000000000000000002ec481466bfbf7f0684530000000000000000000000000000000000000000000000006a2ff4be59b275d800000000000000000000000000000000000000000002ec48146b451018751e6b",
          "blockHash": "0xec7e7e3d0c32966974aa8c1b52c4e04eacfd016e883ac87453ab6274bc3d7fc1",
          "blockNumber": "0x354c019",
          "transactionHash": "0xe9d1638aebc09c60fb4ee920f1057a81e18f73fe58f1a7ac93882bcba006b8fa",
          "transactionIndex": "0x42",
          "logIndex": "0x116",
          "removed": false
        }
      ],
      "status": "0x1",
      "logsBloom": "0x00000000000000000020200000000800000000000000000000000000000000400040000020000000000000000000000000008000000000000000000000000000000000000000000000000000004000800000000000400000000100000400000000000000200000000000000000000000000000000000000080000000000000000000000000000000000000000000000000000000000000000000000000000000200000000000000000000400000000000000000000000000000080000000004000004000000000000001000100000000000000000000000000100000000000000000000000000000000000000000000000000000000000000000000000100000",
      "type": "0x2",
      "effectiveGasPrice": "0x1a63563b0c"
    }
  ],
  "libraries": [],
  "pending": [],
  "returns": {},
  "timestamp": 1713261476,
  "chain": 137,
  "commit": "f9c0721"
}