{
  "transactions": [
    {
      "hash": "0xdc741518c0070560e1fba3696adf63a8a5161f39534889b0bbffca95e5ac5921",
      "transactionType": "CALL",
      "contractName": null,
      "contractAddress": "0xfdf8c03CdbC1851BF5bd42a73F4fBA8102F4b515",
      "function": "setPeer(uint32,bytes32)",
      "arguments": [
        "30101",
        "0x00000000000000000000000023e086a3ad04e8dab40c263fe18fa1f32ed28fb7"
      ],
      "transaction": {
        "type": "0x02",
        "from": "0x8c9c001f821c04513616fd7962b2d8c62f925fd2",
        "to": "0xfdf8c03cdbc1851bf5bd42a73f4fba8102f4b515",
        "gas": "0x9edf",
        "value": "0x0",
        "data": "0x3400288b000000000000000000000000000000000000000000000000000000000000759500000000000000000000000023e086a3ad04e8dab40c263fe18fa1f32ed28fb7",
        "nonce": "0x1a",
        "accessList": []
      },
      "additionalContracts": [],
      "isFixedGasLimit": false
    }
  ],
  "receipts": [
    {
      "transactionHash": "0xdc741518c0070560e1fba3696adf63a8a5161f39534889b0bbffca95e5ac5921",
      "transactionIndex": "0x9f",
      "blockHash": "0x0f93b12ec758210fd49980284c7a07a534da9868366c66f497a2a95bdb406382",
      "blockNumber": "0x3527a44",
      "from": "0x8C9C001F821c04513616fd7962B2D8c62f925fD2",
      "to": "0xfdf8c03CdbC1851BF5bd42a73F4fBA8102F4b515",
      "cumulativeGasUsed": "0xe6d1ad",
      "gasUsed": "0x6ca2",
      "contractAddress": null,
      "logs": [
        {
          "address": "0xfdf8c03CdbC1851BF5bd42a73F4fBA8102F4b515",
          "topics": [
            "0x238399d427b947898edb290f5ff0f9109849b1c3ba196a42e35f00c50a54b98b"
          ],
          "data": "0x000000000000000000000000000000000000000000000000000000000000759500000000000000000000000023e086a3ad04e8dab40c263fe18fa1f32ed28fb7",
          "blockHash": "0x0f93b12ec758210fd49980284c7a07a534da9868366c66f497a2a95bdb406382",
          "blockNumber": "0x3527a44",
          "transactionHash": "0xdc741518c0070560e1fba3696adf63a8a5161f39534889b0bbffca95e5ac5921",
          "transactionIndex": "0x9f",
          "logIndex": "0x1aa",
          "removed": false
        },
        {
          "address": "0x0000000000000000000000000000000000001010",
          "topics": [
            "0x4dfe1bbbcf077ddc3e01291eea2d5c70c2b422b415d95645b9adcfd678cb1d63",
            "0x0000000000000000000000000000000000000000000000000000000000001010",
            "0x0000000000000000000000008c9c001f821c04513616fd7962b2d8c62f925fd2",
            "0x000000000000000000000000794e44d1334a56fea7f4df12633b88820d0c5888"
          ],
          "data": "0x000000000000000000000000000000000000000000000000000343a93aa02d9e000000000000000000000000000000000000000000000000b04d358bd48a868d00000000000000000000000000000000000000000000002b8f4f1b68ad3f4c8e000000000000000000000000000000000000000000000000b049f1e299ea58ef00000000000000000000000000000000000000000000002b8f525f11e7df7a2c",
          "blockHash": "0x0f93b12ec758210fd49980284c7a07a534da9868366c66f497a2a95bdb406382",
          "blockNumber": "0x3527a44",
          "transactionHash": "0xdc741518c0070560e1fba3696adf63a8a5161f39534889b0bbffca95e5ac5921",
          "transactionIndex": "0x9f",
          "logIndex": "0x1ab",
          "removed": false
        }
      ],
      "status": "0x1",
      "logsBloom": "0x00000000000000000020000000000800000000000000000000000000000000000040000000001000000000000000000000008000000000000800000000000000000000000000000000000000004000800000000000000000000100020000000000000000000000000000000000000000000000000000000080000000000000000000000000000000000000000000000000000000000000000000000000000000200000000000000000000400000000000000000000000000000082000000004000000000000000000001000000000000000000000000000000140000000000000000000000000000000000000000000000000000000000000000000020100000",
      "type": "0x2",
      "effectiveGasPrice": "0x2f9ff1b371"
    }
  ],
  "libraries": [],
  "pending": [],
  "returns": {},
  "timestamp": 1712923400,
  "chain": 137,
  "commit": "f9c0721"
}