{
  "transactions": [
    {
      "hash": "0x4d685e67edc5060e3c9e8fc41c102d2d50258df48b02ad1df6ba088ffe209c6e",
      "transactionType": "CALL",
      "contractName": null,
      "contractAddress": "0xfdf8c03CdbC1851BF5bd42a73F4fBA8102F4b515",
      "function": "setPeer(uint32,bytes32)",
      "arguments": [
        "30101",
        "0x00000000000000000000000023e086a3ad04e8dab40c263fe18fa1f32ed28fb7"
      ],
      "transaction": {
        "type": "0x02",
        "from": "0x8c9c001f821c04513616fd7962b2d8c62f925fd2",
        "to": "0xfdf8c03cdbc1851bf5bd42a73f4fba8102f4b515",
        "gas": "0x9edf",
        "value": "0x0",
        "data": "0x3400288b000000000000000000000000000000000000000000000000000000000000759500000000000000000000000023e086a3ad04e8dab40c263fe18fa1f32ed28fb7",
        "nonce": "0x1e",
        "accessList": []
      },
      "additionalContracts": [],
      "isFixedGasLimit": false
    }
  ],
  "receipts": [
    {
      "transactionHash": "0x4d685e67edc5060e3c9e8fc41c102d2d50258df48b02ad1df6ba088ffe209c6e",
      "transactionIndex": "0x50",
      "blockHash": "0x63768b8bba8f4d0470075e5312dc1de13d1c6182b1fcd9fa0e9f7abb0fbe60f9",
      "blockNumber": "0x3527d2b",
      "from": "0x8C9C001F821c04513616fd7962B2D8c62f925fD2",
      "to": "0xfdf8c03CdbC1851BF5bd42a73F4fBA8102F4b515",
      "cumulativeGasUsed": "0xb3de13",
      "gasUsed": "0x6ca2",
      "contractAddress": null,
      "logs": [
        {
          "address": "0xfdf8c03CdbC1851BF5bd42a73F4fBA8102F4b515",
          "topics": [
            "0x238399d427b947898edb290f5ff0f9109849b1c3ba196a42e35f00c50a54b98b"
          ],
          "data": "0x000000000000000000000000000000000000000000000000000000000000759500000000000000000000000023e086a3ad04e8dab40c263fe18fa1f32ed28fb7",
          "blockHash": "0x63768b8bba8f4d0470075e5312dc1de13d1c6182b1fcd9fa0e9f7abb0fbe60f9",
          "blockNumber": "0x3527d2b",
          "transactionHash": "0x4d685e67edc5060e3c9e8fc41c102d2d50258df48b02ad1df6ba088ffe209c6e",
          "transactionIndex": "0x50",
          "logIndex": "0x15d",
          "removed": false
        },
        {
          "address": "0x0000000000000000000000000000000000001010",
          "topics": [
            "0x4dfe1bbbcf077ddc3e01291eea2d5c70c2b422b415d95645b9adcfd678cb1d63",
            "0x0000000000000000000000000000000000000000000000000000000000001010",
            "0x0000000000000000000000008c9c001f821c04513616fd7962b2d8c62f925fd2",
            "0x000000000000000000000000a8b52f02108aa5f4b675bdcc973760022d7c6020"
          ],
          "data": "0x00000000000000000000000000000000000000000000000000031052e132fe00000000000000000000000000000000000000000000000000afe69a30c4212d0e0000000000000000000000000000000000000000000000039496463a35703560000000000000000000000000000000000000000000000000afe389dde2ee2f0e0000000000000000000000000000000000000000000000039499568d16a33360",
          "blockHash": "0x63768b8bba8f4d0470075e5312dc1de13d1c6182b1fcd9fa0e9f7abb0fbe60f9",
          "blockNumber": "0x3527d2b",
          "transactionHash": "0x4d685e67edc5060e3c9e8fc41c102d2d50258df48b02ad1df6ba088ffe209c6e",
          "transactionIndex": "0x50",
          "logIndex": "0x15e",
          "removed": false
        }
      ],
      "status": "0x1",
      "logsBloom": "0x00000000000000000020000000000800000000000000000000000000000000000040000000000000000000000002000000008000000000000800000000000000000000000000000000000000004000800000000000000000000100000000000000000000000000000000000000000000000000000000000080000000000000000000000000000000000000000000000000000000000000040000000000000000200000000000004000000400000000000000000000000000000082000000004000000000000000000001000000000000000000000000000000140000000000000000000000000000000000000000000000000000000000000000000000100000",
      "type": "0x2",
      "effectiveGasPrice": "0x45f3d216d0"
    }
  ],
  "libraries": [],
  "pending": [],
  "returns": {},
  "timestamp": 1712925396,
  "chain": 137,
  "commit": "f9c0721"
}