{
  "transactions": [
    {
      "hash": "0xa0f565b3d1918cb792ff94cc332ab3a131bc0037fb7f58ee9dba6d7bb18b50e4",
      "transactionType": "CALL",
      "contractName": null,
      "contractAddress": "0xfdf8c03CdbC1851BF5bd42a73F4fBA8102F4b515",
      "function": "setPeer(uint32,bytes32)",
      "arguments": [
        "30101",
        "0x0000000000000000000000000000000000000000000000000000000000000000"
      ],
      "transaction": {
        "type": "0x02",
        "from": "0x8c9c001f821c04513616fd7962b2d8c62f925fd2",
        "to": "0xfdf8c03cdbc1851bf5bd42a73f4fba8102f4b515",
        "gas": "0x9213",
        "value": "0x0",
        "data": "0x3400288b00000000000000000000000000000000000000000000000000000000000075950000000000000000000000000000000000000000000000000000000000000000",
        "nonce": "0x13",
        "accessList": []
      },
      "additionalContracts": [],
      "isFixedGasLimit": false
    }
  ],
  "receipts": [
    {
      "transactionHash": "0xa0f565b3d1918cb792ff94cc332ab3a131bc0037fb7f58ee9dba6d7bb18b50e4",
      "transactionIndex": "0xd1",
      "blockHash": "0x13b6c5871da5d0595a1eb5af8d577d4d7656576ff974a911fbf98237cd875257",
      "blockNumber": "0x3527520",
      "from": "0x8C9C001F821c04513616fd7962B2D8c62f925fD2",
      "to": "0xfdf8c03CdbC1851BF5bd42a73F4fBA8102F4b515",
      "cumulativeGasUsed": "0x12d025a",
      "gasUsed": "0x63e2",
      "contractAddress": null,
      "logs": [
        {
          "address": "0xfdf8c03CdbC1851BF5bd42a73F4fBA8102F4b515",
          "topics": [
            "0x238399d427b947898edb290f5ff0f9109849b1c3ba196a42e35f00c50a54b98b"
          ],
          "data": "0x00000000000000000000000000000000000000000000000000000000000075950000000000000000000000000000000000000000000000000000000000000000",
          "blockHash": "0x13b6c5871da5d0595a1eb5af8d577d4d7656576ff974a911fbf98237cd875257",
          "blockNumber": "0x3527520",
          "transactionHash": "0xa0f565b3d1918cb792ff94cc332ab3a131bc0037fb7f58ee9dba6d7bb18b50e4",
          "transactionIndex": "0xd1",
          "logIndex": "0x2be",
          "removed": false
        },
        {
          "address": "0x0000000000000000000000000000000000001010",
          "topics": [
            "0x4dfe1bbbcf077ddc3e01291eea2d5c70c2b422b415d95645b9adcfd678cb1d63",
            "0x0000000000000000000000000000000000000000000000000000000000001010",
            "0x0000000000000000000000008c9c001f821c04513616fd7962b2d8c62f925fd2",
            "0x00000000000000000000000090b11143a0cb64e067402307bc7f2276dcec8250"
          ],
          "data": "0x0000000000000000000000000000000000000000000000000001bbeb89c91c92000000000000000000000000000000000000000000000000b108649d6ed7752b00000000000000000000000000000000000000000000003c86b91b153cbd26c3000000000000000000000000000000000000000000000000b106a8b1e50e589900000000000000000000000000000000000000000000003c86bad700c6864355",
          "blockHash": "0x13b6c5871da5d0595a1eb5af8d577d4d7656576ff974a911fbf98237cd875257",
          "blockNumber": "0x3527520",
          "transactionHash": "0xa0f565b3d1918cb792ff94cc332ab3a131bc0037fb7f58ee9dba6d7bb18b50e4",
          "transactionIndex": "0xd1",
          "logIndex": "0x2bf",
          "removed": false
        }
      ],
      "status": "0x1",
      "logsBloom": "0x00000000000000000020000000000800000000000000000000000000000000000040000000000000000000000000000000008000000000000800000000000000000000000000000000000000004000800000000000000000000100000000000000000000000000000000000000000000000000080000000080000000000000040000000000000000000000000000000000000000000000000000000000000000200000000000000000000400000000000000000000000000000082000000004200000000000000000001000000000000000000000000000000140000000000000000000000000000000000000000000000000000000000000000000000100000",
      "type": "0x2",
      "effectiveGasPrice": "0x400e432c47"
    }
  ],
  "libraries": [],
  "pending": [],
  "returns": {},
  "timestamp": 1712919943,
  "chain": 137,
  "commit": "f9c0721"
}