{
  "transactions": [
    {
      "hash": "0xb4511e13c9559e08473f0ef95bcb15077c91fd10560726e623bd91e2d53eab15",
      "transactionType": "CALL",
      "contractName": null,
      "contractAddress": "0xfdf8c03CdbC1851BF5bd42a73F4fBA8102F4b515",
      "function": "setPeer(uint32,bytes32)",
      "arguments": [
        "30101",
        "0x00000000000000000000000023e086a3ad04e8dab40c263fe18fa1f32ed28fb7"
      ],
      "transaction": {
        "type": "0x02",
        "from": "0x8c9c001f821c04513616fd7962b2d8c62f925fd2",
        "to": "0xfdf8c03cdbc1851bf5bd42a73f4fba8102f4b515",
        "gas": "0x9edf",
        "value": "0x0",
        "data": "0x3400288b000000000000000000000000000000000000000000000000000000000000759500000000000000000000000023e086a3ad04e8dab40c263fe18fa1f32ed28fb7",
        "nonce": "0x1c",
        "accessList": []
      },
      "additionalContracts": [],
      "isFixedGasLimit": false
    }
  ],
  "receipts": [
    {
      "transactionHash": "0xb4511e13c9559e08473f0ef95bcb15077c91fd10560726e623bd91e2d53eab15",
      "transactionIndex": "0x3d",
      "blockHash": "0xc63822f67dd42832383f9f4e55b7f67235f47e6ba70eb15a897e45ab7426617e",
      "blockNumber": "0x3527b5b",
      "from": "0x8C9C001F821c04513616fd7962B2D8c62f925fD2",
      "to": "0xfdf8c03CdbC1851BF5bd42a73F4fBA8102F4b515",
      "cumulativeGasUsed": "0x9421f1",
      "gasUsed": "0x6ca2",
      "contractAddress": null,
      "logs": [
        {
          "address": "0xfdf8c03CdbC1851BF5bd42a73F4fBA8102F4b515",
          "topics": [
            "0x238399d427b947898edb290f5ff0f9109849b1c3ba196a42e35f00c50a54b98b"
          ],
          "data": "0x000000000000000000000000000000000000000000000000000000000000759500000000000000000000000023e086a3ad04e8dab40c263fe18fa1f32ed28fb7",
          "blockHash": "0xc63822f67dd42832383f9f4e55b7f67235f47e6ba70eb15a897e45ab7426617e",
          "blockNumber": "0x3527b5b",
          "transactionHash": "0xb4511e13c9559e08473f0ef95bcb15077c91fd10560726e623bd91e2d53eab15",
          "transactionIndex": "0x3d",
          "logIndex": "0x117",
          "removed": false
        },
        {
          "address": "0x0000000000000000000000000000000000001010",
          "topics": [
            "0x4dfe1bbbcf077ddc3e01291eea2d5c70c2b422b415d95645b9adcfd678cb1d63",
            "0x0000000000000000000000000000000000000000000000000000000000001010",
            "0x0000000000000000000000008c9c001f821c04513616fd7962b2d8c62f925fd2",
            "0x00000000000000000000000067b94473d81d0cd00849d563c94d0432ac988b49"
          ],
          "data": "0x00000000000000000000000000000000000000000000000000037ce3f2ad7d9c000000000000000000000000000000000000000000000000b0201dd21808445300000000000000000000000000000000000000000000145f9dfd2f0a72cb7e23000000000000000000000000000000000000000000000000b01ca0ee255ac6b700000000000000000000000000000000000000000000145f9e00abee6578fbbf",
          "blockHash": "0xc63822f67dd42832383f9f4e55b7f67235f47e6ba70eb15a897e45ab7426617e",
          "blockNumber": "0x3527b5b",
          "transactionHash": "0xb4511e13c9559e08473f0ef95bcb15077c91fd10560726e623bd91e2d53eab15",
          "transactionIndex": "0x3d",
          "logIndex": "0x118",
          "removed": false
        }
      ],
      "status": "0x1",
      "logsBloom": "0x00000000000000000020000000000800000000000000000000000000000000000040000000000000000000000000000000008000000000000800000000000000000000000000000000000000004000800000000000000000000100000000000000000000000000000000000000000000000000000000000080000000000000000000000000000000000000000000000000000000000000000000000000000000200000000000000000000400000000000000000000000000000082000000004000800000000000000001000000008000000000000000000000140000000000000000020000000000000000000000000000000000000000000000000000100000",
      "type": "0x2",
      "effectiveGasPrice": "0x40768e59eb"
    }
  ],
  "libraries": [],
  "pending": [],
  "returns": {},
  "timestamp": 1712924183,
  "chain": 137,
  "commit": "f9c0721"
}