{
  "transactions": [
    {
      "hash": "0xd01ae8b2176d1dbf0a2f0909e0e489ccdc18558658a646652cd51fa949f79ed9",
      "transactionType": "CALL",
      "contractName": null,
      "contractAddress": "0xfdf8c03CdbC1851BF5bd42a73F4fBA8102F4b515",
      "function": "setOutboundLimit(uint32,uint256)",
      "arguments": [
        "30101",
        "10000000000000000000"
      ],
      "transaction": {
        "type": "0x02",
        "from": "0x8c9c001f821c04513616fd7962b2d8c62f925fd2",
        "to": "0xfdf8c03cdbc1851bf5bd42a73f4fba8102f4b515",
        "gas": "0x9e5d",
        "value": "0x0",
        "data": "0x65d28a6b00000000000000000000000000000000000000000000000000000000000075950000000000000000000000000000000000000000000000008ac7230489e80000",
        "nonce": "0x17",
        "accessList": []
      },
      "additionalContracts": [],
      "isFixedGasLimit": false
    },
    {
      "hash": "0x11010d5aab56e9bc88a6d9de3681c046a0c723f0c796e41dc4b04d25d97777b3",
      "transactionType": "CALL",
      "contractName": null,
      "contractAddress": "0xfdf8c03CdbC1851BF5bd42a73F4fBA8102F4b515",
      "function": "setInboundLimit(uint32,uint256)",
      "arguments": [
        "30101",
        "10000000000000000000"
      ],
      "transaction": {
        "type": "0x02",
        "from": "0x8c9c001f821c04513616fd7962b2d8c62f925fd2",
        "to": "0xfdf8c03cdbc1851bf5bd42a73f4fba8102f4b515",
        "gas": "0x1104f",
        "value": "0x0",
        "data": "0x9a2fe9e400000000000000000000000000000000000000000000000000000000000075950000000000000000000000000000000000000000000000008ac7230489e80000",
        "nonce": "0x18",
        "accessList": []
      },
      "additionalContracts": [],
      "isFixedGasLimit": false
    }
  ],
  "receipts": [
    {
      "transactionHash": "0xd01ae8b2176d1dbf0a2f0909e0e489ccdc18558658a646652cd51fa949f79ed9",
      "transactionIndex": "0x83",
      "blockHash": "0x8d13c5501f0f8c15680ded132d2602c67a8278a5692a8d80d466072d38085a3e",
      "blockNumber": "0x35278e0",
      "from": "0x8C9C001F821c04513616fd7962B2D8c62f925fD2",
      "to": "0xfdf8c03CdbC1851BF5bd42a73F4fBA8102F4b515",
      "cumulativeGasUsed": "0x130fab3",
      "gasUsed": "0x6c49",
      "contractAddress": null,
      "logs": [
        {
          "address": "0xfdf8c03CdbC1851BF5bd42a73F4fBA8102F4b515",
          "topics": [
            "0x7628c1599617e8f71acfbf363d8064a2a32bdb6e63e074de3250cab57047bf79",
            "0x0000000000000000000000000000000000000000000000000000000000007595"
          ],
          "data": "0x0000000000000000000000000000000000000000000000008ac7230489e80000",
          "blockHash": "0x8d13c5501f0f8c15680ded132d2602c67a8278a5692a8d80d466072d38085a3e",
          "blockNumber": "0x35278e0",
          "transactionHash": "0xd01ae8b2176d1dbf0a2f0909e0e489ccdc18558658a646652cd51fa949f79ed9",
          "transactionIndex": "0x83",
          "logIndex": "0x24e",
          "removed": false
        },
        {
          "address": "0x0000000000000000000000000000000000001010",
          "topics": [
            "0x4dfe1bbbcf077ddc3e01291eea2d5c70c2b422b415d95645b9adcfd678cb1d63",
            "0x0000000000000000000000000000000000000000000000000000000000001010",
            "0x0000000000000000000000008c9c001f821c04513616fd7962b2d8c62f925fd2",
            "0x00000000000000000000000069f5c4d08f6bc8cd29fe5f004d46fb566270868d"
          ],
          "data": "0x0000000000000000000000000000000000000000000000000001dbf5ec2d0d20000000000000000000000000000000000000000000000000b0a2d5ebb1d37c7c00000000000000000000000000000000000000000000000dd3b1a67747b34fae000000000000000000000000000000000000000000000000b0a0f9f5c5a66f5c00000000000000000000000000000000000000000000000dd3b3826d33e05cce",
          "blockHash": "0x8d13c5501f0f8c15680ded132d2602c67a8278a5692a8d80d466072d38085a3e",
          "blockNumber": "0x35278e0",
          "transactionHash": "0xd01ae8b2176d1dbf0a2f0909e0e489ccdc18558658a646652cd51fa949f79ed9",
          "transactionIndex": "0x83",
          "logIndex": "0x24f",
          "removed": false
        }
      ],
      "status": "0x1",
      "logsBloom": "0x00000000000000100020000002000800000000000000000000000000000000000040000000000000200000000000000000008000000000000000000000000000000000000000000000000000004040800000000000000000000100000000800000000000000000000000000000000000000000000000000080000000000000000000002000000000000000000000000000000000000000000000000000000000200000000000000000000400000000000000000000000000000080000000004000000000000000000001000000080000000000000000008000100000000000000000000000000000000008000000000000000000000000000000000000100000",
      "type": "0x2",
      "effectiveGasPrice": "0x35d0df41ed"
    },
    {
      "transactionHash": "0x11010d5aab56e9bc88a6d9de3681c046a0c723f0c796e41dc4b04d25d97777b3",
      "transactionIndex": "0x48",
      "blockHash": "0xeb72a6eaa079cfef7cf54c704e06ce75cd18c7136bba5be57af7167361282c36",
      "blockNumber": "0x35278e4",
      "from": "0x8C9C001F821c04513616fd7962B2D8c62f925fD2",
      "to": "0xfdf8c03CdbC1851BF5bd42a73F4fBA8102F4b515",
      "cumulativeGasUsed": "0xa32c12",
      "gasUsed": "0xba32",
      "contractAddress": null,
      "logs": [
        {
          "address": "0xfdf8c03CdbC1851BF5bd42a73F4fBA8102F4b515",
          "topics": [
            "0x9cc3784ef7ab64c61f0abf58d72c2a40ef45b319db540006be0aa3e4610b8433",
            "0x0000000000000000000000000000000000000000000000000000000000007595"
          ],
          "data": "0x0000000000000000000000000000000000000000000000008ac7230489e80000",
          "blockHash": "0xeb72a6eaa079cfef7cf54c704e06ce75cd18c7136bba5be57af7167361282c36",
          "blockNumber": "0x35278e4",
          "transactionHash": "0x11010d5aab56e9bc88a6d9de3681c046a0c723f0c796e41dc4b04d25d97777b3",
          "transactionIndex": "0x48",
          "logIndex": "0x17c",
          "removed": false
        },
        {
          "address": "0x0000000000000000000000000000000000001010",
          "topics": [
            "0x4dfe1bbbcf077ddc3e01291eea2d5c70c2b422b415d95645b9adcfd678cb1d63",
            "0x0000000000000000000000000000000000000000000000000000000000001010",
            "0x0000000000000000000000008c9c001f821c04513616fd7962b2d8c62f925fd2",
            "0x00000000000000000000000069f5c4d08f6bc8cd29fe5f004d46fb566270868d"
          ],
          "data": "0x000000000000000000000000000000000000000000000000000129e8bada1f30000000000000000000000000000000000000000000000000b08c1274f259b3e700000000000000000000000000000000000000000000000e23af8aaba2f6caa9000000000000000000000000000000000000000000000000b08ae88c377f94b700000000000000000000000000000000000000000000000e23b0b4945dd0e9d9",
          "blockHash": "0xeb72a6eaa079cfef7cf54c704e06ce75cd18c7136bba5be57af7167361282c36",
          "blockNumber": "0x35278e4",
          "transactionHash": "0x11010d5aab56e9bc88a6d9de3681c046a0c723f0c796e41dc4b04d25d97777b3",
          "transactionIndex": "0x48",
          "logIndex": "0x17d",
          "removed": false
        }
      ],
      "status": "0x1",
      "logsBloom": "0x00000000000000100020000002000800000000000000000000000000000000000040000000000000200000000000000000008000000000000001000000000000000000000000000000000000004040800000000000000000000100000000000000000000000000000000000000000000000000000000000080000000000000000000002000000000000000000000000000000000000000000000000000008000200000000000000004000400000000000000000000000000000080000000004000000000000000000001000000000000000000000000000000100000000000000000000000000000000008000000000000000000000000000000000000100000",
      "type": "0x2",
      "effectiveGasPrice": "0x35d0df41ed"
    }
  ],
  "libraries": [],
  "pending": [],
  "returns": {},
  "timestamp": 1712922473,
  "chain": 137,
  "commit": "f9c0721"
}