{
  "transactions": [
    {
      "hash": "0xdcb5e9e6471b8ce78091c4a087ca1fc43a8969f9568fd2a89407aac29a6b5dbd",
      "transactionType": "CALL",
      "contractName": null,
      "contractAddress": "0xfdf8c03CdbC1851BF5bd42a73F4fBA8102F4b515",
      "function": "setPeer(uint32,bytes32)",
      "arguments": [
        "30101",
        "0x00000000000000000000000023e086a3ad04e8dab40c263fe18fa1f32ed28fb7"
      ],
      "transaction": {
        "type": "0x02",
        "from": "0x8c9c001f821c04513616fd7962b2d8c62f925fd2",
        "to": "0xfdf8c03cdbc1851bf5bd42a73f4fba8102f4b515",
        "gas": "0x9edf",
        "value": "0x0",
        "data": "0x3400288b000000000000000000000000000000000000000000000000000000000000759500000000000000000000000023e086a3ad04e8dab40c263fe18fa1f32ed28fb7",
        "nonce": "0x24",
        "accessList": []
      },
      "additionalContracts": [],
      "isFixedGasLimit": false
    }
  ],
  "receipts": [
    {
      "transactionHash": "0xdcb5e9e6471b8ce78091c4a087ca1fc43a8969f9568fd2a89407aac29a6b5dbd",
      "transactionIndex": "0x59",
      "blockHash": "0x2164be03da142aff7e28d62cce8e3ea4791a4bf57c8f88ebe456fe519cd0eb67",
      "blockNumber": "0x354c05d",
      "from": "0x8C9C001F821c04513616fd7962B2D8c62f925fD2",
      "to": "0xfdf8c03CdbC1851BF5bd42a73F4fBA8102F4b515",
      "cumulativeGasUsed": "0x14dead8",
      "gasUsed": "0x6ca2",
      "contractAddress": null,
      "logs": [
        {
          "address": "0xfdf8c03CdbC1851BF5bd42a73F4fBA8102F4b515",
          "topics": [
            "0x238399d427b947898edb290f5ff0f9109849b1c3ba196a42e35f00c50a54b98b"
          ],
          "data": "0x000000000000000000000000000000000000000000000000000000000000759500000000000000000000000023e086a3ad04e8dab40c263fe18fa1f32ed28fb7",
          "blockHash": "0x2164be03da142aff7e28d62cce8e3ea4791a4bf57c8f88ebe456fe519cd0eb67",
          "blockNumber": "0x354c05d",
          "transactionHash": "0xdcb5e9e6471b8ce78091c4a087ca1fc43a8969f9568fd2a89407aac29a6b5dbd",
          "transactionIndex": "0x59",
          "logIndex": "0xd53",
          "removed": false
        },
        {
          "address": "0x0000000000000000000000000000000000001010",
          "topics": [
            "0x4dfe1bbbcf077ddc3e01291eea2d5c70c2b422b415d95645b9adcfd678cb1d63",
            "0x0000000000000000000000000000000000000000000000000000000000001010",
            "0x0000000000000000000000008c9c001f821c04513616fd7962b2d8c62f925fd2",
            "0x000000000000000000000000eedba2484aaf940f37cd3cd21a5d7c4a7dafbfc0"
          ],
          "data": "0x0000000000000000000000000000000000000000000000000002f73db17c29da0000000000000000000000000000000000000000000000006a21313a6c9638e8000000000000000000000000000000000000000000011b59d2469e3ec1e1a22c0000000000000000000000000000000000000000000000006a1e39fcbb1a0f0e000000000000000000000000000000000000000000011b59d249957c735dcc06",
          "blockHash": "0x2164be03da142aff7e28d62cce8e3ea4791a4bf57c8f88ebe456fe519cd0eb67",
          "blockNumber": "0x354c05d",
          "transactionHash": "0xdcb5e9e6471b8ce78091c4a087ca1fc43a8969f9568fd2a89407aac29a6b5dbd",
          "transactionIndex": "0x59",
          "logIndex": "0xd54",
          "removed": false
        }
      ],
      "status": "0x1",
      "logsBloom": "0x000000000000000000200000000008000000000000000000000000000000000000400000000000000000000000000000000080000000000008000000000000000000000000000000000000000040008000000000000000000001000000000000000000000000000000000000000000000000000001000000800000000000000000000040000000000000000000000000000000000000000000000000000000002000000000000000000004000000000000000000000000000000a2000000004000000000000000000001000000000000000000000000000000140000000000000000000000000000000000000000000000000000000000000000000000100000",
      "type": "0x2",
      "effectiveGasPrice": "0x16398bc1d1"
    }
  ],
  "libraries": [],
  "pending": [],
  "returns": {},
  "timestamp": 1713261623,
  "chain": 137,
  "commit": "f9c0721"
}