{
  "transactions": [
    {
      "hash": "0xa4c6208dedcfffb6e094fd994345213208ed1be64c776224f14d7fce20174e90",
      "transactionType": "CALL",
      "contractName": null,
      "contractAddress": "0xfdf8c03CdbC1851BF5bd42a73F4fBA8102F4b515",
      "function": "setOutboundLimit(uint32,uint256)",
      "arguments": [
        "30101",
        "10000000000000000000"
      ],
      "transaction": {
        "type": "0x02",
        "from": "0x8c9c001f821c04513616fd7962b2d8c62f925fd2",
        "to": "0xfdf8c03cdbc1851bf5bd42a73f4fba8102f4b515",
        "gas": "0x9e5d",
        "value": "0x0",
        "data": "0x65d28a6b00000000000000000000000000000000000000000000000000000000000075950000000000000000000000000000000000000000000000008ac7230489e80000",
        "nonce": "0x15",
        "accessList": []
      },
      "additionalContracts": [],
      "isFixedGasLimit": false
    },
    {
      "hash": "0xac0c574a8f922871cc4a2b28fc6d26a3b31fe0d68d79eb198d8a52a8b2118875",
      "transactionType": "CALL",
      "contractName": null,
      "contractAddress": "0xfdf8c03CdbC1851BF5bd42a73F4fBA8102F4b515",
      "function": "setInboundLimit(uint32,uint256)",
      "arguments": [
        "30101",
        "0"
      ],
      "transaction": {
        "type": "0x02",
        "from": "0x8c9c001f821c04513616fd7962b2d8c62f925fd2",
        "to": "0xfdf8c03cdbc1851bf5bd42a73f4fba8102f4b515",
        "gas": "0x8aa0",
        "value": "0x0",
        "data": "0x9a2fe9e400000000000000000000000000000000000000000000000000000000000075950000000000000000000000000000000000000000000000000000000000000000",
        "nonce": "0x16",
        "accessList": []
      },
      "additionalContracts": [],
      "isFixedGasLimit": false
    }
  ],
  "receipts": [
    {
      "transactionHash": "0xa4c6208dedcfffb6e094fd994345213208ed1be64c776224f14d7fce20174e90",
      "transactionIndex": "0x64",
      "blockHash": "0x8d6a84231c0d485e3b3dae9a89f0685bcc4dd45ec7c6210c11a680f028dc748c",
      "blockNumber": "0x35277ea",
      "from": "0x8C9C001F821c04513616fd7962B2D8c62f925fD2",
      "to": "0xfdf8c03CdbC1851BF5bd42a73F4fBA8102F4b515",
      "cumulativeGasUsed": "0x7bd01d",
      "gasUsed": "0x6c49",
      "contractAddress": null,
      "logs": [
        {
          "address": "0xfdf8c03CdbC1851BF5bd42a73F4fBA8102F4b515",
          "topics": [
            "0x7628c1599617e8f71acfbf363d8064a2a32bdb6e63e074de3250cab57047bf79",
            "0x0000000000000000000000000000000000000000000000000000000000007595"
          ],
          "data": "0x0000000000000000000000000000000000000000000000008ac7230489e80000",
          "blockHash": "0x8d6a84231c0d485e3b3dae9a89f0685bcc4dd45ec7c6210c11a680f028dc748c",
          "blockNumber": "0x35277ea",
          "transactionHash": "0xa4c6208dedcfffb6e094fd994345213208ed1be64c776224f14d7fce20174e90",
          "transactionIndex": "0x64",
          "logIndex": "0x158",
          "removed": false
        },
        {
          "address": "0x0000000000000000000000000000000000001010",
          "topics": [
            "0x4dfe1bbbcf077ddc3e01291eea2d5c70c2b422b415d95645b9adcfd678cb1d63",
            "0x0000000000000000000000000000000000000000000000000000000000001010",
            "0x0000000000000000000000008c9c001f821c04513616fd7962b2d8c62f925fd2",
            "0x000000000000000000000000a8b52f02108aa5f4b675bdcc973760022d7c6020"
          ],
          "data": "0x000000000000000000000000000000000000000000000000000399e3024326fe000000000000000000000000000000000000000000000000b0c5569818336c4900000000000000000000000000000000000000000000017c6a1b7d798781e947000000000000000000000000000000000000000000000000b0c1bcb515f0454b00000000000000000000000000000000000000000000017c6a1f175c89c51045",
          "blockHash": "0x8d6a84231c0d485e3b3dae9a89f0685bcc4dd45ec7c6210c11a680f028dc748c",
          "blockNumber": "0x35277ea",
          "transactionHash": "0xa4c6208dedcfffb6e094fd994345213208ed1be64c776224f14d7fce20174e90",
          "transactionIndex": "0x64",
          "logIndex": "0x159",
          "removed": false
        }
      ],
      "status": "0x1",
      "logsBloom": "0x00000000000000100020000000000800000000000000000000000000000000000040000000000000000000000002000000008000000000000000000000000000000000000000000000000000004000800000000000000000000100000000800000000000000000000000000000000000000000000000000080000000000000000000002000000000000000000000000000000000000000040000000000000000200000000000004000000400000000000000000000000000000080000000004000000000000000000001000000080000000000000000008000100000000000000000000000000000000008000000000000000000000000000000000000100000",
      "type": "0x2",
      "effectiveGasPrice": "0x2a54feb66b"
    },
    {
      "transactionHash": "0xac0c574a8f922871cc4a2b28fc6d26a3b31fe0d68d79eb198d8a52a8b2118875",
      "transactionIndex": "0x65",
      "blockHash": "0x8d6a84231c0d485e3b3dae9a89f0685bcc4dd45ec7c6210c11a680f028dc748c",
      "blockNumber": "0x35277ea",
      "from": "0x8C9C001F821c04513616fd7962B2D8c62f925fD2",
      "to": "0xfdf8c03CdbC1851BF5bd42a73F4fBA8102F4b515",
      "cumulativeGasUsed": "0x7c347b",
      "gasUsed": "0x645e",
      "contractAddress": null,
      "logs": [
        {
          "address": "0xfdf8c03CdbC1851BF5bd42a73F4fBA8102F4b515",
          "topics": [
            "0x9cc3784ef7ab64c61f0abf58d72c2a40ef45b319db540006be0aa3e4610b8433",
            "0x0000000000000000000000000000000000000000000000000000000000007595"
          ],
          "data": "0x0000000000000000000000000000000000000000000000000000000000000000",
          "blockHash": "0x8d6a84231c0d485e3b3dae9a89f0685bcc4dd45ec7c6210c11a680f028dc748c",
          "blockNumber": "0x35277ea",
          "transactionHash": "0xac0c574a8f922871cc4a2b28fc6d26a3b31fe0d68d79eb198d8a52a8b2118875",
          "transactionIndex": "0x65",
          "logIndex": "0x15a",
          "removed": false
        },
        {
          "address": "0x0000000000000000000000000000000000001010",
          "topics": [
            "0x4dfe1bbbcf077ddc3e01291eea2d5c70c2b422b415d95645b9adcfd678cb1d63",
            "0x0000000000000000000000000000000000000000000000000000000000001010",
            "0x0000000000000000000000008c9c001f821c04513616fd7962b2d8c62f925fd2",
            "0x000000000000000000000000a8b52f02108aa5f4b675bdcc973760022d7c6020"
          ],
          "data": "0x0000000000000000000000000000000000000000000000000003567a1fcbd724000000000000000000000000000000000000000000000000b0b36eaa669c43c600000000000000000000000000000000000000000000017c6a1f175c89c51045000000000000000000000000000000000000000000000000b0b0183046d06ca200000000000000000000000000000000000000000000017c6a226dd6a990e769",
          "blockHash": "0x8d6a84231c0d485e3b3dae9a89f0685bcc4dd45ec7c6210c11a680f028dc748c",
          "blockNumber": "0x35277ea",
          "transactionHash": "0xac0c574a8f922871cc4a2b28fc6d26a3b31fe0d68d79eb198d8a52a8b2118875",
          "transactionIndex": "0x65",
          "logIndex": "0x15b",
          "removed": false
        }
      ],
      "status": "0x1",
      "logsBloom": "0x00000000000000100020000000000800000000000000000000000000000000000040000000000000000000000002000000008000000000000001000000000000000000000000000000000000004000800000000000000000000100000000000000000000000000000000000000000000000000000000000080000000000000000000002000000000000000000000000000000000000000040000000000008000200000000000004004000400000000000000000000000000000080000000004000000000000000000001000000000000000000000000000000100000000000000000000000000000000008000000000000000000000000000000000000100000",
      "type": "0x2",
      "effectiveGasPrice": "0x2a54feb66b"
    }
  ],
  "libraries": [],
  "pending": [],
  "returns": {},
  "timestamp": 1712921781,
  "chain": 137,
  "commit": "f9c0721"
}