{
  "transactions": [
    {
      "hash": "0xcb1cd3d1375c21808b7b3f3343add797eaff161256b533e3b3cff07666d00378",
      "transactionType": "CALL",
      "contractName": "MocaOFT",
      "contractAddress": "0xdFBfeE56AB39e39fb7f0EFeE329E96c57b39Ba44",
      "function": "setPeer(uint32,bytes32)",
      "arguments": [
        "40161",
        "0x000000000000000000000000f49880d03567302cb20b4a668bd69321b0b1bf59"
      ],
      "transaction": {
        "type": "0x02",
        "from": "0xde05a1abb121113a33eed248bd91ddc254d5e9db",
        "to": "0xdfbfee56ab39e39fb7f0efee329e96c57b39ba44",
        "gas": "0x1016a",
        "value": "0x0",
        "data": "0x3400288b0000000000000000000000000000000000000000000000000000000000009ce1000000000000000000000000f49880d03567302cb20b4a668bd69321b0b1bf59",
        "nonce": "0x67",
        "accessList": []
      },
      "additionalContracts": [],
      "isFixedGasLimit": false
    }
  ],
  "receipts": [
    {
      "transactionHash": "0xcb1cd3d1375c21808b7b3f3343add797eaff161256b533e3b3cff07666d00378",
      "transactionIndex": "0x1",
      "blockHash": "0xf7e728805dc1df7c9666bd7792bd5358f7f5c843212e54ccde841ec3d967b842",
      "blockNumber": "0x2dc72dc",
      "from": "0xdE05a1Abb121113a33eeD248BD91ddC254d5E9Db",
      "to": "0xdFBfeE56AB39e39fb7f0EFeE329E96c57b39Ba44",
      "cumulativeGasUsed": "0x23fa6",
      "gasUsed": "0xba5e",
      "contractAddress": null,
      "logs": [
        {
          "address": "0xdFBfeE56AB39e39fb7f0EFeE329E96c57b39Ba44",
          "topics": [
            "0x238399d427b947898edb290f5ff0f9109849b1c3ba196a42e35f00c50a54b98b"
          ],
          "data": "0x0000000000000000000000000000000000000000000000000000000000009ce1000000000000000000000000f49880d03567302cb20b4a668bd69321b0b1bf59",
          "blockHash": "0xf7e728805dc1df7c9666bd7792bd5358f7f5c843212e54ccde841ec3d967b842",
          "blockNumber": "0x2dc72dc",
          "transactionHash": "0xcb1cd3d1375c21808b7b3f3343add797eaff161256b533e3b3cff07666d00378",
          "transactionIndex": "0x1",
          "logIndex": "0x1",
          "removed": false
        },
        {
          "address": "0x0000000000000000000000000000000000001010",
          "topics": [
            "0x4dfe1bbbcf077ddc3e01291eea2d5c70c2b422b415d95645b9adcfd678cb1d63",
            "0x0000000000000000000000000000000000000000000000000000000000001010",
            "0x000000000000000000000000de05a1abb121113a33eed248bd91ddc254d5e9db",
            "0x0000000000000000000000005082f249cdb2f2c1ee035e4f423c46ea2dab3ab1"
          ],
          "data": "0x000000000000000000000000000000000000000000000000000515c2801128000000000000000000000000000000000000000000000000002413f38843f937950000000000000000000000000000000000000000000008a56ee7c7d8c677505d000000000000000000000000000000000000000000000000240eddc5c3e80f950000000000000000000000000000000000000000000008a56eecdd9b4688785d",
          "blockHash": "0xf7e728805dc1df7c9666bd7792bd5358f7f5c843212e54ccde841ec3d967b842",
          "blockNumber": "0x2dc72dc",
          "transactionHash": "0xcb1cd3d1375c21808b7b3f3343add797eaff161256b533e3b3cff07666d00378",
          "transactionIndex": "0x1",
          "logIndex": "0x2",
          "removed": false
        }
      ],
      "status": "0x1",
      "logsBloom": "0x00000000000000000000000000000000000000000000000000100000020000000000000002000000000000000000000000008000000000000800000000000000000000000000000000000000000000800000000000000000000100000000000000000000000000000000000000200000000000000000004080000000000000000000000000000020000000000000000000000000000000000000000000000000200000000000000000000000000000000000000000000000000002000000004100000000000000000001000000000000000000000000000000940000000000000000000000000080000000000000000000000000000000000000000000100000",
      "type": "0x2",
      "effectiveGasPrice": "0x6fc23ac0f"
    }
  ],
  "libraries": [],
  "pending": [],
  "returns": {},
  "timestamp": 1712567871,
  "chain": 80001,
  "commit": "93605f9"
}