{
  "transactions": [
    {
      "hash": "0xee9dd71e6eeaf070e06ee0758aa54851fba9d4479eb75b0f5cbd5f37d8b88888",
      "transactionType": "CALL",
      "contractName": "MocaOFT",
      "contractAddress": "0x45e8c7B75ba86a27562eE3760011c4adC36C076b",
      "function": "setPeer(uint32,bytes32)",
      "arguments": [
        "40161",
        "0x00000000000000000000000073ff46a2f756276269b2a2630c6288623d9c1bc9"
      ],
      "transaction": {
        "type": "0x02",
        "from": "0xde05a1abb121113a33eed248bd91ddc254d5e9db",
        "to": "0x45e8c7b75ba86a27562ee3760011c4adc36c076b",
        "gas": "0x1016a",
        "value": "0x0",
        "data": "0x3400288b0000000000000000000000000000000000000000000000000000000000009ce100000000000000000000000073ff46a2f756276269b2a2630c6288623d9c1bc9",
        "nonce": "0x72",
        "accessList": []
      },
      "additionalContracts": [],
      "isFixedGasLimit": false
    }
  ],
  "receipts": [
    {
      "transactionHash": "0xee9dd71e6eeaf070e06ee0758aa54851fba9d4479eb75b0f5cbd5f37d8b88888",
      "transactionIndex": "0x0",
      "blockHash": "0x7dca681594076852f17552b428e2a08a5046d1f8bcb7756b85681e3ae98992e7",
      "blockNumber": "0x2ddaa36",
      "from": "0xdE05a1Abb121113a33eeD248BD91ddC254d5E9Db",
      "to": "0x45e8c7B75ba86a27562eE3760011c4adC36C076b",
      "cumulativeGasUsed": "0xba5e",
      "gasUsed": "0xba5e",
      "contractAddress": null,
      "logs": [
        {
          "address": "0x45e8c7B75ba86a27562eE3760011c4adC36C076b",
          "topics": [
            "0x238399d427b947898edb290f5ff0f9109849b1c3ba196a42e35f00c50a54b98b"
          ],
          "data": "0x0000000000000000000000000000000000000000000000000000000000009ce100000000000000000000000073ff46a2f756276269b2a2630c6288623d9c1bc9",
          "blockHash": "0x7dca681594076852f17552b428e2a08a5046d1f8bcb7756b85681e3ae98992e7",
          "blockNumber": "0x2ddaa36",
          "transactionHash": "0xee9dd71e6eeaf070e06ee0758aa54851fba9d4479eb75b0f5cbd5f37d8b88888",
          "transactionIndex": "0x0",
          "logIndex": "0x0",
          "removed": false
        },
        {
          "address": "0x0000000000000000000000000000000000001010",
          "topics": [
            "0x4dfe1bbbcf077ddc3e01291eea2d5c70c2b422b415d95645b9adcfd678cb1d63",
            "0x0000000000000000000000000000000000000000000000000000000000001010",
            "0x000000000000000000000000de05a1abb121113a33eed248bd91ddc254d5e9db",
            "0x000000000000000000000000f903ba9e006193c1527bfbe65fe2123704ea3f99"
          ],
          "data": "0x000000000000000000000000000000000000000000000000000515c28011280000000000000000000000000000000000000000000000000022bd4510d24dc69500000000000000000000000000000000000000000000141090b07ef29353127900000000000000000000000000000000000000000000000022b82f4e523c9e9500000000000000000000000000000000000000000000141090b594b513643a79",
          "blockHash": "0x7dca681594076852f17552b428e2a08a5046d1f8bcb7756b85681e3ae98992e7",
          "blockNumber": "0x2ddaa36",
          "transactionHash": "0xee9dd71e6eeaf070e06ee0758aa54851fba9d4479eb75b0f5cbd5f37d8b88888",
          "transactionIndex": "0x0",
          "logIndex": "0x1",
          "removed": false
        }
      ],
      "status": "0x1",
      "logsBloom": "0x00000000000000000000000000000000000000000000000000100010000000000000000000000020000000040000000000008000000000000800000000000000000000000000000000000000000000800000000000000000000100000000000000000000000000000000000000000000000000000000004080000008000000000000000000000020000000000000000000000000000000000000000000000000200000000000000000000000000000000000000000000000000002000000004000000000000000000001000000000000000000000000000000140000001000800000000000000000000000000000000000000000000000000000000000100000",
      "type": "0x2",
      "effectiveGasPrice": "0x6fc23ac0f"
    }
  ],
  "libraries": [],
  "pending": [],
  "returns": {},
  "timestamp": 1712744339,
  "chain": 80001,
  "commit": "f9c0721"
}