{
  "transactions": [
    {
      "hash": "0x70188f6978660e67fbcd983d155a8443834fe523cc75cf7f3055caeea100fcb8",
      "transactionType": "CALL",
      "contractName": "MocaOFT",
      "contractAddress": "0xdFBfeE56AB39e39fb7f0EFeE329E96c57b39Ba44",
      "function": "setEnforcedOptions((uint32,uint16,bytes)[])",
      "arguments": [
        "[(40161, 1, 0x00030100110100000000000000000000000000030d40), (40161, 2, 0x000301001303000000000000000000000000000000000000)]"
      ],
      "transaction": {
        "type": "0x02",
        "from": "0xde05a1abb121113a33eed248bd91ddc254d5e9db",
        "to": "0xdfbfee56ab39e39fb7f0efee329e96c57b39ba44",
        "gas": "0x1cbc7",
        "value": "0x0",
        "data": "0xb98bd07000000000000000000000000000000000000000000000000000000000000000200000000000000000000000000000000000000000000000000000000000000002000000000000000000000000000000000000000000000000000000000000004000000000000000000000000000000000000000000000000000000000000000e00000000000000000000000000000000000000000000000000000000000009ce100000000000000000000000000000000000000000000000000000000000000010000000000000000000000000000000000000000000000000000000000000060000000000000000000000000000000000000000000000000000000000000001600030100110100000000000000000000000000030d40000000000000000000000000000000000000000000000000000000000000000000000000000000009ce10000000000000000000000000000000000000000000000000000000000000002000000000000000000000000000000000000000000000000000000000000006000000000000000000000000000000000000000000000000000000000000000180003010013030000000000000000000000000000000000000000000000000000",
        "nonce": "0x63",
        "accessList": []
      },
      "additionalContracts": [],
      "isFixedGasLimit": false
    }
  ],
  "receipts": [
    {
      "transactionHash": "0x70188f6978660e67fbcd983d155a8443834fe523cc75cf7f3055caeea100fcb8",
      "transactionIndex": "0x0",
      "blockHash": "0xaab7cfe70bf83f4aebd7cd1ca1ecec0f144f399c7fea8724a3f9f407c5e6b8b6",
      "blockNumber": "0x2dc5674",
      "from": "0xdE05a1Abb121113a33eeD248BD91ddC254d5E9Db",
      "to": "0xdFBfeE56AB39e39fb7f0EFeE329E96c57b39Ba44",
      "cumulativeGasUsed": "0x13a61",
      "gasUsed": "0x13a61",
      "contractAddress": null,
      "logs": [
        {
          "address": "0xdFBfeE56AB39e39fb7f0EFeE329E96c57b39Ba44",
          "topics": [
            "0xbe4864a8e820971c0247f5992e2da559595f7bf076a21cb5928d443d2a13b674"
          ],
          "data": "0x00000000000000000000000000000000000000000000000000000000000000200000000000000000000000000000000000000000000000000000000000000002000000000000000000000000000000000000000000000000000000000000004000000000000000000000000000000000000000000000000000000000000000e00000000000000000000000000000000000000000000000000000000000009ce100000000000000000000000000000000000000000000000000000000000000010000000000000000000000000000000000000000000000000000000000000060000000000000000000000000000000000000000000000000000000000000001600030100110100000000000000000000000000030d40000000000000000000000000000000000000000000000000000000000000000000000000000000009ce10000000000000000000000000000000000000000000000000000000000000002000000000000000000000000000000000000000000000000000000000000006000000000000000000000000000000000000000000000000000000000000000180003010013030000000000000000000000000000000000000000000000000000",
          "blockHash": "0xaab7cfe70bf83f4aebd7cd1ca1ecec0f144f399c7fea8724a3f9f407c5e6b8b6",
          "blockNumber": "0x2dc5674",
          "transactionHash": "0x70188f6978660e67fbcd983d155a8443834fe523cc75cf7f3055caeea100fcb8",
          "transactionIndex": "0x0",
          "logIndex": "0x0",
          "removed": false
        },
        {
          "address": "0x0000000000000000000000000000000000001010",
          "topics": [
            "0x4dfe1bbbcf077ddc3e01291eea2d5c70c2b422b415d95645b9adcfd678cb1d63",
            "0x0000000000000000000000000000000000000000000000000000000000001010",
            "0x000000000000000000000000de05a1abb121113a33eed248bd91ddc254d5e9db",
            "0x000000000000000000000000cfef2a3dc244ef7d0fb93c45e762d671445c4569"
          ],
          "data": "0x000000000000000000000000000000000000000000000000000893e94a7c2c000000000000000000000000000000000000000000000000002429a0dc147c10ac0000000000000000000000000000000000000000000002449eab86a2a2cba87800000000000000000000000000000000000000000000000024210cf2c9ffe4ac0000000000000000000000000000000000000000000002449eb41a8bed47d478",
          "blockHash": "0xaab7cfe70bf83f4aebd7cd1ca1ecec0f144f399c7fea8724a3f9f407c5e6b8b6",
          "blockNumber": "0x2dc5674",
          "transactionHash": "0x70188f6978660e67fbcd983d155a8443834fe523cc75cf7f3055caeea100fcb8",
          "transactionIndex": "0x0",
          "logIndex": "0x1",
          "removed": false
        }
      ],
      "status": "0x1",
      "logsBloom": "0x00000000010000000000000000000000000000000000000000100000000000000000000000000000000000000000000000008000000000000000400000000000000000000000000000000000000000800000000000000000020100000000000000000000000000000000000000200000000000000000004080000000000000000000000000000020000000000000000000000000000000000000000000080000200000000000000000000000000000000000000000000000000000000000004100000000000000000001000002000000000000000000000000900000000000000000000000000000000000000000000000000000000000000000040000100000",
      "type": "0x2",
      "effectiveGasPrice": "0x6fc23ac0f"
    }
  ],
  "libraries": [],
  "pending": [],
  "returns": {},
  "timestamp": 1712551892,
  "chain": 80001,
  "commit": "93605f9"
}