{
  "transactions": [
    {
      "hash": "0x87b14e75dd70c5370df2b321af34eb9165db9811519309714d542bdceeae4636",
      "transactionType": "CALL",
      "contractName": "MocaOFT",
      "contractAddress": "0x45e8c7B75ba86a27562eE3760011c4adC36C076b",
      "function": "setEnforcedOptions((uint32,uint16,bytes)[])",
      "arguments": [
        "[(40161, 1, 0x00030100110100000000000000000000000000030d40), (40161, 2, 0x000301001303000000000000000000000000000000000000)]"
      ],
      "transaction": {
        "type": "0x02",
        "from": "0xde05a1abb121113a33eed248bd91ddc254d5e9db",
        "to": "0x45e8c7b75ba86a27562ee3760011c4adc36c076b",
        "gas": "0x1cbc7",
        "value": "0x0",
        "data": "0xb98bd07000000000000000000000000000000000000000000000000000000000000000200000000000000000000000000000000000000000000000000000000000000002000000000000000000000000000000000000000000000000000000000000004000000000000000000000000000000000000000000000000000000000000000e00000000000000000000000000000000000000000000000000000000000009ce100000000000000000000000000000000000000000000000000000000000000010000000000000000000000000000000000000000000000000000000000000060000000000000000000000000000000000000000000000000000000000000001600030100110100000000000000000000000000030d40000000000000000000000000000000000000000000000000000000000000000000000000000000009ce10000000000000000000000000000000000000000000000000000000000000002000000000000000000000000000000000000000000000000000000000000006000000000000000000000000000000000000000000000000000000000000000180003010013030000000000000000000000000000000000000000000000000000",
        "nonce": "0x73",
        "accessList": []
      },
      "additionalContracts": [],
      "isFixedGasLimit": false
    }
  ],
  "receipts": [
    {
      "transactionHash": "0x87b14e75dd70c5370df2b321af34eb9165db9811519309714d542bdceeae4636",
      "transactionIndex": "0x0",
      "blockHash": "0xd373e2999af80380171e798534ace48b2a5f397170f43019e8293fec2b1d3dbf",
      "blockNumber": "0x2ddaa4e",
      "from": "0xdE05a1Abb121113a33eeD248BD91ddC254d5E9Db",
      "to": "0x45e8c7B75ba86a27562eE3760011c4adC36C076b",
      "cumulativeGasUsed": "0x13a61",
      "gasUsed": "0x13a61",
      "contractAddress": null,
      "logs": [
        {
          "address": "0x45e8c7B75ba86a27562eE3760011c4adC36C076b",
          "topics": [
            "0xbe4864a8e820971c0247f5992e2da559595f7bf076a21cb5928d443d2a13b674"
          ],
          "data": "0x00000000000000000000000000000000000000000000000000000000000000200000000000000000000000000000000000000000000000000000000000000002000000000000000000000000000000000000000000000000000000000000004000000000000000000000000000000000000000000000000000000000000000e00000000000000000000000000000000000000000000000000000000000009ce100000000000000000000000000000000000000000000000000000000000000010000000000000000000000000000000000000000000000000000000000000060000000000000000000000000000000000000000000000000000000000000001600030100110100000000000000000000000000030d40000000000000000000000000000000000000000000000000000000000000000000000000000000009ce10000000000000000000000000000000000000000000000000000000000000002000000000000000000000000000000000000000000000000000000000000006000000000000000000000000000000000000000000000000000000000000000180003010013030000000000000000000000000000000000000000000000000000",
          "blockHash": "0xd373e2999af80380171e798534ace48b2a5f397170f43019e8293fec2b1d3dbf",
          "blockNumber": "0x2ddaa4e",
          "transactionHash": "0x87b14e75dd70c5370df2b321af34eb9165db9811519309714d542bdceeae4636",
          "transactionIndex": "0x0",
          "logIndex": "0x0",
          "removed": false
        },
        {
          "address": "0x0000000000000000000000000000000000001010",
          "topics": [
            "0x4dfe1bbbcf077ddc3e01291eea2d5c70c2b422b415d95645b9adcfd678cb1d63",
            "0x0000000000000000000000000000000000000000000000000000000000001010",
            "0x000000000000000000000000de05a1abb121113a33eed248bd91ddc254d5e9db",
            "0x000000000000000000000000be188d6641e8b680743a4815dfa0f6208038960f"
          ],
          "data": "0x000000000000000000000000000000000000000000000000000893e94a7c2c0000000000000000000000000000000000000000000000000022b82f4e5231b31300000000000000000000000000000000000000000000374985960868dce8615b00000000000000000000000000000000000000000000000022af9b6507b58713000000000000000000000000000000000000000000003749859e9c5227648d5b",
          "blockHash": "0xd373e2999af80380171e798534ace48b2a5f397170f43019e8293fec2b1d3dbf",
          "blockNumber": "0x2ddaa4e",
          "transactionHash": "0x87b14e75dd70c5370df2b321af34eb9165db9811519309714d542bdceeae4636",
          "transactionIndex": "0x0",
          "logIndex": "0x1",
          "removed": false
        }
      ],
      "status": "0x1",
      "logsBloom": "0x00000000000000000000000000000000000000000000000000100000000000000000000000000000000000040000000000008000000000000000400000000000000000000000000000000000000000800000000000000000000100000000004000000000000000000000000000000000000000000000004080000008000000000000000000000020000000000000000000000000000080000000000000080000200000000000000000000000000000000000000000000000000000000000004000000000000000000001000002000000000000000000000000100040000000800000000000000000000000000000000000000000000000000000000000100000",
      "type": "0x2",
      "effectiveGasPrice": "0x6fc23ac0f"
    }
  ],
  "libraries": [],
  "pending": [],
  "returns": {},
  "timestamp": 1712744390,
  "chain": 80001,
  "commit": "f9c0721"
}