{
  "transactions": [
    {
      "hash": "0x5869759c640da7d57b27dd67296626d9a5d3dd9a28796df0c84de79a291a6dc7",
      "transactionType": "CALL",
      "contractName": "MocaOFT",
      "contractAddress": "0x45e8c7B75ba86a27562eE3760011c4adC36C076b",
      "function": "send((uint32,bytes32,uint256,uint256,bytes,bytes,bytes),(uint256,uint256),address)",
      "arguments": [
        "(40161, 0x000000000000000000000000de05a1abb121113a33eed248bd91ddc254d5e9db, 1000000000000000000, 1000000000000000000, 0x, 0x, 0x)",
        "(1731084314979137660, 0)",
        "0xdE05a1Abb121113a33eeD248BD91ddC254d5E9Db"
      ],
      "transaction": {
        "type": "0x02",
        "from": "0xde05a1abb121113a33eed248bd91ddc254d5e9db",
        "to": "0x45e8c7b75ba86a27562ee3760011c4adc36c076b",
        "gas": "0x60c45",
        "value": "0x18060c034694f87c",
        "data": "0xc7c7f5b3000000000000000000000000000000000000000000000000000000000000008000000000000000000000000000000000000000000000000018060c034694f87c0000000000000000000000000000000000000000000000000000000000000000000000000000000000000000de05a1abb121113a33eed248bd91ddc254d5e9db0000000000000000000000000000000000000000000000000000000000009ce1000000000000000000000000de05a1abb121113a33eed248bd91ddc254d5e9db0000000000000000000000000000000000000000000000000de0b6b3a76400000000000000000000000000000000000000000000000000000de0b6b3a764000000000000000000000000000000000000000000000000000000000000000000e000000000000000000000000000000000000000000000000000000000000001000000000000000000000000000000000000000000000000000000000000000120000000000000000000000000000000000000000000000000000000000000000000000000000000000000000000000000000000000000000000000000000000000000000000000000000000000000000000000000000000000000000000000000",
        "nonce": "0x76",
        "accessList": []
      },
      "additionalContracts": [],
      "isFixedGasLimit": false
    }
  ],
  "receipts": [
    {
      "transactionHash": "0x5869759c640da7d57b27dd67296626d9a5d3dd9a28796df0c84de79a291a6dc7",
      "transactionIndex": "0x2",
      "blockHash": "0xa0b81c1b882804c74b7690f656a080d4c5fe68fecf45027513730e9eba88070e",
      "blockNumber": "0x2de130c",
      "from": "0xdE05a1Abb121113a33eeD248BD91ddC254d5E9Db",
      "to": "0x45e8c7B75ba86a27562eE3760011c4adC36C076b",
      "cumulativeGasUsed": "0x7cfe7",
      "gasUsed": "0x460ec",
      "contractAddress": null,
      "logs": [
        {
          "address": "0x0000000000000000000000000000000000001010",
          "topics": [
            "0xe6497e3ee548a3372136af2fcb0696db31fc6cf20260707645068bd3fe97f3c4",
            "0x0000000000000000000000000000000000000000000000000000000000001010",
            "0x000000000000000000000000de05a1abb121113a33eed248bd91ddc254d5e9db",
            "0x00000000000000000000000045e8c7b75ba86a27562ee3760011c4adc36c076b"
          ],
          "data": "0x00000000000000000000000000000000000000000000000018060c034694f87c00000000000000000000000000000000000000000000000022d078d6ce87442000000000000000000000000000000000000000000000000000000000000000000000000000000000000000000000000000000000000000000aca6cd387f24ba400000000000000000000000000000000000000000000000018060c034694f87c",
          "blockHash": "0xa0b81c1b882804c74b7690f656a080d4c5fe68fecf45027513730e9eba88070e",
          "blockNumber": "0x2de130c",
          "transactionHash": "0x5869759c640da7d57b27dd67296626d9a5d3dd9a28796df0c84de79a291a6dc7",
          "transactionIndex": "0x2",
          "logIndex": "0xe",
          "removed": false
        },
        {
          "address": "0x45e8c7B75ba86a27562eE3760011c4adC36C076b",
          "topics": [
            "0xddf252ad1be2c89b69c2b068fc378daa952ba7f163c4a11628f55a4df523b3ef",
            "0x000000000000000000000000de05a1abb121113a33eed248bd91ddc254d5e9db",
            "0x0000000000000000000000000000000000000000000000000000000000000000"
          ],
          "data": "0x0000000000000000000000000000000000000000000000000de0b6b3a7640000",
          "blockHash": "0xa0b81c1b882804c74b7690f656a080d4c5fe68fecf45027513730e9eba88070e",
          "blockNumber": "0x2de130c",
          "transactionHash": "0x5869759c640da7d57b27dd67296626d9a5d3dd9a28796df0c84de79a291a6dc7",
          "transactionIndex": "0x2",
          "logIndex": "0xf",
          "removed": false
        },
        {
          "address": "0x0000000000000000000000000000000000001010",
          "topics": [
            "0xe6497e3ee548a3372136af2fcb0696db31fc6cf20260707645068bd3fe97f3c4",
            "0x0000000000000000000000000000000000000000000000000000000000001010",
            "0x00000000000000000000000045e8c7b75ba86a27562ee3760011c4adc36c076b",
            "0x0000000000000000000000006edce65403992e310a62460808c4b910d972f10f"
          ],
          "data": "0x00000000000000000000000000000000000000000000000018060c034694f87c00000000000000000000000000000000000000000000000018060c034694f87c0000000000000000000000000000000000000000000000000000000000000000000000000000000000000000000000000000000000000000000000000000000000000000000000000000000000000000000000000000000018060c034694f87c",
          "blockHash": "0xa0b81c1b882804c74b7690f656a080d4c5fe68fecf45027513730e9eba88070e",
          "blockNumber": "0x2de130c",
          "transactionHash": "0x5869759c640da7d57b27dd67296626d9a5d3dd9a28796df0c84de79a291a6dc7",
          "transactionIndex": "0x2",
          "logIndex": "0x10",
          "removed": false
        },
        {
          "address": "0x5d9F8BCf9e07BabF517f2988986FF3bB7b233bc1",
          "topics": [
            "0x61ed099e74a97a1d7f8bb0952a88ca8b7b8ebd00c126ea04671f92a81213318a"
          ],
          "data": "0x000000000000000000000000264473487c23cc846118840472d35aebf54e447500000000000000000000000000000000000000000000000011eb859e4e52b63b",
          "blockHash": "0xa0b81c1b882804c74b7690f656a080d4c5fe68fecf45027513730e9eba88070e",
          "blockNumber": "0x2de130c",
          "transactionHash": "0x5869759c640da7d57b27dd67296626d9a5d3dd9a28796df0c84de79a291a6dc7",
          "transactionIndex": "0x2",
          "logIndex": "0x11",
          "removed": false
        },
        {
          "address": "0x5d9F8BCf9e07BabF517f2988986FF3bB7b233bc1",
          "topics": [
            "0x07ea52d82345d6e838192107d8fd7123d9c2ec8e916cd0aad13fd2b60db24644"
          ],
          "data": "0x000000000000000000000000000000000000000000000000000000000000006000000000000000000000000000000000000000000000000000000000000000a000000000000000000000000000000000000000000000000000000000000000c0000000000000000000000000000000000000000000000000000000000000000100000000000000000000000067a822f55c5f6e439550b9c4ea39e406480a40f300000000000000000000000000000000000000000000000000000000000000000000000000000000000000000000000000000000000000000000000000000001000000000000000000000000000000000000000000000000061a8664f8424241",
          "blockHash": "0xa0b81c1b882804c74b7690f656a080d4c5fe68fecf45027513730e9eba88070e",
          "blockNumber": "0x2de130c",
          "transactionHash": "0x5869759c640da7d57b27dd67296626d9a5d3dd9a28796df0c84de79a291a6dc7",
          "transactionIndex": "0x2",
          "logIndex": "0x12",
          "removed": false
        },
        {
          "address": "0x6EDCE65403992e310A62460808c4b910D972f10f",
          "topics": [
            "0x1ab700d4ced0c005b164c0f789fd09fcbb0156d4c2041b8a3bfbcd961cd1567f"
          ],
          "data": "0x000000000000000000000000000000000000000000000000000000000000006000000000000000000000000000000000000000000000000000000000000001200000000000000000000000005d9f8bcf9e07babf517f2988986ff3bb7b233bc1000000000000000000000000000000000000000000000000000000000000009901000000000000000100009cad00000000000000000000000045e8c7b75ba86a27562ee3760011c4adc36c076b00009ce100000000000000000000000073ff46a2f756276269b2a2630c6288623d9c1bc90b1400f60eef6389f794e961aa9e204fd6de36fbe864389d39ce2be1dc139c6e000000000000000000000000de05a1abb121113a33eed248bd91ddc254d5e9db00000000000f424000000000000000000000000000000000000000000000000000000000000000000000000000001600030100110100000000000000000000000000030d4000000000000000000000",
          "blockHash": "0xa0b81c1b882804c74b7690f656a080d4c5fe68fecf45027513730e9eba88070e",
          "blockNumber": "0x2de130c",
          "transactionHash": "0x5869759c640da7d57b27dd67296626d9a5d3dd9a28796df0c84de79a291a6dc7",
          "transactionIndex": "0x2",
          "logIndex": "0x13",
          "removed": false
        },
        {
          "address": "0x0000000000000000000000000000000000001010",
          "topics": [
            "0xe6497e3ee548a3372136af2fcb0696db31fc6cf20260707645068bd3fe97f3c4",
            "0x0000000000000000000000000000000000000000000000000000000000001010",
            "0x0000000000000000000000006edce65403992e310a62460808c4b910d972f10f",
            "0x0000000000000000000000005d9f8bcf9e07babf517f2988986ff3bb7b233bc1"
          ],
          "data": "0x00000000000000000000000000000000000000000000000018060c034694f87c00000000000000000000000000000000000000000000000018060c034694f87c00000000000000000000000000000000000000000000001b1543799a65217c29000000000000000000000000000000000000000000000000000000000000000000000000000000000000000000000000000000000000001b2d49859dabb674a5",
          "blockHash": "0xa0b81c1b882804c74b7690f656a080d4c5fe68fecf45027513730e9eba88070e",
          "blockNumber": "0x2de130c",
          "transactionHash": "0x5869759c640da7d57b27dd67296626d9a5d3dd9a28796df0c84de79a291a6dc7",
          "transactionIndex": "0x2",
          "logIndex": "0x14",
          "removed": false
        },
        {
          "address": "0x45e8c7B75ba86a27562eE3760011c4adC36C076b",
          "topics": [
            "0xfff873bb909b73d08a8c1af4b21779e87103bb8ea8cf3b3a0067eb8526b8b80a",
            "0x0b1400f60eef6389f794e961aa9e204fd6de36fbe864389d39ce2be1dc139c6e",
            "0x000000000000000000000000de05a1abb121113a33eed248bd91ddc254d5e9db"
          ],
          "data": "0x0000000000000000000000000000000000000000000000000000000000009ce10000000000000000000000000000000000000000000000000de0b6b3a7640000",
          "blockHash": "0xa0b81c1b882804c74b7690f656a080d4c5fe68fecf45027513730e9eba88070e",
          "blockNumber": "0x2de130c",
          "transactionHash": "0x5869759c640da7d57b27dd67296626d9a5d3dd9a28796df0c84de79a291a6dc7",
          "transactionIndex": "0x2",
          "logIndex": "0x15",
          "removed": false
        },
        {
          "address": "0x0000000000000000000000000000000000001010",
          "topics": [
            "0x4dfe1bbbcf077ddc3e01291eea2d5c70c2b422b415d95645b9adcfd678cb1d63",
            "0x0000000000000000000000000000000000000000000000000000000000001010",
            "0x000000000000000000000000de05a1abb121113a33eed248bd91ddc254d5e9db",
            "0x000000000000000000000000cfef2a3dc244ef7d0fb93c45e762d671445c4569"
          ],
          "data": "0x000000000000000000000000000000000000000000000000001e958c8162900000000000000000000000000000000000000000000000000022fab760788f582b00000000000000000000000000000000000000000000024d0283b52bd1f5492400000000000000000000000000000000000000000000000022dc21d3f72cc82b00000000000000000000000000000000000000000000024d02a24ab85357d924",
          "blockHash": "0xa0b81c1b882804c74b7690f656a080d4c5fe68fecf45027513730e9eba88070e",
          "blockNumber": "0x2de130c",
          "transactionHash": "0x5869759c640da7d57b27dd67296626d9a5d3dd9a28796df0c84de79a291a6dc7",
          "transactionIndex": "0x2",
          "logIndex": "0x16",
          "removed": false
        }
      ],
      "status": "0x1",
      "logsBloom": "0x0000000001000000000000000000000000000200000000003010000000000000000000020000000020000014008000000000e000000000000000000000001000000000000000000000000008000000800000000000000000020100000000000000000000020000008200000000000800000000000000004080000018000000000000000000000020000000080000000000000000000000000000000000000000200400008000000004300000000000000000000000400000000440000200004000020002000000000001000000000000000000000000801200108000000020800000040000000000000000100008002008000000000000000000040000100000",
      "type": "0x2",
      "effectiveGasPrice": "0x6fc23ac0f"
    }
  ],
  "libraries": [],
  "pending": [],
  "returns": {},
  "timestamp": 1712802878,
  "chain": 80001,
  "commit": "f9c0721"
}