{
  "transactions": [
    {
      "hash": "0xadd6f9462b25ef76a5ffd11f0e97899c5352e37df86930e1a39124c94d008715",
      "transactionType": "CALL",
      "contractName": "MocaOFT",
      "contractAddress": "0xdFBfeE56AB39e39fb7f0EFeE329E96c57b39Ba44",
      "function": "setPeer(uint32,bytes32)",
      "arguments": [
        "40161",
        "0x000000000000000000000000f49880d03567302cb20b4a668bd69321b0b1bf59"
      ],
      "transaction": {
        "type": "0x02",
        "from": "0xde05a1abb121113a33eed248bd91ddc254d5e9db",
        "to": "0xdfbfee56ab39e39fb7f0efee329e96c57b39ba44",
        "gas": "0x9edf",
        "value": "0x0",
        "data": "0x3400288b0000000000000000000000000000000000000000000000000000000000009ce1000000000000000000000000f49880d03567302cb20b4a668bd69321b0b1bf59",
        "nonce": "0x6e",
        "accessList": []
      },
      "additionalContracts": [],
      "isFixedGasLimit": false
    }
  ],
  "receipts": [
    {
      "transactionHash": "0xadd6f9462b25ef76a5ffd11f0e97899c5352e37df86930e1a39124c94d008715",
      "transactionIndex": "0x0",
      "blockHash": "0x6318b567de35f1d395321433a24916efc8f5d19eba2fb269e806a78ae181d8e4",
      "blockNumber": "0x2dd6679",
      "from": "0xdE05a1Abb121113a33eeD248BD91ddC254d5E9Db",
      "to": "0xdFBfeE56AB39e39fb7f0EFeE329E96c57b39Ba44",
      "cumulativeGasUsed": "0x6ca2",
      "gasUsed": "0x6ca2",
      "contractAddress": null,
      "logs": [
        {
          "address": "0xdFBfeE56AB39e39fb7f0EFeE329E96c57b39Ba44",
          "topics": [
            "0x238399d427b947898edb290f5ff0f9109849b1c3ba196a42e35f00c50a54b98b"
          ],
          "data": "0x0000000000000000000000000000000000000000000000000000000000009ce1000000000000000000000000f49880d03567302cb20b4a668bd69321b0b1bf59",
          "blockHash": "0x6318b567de35f1d395321433a24916efc8f5d19eba2fb269e806a78ae181d8e4",
          "blockNumber": "0x2dd6679",
          "transactionHash": "0xadd6f9462b25ef76a5ffd11f0e97899c5352e37df86930e1a39124c94d008715",
          "transactionIndex": "0x0",
          "logIndex": "0x0",
          "removed": false
        },
        {
          "address": "0x0000000000000000000000000000000000001010",
          "topics": [
            "0x4dfe1bbbcf077ddc3e01291eea2d5c70c2b422b415d95645b9adcfd678cb1d63",
            "0x0000000000000000000000000000000000000000000000000000000000001010",
            "0x000000000000000000000000de05a1abb121113a33eed248bd91ddc254d5e9db",
            "0x00000000000000000000000001a8277d4327e1f71dbc94a0f96c439240c9a712"
          ],
          "data": "0x0000000000000000000000000000000000000000000000000002f6ca9b22d80000000000000000000000000000000000000000000000000023f6c7eab6b819a70000000000000000000000000000000000000000000000a196e260f27729596000000000000000000000000000000000000000000000000023f3d1201b9541a70000000000000000000000000000000000000000000000a196e557bd124c3160",
          "blockHash": "0x6318b567de35f1d395321433a24916efc8f5d19eba2fb269e806a78ae181d8e4",
          "blockNumber": "0x2dd6679",
          "transactionHash": "0xadd6f9462b25ef76a5ffd11f0e97899c5352e37df86930e1a39124c94d008715",
          "transactionIndex": "0x0",
          "logIndex": "0x1",
          "removed": false
        }
      ],
      "status": "0x1",
      "logsBloom": "0x00000000000000000000000000000000000000000000000008100000000000000000000000000000000000000000000000008000000000000800000000000000000000000000000000000000000000800000000000000000000100000000000000000000000020000000000000200000000000000000004080000000000000000000000000000020000000000000000000000000000000000000000000000000200000000000000000000000000000000000000000000000800002000000004100000000000000000001000000000000000000000000000000940000000000000000000000000000000000000000000000000000000000000000000000100000",
      "type": "0x2",
      "effectiveGasPrice": "0x6fc23ac0f"
    }
  ],
  "libraries": [],
  "pending": [],
  "returns": {},
  "timestamp": 1712706187,
  "chain": 80001,
  "commit": "4d0d3af"
}