{
  "transactions": [
    {
      "hash": "0xd11ff21966089231c98c5a6f9df4d4aec35f0465fcd90192e0f4d9f7020e40a8",
      "transactionType": "CALL",
      "contractName": "MocaOFT",
      "contractAddress": "0xdFBfeE56AB39e39fb7f0EFeE329E96c57b39Ba44",
      "function": "setPeer(uint32,bytes32)",
      "arguments": [
        "40161",
        "0x000000000000000000000000f49880d03567302cb20b4a668bd69321b0b1bf59"
      ],
      "transaction": {
        "type": "0x02",
        "from": "0xde05a1abb121113a33eed248bd91ddc254d5e9db",
        "to": "0xdfbfee56ab39e39fb7f0efee329e96c57b39ba44",
        "gas": "0x1016a",
        "value": "0x0",
        "data": "0x3400288b0000000000000000000000000000000000000000000000000000000000009ce1000000000000000000000000f49880d03567302cb20b4a668bd69321b0b1bf59",
        "nonce": "0x6b",
        "accessList": []
      },
      "additionalContracts": [],
      "isFixedGasLimit": false
    }
  ],
  "receipts": [
    {
      "transactionHash": "0xd11ff21966089231c98c5a6f9df4d4aec35f0465fcd90192e0f4d9f7020e40a8",
      "transactionIndex": "0xc8",
      "blockHash": "0x947e29f2a03c5842b6a76ccc4bde8c283d9baf25f85b2c00922b754f704f6313",
      "blockNumber": "0x2dc8108",
      "from": "0xdE05a1Abb121113a33eeD248BD91ddC254d5E9Db",
      "to": "0xdFBfeE56AB39e39fb7f0EFeE329E96c57b39Ba44",
      "cumulativeGasUsed": "0x9aa8a6",
      "gasUsed": "0xba5e",
      "contractAddress": null,
      "logs": [
        {
          "address": "0xdFBfeE56AB39e39fb7f0EFeE329E96c57b39Ba44",
          "topics": [
            "0x238399d427b947898edb290f5ff0f9109849b1c3ba196a42e35f00c50a54b98b"
          ],
          "data": "0x0000000000000000000000000000000000000000000000000000000000009ce1000000000000000000000000f49880d03567302cb20b4a668bd69321b0b1bf59",
          "blockHash": "0x947e29f2a03c5842b6a76ccc4bde8c283d9baf25f85b2c00922b754f704f6313",
          "blockNumber": "0x2dc8108",
          "transactionHash": "0xd11ff21966089231c98c5a6f9df4d4aec35f0465fcd90192e0f4d9f7020e40a8",
          "transactionIndex": "0xc8",
          "logIndex": "0x190",
          "removed": false
        },
        {
          "address": "0x0000000000000000000000000000000000001010",
          "topics": [
            "0x4dfe1bbbcf077ddc3e01291eea2d5c70c2b422b415d95645b9adcfd678cb1d63",
            "0x0000000000000000000000000000000000000000000000000000000000001010",
            "0x000000000000000000000000de05a1abb121113a33eed248bd91ddc254d5e9db",
            "0x000000000000000000000000be188d6641e8b680743a4815dfa0f6208038960f"
          ],
          "data": "0x000000000000000000000000000000000000000000000000000515c2801128000000000000000000000000000000000000000000000000002403e4f63b3759d500000000000000000000000000000000000000000000373f034a3aa7aa3d73ad00000000000000000000000000000000000000000000000023fecf33bb2631d500000000000000000000000000000000000000000000373f034f506a2a4e9bad",
          "blockHash": "0x947e29f2a03c5842b6a76ccc4bde8c283d9baf25f85b2c00922b754f704f6313",
          "blockNumber": "0x2dc8108",
          "transactionHash": "0xd11ff21966089231c98c5a6f9df4d4aec35f0465fcd90192e0f4d9f7020e40a8",
          "transactionIndex": "0xc8",
          "logIndex": "0x191",
          "removed": false
        }
      ],
      "status": "0x1",
      "logsBloom": "0x00000000000000000000000000000000000000000000000000100000000000000000000000000000000000000000000000008000000000000800000000000000000000000000000000000000000000800000000000000000000100000000004000000000000000000000000000200000000000000000004080000000000000000000000000000020000000000000000000000000000080000000000000000000200000000000000000000000000000000000000000000000000002000000004100000000000000000001000000000000000000000000000000940040000000000000000000000000000000000000000000000000000000000000000000100000",
      "type": "0x2",
      "effectiveGasPrice": "0x6fc23ac11"
    }
  ],
  "libraries": [],
  "pending": [],
  "returns": {},
  "timestamp": 1712576900,
  "chain": 80001,
  "commit": "93605f9"
}