{
  "transactions": [
    {
      "hash": "0x5619c7153fc4bc18ee07c655bc6a6031b47e796d2dfce0c727295ee798d1602e",
      "transactionType": "CALL",
      "contractName": "MocaOFT",
      "contractAddress": "0xdFBfeE56AB39e39fb7f0EFeE329E96c57b39Ba44",
      "function": "setPeer(uint32,bytes32)",
      "arguments": [
        "40161",
        "0x000000000000000000000000f49880d03567302cb20b4a668bd69321b0b1bf59"
      ],
      "transaction": {
        "type": "0x02",
        "from": "0xde05a1abb121113a33eed248bd91ddc254d5e9db",
        "to": "0xdfbfee56ab39e39fb7f0efee329e96c57b39ba44",
        "gas": "0x1016a",
        "value": "0x0",
        "data": "0x3400288b0000000000000000000000000000000000000000000000000000000000009ce1000000000000000000000000f49880d03567302cb20b4a668bd69321b0b1bf59",
        "nonce": "0x6d",
        "accessList": []
      },
      "additionalContracts": [],
      "isFixedGasLimit": false
    }
  ],
  "receipts": [
    {
      "transactionHash": "0x5619c7153fc4bc18ee07c655bc6a6031b47e796d2dfce0c727295ee798d1602e",
      "transactionIndex": "0x5",
      "blockHash": "0xd85b1b04d35388683998c7639546f5f6ac6da8d8c65c1b376b010e0619aec2f6",
      "blockNumber": "0x2dc813b",
      "from": "0xdE05a1Abb121113a33eeD248BD91ddC254d5E9Db",
      "to": "0xdFBfeE56AB39e39fb7f0EFeE329E96c57b39Ba44",
      "cumulativeGasUsed": "0x78d65",
      "gasUsed": "0xba5e",
      "contractAddress": null,
      "logs": [
        {
          "address": "0xdFBfeE56AB39e39fb7f0EFeE329E96c57b39Ba44",
          "topics": [
            "0x238399d427b947898edb290f5ff0f9109849b1c3ba196a42e35f00c50a54b98b"
          ],
          "data": "0x0000000000000000000000000000000000000000000000000000000000009ce1000000000000000000000000f49880d03567302cb20b4a668bd69321b0b1bf59",
          "blockHash": "0xd85b1b04d35388683998c7639546f5f6ac6da8d8c65c1b376b010e0619aec2f6",
          "blockNumber": "0x2dc813b",
          "transactionHash": "0x5619c7153fc4bc18ee07c655bc6a6031b47e796d2dfce0c727295ee798d1602e",
          "transactionIndex": "0x5",
          "logIndex": "0xe",
          "removed": false
        },
        {
          "address": "0x0000000000000000000000000000000000001010",
          "topics": [
            "0x4dfe1bbbcf077ddc3e01291eea2d5c70c2b422b415d95645b9adcfd678cb1d63",
            "0x0000000000000000000000000000000000000000000000000000000000001010",
            "0x000000000000000000000000de05a1abb121113a33eed248bd91ddc254d5e9db",
            "0x000000000000000000000000f903ba9e006193c1527bfbe65fe2123704ea3f99"
          ],
          "data": "0x000000000000000000000000000000000000000000000000000515c28011280000000000000000000000000000000000000000000000000023fbddad36d4e78700000000000000000000000000000000000000000000140a520b1bce3c7d45b900000000000000000000000000000000000000000000000023f6c7eab6c3bf8700000000000000000000000000000000000000000000140a52103190bc8e6db9",
          "blockHash": "0xd85b1b04d35388683998c7639546f5f6ac6da8d8c65c1b376b010e0619aec2f6",
          "blockNumber": "0x2dc813b",
          "transactionHash": "0x5619c7153fc4bc18ee07c655bc6a6031b47e796d2dfce0c727295ee798d1602e",
          "transactionIndex": "0x5",
          "logIndex": "0xf",
          "removed": false
        }
      ],
      "status": "0x1",
      "logsBloom": "0x00000000000000000000000000000000000000000000000000100010000000000000000000000020000000000000000000008000000000000800000000000000000000000000000000000000000000800000000000000000000100000000000000000000000000000000000000200000000000000000004080000000000000000000000000000020000000000000000000000000000000000000000000000000200000000000000000000000000000000000000000000000000002000000004100000000000000000001000000000000000000000000000000940000001000000000000000000000000000000000000000000000000000000000000000100000",
      "type": "0x2",
      "effectiveGasPrice": "0x6fc23ac10"
    }
  ],
  "libraries": [],
  "pending": [],
  "returns": {},
  "timestamp": 1712577034,
  "chain": 80001,
  "commit": "93605f9"
}