{
  "transactions": [
    {
      "hash": "0x0bf3c4339a65755aa27e5b2bf2e45cc2681a06343d5986eaab3285525cac9cec",
      "transactionType": "CALL",
      "contractName": "MocaOFT",
      "contractAddress": "0x45e8c7B75ba86a27562eE3760011c4adC36C076b",
      "function": "setOutboundLimit(uint32,uint256)",
      "arguments": [
        "40161",
        "10000000000000000000"
      ],
      "transaction": {
        "type": "0x02",
        "from": "0xde05a1abb121113a33eed248bd91ddc254d5e9db",
        "to": "0x45e8c7b75ba86a27562ee3760011c4adc36c076b",
        "gas": "0x100f0",
        "value": "0x0",
        "data": "0x65d28a6b0000000000000000000000000000000000000000000000000000000000009ce10000000000000000000000000000000000000000000000008ac7230489e80000",
        "nonce": "0x74",
        "accessList": []
      },
      "additionalContracts": [],
      "isFixedGasLimit": false
    },
    {
      "hash": "0x9be94c6b531402657f2c97c40a93ad92b2559c8267e43ca14187ad8edd8f329c",
      "transactionType": "CALL",
      "contractName": "MocaOFT",
      "contractAddress": "0x45e8c7B75ba86a27562eE3760011c4adC36C076b",
      "function": "setInboundLimit(uint32,uint256)",
      "arguments": [
        "40161",
        "10000000000000000000"
      ],
      "transaction": {
        "type": "0x02",
        "from": "0xde05a1abb121113a33eed248bd91ddc254d5e9db",
        "to": "0x45e8c7b75ba86a27562ee3760011c4adc36c076b",
        "gas": "0x1104f",
        "value": "0x0",
        "data": "0x9a2fe9e40000000000000000000000000000000000000000000000000000000000009ce10000000000000000000000000000000000000000000000008ac7230489e80000",
        "nonce": "0x75",
        "accessList": []
      },
      "additionalContracts": [],
      "isFixedGasLimit": false
    }
  ],
  "receipts": [
    {
      "transactionHash": "0x0bf3c4339a65755aa27e5b2bf2e45cc2681a06343d5986eaab3285525cac9cec",
      "transactionIndex": "0x0",
      "blockHash": "0xfad6a33fc619a5248bcb409191a8bfe81678c9d672904a81a7da70268c6fe4f5",
      "blockNumber": "0x2ddaa69",
      "from": "0xdE05a1Abb121113a33eeD248BD91ddC254d5E9Db",
      "to": "0x45e8c7B75ba86a27562eE3760011c4adC36C076b",
      "cumulativeGasUsed": "0xba05",
      "gasUsed": "0xba05",
      "contractAddress": null,
      "logs": [
        {
          "address": "0x45e8c7B75ba86a27562eE3760011c4adC36C076b",
          "topics": [
            "0x7628c1599617e8f71acfbf363d8064a2a32bdb6e63e074de3250cab57047bf79",
            "0x0000000000000000000000000000000000000000000000000000000000009ce1"
          ],
          "data": "0x0000000000000000000000000000000000000000000000008ac7230489e80000",
          "blockHash": "0xfad6a33fc619a5248bcb409191a8bfe81678c9d672904a81a7da70268c6fe4f5",
          "blockNumber": "0x2ddaa69",
          "transactionHash": "0x0bf3c4339a65755aa27e5b2bf2e45cc2681a06343d5986eaab3285525cac9cec",
          "transactionIndex": "0x0",
          "logIndex": "0x0",
          "removed": false
        },
        {
          "address": "0x0000000000000000000000000000000000001010",
          "topics": [
            "0x4dfe1bbbcf077ddc3e01291eea2d5c70c2b422b415d95645b9adcfd678cb1d63",
            "0x0000000000000000000000000000000000000000000000000000000000001010",
            "0x000000000000000000000000de05a1abb121113a33eed248bd91ddc254d5e9db",
            "0x0000000000000000000000004cefb7df2ff89a05ddd0176de11e01ef0cf7ed84"
          ],
          "data": "0x00000000000000000000000000000000000000000000000000051354d7aa5c0000000000000000000000000000000000000000000000000022af9b6507a31b640000000000000000000000000000000000000000000000a6ee13003448f912ac00000000000000000000000000000000000000000000000022aa88102ff8bf640000000000000000000000000000000000000000000000a6ee18138920a36eac",
          "blockHash": "0xfad6a33fc619a5248bcb409191a8bfe81678c9d672904a81a7da70268c6fe4f5",
          "blockNumber": "0x2ddaa69",
          "transactionHash": "0x0bf3c4339a65755aa27e5b2bf2e45cc2681a06343d5986eaab3285525cac9cec",
          "transactionIndex": "0x0",
          "logIndex": "0x1",
          "removed": false
        }
      ],
      "status": "0x1",
      "logsBloom": "0x00000000000000000000000000000000000000000000000000100000000000000000000000000000000000040000000000008000000000000000000000000000000000000000000000000000000000800000000001000000000100000000800000000001000000000000000000800000000000100000004080000008000000000000000000000020000000000000000000000000000000000000000000000000200000000000000000000000000000000000000000000000000000000000004000000000000000000001000000080000000000000000008000100000000000800000000000000000000000000000000200000000000000000000000000100000",
      "type": "0x2",
      "effectiveGasPrice": "0x6fc23ac0f"
    },
    {
      "transactionHash": "0x9be94c6b531402657f2c97c40a93ad92b2559c8267e43ca14187ad8edd8f329c",
      "transactionIndex": "0x1",
      "blockHash": "0xfad6a33fc619a5248bcb409191a8bfe81678c9d672904a81a7da70268c6fe4f5",
      "blockNumber": "0x2ddaa69",
      "from": "0xdE05a1Abb121113a33eeD248BD91ddC254d5E9Db",
      "to": "0x45e8c7B75ba86a27562eE3760011c4adC36C076b",
      "cumulativeGasUsed": "0x17437",
      "gasUsed": "0xba32",
      "contractAddress": null,
      "logs": [
        {
          "address": "0x45e8c7B75ba86a27562eE3760011c4adC36C076b",
          "topics": [
            "0x9cc3784ef7ab64c61f0abf58d72c2a40ef45b319db540006be0aa3e4610b8433",
            "0x0000000000000000000000000000000000000000000000000000000000009ce1"
          ],
          "data": "0x0000000000000000000000000000000000000000000000008ac7230489e80000",
          "blockHash": "0xfad6a33fc619a5248bcb409191a8bfe81678c9d672904a81a7da70268c6fe4f5",
          "blockNumber": "0x2ddaa69",
          "transactionHash": "0x9be94c6b531402657f2c97c40a93ad92b2559c8267e43ca14187ad8edd8f329c",
          "transactionIndex": "0x1",
          "logIndex": "0x2",
          "removed": false
        },
        {
          "address": "0x0000000000000000000000000000000000001010",
          "topics": [
            "0x4dfe1bbbcf077ddc3e01291eea2d5c70c2b422b415d95645b9adcfd678cb1d63",
            "0x0000000000000000000000000000000000000000000000000000000000001010",
            "0x000000000000000000000000de05a1abb121113a33eed248bd91ddc254d5e9db",
            "0x0000000000000000000000004cefb7df2ff89a05ddd0176de11e01ef0cf7ed84"
          ],
          "data": "0x0000000000000000000000000000000000000000000000000005148f29ef980000000000000000000000000000000000000000000000000022aa88102fedd9190000000000000000000000000000000000000000000000a6ee18138920a36eac00000000000000000000000000000000000000000000000022a5738105fe41190000000000000000000000000000000000000000000000a6ee1d28184a9306ac",
          "blockHash": "0xfad6a33fc619a5248bcb409191a8bfe81678c9d672904a81a7da70268c6fe4f5",
          "blockNumber": "0x2ddaa69",
          "transactionHash": "0x9be94c6b531402657f2c97c40a93ad92b2559c8267e43ca14187ad8edd8f329c",
          "transactionIndex": "0x1",
          "logIndex": "0x3",
          "removed": false
        }
      ],
      "status": "0x1",
      "logsBloom": "0x00000000000000000000000000000000000000000000000000100000000000000000000000000000000000040000000000008000000000000001000000000000000000000000000000000000000000800000000001000000000100000000000000000001000000000000000000800000000000100000004080000008000000000000000000000020000000000000000000000000000000000000000000008000200000000000000004000000000000000000000000000000000000000000004000000000000000000001000000000000000000000000000000100000000000800000000000000000000000000000000200000000000000000000000000100000",
      "type": "0x2",
      "effectiveGasPrice": "0x6fc23ac0f"
    }
  ],
  "libraries": [],
  "pending": [],
  "returns": {},
  "timestamp": 1712744446,
  "chain": 80001,
  "commit": "f9c0721"
}