{
  "transactions": [
    {
      "hash": "0x7196c1368b6b1c2e06657c29046bc344fd91214816b91c0b12bf1485ffd1ccb0",
      "transactionType": "CALL",
      "contractName": "MocaOFT",
      "contractAddress": "0xdFBfeE56AB39e39fb7f0EFeE329E96c57b39Ba44",
      "function": "setOutboundLimit(uint32,uint256)",
      "arguments": [
        "40161",
        "10000000000000000000"
      ],
      "transaction": {
        "type": "0x02",
        "from": "0xde05a1abb121113a33eed248bd91ddc254d5e9db",
        "to": "0xdfbfee56ab39e39fb7f0efee329e96c57b39ba44",
        "gas": "0x100f0",
        "value": "0x0",
        "data": "0x65d28a6b0000000000000000000000000000000000000000000000000000000000009ce10000000000000000000000000000000000000000000000008ac7230489e80000",
        "nonce": "0x64",
        "accessList": []
      },
      "additionalContracts": [],
      "isFixedGasLimit": false
    },
    {
      "hash": "0x2c6b89a1c98d3b7cf53a98c3b01c7b6c3f0bc8887c23a45845a764dd35dc5c88",
      "transactionType": "CALL",
      "contractName": "MocaOFT",
      "contractAddress": "0xdFBfeE56AB39e39fb7f0EFeE329E96c57b39Ba44",
      "function": "setInboundLimit(uint32,uint256)",
      "arguments": [
        "40161",
        "10000000000000000000"
      ],
      "transaction": {
        "type": "0x02",
        "from": "0xde05a1abb121113a33eed248bd91ddc254d5e9db",
        "to": "0xdfbfee56ab39e39fb7f0efee329e96c57b39ba44",
        "gas": "0x1104f",
        "value": "0x0",
        "data": "0x9a2fe9e40000000000000000000000000000000000000000000000000000000000009ce10000000000000000000000000000000000000000000000008ac7230489e80000",
        "nonce": "0x65",
        "accessList": []
      },
      "additionalContracts": [],
      "isFixedGasLimit": false
    }
  ],
  "receipts": [
    {
      "transactionHash": "0x7196c1368b6b1c2e06657c29046bc344fd91214816b91c0b12bf1485ffd1ccb0",
      "transactionIndex": "0x0",
      "blockHash": "0xf91ebad6462eae8a6c6f864ccf4a7b8eac334551bfd2c9553e7c0f1bfeebefef",
      "blockNumber": "0x2dc569c",
      "from": "0xdE05a1Abb121113a33eeD248BD91ddC254d5E9Db",
      "to": "0xdFBfeE56AB39e39fb7f0EFeE329E96c57b39Ba44",
      "cumulativeGasUsed": "0xba05",
      "gasUsed": "0xba05",
      "contractAddress": null,
      "logs": [
        {
          "address": "0xdFBfeE56AB39e39fb7f0EFeE329E96c57b39Ba44",
          "topics": [
            "0x7628c1599617e8f71acfbf363d8064a2a32bdb6e63e074de3250cab57047bf79",
            "0x0000000000000000000000000000000000000000000000000000000000009ce1"
          ],
          "data": "0x0000000000000000000000000000000000000000000000008ac7230489e80000",
          "blockHash": "0xf91ebad6462eae8a6c6f864ccf4a7b8eac334551bfd2c9553e7c0f1bfeebefef",
          "blockNumber": "0x2dc569c",
          "transactionHash": "0x7196c1368b6b1c2e06657c29046bc344fd91214816b91c0b12bf1485ffd1ccb0",
          "transactionIndex": "0x0",
          "logIndex": "0x0",
          "removed": false
        },
        {
          "address": "0x0000000000000000000000000000000000001010",
          "topics": [
            "0x4dfe1bbbcf077ddc3e01291eea2d5c70c2b422b415d95645b9adcfd678cb1d63",
            "0x0000000000000000000000000000000000000000000000000000000000001010",
            "0x000000000000000000000000de05a1abb121113a33eed248bd91ddc254d5e9db",
            "0x0000000000000000000000005082f249cdb2f2c1ee035e4f423c46ea2dab3ab1"
          ],
          "data": "0x00000000000000000000000000000000000000000000000000051354d7aa5c0000000000000000000000000000000000000000000000000024210cf2c9ed78fd0000000000000000000000000000000000000000000008a46230b9876457c4ec000000000000000000000000000000000000000000000000241bf99df2431cfd0000000000000000000000000000000000000000000008a46235ccdc3c0220ec",
          "blockHash": "0xf91ebad6462eae8a6c6f864ccf4a7b8eac334551bfd2c9553e7c0f1bfeebefef",
          "blockNumber": "0x2dc569c",
          "transactionHash": "0x7196c1368b6b1c2e06657c29046bc344fd91214816b91c0b12bf1485ffd1ccb0",
          "transactionIndex": "0x0",
          "logIndex": "0x1",
          "removed": false
        }
      ],
      "status": "0x1",
      "logsBloom": "0x00000000000000000000000000000000000000000000000000100000020000000000000002000000000000000000000000008000000000000000000000000000000000000000000000000000000000800000000000000000000100000000800000000000000000000000000000a00000000000100000004080000000000000000000000000000020000000000000000000000000000000000000000000000000200000000000000000000000000000000000000000000000000000000000004100000000000000000001000000080000000000000000008000900000000000000000000000000080000000000000000200000000000000000000000000100000",
      "type": "0x2",
      "effectiveGasPrice": "0x6fc23ac0f"
    },
    {
      "transactionHash": "0x2c6b89a1c98d3b7cf53a98c3b01c7b6c3f0bc8887c23a45845a764dd35dc5c88",
      "transactionIndex": "0x1",
      "blockHash": "0xf91ebad6462eae8a6c6f864ccf4a7b8eac334551bfd2c9553e7c0f1bfeebefef",
      "blockNumber": "0x2dc569c",
      "from": "0xdE05a1Abb121113a33eeD248BD91ddC254d5E9Db",
      "to": "0xdFBfeE56AB39e39fb7f0EFeE329E96c57b39Ba44",
      "cumulativeGasUsed": "0x17437",
      "gasUsed": "0xba32",
      "contractAddress": null,
      "logs": [
        {
          "address": "0xdFBfeE56AB39e39fb7f0EFeE329E96c57b39Ba44",
          "topics": [
            "0x9cc3784ef7ab64c61f0abf58d72c2a40ef45b319db540006be0aa3e4610b8433",
            "0x0000000000000000000000000000000000000000000000000000000000009ce1"
          ],
          "data": "0x0000000000000000000000000000000000000000000000008ac7230489e80000",
          "blockHash": "0xf91ebad6462eae8a6c6f864ccf4a7b8eac334551bfd2c9553e7c0f1bfeebefef",
          "blockNumber": "0x2dc569c",
          "transactionHash": "0x2c6b89a1c98d3b7cf53a98c3b01c7b6c3f0bc8887c23a45845a764dd35dc5c88",
          "transactionIndex": "0x1",
          "logIndex": "0x2",
          "removed": false
        },
        {
          "address": "0x0000000000000000000000000000000000001010",
          "topics": [
            "0x4dfe1bbbcf077ddc3e01291eea2d5c70c2b422b415d95645b9adcfd678cb1d63",
            "0x0000000000000000000000000000000000000000000000000000000000001010",
            "0x000000000000000000000000de05a1abb121113a33eed248bd91ddc254d5e9db",
            "0x0000000000000000000000005082f249cdb2f2c1ee035e4f423c46ea2dab3ab1"
          ],
          "data": "0x0000000000000000000000000000000000000000000000000005148f29ef9800000000000000000000000000000000000000000000000000241bf99df23836b20000000000000000000000000000000000000000000008a46235ccdc3c0220ec0000000000000000000000000000000000000000000000002416e50ec8489eb20000000000000000000000000000000000000000000008a4623ae16b65f1b8ec",
          "blockHash": "0xf91ebad6462eae8a6c6f864ccf4a7b8eac334551bfd2c9553e7c0f1bfeebefef",
          "blockNumber": "0x2dc569c",
          "transactionHash": "0x2c6b89a1c98d3b7cf53a98c3b01c7b6c3f0bc8887c23a45845a764dd35dc5c88",
          "transactionIndex": "0x1",
          "logIndex": "0x3",
          "removed": false
        }
      ],
      "status": "0x1",
      "logsBloom": "0x00000000000000000000000000000000000000000000000000100000020000000000000002000000000000000000000000008000000000000001000000000000000000000000000000000000000000800000000000000000000100000000000000000000000000000000000000a00000000000100000004080000000000000000000000000000020000000000000000000000000000000000000000000008000200000000000000004000000000000000000000000000000000000000000004100000000000000000001000000000000000000000000000000900000000000000000000000000080000000000000000200000000000000000000000000100000",
      "type": "0x2",
      "effectiveGasPrice": "0x6fc23ac0f"
    }
  ],
  "libraries": [],
  "pending": [],
  "returns": {},
  "timestamp": 1712551976,
  "chain": 80001,
  "commit": "93605f9"
}