{
  "transactions": [
    {
      "hash": "0x7efed4d6b88c2b9fba118bac7ef1f1200a491d3a165c6d21091b0fc58736c779",
      "transactionType": "CALL",
      "contractName": "MocaOFT",
      "contractAddress": "0xdFBfeE56AB39e39fb7f0EFeE329E96c57b39Ba44",
      "function": "setPeer(uint32,bytes32)",
      "arguments": [
        "40161",
        "0x000000000000000000000000f49880d03567302cb20b4a668bd69321b0b1bf59"
      ],
      "transaction": {
        "type": "0x02",
        "from": "0xde05a1abb121113a33eed248bd91ddc254d5e9db",
        "to": "0xdfbfee56ab39e39fb7f0efee329e96c57b39ba44",
        "gas": "0x1016a",
        "value": "0x0",
        "data": "0x3400288b0000000000000000000000000000000000000000000000000000000000009ce1000000000000000000000000f49880d03567302cb20b4a668bd69321b0b1bf59",
        "nonce": "0x69",
        "accessList": []
      },
      "additionalContracts": [],
      "isFixedGasLimit": false
    }
  ],
  "receipts": [
    {
      "transactionHash": "0x7efed4d6b88c2b9fba118bac7ef1f1200a491d3a165c6d21091b0fc58736c779",
      "transactionIndex": "0x0",
      "blockHash": "0x13bc314287e1c12c1a2b63a42a76e2bd0837feee5c20513397c67e4cac6d5fef",
      "blockNumber": "0x2dc8023",
      "from": "0xdE05a1Abb121113a33eeD248BD91ddC254d5E9Db",
      "to": "0xdFBfeE56AB39e39fb7f0EFeE329E96c57b39Ba44",
      "cumulativeGasUsed": "0xba5e",
      "gasUsed": "0xba5e",
      "contractAddress": null,
      "logs": [
        {
          "address": "0xdFBfeE56AB39e39fb7f0EFeE329E96c57b39Ba44",
          "topics": [
            "0x238399d427b947898edb290f5ff0f9109849b1c3ba196a42e35f00c50a54b98b"
          ],
          "data": "0x0000000000000000000000000000000000000000000000000000000000009ce1000000000000000000000000f49880d03567302cb20b4a668bd69321b0b1bf59",
          "blockHash": "0x13bc314287e1c12c1a2b63a42a76e2bd0837feee5c20513397c67e4cac6d5fef",
          "blockNumber": "0x2dc8023",
          "transactionHash": "0x7efed4d6b88c2b9fba118bac7ef1f1200a491d3a165c6d21091b0fc58736c779",
          "transactionIndex": "0x0",
          "logIndex": "0x0",
          "removed": false
        },
        {
          "address": "0x0000000000000000000000000000000000001010",
          "topics": [
            "0x4dfe1bbbcf077ddc3e01291eea2d5c70c2b422b415d95645b9adcfd678cb1d63",
            "0x0000000000000000000000000000000000000000000000000000000000001010",
            "0x000000000000000000000000de05a1abb121113a33eed248bd91ddc254d5e9db",
            "0x00000000000000000000000004ba3ef4c023c1006019a0f9baf6e70455e41fcf"
          ],
          "data": "0x000000000000000000000000000000000000000000000000000515c280112800000000000000000000000000000000000000000000000000240bec3f3f98a5e4000000000000000000000000000000000000000000000067846800447907fdbb0000000000000000000000000000000000000000000000002406d67cbf877de4000000000000000000000000000000000000000000000067846d1606f91925bb",
          "blockHash": "0x13bc314287e1c12c1a2b63a42a76e2bd0837feee5c20513397c67e4cac6d5fef",
          "blockNumber": "0x2dc8023",
          "transactionHash": "0x7efed4d6b88c2b9fba118bac7ef1f1200a491d3a165c6d21091b0fc58736c779",
          "transactionIndex": "0x0",
          "logIndex": "0x1",
          "removed": false
        }
      ],
      "status": "0x1",
      "logsBloom": "0x00000000000000000000000000000000000000000000000000100000000004000000000000000000000000000000000000008000000000000800000000000000000000000000000000000000000000800000000000000000000100000000000000000000000000000000000000200000000000000000004080000000000000000000000000004020000000000000000000000000000000000000000000000000200000000000000000000000000000000000000000000000000002000000004100000000000000000001000000000000000000000000000000940000000000000000000000000000000000000000000000000000000000000000000000100000",
      "type": "0x2",
      "effectiveGasPrice": "0x6fc23ac10"
    }
  ],
  "libraries": [],
  "pending": [],
  "returns": {},
  "timestamp": 1712576319,
  "chain": 80001,
  "commit": "93605f9"
}