{
  "transactions": [
    {
      "hash": "0xf25c94863c7e9dc2af6077071bfcdc6bfffd48adef4c2a60cacbd40402d958ab",
      "transactionType": "CALL",
      "contractName": null,
      "contractAddress": "0x3fD66Aa42C3E68A1A72Afd9bC72e2AD4F806e20d",
      "function": "setEnforcedOptions((uint32,uint16,bytes)[])",
      "arguments": [
        "[(30101, 1, 0x00030100110100000000000000000000000000030d40), (30101, 2, 0x000301001303000000000000000000000000000000000000)]"
      ],
      "transaction": {
        "type": "0x02",
        "from": "0x8c9c001f821c04513616fd7962b2d8c62f925fd2",
        "to": "0x3fd66aa42c3e68a1a72afd9bc72e2ad4f806e20d",
        "gas": "0x1cbc7",
        "value": "0x0",
        "data": "0xb98bd07000000000000000000000000000000000000000000000000000000000000000200000000000000000000000000000000000000000000000000000000000000002000000000000000000000000000000000000000000000000000000000000004000000000000000000000000000000000000000000000000000000000000000e0000000000000000000000000000000000000000000000000000000000000759500000000000000000000000000000000000000000000000000000000000000010000000000000000000000000000000000000000000000000000000000000060000000000000000000000000000000000000000000000000000000000000001600030100110100000000000000000000000000030d400000000000000000000000000000000000000000000000000000000000000000000000000000000075950000000000000000000000000000000000000000000000000000000000000002000000000000000000000000000000000000000000000000000000000000006000000000000000000000000000000000000000000000000000000000000000180003010013030000000000000000000000000000000000000000000000000000",
        "nonce": "0x1",
        "accessList": []
      },
      "additionalContracts": [],
      "isFixedGasLimit": false
    }
  ],
  "receipts": [
    {
      "transactionHash": "0xf25c94863c7e9dc2af6077071bfcdc6bfffd48adef4c2a60cacbd40402d958ab",
      "transactionIndex": "0xb4",
      "blockHash": "0x9c64788d04b6df7cee96b7dd2533f7e25c49e3332bf08bd13ebc5df88acaafbf",
      "blockNumber": "0x3514561",
      "from": "0x8C9C001F821c04513616fd7962B2D8c62f925fD2",
      "to": "0x3fD66Aa42C3E68A1A72Afd9bC72e2AD4F806e20d",
      "cumulativeGasUsed": "0x16000d4",
      "gasUsed": "0x13a61",
      "contractAddress": null,
      "logs": [
        {
          "address": "0x3fD66Aa42C3E68A1A72Afd9bC72e2AD4F806e20d",
          "topics": [
            "0xbe4864a8e820971c0247f5992e2da559595f7bf076a21cb5928d443d2a13b674"
          ],
          "data": "0x00000000000000000000000000000000000000000000000000000000000000200000000000000000000000000000000000000000000000000000000000000002000000000000000000000000000000000000000000000000000000000000004000000000000000000000000000000000000000000000000000000000000000e0000000000000000000000000000000000000000000000000000000000000759500000000000000000000000000000000000000000000000000000000000000010000000000000000000000000000000000000000000000000000000000000060000000000000000000000000000000000000000000000000000000000000001600030100110100000000000000000000000000030d400000000000000000000000000000000000000000000000000000000000000000000000000000000075950000000000000000000000000000000000000000000000000000000000000002000000000000000000000000000000000000000000000000000000000000006000000000000000000000000000000000000000000000000000000000000000180003010013030000000000000000000000000000000000000000000000000000",
          "blockHash": "0x9c64788d04b6df7cee96b7dd2533f7e25c49e3332bf08bd13ebc5df88acaafbf",
          "blockNumber": "0x3514561",
          "transactionHash": "0xf25c94863c7e9dc2af6077071bfcdc6bfffd48adef4c2a60cacbd40402d958ab",
          "transactionIndex": "0xb4",
          "logIndex": "0x374",
          "removed": false
        },
        {
          "address": "0x0000000000000000000000000000000000001010",
          "topics": [
            "0x4dfe1bbbcf077ddc3e01291eea2d5c70c2b422b415d95645b9adcfd678cb1d63",
            "0x0000000000000000000000000000000000000000000000000000000000001010",
            "0x0000000000000000000000008c9c001f821c04513616fd7962b2d8c62f925fd2",
            "0x0000000000000000000000001efecb61a2f80aa34d3b9218b564a64d05946290"
          ],
          "data": "0x000000000000000000000000000000000000000000000000000945f6db54e4b10000000000000000000000000000000000000000000000008ab12b8d5bc9d1820000000000000000000000000000000000000000000005b246fba76e839f55250000000000000000000000000000000000000000000000008aa7e5968074ecd10000000000000000000000000000000000000000000005b24704ed655ef439d6",
          "blockHash": "0x9c64788d04b6df7cee96b7dd2533f7e25c49e3332bf08bd13ebc5df88acaafbf",
          "blockNumber": "0x3514561",
          "transactionHash": "0xf25c94863c7e9dc2af6077071bfcdc6bfffd48adef4c2a60cacbd40402d958ab",
          "transactionIndex": "0xb4",
          "logIndex": "0x375",
          "removed": false
        }
      ],
      "status": "0x1",
      "logsBloom": "0x00000000000000000000000000000800000000000000000000000000000000000000000000000000000000000000000000008000000000000000400000000000200000000000000000000000004000800000000000000000000100000000000000000000000000000000000000000000000000000000000080000000000000000000000040000000000000000000000000000000000000000000000000080000280000000000000000000000000000000000000000000000000080000000004000000100000080000001000002000000000000000000000000100000000000002000000000000000000000000000000000000000000000000000000000100000",
      "type": "0x2",
      "effectiveGasPrice": "0x1d35a10135"
    }
  ],
  "libraries": [],
  "pending": [],
  "returns": {},
  "timestamp": 1712738178,
  "chain": 137,
  "commit": "f9c0721"
}