{
  "transactions": [
    {
      "hash": "0x5e7fed40830bd487b1c57940cd5fe5a26ca2f1b1ddfe35f2d148d34fc93a5614",
      "transactionType": "CALL",
      "contractName": null,
      "contractAddress": "0x1a44076050125825900e736c501f859c50fE728c",
      "function": "setConfig(address,address,(uint32,uint32,bytes)[])",
      "arguments": [
        "0x3fD66Aa42C3E68A1A72Afd9bC72e2AD4F806e20d",
        "0x6c26c61a97006888ea9E4FA36584c7df57Cd9dA3",
        "[(30101, 2, 0x0000000000000000000000000000000000000000000000000000000000000020000000000000000000000000000000000000000000000000000000000000030000000000000000000000000000000000000000000000000000000000000000040000000000000000000000000000000000000000000000000000000000000000000000000000000000000000000000000000000000000000000000000000000000000000000000000000000000000000000000000000000000000000000000c00000000000000000000000000000000000000000000000000000000000000160000000000000000000000000000000000000000000000000000000000000000400000000000000000000000023de2fe932d9043291f870324b74f820e11dc81a00000000000000000000000031f748a368a893bdb5abb67ec95f232507601a73000000000000000000000000a6f5ddbf0bd4d03334523465439d301080574742000000000000000000000000d56e4eab23cb81f43168f9f45211eb027b9ac7cc0000000000000000000000000000000000000000000000000000000000000000)]"
      ],
      "transaction": {
        "type": "0x02",
        "from": "0x8c9c001f821c04513616fd7962b2d8c62f925fd2",
        "to": "0x1a44076050125825900e736c501f859c50fe728c",
        "gas": "0x3eace",
        "value": "0x0",
        "data": "0x6dbd9f900000000000000000000000003fd66aa42c3e68a1a72afd9bc72e2ad4f806e20d0000000000000000000000006c26c61a97006888ea9e4fa36584c7df57cd9da300000000000000000000000000000000000000000000000000000000000000600000000000000000000000000000000000000000000000000000000000000001000000000000000000000000000000000000000000000000000000000000002000000000000000000000000000000000000000000000000000000000000075950000000000000000000000000000000000000000000000000000000000000002000000000000000000000000000000000000000000000000000000000000006000000000000000000000000000000000000000000000000000000000000001a00000000000000000000000000000000000000000000000000000000000000020000000000000000000000000000000000000000000000000000000000000030000000000000000000000000000000000000000000000000000000000000000040000000000000000000000000000000000000000000000000000000000000000000000000000000000000000000000000000000000000000000000000000000000000000000000000000000000000000000000000000000000000000000000c00000000000000000000000000000000000000000000000000000000000000160000000000000000000000000000000000000000000000000000000000000000400000000000000000000000023de2fe932d9043291f870324b74f820e11dc81a00000000000000000000000031f748a368a893bdb5abb67ec95f232507601a73000000000000000000000000a6f5ddbf0bd4d03334523465439d301080574742000000000000000000000000d56e4eab23cb81f43168f9f45211eb027b9ac7cc0000000000000000000000000000000000000000000000000000000000000000",
        "nonce": "0x4",
        "accessList": []
      },
      "additionalContracts": [],
      "isFixedGasLimit": false
    },
    {
      "hash": "0xa6dea44df64d5e25c8d38abcf4e16c4dc34a0c8ab4516b6661a085b75a753767",
      "transactionType": "CALL",
      "contractName": null,
      "contractAddress": "0x1a44076050125825900e736c501f859c50fE728c",
      "function": "setConfig(address,address,(uint32,uint32,bytes)[])",
      "arguments": [
        "0x3fD66Aa42C3E68A1A72Afd9bC72e2AD4F806e20d",
        "0x1322871e4ab09Bc7f5717189434f97bBD9546e95",
        "[(30101, 2, 0x0000000000000000000000000000000000000000000000000000000000000020000000000000000000000000000000000000000000000000000000000000030000000000000000000000000000000000000000000000000000000000000000040000000000000000000000000000000000000000000000000000000000000000000000000000000000000000000000000000000000000000000000000000000000000000000000000000000000000000000000000000000000000000000000c00000000000000000000000000000000000000000000000000000000000000160000000000000000000000000000000000000000000000000000000000000000400000000000000000000000023de2fe932d9043291f870324b74f820e11dc81a00000000000000000000000031f748a368a893bdb5abb67ec95f232507601a73000000000000000000000000a6f5ddbf0bd4d03334523465439d301080574742000000000000000000000000d56e4eab23cb81f43168f9f45211eb027b9ac7cc0000000000000000000000000000000000000000000000000000000000000000)]"
      ],
      "transaction": {
        "type": "0x02",
        "from": "0x8c9c001f821c04513616fd7962b2d8c62f925fd2",
        "to": "0x1a44076050125825900e736c501f859c50fe728c",
        "gas": "0x3e994",
        "value": "0x0",
        "data": "0x6dbd9f900000000000000000000000003fd66aa42c3e68a1a72afd9bc72e2ad4f806e20d0000000000000000000000001322871e4ab09bc7f5717189434f97bbd9546e9500000000000000000000000000000000000000000000000000000000000000600000000000000000000000000000000000000000000000000000000000000001000000000000000000000000000000000000000000000000000000000000002000000000000000000000000000000000000000000000000000000000000075950000000000000000000000000000000000000000000000000000000000000002000000000000000000000000000000000000000000000000000000000000006000000000000000000000000000000000000000000000000000000000000001a00000000000000000000000000000000000000000000000000000000000000020000000000000000000000000000000000000000000000000000000000000030000000000000000000000000000000000000000000000000000000000000000040000000000000000000000000000000000000000000000000000000000000000000000000000000000000000000000000000000000000000000000000000000000000000000000000000000000000000000000000000000000000000000000c00000000000000000000000000000000000000000000000000000000000000160000000000000000000000000000000000000000000000000000000000000000400000000000000000000000023de2fe932d9043291f870324b74f820e11dc81a00000000000000000000000031f748a368a893bdb5abb67ec95f232507601a73000000000000000000000000a6f5ddbf0bd4d03334523465439d301080574742000000000000000000000000d56e4eab23cb81f43168f9f45211eb027b9ac7cc0000000000000000000000000000000000000000000000000000000000000000",
        "nonce": "0x5",
        "accessList": []
      },
      "additionalContracts": [],
      "isFixedGasLimit": false
    }
  ],
  "receipts": [
    {
      "transactionHash": "0x5e7fed40830bd487b1c57940cd5fe5a26ca2f1b1ddfe35f2d148d34fc93a5614",
      "transactionIndex": "0x5b",
      "blockHash": "0x677722e07aa8f9ba3e59de68b85d94eb006e7548d4573a59c9b77789e33f1bed",
      "blockNumber": "0x35145e2",
      "from": "0x8C9C001F821c04513616fd7962B2D8c62f925fD2",
      "to": "0x1a44076050125825900e736c501f859c50fE728c",
      "cumulativeGasUsed": "0xe2d692",
      "gasUsed": "0x2d604",
      "contractAddress": null,
      "logs": [
        {
          "address": "0x6c26c61a97006888ea9E4FA36584c7df57Cd9dA3",
          "topics": [
            "0x82118522aa536ac0e96cc5c689407ae42b89d592aa133890a01f1509842f5081"
          ],
          "data": "0x0000000000000000000000003fd66aa42c3e68a1a72afd9bc72e2ad4f806e20d00000000000000000000000000000000000000000000000000000000000075950000000000000000000000000000000000000000000000000000000000000060000000000000000000000000000000000000000000000000000000000000030000000000000000000000000000000000000000000000000000000000000000040000000000000000000000000000000000000000000000000000000000000000000000000000000000000000000000000000000000000000000000000000000000000000000000000000000000000000000000000000000000000000000000c00000000000000000000000000000000000000000000000000000000000000160000000000000000000000000000000000000000000000000000000000000000400000000000000000000000023de2fe932d9043291f870324b74f820e11dc81a00000000000000000000000031f748a368a893bdb5abb67ec95f232507601a73000000000000000000000000a6f5ddbf0bd4d03334523465439d301080574742000000000000000000000000d56e4eab23cb81f43168f9f45211eb027b9ac7cc0000000000000000000000000000000000000000000000000000000000000000",
          "blockHash": "0x677722e07aa8f9ba3e59de68b85d94eb006e7548d4573a59c9b77789e33f1bed",
          "blockNumber": "0x35145e2",
          "transactionHash": "0x5e7fed40830bd487b1c57940cd5fe5a26ca2f1b1ddfe35f2d148d34fc93a5614",
          "transactionIndex": "0x5b",
          "logIndex": "0x207",
          "removed": false
        },
        {
          "address": "0x0000000000000000000000000000000000001010",
          "topics": [
            "0x4dfe1bbbcf077ddc3e01291eea2d5c70c2b422b415d95645b9adcfd678cb1d63",
            "0x0000000000000000000000000000000000000000000000000000000000001010",
            "0x0000000000000000000000008c9c001f821c04513616fd7962b2d8c62f925fd2",
            "0x0000000000000000000000007c7379531b2aee82e4ca06d4175d13b9cbeafd49"
          ],
          "data": "0x000000000000000000000000000000000000000000000000000bfad11a2a54bc0000000000000000000000000000000000000000000000008a56ed840ba890ac00000000000000000000000000000000000000000002e570221aa90cb8a119840000000000000000000000000000000000000000000000008a4af2b2f17e3bf000000000000000000000000000000000000000000002e5702226a3ddd2cb6e40",
          "blockHash": "0x677722e07aa8f9ba3e59de68b85d94eb006e7548d4573a59c9b77789e33f1bed",
          "blockNumber": "0x35145e2",
          "transactionHash": "0x5e7fed40830bd487b1c57940cd5fe5a26ca2f1b1ddfe35f2d148d34fc93a5614",
          "transactionIndex": "0x5b",
          "logIndex": "0x208",
          "removed": false
        }
      ],
      "status": "0x1",
      "logsBloom": "0x00000000000000000000000000000800000000000000000000000000000000400000004000000000000000000000000000008000000000000000000000000000000000000000000000000000004000800000000000400000002100000000000000000000000000000000000000000000000000000000000080000000000000000000000000000000000000000000000000000000000000000000010000000000200000000000000000000002000000000000000000000000000080000000004000000000000000000001000000000000000000000000000000180000000000000000000000000000000000000000000000000000000000000000000000100010",
      "type": "0x2",
      "effectiveGasPrice": "0x1c8a83a84e"
    },
    {
      "transactionHash": "0xa6dea44df64d5e25c8d38abcf4e16c4dc34a0c8ab4516b6661a085b75a753767",
      "transactionIndex": "0x5c",
      "blockHash": "0x677722e07aa8f9ba3e59de68b85d94eb006e7548d4573a59c9b77789e33f1bed",
      "blockNumber": "0x35145e2",
      "from": "0x8C9C001F821c04513616fd7962B2D8c62f925fD2",
      "to": "0x1a44076050125825900e736c501f859c50fE728c",
      "cumulativeGasUsed": "0xe5abb2",
      "gasUsed": "0x2d520",
      "contractAddress": null,
      "logs": [
        {
          "address": "0x1322871e4ab09Bc7f5717189434f97bBD9546e95",
          "topics": [
            "0x82118522aa536ac0e96cc5c689407ae42b89d592aa133890a01f1509842f5081"
          ],
          "data": "0x0000000000000000000000003fd66aa42c3e68a1a72afd9bc72e2ad4f806e20d00000000000000000000000000000000000000000000000000000000000075950000000000000000000000000000000000000000000000000000000000000060000000000000000000000000000000000000000000000000000000000000030000000000000000000000000000000000000000000000000000000000000000040000000000000000000000000000000000000000000000000000000000000000000000000000000000000000000000000000000000000000000000000000000000000000000000000000000000000000000000000000000000000000000000c00000000000000000000000000000000000000000000000000000000000000160000000000000000000000000000000000000000000000000000000000000000400000000000000000000000023de2fe932d9043291f870324b74f820e11dc81a00000000000000000000000031f748a368a893bdb5abb67ec95f232507601a73000000000000000000000000a6f5ddbf0bd4d03334523465439d301080574742000000000000000000000000d56e4eab23cb81f43168f9f45211eb027b9ac7cc0000000000000000000000000000000000000000000000000000000000000000",
          "blockHash": "0x677722e07aa8f9ba3e59de68b85d94eb006e7548d4573a59c9b77789e33f1bed",
          "blockNumber": "0x35145e2",
          "transactionHash": "0xa6dea44df64d5e25c8d38abcf4e16c4dc34a0c8ab4516b6661a085b75a753767",
          "transactionIndex": "0x5c",
          "logIndex": "0x209",
          "removed": false
        },
        {
          "address": "0x0000000000000000000000000000000000001010",
          "topics": [
            "0x4dfe1bbbcf077ddc3e01291eea2d5c70c2b422b415d95645b9adcfd678cb1d63",
            "0x0000000000000000000000000000000000000000000000000000000000001010",
            "0x0000000000000000000000008c9c001f821c04513616fd7962b2d8c62f925fd2",
            "0x0000000000000000000000007c7379531b2aee82e4ca06d4175d13b9cbeafd49"
          ],
          "data": "0x000000000000000000000000000000000000000000000000000bf70dfd89f0e00000000000000000000000000000000000000000000000008a05fc40824cbb7400000000000000000000000000000000000000000002e5702226a3ddd2cb6e4000000000000000000000000000000000000000000000000089fa053284c2ca9400000000000000000000000000000000000000000002e57022329aebd0555f20",
          "blockHash": "0x677722e07aa8f9ba3e59de68b85d94eb006e7548d4573a59c9b77789e33f1bed",
          "blockNumber": "0x35145e2",
          "transactionHash": "0xa6dea44df64d5e25c8d38abcf4e16c4dc34a0c8ab4516b6661a085b75a753767",
          "transactionIndex": "0x5c",
          "logIndex": "0x20a",
          "removed": false
        }
      ],
      "status": "0x1",
      "logsBloom": "0x00000000000000000000000000000800000000000000000000000000000000400000000000000000000000000004000000008000000000000000000000000000000000000000000000000000004000800000000000400000002100000000000000000000000000000000000000000000000000000000000080000000000000000000000000000000000000000000800000000000000000000000000000000000200000000000000000000002000000000000000000000000000080000000004000000000000000000001000000000000000000000000000000100000000000000000000000000000000000000000800000000000000000000000000000100010",
      "type": "0x2",
      "effectiveGasPrice": "0x1c8a83a84e"
    }
  ],
  "libraries": [],
  "pending": [],
  "returns": {},
  "timestamp": 1712738481,
  "chain": 137,
  "commit": "f9c0721"
}