{
  "transactions": [
    {
      "hash": "0xc1b5a0b4399ad2df4849c2f2ac2c43fcc2b67dd19e3bbc44eb901eeea8fede72",
      "transactionType": "CALL",
      "contractName": null,
      "contractAddress": "0x3fD66Aa42C3E68A1A72Afd9bC72e2AD4F806e20d",
      "function": "setOutboundLimit(uint32,uint256)",
      "arguments": [
        "30101",
        "10000000000000000000"
      ],
      "transaction": {
        "type": "0x02",
        "from": "0x8c9c001f821c04513616fd7962b2d8c62f925fd2",
        "to": "0x3fd66aa42c3e68a1a72afd9bc72e2ad4f806e20d",
        "gas": "0x100f0",
        "value": "0x0",
        "data": "0x65d28a6b00000000000000000000000000000000000000000000000000000000000075950000000000000000000000000000000000000000000000008ac7230489e80000",
        "nonce": "0x2",
        "accessList": []
      },
      "additionalContracts": [],
      "isFixedGasLimit": false
    },
    {
      "hash": "0x0eed8fa999c0c363725bf0a4835be23407efc09cd9de52c3506e2910d550adea",
      "transactionType": "CALL",
      "contractName": null,
      "contractAddress": "0x3fD66Aa42C3E68A1A72Afd9bC72e2AD4F806e20d",
      "function": "setInboundLimit(uint32,uint256)",
      "arguments": [
        "30101",
        "10000000000000000000"
      ],
      "transaction": {
        "type": "0x02",
        "from": "0x8c9c001f821c04513616fd7962b2d8c62f925fd2",
        "to": "0x3fd66aa42c3e68a1a72afd9bc72e2ad4f806e20d",
        "gas": "0x1104f",
        "value": "0x0",
        "data": "0x9a2fe9e400000000000000000000000000000000000000000000000000000000000075950000000000000000000000000000000000000000000000008ac7230489e80000",
        "nonce": "0x3",
        "accessList": []
      },
      "additionalContracts": [],
      "isFixedGasLimit": false
    }
  ],
  "receipts": [
    {
      "transactionHash": "0xc1b5a0b4399ad2df4849c2f2ac2c43fcc2b67dd19e3bbc44eb901eeea8fede72",
      "transactionIndex": "0x72",
      "blockHash": "0x62e4193351e4d10a96f193aa3294baf90d0133ef894e8ead7e6ea3d611864467",
      "blockNumber": "0x3514570",
      "from": "0x8C9C001F821c04513616fd7962B2D8c62f925fD2",
      "to": "0x3fD66Aa42C3E68A1A72Afd9bC72e2AD4F806e20d",
      "cumulativeGasUsed": "0xed4c55",
      "gasUsed": "0xba05",
      "contractAddress": null,
      "logs": [
        {
          "address": "0x3fD66Aa42C3E68A1A72Afd9bC72e2AD4F806e20d",
          "topics": [
            "0x7628c1599617e8f71acfbf363d8064a2a32bdb6e63e074de3250cab57047bf79",
            "0x0000000000000000000000000000000000000000000000000000000000007595"
          ],
          "data": "0x0000000000000000000000000000000000000000000000008ac7230489e80000",
          "blockHash": "0x62e4193351e4d10a96f193aa3294baf90d0133ef894e8ead7e6ea3d611864467",
          "blockNumber": "0x3514570",
          "transactionHash": "0xc1b5a0b4399ad2df4849c2f2ac2c43fcc2b67dd19e3bbc44eb901eeea8fede72",
          "transactionIndex": "0x72",
          "logIndex": "0x2d5",
          "removed": false
        },
        {
          "address": "0x0000000000000000000000000000000000001010",
          "topics": [
            "0x4dfe1bbbcf077ddc3e01291eea2d5c70c2b422b415d95645b9adcfd678cb1d63",
            "0x0000000000000000000000000000000000000000000000000000000000001010",
            "0x0000000000000000000000008c9c001f821c04513616fd7962b2d8c62f925fd2",
            "0x000000000000000000000000959c65b72147faf3450d8b50a0de57e72ffc5e0d"
          ],
          "data": "0x00000000000000000000000000000000000000000000000000057b94a7b24c340000000000000000000000000000000000000000000000008a8d4cb48e4d5a6d0000000000000000000000000000000000000000000001753435be57faa187070000000000000000000000000000000000000000000000008a87d11fe69b0e39000000000000000000000000000000000000000000000175343b39eca253d33b",
          "blockHash": "0x62e4193351e4d10a96f193aa3294baf90d0133ef894e8ead7e6ea3d611864467",
          "blockNumber": "0x3514570",
          "transactionHash": "0xc1b5a0b4399ad2df4849c2f2ac2c43fcc2b67dd19e3bbc44eb901eeea8fede72",
          "transactionIndex": "0x72",
          "logIndex": "0x2d6",
          "removed": false
        }
      ],
      "status": "0x1",
      "logsBloom": "0x00000000000000100000000000000800000000000000000000000000000000000000000000000000000000000000000000008800000000000000000000000000000000000000000000000000004000800000000000000000000100000000800000000000000000000000000000000000000000000000000080000000000000000000002040000000000000000000000000000000000000000000000000000000280000000000000000000000000000000000000000000000000080000000004000000000000080000001000000080000000000000000008000100000020000000000000000000000000008000000000002000000000000000000000000100000",
      "type": "0x2",
      "effectiveGasPrice": "0x256544a5c7"
    },
    {
      "transactionHash": "0x0eed8fa999c0c363725bf0a4835be23407efc09cd9de52c3506e2910d550adea",
      "transactionIndex": "0x73",
      "blockHash": "0x62e4193351e4d10a96f193aa3294baf90d0133ef894e8ead7e6ea3d611864467",
      "blockNumber": "0x3514570",
      "from": "0x8C9C001F821c04513616fd7962B2D8c62f925fD2",
      "to": "0x3fD66Aa42C3E68A1A72Afd9bC72e2AD4F806e20d",
      "cumulativeGasUsed": "0xee0687",
      "gasUsed": "0xba32",
      "contractAddress": null,
      "logs": [
        {
          "address": "0x3fD66Aa42C3E68A1A72Afd9bC72e2AD4F806e20d",
          "topics": [
            "0x9cc3784ef7ab64c61f0abf58d72c2a40ef45b319db540006be0aa3e4610b8433",
            "0x0000000000000000000000000000000000000000000000000000000000007595"
          ],
          "data": "0x0000000000000000000000000000000000000000000000008ac7230489e80000",
          "blockHash": "0x62e4193351e4d10a96f193aa3294baf90d0133ef894e8ead7e6ea3d611864467",
          "blockNumber": "0x3514570",
          "transactionHash": "0x0eed8fa999c0c363725bf0a4835be23407efc09cd9de52c3506e2910d550adea",
          "transactionIndex": "0x73",
          "logIndex": "0x2d7",
          "removed": false
        },
        {
          "address": "0x0000000000000000000000000000000000001010",
          "topics": [
            "0x4dfe1bbbcf077ddc3e01291eea2d5c70c2b422b415d95645b9adcfd678cb1d63",
            "0x0000000000000000000000000000000000000000000000000000000000001010",
            "0x0000000000000000000000008c9c001f821c04513616fd7962b2d8c62f925fd2",
            "0x000000000000000000000000959c65b72147faf3450d8b50a0de57e72ffc5e0d"
          ],
          "data": "0x00000000000000000000000000000000000000000000000000057ce8320492080000000000000000000000000000000000000000000000008a722065b383878a000000000000000000000000000000000000000000000175343b39eca253d33b0000000000000000000000000000000000000000000000008a6ca37d817ef5820000000000000000000000000000000000000000000001753440b6d4d4586543",
          "blockHash": "0x62e4193351e4d10a96f193aa3294baf90d0133ef894e8ead7e6ea3d611864467",
          "blockNumber": "0x3514570",
          "transactionHash": "0x0eed8fa999c0c363725bf0a4835be23407efc09cd9de52c3506e2910d550adea",
          "transactionIndex": "0x73",
          "logIndex": "0x2d8",
          "removed": false
        }
      ],
      "status": "0x1",
      "logsBloom": "0x00000000000000100000000000000800000000000000000000000000000000000000000000000000000000000000000000008800000000000001000000000000000000000000000000000000004000800000000000000000000100000000000000000000000000000000000000000000000000000000000080000000000000000000002040000000000000000000000000000000000000000000000000008000280000000000000004000000000000000000000000000000000080000000004000000000000080000001000000000000000000000000000000100000020000000000000000000000000008000000000002000000000000000000000000100000",
      "type": "0x2",
      "effectiveGasPrice": "0x256544a5c7"
    }
  ],
  "libraries": [],
  "pending": [],
  "returns": {},
  "timestamp": 1712738237,
  "chain": 137,
  "commit": "f9c0721"
}