{
  "transactions": [
    {
      "hash": "0x9483edf19c1458f136b5b563f179db5cee69880708715f554f8a47cd1d8bc010",
      "transactionType": "CALL",
      "contractName": null,
      "contractAddress": "0x1a44076050125825900e736c501f859c50fE728c",
      "function": "setConfig(address,address,(uint32,uint32,bytes)[])",
      "arguments": [
        "0xfdf8c03CdbC1851BF5bd42a73F4fBA8102F4b515",
        "0x6c26c61a97006888ea9E4FA36584c7df57Cd9dA3",
        "[(30101, 2, 0x0000000000000000000000000000000000000000000000000000000000000020000000000000000000000000000000000000000000000000000000000000030000000000000000000000000000000000000000000000000000000000000000040000000000000000000000000000000000000000000000000000000000000000000000000000000000000000000000000000000000000000000000000000000000000000000000000000000000000000000000000000000000000000000000c00000000000000000000000000000000000000000000000000000000000000160000000000000000000000000000000000000000000000000000000000000000400000000000000000000000023de2fe932d9043291f870324b74f820e11dc81a00000000000000000000000031f748a368a893bdb5abb67ec95f232507601a73000000000000000000000000a6f5ddbf0bd4d03334523465439d301080574742000000000000000000000000d56e4eab23cb81f43168f9f45211eb027b9ac7cc0000000000000000000000000000000000000000000000000000000000000000)]"
      ],
      "transaction": {
        "type": "0x02",
        "from": "0x8c9c001f821c04513616fd7962b2d8c62f925fd2",
        "to": "0x1a44076050125825900e736c501f859c50fe728c",
        "gas": "0x3eace",
        "value": "0x0",
        "data": "0x6dbd9f90000000000000000000000000fdf8c03cdbc1851bf5bd42a73f4fba8102f4b5150000000000000000000000006c26c61a97006888ea9e4fa36584c7df57cd9da300000000000000000000000000000000000000000000000000000000000000600000000000000000000000000000000000000000000000000000000000000001000000000000000000000000000000000000000000000000000000000000002000000000000000000000000000000000000000000000000000000000000075950000000000000000000000000000000000000000000000000000000000000002000000000000000000000000000000000000000000000000000000000000006000000000000000000000000000000000000000000000000000000000000001a00000000000000000000000000000000000000000000000000000000000000020000000000000000000000000000000000000000000000000000000000000030000000000000000000000000000000000000000000000000000000000000000040000000000000000000000000000000000000000000000000000000000000000000000000000000000000000000000000000000000000000000000000000000000000000000000000000000000000000000000000000000000000000000000c00000000000000000000000000000000000000000000000000000000000000160000000000000000000000000000000000000000000000000000000000000000400000000000000000000000023de2fe932d9043291f870324b74f820e11dc81a00000000000000000000000031f748a368a893bdb5abb67ec95f232507601a73000000000000000000000000a6f5ddbf0bd4d03334523465439d301080574742000000000000000000000000d56e4eab23cb81f43168f9f45211eb027b9ac7cc0000000000000000000000000000000000000000000000000000000000000000",
        "nonce": "0x11",
        "accessList": []
      },
      "additionalContracts": [],
      "isFixedGasLimit": false
    }
  ],
  "receipts": [
    {
      "transactionHash": "0x9483edf19c1458f136b5b563f179db5cee69880708715f554f8a47cd1d8bc010",
      "transactionIndex": "0x33",
      "blockHash": "0xa2b835237ea36841028db81b81c77d37b480dbb1dcb5662a153c7af0d217432a",
      "blockNumber": "0x35220ad",
      "from": "0x8C9C001F821c04513616fd7962B2D8c62f925fD2",
      "to": "0x1a44076050125825900e736c501f859c50fE728c",
      "cumulativeGasUsed": "0x69b4b4",
      "gasUsed": "0x2d604",
      "contractAddress": null,
      "logs": [
        {
          "address": "0x6c26c61a97006888ea9E4FA36584c7df57Cd9dA3",
          "topics": [
            "0x82118522aa536ac0e96cc5c689407ae42b89d592aa133890a01f1509842f5081"
          ],
          "data": "0x000000000000000000000000fdf8c03cdbc1851bf5bd42a73f4fba8102f4b51500000000000000000000000000000000000000000000000000000000000075950000000000000000000000000000000000000000000000000000000000000060000000000000000000000000000000000000000000000000000000000000030000000000000000000000000000000000000000000000000000000000000000040000000000000000000000000000000000000000000000000000000000000000000000000000000000000000000000000000000000000000000000000000000000000000000000000000000000000000000000000000000000000000000000c00000000000000000000000000000000000000000000000000000000000000160000000000000000000000000000000000000000000000000000000000000000400000000000000000000000023de2fe932d9043291f870324b74f820e11dc81a00000000000000000000000031f748a368a893bdb5abb67ec95f232507601a73000000000000000000000000a6f5ddbf0bd4d03334523465439d301080574742000000000000000000000000d56e4eab23cb81f43168f9f45211eb027b9ac7cc0000000000000000000000000000000000000000000000000000000000000000",
          "blockHash": "0xa2b835237ea36841028db81b81c77d37b480dbb1dcb5662a153c7af0d217432a",
          "blockNumber": "0x35220ad",
          "transactionHash": "0x9483edf19c1458f136b5b563f179db5cee69880708715f554f8a47cd1d8bc010",
          "transactionIndex": "0x33",
          "logIndex": "0xeb",
          "removed": false
        },
        {
          "address": "0x0000000000000000000000000000000000001010",
          "topics": [
            "0x4dfe1bbbcf077ddc3e01291eea2d5c70c2b422b415d95645b9adcfd678cb1d63",
            "0x0000000000000000000000000000000000000000000000000000000000001010",
            "0x0000000000000000000000008c9c001f821c04513616fd7962b2d8c62f925fd2",
            "0x00000000000000000000000073d378cfeaa5cbe8daed64128ebdc91322aa586b"
          ],
          "data": "0x0000000000000000000000000000000000000000000000000013d3834453bd9000000000000000000000000000000000000000000000000079cfbdbba4b81cbf0000000000000000000000000000000000000000000001bc2f09283c844a784400000000000000000000000000000000000000000000000079bbea3860645f2f0000000000000000000000000000000000000000000001bc2f1cfbbfc89e35d4",
          "blockHash": "0xa2b835237ea36841028db81b81c77d37b480dbb1dcb5662a153c7af0d217432a",
          "blockNumber": "0x35220ad",
          "transactionHash": "0x9483edf19c1458f136b5b563f179db5cee69880708715f554f8a47cd1d8bc010",
          "transactionIndex": "0x33",
          "logIndex": "0xec",
          "removed": false
        }
      ],
      "status": "0x1",
      "logsBloom": "0x00000000000000000000000000000800000000000000000000400000000000000000004000000000000000000000000000008000000000000000000000000000000000000000000000000000004000800000000000000000002100000000000000000000000000000000000000000000000000000000000080100000000000000000000000000000000000000000000000010000000000000000010000000000200000000000000000000002000000000000000000000000000080000000004000000000000000000001000000000000000000000000000000180000000000000000000000000000000000000000000000000000000000000000000000100010",
      "type": "0x2",
      "effectiveGasPrice": "0x120a0de0fd"
    }
  ],
  "libraries": [],
  "pending": [],
  "returns": {},
  "timestamp": 1712866560,
  "chain": 137,
  "commit": "f9c0721"
}