{
  "transactions": [
    {
      "hash": "0xa8c746e8a402081ca086ef281322b88f86d93f83d496973da5411a5732933125",
      "transactionType": "CALL",
      "contractName": null,
      "contractAddress": "0x6f5bd6816887F0207d8f575Ab42B6BA637A004F5",
      "function": "setOutboundLimit(uint32,uint256)",
      "arguments": [
        "30101",
        "10000000000000000000"
      ],
      "transaction": {
        "type": "0x02",
        "from": "0x8c9c001f821c04513616fd7962b2d8c62f925fd2",
        "to": "0x6f5bd6816887f0207d8f575ab42b6ba637a004f5",
        "gas": "0x100f0",
        "value": "0x0",
        "data": "0x65d28a6b00000000000000000000000000000000000000000000000000000000000075950000000000000000000000000000000000000000000000008ac7230489e80000",
        "nonce": "0xb",
        "accessList": []
      },
      "additionalContracts": [],
      "isFixedGasLimit": false
    },
    {
      "hash": "0xfa5a3a91ecbf8c64dbef7c4cc5167a170edf1a66f0fb60a8e7f6aa10c94c2d50",
      "transactionType": "CALL",
      "contractName": null,
      "contractAddress": "0x6f5bd6816887F0207d8f575Ab42B6BA637A004F5",
      "function": "setInboundLimit(uint32,uint256)",
      "arguments": [
        "30101",
        "10000000000000000000"
      ],
      "transaction": {
        "type": "0x02",
        "from": "0x8c9c001f821c04513616fd7962b2d8c62f925fd2",
        "to": "0x6f5bd6816887f0207d8f575ab42b6ba637a004f5",
        "gas": "0x1104f",
        "value": "0x0",
        "data": "0x9a2fe9e400000000000000000000000000000000000000000000000000000000000075950000000000000000000000000000000000000000000000008ac7230489e80000",
        "nonce": "0xc",
        "accessList": []
      },
      "additionalContracts": [],
      "isFixedGasLimit": false
    }
  ],
  "receipts": [
    {
      "transactionHash": "0xa8c746e8a402081ca086ef281322b88f86d93f83d496973da5411a5732933125",
      "transactionIndex": "0xa5",
      "blockHash": "0x8f974ee9dc84db71f2226affeeb5b707d33158dc97b167e6a3c74bd5172bf386",
      "blockNumber": "0x3514cbb",
      "from": "0x8C9C001F821c04513616fd7962B2D8c62f925fD2",
      "to": "0x6f5bd6816887F0207d8f575Ab42B6BA637A004F5",
      "cumulativeGasUsed": "0x103d7d9",
      "gasUsed": "0xba05",
      "contractAddress": null,
      "logs": [
        {
          "address": "0x6f5bd6816887F0207d8f575Ab42B6BA637A004F5",
          "topics": [
            "0x7628c1599617e8f71acfbf363d8064a2a32bdb6e63e074de3250cab57047bf79",
            "0x0000000000000000000000000000000000000000000000000000000000007595"
          ],
          "data": "0x0000000000000000000000000000000000000000000000008ac7230489e80000",
          "blockHash": "0x8f974ee9dc84db71f2226affeeb5b707d33158dc97b167e6a3c74bd5172bf386",
          "blockNumber": "0x3514cbb",
          "transactionHash": "0xa8c746e8a402081ca086ef281322b88f86d93f83d496973da5411a5732933125",
          "transactionIndex": "0xa5",
          "logIndex": "0x234",
          "removed": false
        },
        {
          "address": "0x0000000000000000000000000000000000001010",
          "topics": [
            "0x4dfe1bbbcf077ddc3e01291eea2d5c70c2b422b415d95645b9adcfd678cb1d63",
            "0x0000000000000000000000000000000000000000000000000000000000001010",
            "0x0000000000000000000000008c9c001f821c04513616fd7962b2d8c62f925fd2",
            "0x000000000000000000000000b9ede6f94d192073d8eaf85f8db677133d483249"
          ],
          "data": "0x00000000000000000000000000000000000000000000000000059f775afa348b0000000000000000000000000000000000000000000000007ce7cd0acee28ff800000000000000000000000000000000000000000000032d98844cd586ff71900000000000000000000000000000000000000000000000007ce22d9373e85b6d00000000000000000000000000000000000000000000032d9889ec4ce1f9a61b",
          "blockHash": "0x8f974ee9dc84db71f2226affeeb5b707d33158dc97b167e6a3c74bd5172bf386",
          "blockNumber": "0x3514cbb",
          "transactionHash": "0xa8c746e8a402081ca086ef281322b88f86d93f83d496973da5411a5732933125",
          "transactionIndex": "0xa5",
          "logIndex": "0x235",
          "removed": false
        }
      ],
      "status": "0x1",
      "logsBloom": "0x10000000000000100000000000000800000000000000000000000000000000000002000000000000000000000000000000008000000000000000000004000000000000000000000000000000004000800000000000000000000100000000800000000000000000000000000000000000000000000000000080000000000100000000002000000000000000000000000000000000000000000000000000000000200000000000000000000000000000000000000000000000000080000000004000000000000000000001000000080000000000000000008000100000000000000000000000000000100008000000000000000000000000200000000000100000",
      "type": "0x2",
      "effectiveGasPrice": "0x3020c93248"
    },
    {
      "transactionHash": "0xfa5a3a91ecbf8c64dbef7c4cc5167a170edf1a66f0fb60a8e7f6aa10c94c2d50",
      "transactionIndex": "0xa6",
      "blockHash": "0x8f974ee9dc84db71f2226affeeb5b707d33158dc97b167e6a3c74bd5172bf386",
      "blockNumber": "0x3514cbb",
      "from": "0x8C9C001F821c04513616fd7962B2D8c62f925fD2",
      "to": "0x6f5bd6816887F0207d8f575Ab42B6BA637A004F5",
      "cumulativeGasUsed": "0x104920b",
      "gasUsed": "0xba32",
      "contractAddress": null,
      "logs": [
        {
          "address": "0x6f5bd6816887F0207d8f575Ab42B6BA637A004F5",
          "topics": [
            "0x9cc3784ef7ab64c61f0abf58d72c2a40ef45b319db540006be0aa3e4610b8433",
            "0x0000000000000000000000000000000000000000000000000000000000007595"
          ],
          "data": "0x0000000000000000000000000000000000000000000000008ac7230489e80000",
          "blockHash": "0x8f974ee9dc84db71f2226affeeb5b707d33158dc97b167e6a3c74bd5172bf386",
          "blockNumber": "0x3514cbb",
          "transactionHash": "0xfa5a3a91ecbf8c64dbef7c4cc5167a170edf1a66f0fb60a8e7f6aa10c94c2d50",
          "transactionIndex": "0xa6",
          "logIndex": "0x236",
          "removed": false
        },
        {
          "address": "0x0000000000000000000000000000000000001010",
          "topics": [
            "0x4dfe1bbbcf077ddc3e01291eea2d5c70c2b422b415d95645b9adcfd678cb1d63",
            "0x0000000000000000000000000000000000000000000000000000000000001010",
            "0x0000000000000000000000008c9c001f821c04513616fd7962b2d8c62f925fd2",
            "0x000000000000000000000000b9ede6f94d192073d8eaf85f8db677133d483249"
          ],
          "data": "0x0000000000000000000000000000000000000000000000000005a0d393a7776e0000000000000000000000000000000000000000000000007cc4d447fc6c449000000000000000000000000000000000000000000000032d9889ec4ce1f9a61b0000000000000000000000000000000000000000000000007cbf337468c4cd2200000000000000000000000000000000000000000000032d988f8d2075a11d89",
          "blockHash": "0x8f974ee9dc84db71f2226affeeb5b707d33158dc97b167e6a3c74bd5172bf386",
          "blockNumber": "0x3514cbb",
          "transactionHash": "0xfa5a3a91ecbf8c64dbef7c4cc5167a170edf1a66f0fb60a8e7f6aa10c94c2d50",
          "transactionIndex": "0xa6",
          "logIndex": "0x237",
          "removed": false
        }
      ],
      "status": "0x1",
      "logsBloom": "0x10000000000000100000000000000800000000000000000000000000000000000002000000000000000000000000000000008000000000000001000004000000000000000000000000000000004000800000000000000000000100000000000000000000000000000000000000000000000000000000000080000000000100000000002000000000000000000000000000000000000000000000000000008000200000000000000004000000000000000000000000000000000080000000004000000000000000000001000000000000000000000000000000100000000000000000000000000000100008000000000000000000000000200000000000100000",
      "type": "0x2",
      "effectiveGasPrice": "0x3020c93248"
    }
  ],
  "libraries": [],
  "pending": [],
  "returns": {},
  "timestamp": 1712742524,
  "chain": 137,
  "commit": "f9c0721"
}