{
  "transactions": [
    {
      "hash": null,
      "transactionType": "CALL",
      "contractName": null,
      "contractAddress": "0x1a44076050125825900e736c501f859c50fE728c",
      "function": "setConfig(address,address,(uint32,uint32,bytes)[])",
      "arguments": [
        "0x6f5bd6816887F0207d8f575Ab42B6BA637A004F5",
        "0x6c26c61a97006888ea9E4FA36584c7df57Cd9dA3",
        "[(30101, 2, 0x0000000000000000000000000000000000000000000000000000000000000020000000000000000000000000000000000000000000000000000000000000030000000000000000000000000000000000000000000000000000000000000000040000000000000000000000000000000000000000000000000000000000000000000000000000000000000000000000000000000000000000000000000000000000000000000000000000000000000000000000000000000000000000000000c00000000000000000000000000000000000000000000000000000000000000160000000000000000000000000000000000000000000000000000000000000000400000000000000000000000023de2fe932d9043291f870324b74f820e11dc81a00000000000000000000000031f748a368a893bdb5abb67ec95f232507601a73000000000000000000000000a6f5ddbf0bd4d03334523465439d301080574742000000000000000000000000d56e4eab23cb81f43168f9f45211eb027b9ac7cc0000000000000000000000000000000000000000000000000000000000000000)]"
      ],
      "transaction": {
        "type": "0x02",
        "from": "0x8c9c001f821c04513616fd7962b2d8c62f925fd2",
        "to": "0x1a44076050125825900e736c501f859c50fe728c",
        "gas": "0x3eace",
        "value": "0x0",
        "data": "0x6dbd9f900000000000000000000000006f5bd6816887f0207d8f575ab42b6ba637a004f50000000000000000000000006c26c61a97006888ea9e4fa36584c7df57cd9da300000000000000000000000000000000000000000000000000000000000000600000000000000000000000000000000000000000000000000000000000000001000000000000000000000000000000000000000000000000000000000000002000000000000000000000000000000000000000000000000000000000000075950000000000000000000000000000000000000000000000000000000000000002000000000000000000000000000000000000000000000000000000000000006000000000000000000000000000000000000000000000000000000000000001a00000000000000000000000000000000000000000000000000000000000000020000000000000000000000000000000000000000000000000000000000000030000000000000000000000000000000000000000000000000000000000000000040000000000000000000000000000000000000000000000000000000000000000000000000000000000000000000000000000000000000000000000000000000000000000000000000000000000000000000000000000000000000000000000c00000000000000000000000000000000000000000000000000000000000000160000000000000000000000000000000000000000000000000000000000000000400000000000000000000000023de2fe932d9043291f870324b74f820e11dc81a00000000000000000000000031f748a368a893bdb5abb67ec95f232507601a73000000000000000000000000a6f5ddbf0bd4d03334523465439d301080574742000000000000000000000000d56e4eab23cb81f43168f9f45211eb027b9ac7cc0000000000000000000000000000000000000000000000000000000000000000",
        "nonce": "0xd",
        "accessList": []
      },
      "additionalContracts": [],
      "isFixedGasLimit": false
    },
    {
      "hash": null,
      "transactionType": "CALL",
      "contractName": null,
      "contractAddress": "0x1a44076050125825900e736c501f859c50fE728c",
      "function": "setConfig(address,address,(uint32,uint32,bytes)[])",
      "arguments": [
        "0x6f5bd6816887F0207d8f575Ab42B6BA637A004F5",
        "0x1322871e4ab09Bc7f5717189434f97bBD9546e95",
        "[(30101, 2, 0x0000000000000000000000000000000000000000000000000000000000000020000000000000000000000000000000000000000000000000000000000000030000000000000000000000000000000000000000000000000000000000000000040000000000000000000000000000000000000000000000000000000000000000000000000000000000000000000000000000000000000000000000000000000000000000000000000000000000000000000000000000000000000000000000c00000000000000000000000000000000000000000000000000000000000000160000000000000000000000000000000000000000000000000000000000000000400000000000000000000000023de2fe932d9043291f870324b74f820e11dc81a00000000000000000000000031f748a368a893bdb5abb67ec95f232507601a73000000000000000000000000a6f5ddbf0bd4d03334523465439d301080574742000000000000000000000000d56e4eab23cb81f43168f9f45211eb027b9ac7cc0000000000000000000000000000000000000000000000000000000000000000)]"
      ],
      "transaction": {
        "type": "0x02",
        "from": "0x8c9c001f821c04513616fd7962b2d8c62f925fd2",
        "to": "0x1a44076050125825900e736c501f859c50fe728c",
        "gas": "0x3e994",
        "value": "0x0",
        "data": "0x6dbd9f900000000000000000000000006f5bd6816887f0207d8f575ab42b6ba637a004f50000000000000000000000001322871e4ab09bc7f5717189434f97bbd9546e9500000000000000000000000000000000000000000000000000000000000000600000000000000000000000000000000000000000000000000000000000000001000000000000000000000000000000000000000000000000000000000000002000000000000000000000000000000000000000000000000000000000000075950000000000000000000000000000000000000000000000000000000000000002000000000000000000000000000000000000000000000000000000000000006000000000000000000000000000000000000000000000000000000000000001a00000000000000000000000000000000000000000000000000000000000000020000000000000000000000000000000000000000000000000000000000000030000000000000000000000000000000000000000000000000000000000000000040000000000000000000000000000000000000000000000000000000000000000000000000000000000000000000000000000000000000000000000000000000000000000000000000000000000000000000000000000000000000000000000c00000000000000000000000000000000000000000000000000000000000000160000000000000000000000000000000000000000000000000000000000000000400000000000000000000000023de2fe932d9043291f870324b74f820e11dc81a00000000000000000000000031f748a368a893bdb5abb67ec95f232507601a73000000000000000000000000a6f5ddbf0bd4d03334523465439d301080574742000000000000000000000000d56e4eab23cb81f43168f9f45211eb027b9ac7cc0000000000000000000000000000000000000000000000000000000000000000",
        "nonce": "0xe",
        "accessList": []
      },
      "additionalContracts": [],
      "isFixedGasLimit": false
    }
  ],
  "receipts": [],
  "libraries": [],
  "pending": [],
  "returns": {},
  "timestamp": 1712745475,
  "chain": 137,
  "commit": "f9c0721"
}