{
  "transactions": [
    {
      "hash": "0xfdb98dd20b58ae3f961b1024e13482358c63db108165fe15838d1eeb6873705f",
      "transactionType": "CALL",
      "contractName": null,
      "contractAddress": "0x3fD66Aa42C3E68A1A72Afd9bC72e2AD4F806e20d",
      "function": "setPeer(uint32,bytes32)",
      "arguments": [
        "30101",
        "0x000000000000000000000000cc76dd68ff8f702d1d0ced0a6f221835c07a10af"
      ],
      "transaction": {
        "type": "0x02",
        "from": "0x8c9c001f821c04513616fd7962b2d8c62f925fd2",
        "to": "0x3fd66aa42c3e68a1a72afd9bc72e2ad4f806e20d",
        "gas": "0x1016a",
        "value": "0x0",
        "data": "0x3400288b0000000000000000000000000000000000000000000000000000000000007595000000000000000000000000cc76dd68ff8f702d1d0ced0a6f221835c07a10af",
        "nonce": "0x0",
        "accessList": []
      },
      "additionalContracts": [],
      "isFixedGasLimit": false
    }
  ],
  "receipts": [
    {
      "transactionHash": "0xfdb98dd20b58ae3f961b1024e13482358c63db108165fe15838d1eeb6873705f",
      "transactionIndex": "0x4d",
      "blockHash": "0x6dfbfbf0d9d9185db3aef4ae6b019b152ddd520bcd9369acaa47ccfdde8c47b8",
      "blockNumber": "0x351454c",
      "from": "0x8C9C001F821c04513616fd7962B2D8c62f925fD2",
      "to": "0x3fD66Aa42C3E68A1A72Afd9bC72e2AD4F806e20d",
      "cumulativeGasUsed": "0x81eb23",
      "gasUsed": "0xba5e",
      "contractAddress": null,
      "logs": [
        {
          "address": "0x3fD66Aa42C3E68A1A72Afd9bC72e2AD4F806e20d",
          "topics": [
            "0x238399d427b947898edb290f5ff0f9109849b1c3ba196a42e35f00c50a54b98b"
          ],
          "data": "0x0000000000000000000000000000000000000000000000000000000000007595000000000000000000000000cc76dd68ff8f702d1d0ced0a6f221835c07a10af",
          "blockHash": "0x6dfbfbf0d9d9185db3aef4ae6b019b152ddd520bcd9369acaa47ccfdde8c47b8",
          "blockNumber": "0x351454c",
          "transactionHash": "0xfdb98dd20b58ae3f961b1024e13482358c63db108165fe15838d1eeb6873705f",
          "transactionIndex": "0x4d",
          "logIndex": "0x140",
          "removed": false
        },
        {
          "address": "0x0000000000000000000000000000000000001010",
          "topics": [
            "0x4dfe1bbbcf077ddc3e01291eea2d5c70c2b422b415d95645b9adcfd678cb1d63",
            "0x0000000000000000000000000000000000000000000000000000000000001010",
            "0x0000000000000000000000008c9c001f821c04513616fd7962b2d8c62f925fd2",
            "0x0000000000000000000000001efecb61a2f80aa34d3b9218b564a64d05946290"
          ],
          "data": "0x00000000000000000000000000000000000000000000000000052a9b1bac77f00000000000000000000000000000000000000000000000008ac7230489e800000000000000000000000000000000000000000000000005b205a96574b5fbd32e0000000000000000000000000000000000000000000000008ac1f8696e3b88100000000000000000000000000000000000000000000005b205ae900fd1a84b1e",
          "blockHash": "0x6dfbfbf0d9d9185db3aef4ae6b019b152ddd520bcd9369acaa47ccfdde8c47b8",
          "blockNumber": "0x351454c",
          "transactionHash": "0xfdb98dd20b58ae3f961b1024e13482358c63db108165fe15838d1eeb6873705f",
          "transactionIndex": "0x4d",
          "logIndex": "0x141",
          "removed": false
        }
      ],
      "status": "0x1",
      "logsBloom": "0x00000000000000000000000000000800000000000000000000000000000000000000000000000000000000000000000000008000000000000800000000000000200000000000000000000000004000800000000000000000000100000000000000000000000000000000000000000000000000000000000080000000000000000000000040000000000000000000000000000000000000000000000000000000280000000000000000000000000000000000000000000000000082000000004000000100000080000001000000000000000000000000000000140000000000002000000000000000000000000000000000000000000000000000000000100000",
      "type": "0x2",
      "effectiveGasPrice": "0x1e2c9302f1"
    }
  ],
  "libraries": [],
  "pending": [],
  "returns": {},
  "timestamp": 1712738129,
  "chain": 137,
  "commit": "f9c0721"
}