{
  "transactions": [
    {
      "hash": "0x0974bc4f32f2a86323f497b74b48055264cbe06d72cca557856e3c84a0170f82",
      "transactionType": "CALL",
      "contractName": null,
      "contractAddress": "0x3fD66Aa42C3E68A1A72Afd9bC72e2AD4F806e20d",
      "function": "setPeer(uint32,bytes32)",
      "arguments": [
        "30101",
        "0x0000000000000000000000005d4d4b620488dc5ceb13a73a6e700925f7682b02"
      ],
      "transaction": {
        "type": "0x02",
        "from": "0x8c9c001f821c04513616fd7962b2d8c62f925fd2",
        "to": "0x3fd66aa42c3e68a1a72afd9bc72e2ad4f806e20d",
        "gas": "0x9edf",
        "value": "0x0",
        "data": "0x3400288b00000000000000000000000000000000000000000000000000000000000075950000000000000000000000005d4d4b620488dc5ceb13a73a6e700925f7682b02",
        "nonce": "0x7",
        "accessList": []
      },
      "additionalContracts": [],
      "isFixedGasLimit": false
    }
  ],
  "receipts": [
    {
      "transactionHash": "0x0974bc4f32f2a86323f497b74b48055264cbe06d72cca557856e3c84a0170f82",
      "transactionIndex": "0x59",
      "blockHash": "0xeb82cc73581509017363a04ed0fd654cb00ad70f5a9bb5daa81794ec4a96d29d",
      "blockNumber": "0x35149fc",
      "from": "0x8C9C001F821c04513616fd7962B2D8c62f925fD2",
      "to": "0x3fD66Aa42C3E68A1A72Afd9bC72e2AD4F806e20d",
      "cumulativeGasUsed": "0xce1e69",
      "gasUsed": "0x6ca2",
      "contractAddress": null,
      "logs": [
        {
          "address": "0x3fD66Aa42C3E68A1A72Afd9bC72e2AD4F806e20d",
          "topics": [
            "0x238399d427b947898edb290f5ff0f9109849b1c3ba196a42e35f00c50a54b98b"
          ],
          "data": "0x00000000000000000000000000000000000000000000000000000000000075950000000000000000000000005d4d4b620488dc5ceb13a73a6e700925f7682b02",
          "blockHash": "0xeb82cc73581509017363a04ed0fd654cb00ad70f5a9bb5daa81794ec4a96d29d",
          "blockNumber": "0x35149fc",
          "transactionHash": "0x0974bc4f32f2a86323f497b74b48055264cbe06d72cca557856e3c84a0170f82",
          "transactionIndex": "0x59",
          "logIndex": "0x222",
          "removed": false
        },
        {
          "address": "0x0000000000000000000000000000000000001010",
          "topics": [
            "0x4dfe1bbbcf077ddc3e01291eea2d5c70c2b422b415d95645b9adcfd678cb1d63",
            "0x0000000000000000000000000000000000000000000000000000000000001010",
            "0x0000000000000000000000008c9c001f821c04513616fd7962b2d8c62f925fd2",
            "0x000000000000000000000000794e44d1334a56fea7f4df12633b88820d0c5888"
          ],
          "data": "0x0000000000000000000000000000000000000000000000000003153a7a373d0a00000000000000000000000000000000000000000000000089a2149be013d1a6000000000000000000000000000000000000000000000095007f6a5f4e1aa7d4000000000000000000000000000000000000000000000000899eff6165dc949c00000000000000000000000000000000000000000000009500827f99c851e4de",
          "blockHash": "0xeb82cc73581509017363a04ed0fd654cb00ad70f5a9bb5daa81794ec4a96d29d",
          "blockNumber": "0x35149fc",
          "transactionHash": "0x0974bc4f32f2a86323f497b74b48055264cbe06d72cca557856e3c84a0170f82",
          "transactionIndex": "0x59",
          "logIndex": "0x223",
          "removed": false
        }
      ],
      "status": "0x1",
      "logsBloom": "0x00000000000000000000000000000800000000000000000000000000000000000000000000001000000000000000000000008000000000000800000000000000000000000000000000000000004000800000000000000000000100020000000000000000000000000000000000000000000000000000000080000000000000000000000040000000000000000000000000000000000000000000000000000000280000000000000000000000000000000000000000000000000082000000004000000000000080000001000000000000000000000000000000140000000000000000000000000000000000000000000000000000000000000000000020100000",
      "type": "0x2",
      "effectiveGasPrice": "0x1ae588967f"
    }
  ],
  "libraries": [],
  "pending": [],
  "returns": {},
  "timestamp": 1712740901,
  "chain": 137,
  "commit": "f9c0721"
}