{
  "transactions": [
    {
      "hash": "0x59b8211e5414ae85b0c85ee7b439a663e50913d7f59539125e66f4ae445441b9",
      "transactionType": "CALL",
      "contractName": null,
      "contractAddress": "0xfdf8c03CdbC1851BF5bd42a73F4fBA8102F4b515",
      "function": "send((uint32,bytes32,uint256,uint256,bytes,bytes,bytes),(uint256,uint256),address)",
      "arguments": [
        "(30101, 0x0000000000000000000000008c9c001f821c04513616fd7962b2d8c62f925fd2, 1000000000000000000, 1000000000000000000, 0x, 0x, 0x)",
        "(45146317220614302427, 0)",
        "0x8C9C001F821c04513616fd7962B2D8c62f925fD2"
      ],
      "transaction": {
        "type": "0x02",
        "from": "0x8c9c001f821c04513616fd7962b2d8c62f925fd2",
        "to": "0xfdf8c03cdbc1851bf5bd42a73f4fba8102f4b515",
        "gas": "0x92bfe",
        "value": "0x27287f05113d0eadb",
        "data": "0xc7c7f5b300000000000000000000000000000000000000000000000000000000000000800000000000000000000000000000000000000000000000027287f05113d0eadb00000000000000000000000000000000000000000000000000000000000000000000000000000000000000008c9c001f821c04513616fd7962b2d8c62f925fd200000000000000000000000000000000000000000000000000000000000075950000000000000000000000008c9c001f821c04513616fd7962b2d8c62f925fd20000000000000000000000000000000000000000000000000de0b6b3a76400000000000000000000000000000000000000000000000000000de0b6b3a764000000000000000000000000000000000000000000000000000000000000000000e000000000000000000000000000000000000000000000000000000000000001000000000000000000000000000000000000000000000000000000000000000120000000000000000000000000000000000000000000000000000000000000000000000000000000000000000000000000000000000000000000000000000000000000000000000000000000000000000000000000000000000000000000000000",
        "nonce": "0x12",
        "accessList": []
      },
      "additionalContracts": [],
      "isFixedGasLimit": false
    }
  ],
  "receipts": [
    {
      "transactionHash": "0x59b8211e5414ae85b0c85ee7b439a663e50913d7f59539125e66f4ae445441b9",
      "transactionIndex": "0x43",
      "blockHash": "0x4df07047b34b6117f8d41ded45e0dfc80afcec3b8de40fcbbc749ca05736fbe5",
      "blockNumber": "0x3522249",
      "from": "0x8C9C001F821c04513616fd7962B2D8c62f925fD2",
      "to": "0xfdf8c03CdbC1851BF5bd42a73F4fBA8102F4b515",
      "cumulativeGasUsed": "0xd6ff1c",
      "gasUsed": "0x6a3e8",
      "contractAddress": null,
      "logs": [
        {
          "address": "0x0000000000000000000000000000000000001010",
          "topics": [
            "0xe6497e3ee548a3372136af2fcb0696db31fc6cf20260707645068bd3fe97f3c4",
            "0x0000000000000000000000000000000000000000000000000000000000001010",
            "0x0000000000000000000000008c9c001f821c04513616fd7962b2d8c62f925fd2",
            "0x000000000000000000000000fdf8c03cdbc1851bf5bd42a73f4fba8102f4b515"
          ],
          "data": "0x0000000000000000000000000000000000000000000000027287f05113d0eadb000000000000000000000000000000000000000000000003236a65b0251f28960000000000000000000000000000000000000000000000000000000000000000000000000000000000000000000000000000000000000000b0e2755f114e3dbb0000000000000000000000000000000000000000000000027287f05113d0eadb",
          "blockHash": "0x4df07047b34b6117f8d41ded45e0dfc80afcec3b8de40fcbbc749ca05736fbe5",
          "blockNumber": "0x3522249",
          "transactionHash": "0x59b8211e5414ae85b0c85ee7b439a663e50913d7f59539125e66f4ae445441b9",
          "transactionIndex": "0x43",
          "logIndex": "0x2c1",
          "removed": false
        },
        {
          "address": "0xfdf8c03CdbC1851BF5bd42a73F4fBA8102F4b515",
          "topics": [
            "0xddf252ad1be2c89b69c2b068fc378daa952ba7f163c4a11628f55a4df523b3ef",
            "0x0000000000000000000000008c9c001f821c04513616fd7962b2d8c62f925fd2",
            "0x0000000000000000000000000000000000000000000000000000000000000000"
          ],
          "data": "0x0000000000000000000000000000000000000000000000000de0b6b3a7640000",
          "blockHash": "0x4df07047b34b6117f8d41ded45e0dfc80afcec3b8de40fcbbc749ca05736fbe5",
          "blockNumber": "0x3522249",
          "transactionHash": "0x59b8211e5414ae85b0c85ee7b439a663e50913d7f59539125e66f4ae445441b9",
          "transactionIndex": "0x43",
          "logIndex": "0x2c2",
          "removed": false
        },
        {
          "address": "0x0000000000000000000000000000000000001010",
          "topics": [
            "0xe6497e3ee548a3372136af2fcb0696db31fc6cf20260707645068bd3fe97f3c4",
            "0x0000000000000000000000000000000000000000000000000000000000001010",
            "0x000000000000000000000000fdf8c03cdbc1851bf5bd42a73f4fba8102f4b515",
            "0x0000000000000000000000001a44076050125825900e736c501f859c50fe728c"
          ],
          "data": "0x0000000000000000000000000000000000000000000000027287f05113d0eadb0000000000000000000000000000000000000000000000027287f05113d0eadb000000000000000000000000000000000000000000000000000000000000000000000000000000000000000000000000000000000000000000000000000000000000000000000000000000000000000000000000000000027287f05113d0eadb",
          "blockHash": "0x4df07047b34b6117f8d41ded45e0dfc80afcec3b8de40fcbbc749ca05736fbe5",
          "blockNumber": "0x3522249",
          "transactionHash": "0x59b8211e5414ae85b0c85ee7b439a663e50913d7f59539125e66f4ae445441b9",
          "transactionIndex": "0x43",
          "logIndex": "0x2c3",
          "removed": false
        },
        {
          "address": "0x6c26c61a97006888ea9E4FA36584c7df57Cd9dA3",
          "topics": [
            "0x61ed099e74a97a1d7f8bb0952a88ca8b7b8ebd00c126ea04671f92a81213318a"
          ],
          "data": "0x000000000000000000000000cd3f213ad101472e1713c72b1697e727c803885b0000000000000000000000000000000000000000000000012dca405e99e1cc8d",
          "blockHash": "0x4df07047b34b6117f8d41ded45e0dfc80afcec3b8de40fcbbc749ca05736fbe5",
          "blockNumber": "0x3522249",
          "transactionHash": "0x59b8211e5414ae85b0c85ee7b439a663e50913d7f59539125e66f4ae445441b9",
          "transactionIndex": "0x43",
          "logIndex": "0x2c4",
          "removed": false
        },
        {
          "address": "0x6c26c61a97006888ea9E4FA36584c7df57Cd9dA3",
          "topics": [
            "0x07ea52d82345d6e838192107d8fd7123d9c2ec8e916cd0aad13fd2b60db24644"
          ],
          "data": "0x000000000000000000000000000000000000000000000000000000000000006000000000000000000000000000000000000000000000000000000000000001000000000000000000000000000000000000000000000000000000000000000120000000000000000000000000000000000000000000000000000000000000000400000000000000000000000023de2fe932d9043291f870324b74f820e11dc81a00000000000000000000000031f748a368a893bdb5abb67ec95f232507601a73000000000000000000000000a6f5ddbf0bd4d03334523465439d301080574742000000000000000000000000d56e4eab23cb81f43168f9f45211eb027b9ac7cc000000000000000000000000000000000000000000000000000000000000000000000000000000000000000000000000000000000000000000000000000000040000000000000000000000000000000000000000000000005171362f9c60778d00000000000000000000000000000000000000000000000050eda1c9a097179a00000000000000000000000000000000000000000000000050eda1c9a097179a0000000000000000000000000000000000000000000000005171362f9c60778d",
          "blockHash": "0x4df07047b34b6117f8d41ded45e0dfc80afcec3b8de40fcbbc749ca05736fbe5",
          "blockNumber": "0x3522249",
          "transactionHash": "0x59b8211e5414ae85b0c85ee7b439a663e50913d7f59539125e66f4ae445441b9",
          "transactionIndex": "0x43",
          "logIndex": "0x2c5",
          "removed": false
        },
        {
          "address": "0x1a44076050125825900e736c501f859c50fE728c",
          "topics": [
            "0x1ab700d4ced0c005b164c0f789fd09fcbb0156d4c2041b8a3bfbcd961cd1567f"
          ],
          "data": "0x000000000000000000000000000000000000000000000000000000000000006000000000000000000000000000000000000000000000000000000000000001200000000000000000000000006c26c61a97006888ea9e4fa36584c7df57cd9da300000000000000000000000000000000000000000000000000000000000000990100000000000000010000759d000000000000000000000000fdf8c03cdbc1851bf5bd42a73f4fba8102f4b5150000759500000000000000000000000023e086a3ad04e8dab40c263fe18fa1f32ed28fb73a9963737e5a54e7737e8e8963594583ad8d43d7475c14bed0083fc5f7df00eb0000000000000000000000008c9c001f821c04513616fd7962b2d8c62f925fd200000000000f424000000000000000000000000000000000000000000000000000000000000000000000000000001600030100110100000000000000000000000000030d4000000000000000000000",
          "blockHash": "0x4df07047b34b6117f8d41ded45e0dfc80afcec3b8de40fcbbc749ca05736fbe5",
          "blockNumber": "0x3522249",
          "transactionHash": "0x59b8211e5414ae85b0c85ee7b439a663e50913d7f59539125e66f4ae445441b9",
          "transactionIndex": "0x43",
          "logIndex": "0x2c6",
          "removed": false
        },
        {
          "address": "0x0000000000000000000000000000000000001010",
          "topics": [
            "0xe6497e3ee548a3372136af2fcb0696db31fc6cf20260707645068bd3fe97f3c4",
            "0x0000000000000000000000000000000000000000000000000000000000001010",
            "0x0000000000000000000000001a44076050125825900e736c501f859c50fe728c",
            "0x0000000000000000000000006c26c61a97006888ea9e4fa36584c7df57cd9da3"
          ],
          "data": "0x0000000000000000000000000000000000000000000000027287f05113d0eadb0000000000000000000000000000000000000000000000027287f05113d0eadb0000000000000000000000000000000000000000000003496333f728ff574742000000000000000000000000000000000000000000000000000000000000000000000000000000000000000000000000000000000000034bd5bbe77a1328321d",
          "blockHash": "0x4df07047b34b6117f8d41ded45e0dfc80afcec3b8de40fcbbc749ca05736fbe5",
          "blockNumber": "0x3522249",
          "transactionHash": "0x59b8211e5414ae85b0c85ee7b439a663e50913d7f59539125e66f4ae445441b9",
          "transactionIndex": "0x43",
          "logIndex": "0x2c7",
          "removed": false
        },
        {
          "address": "0xfdf8c03CdbC1851BF5bd42a73F4fBA8102F4b515",
          "topics": [
            "0xfff873bb909b73d08a8c1af4b21779e87103bb8ea8cf3b3a0067eb8526b8b80a",
            "0x3a9963737e5a54e7737e8e8963594583ad8d43d7475c14bed0083fc5f7df00eb",
            "0x0000000000000000000000008c9c001f821c04513616fd7962b2d8c62f925fd2"
          ],
          "data": "0x00000000000000000000000000000000000000000000000000000000000075950000000000000000000000000000000000000000000000000de0b6b3a7640000",
          "blockHash": "0x4df07047b34b6117f8d41ded45e0dfc80afcec3b8de40fcbbc749ca05736fbe5",
          "blockNumber": "0x3522249",
          "transactionHash": "0x59b8211e5414ae85b0c85ee7b439a663e50913d7f59539125e66f4ae445441b9",
          "transactionIndex": "0x43",
          "logIndex": "0x2c8",
          "removed": false
        },
        {
          "address": "0x0000000000000000000000000000000000001010",
          "topics": [
            "0x4dfe1bbbcf077ddc3e01291eea2d5c70c2b422b415d95645b9adcfd678cb1d63",
            "0x0000000000000000000000000000000000000000000000000000000000001010",
            "0x0000000000000000000000008c9c001f821c04513616fd7962b2d8c62f925fd2",
            "0x00000000000000000000000002f70172f7f490653665c9bfac0666147c8af1f5"
          ],
          "data": "0x000000000000000000000000000000000000000000000000002e61b53ed7e00000000000000000000000000000000000000000000000000323f3d52d3465ac46000000000000000000000000000000000000000000000184a8099e1cdc40344600000000000000000000000000000000000000000000000323c57377f58dcc46000000000000000000000000000000000000000000000184a837ffd21b181446",
          "blockHash": "0x4df07047b34b6117f8d41ded45e0dfc80afcec3b8de40fcbbc749ca05736fbe5",
          "blockNumber": "0x3522249",
          "transactionHash": "0x59b8211e5414ae85b0c85ee7b439a663e50913d7f59539125e66f4ae445441b9",
          "transactionIndex": "0x43",
          "logIndex": "0x2c9",
          "removed": false
        }
      ],
      "status": "0x1",
      "logsBloom": "0x000000000000000000200080000008000000000000000000300000040010000000400040000000000000001000820000000080000000000000000000000000000000800000020000000000080040008000000000000000000001100000000000000000000200000080000000000008000000000000100000802000100000000000000000000000000000000800000000000000000000000008010100000000002000000080000000001004000000000002000000004000000004c0000000004000000002000000000001000000000000000000000000801000188000000020000000040000080000000000000000002000000000010000000000000000101002",
      "type": "0x2",
      "effectiveGasPrice": "0xefc082e28"
    }
  ],
  "libraries": [],
  "pending": [],
  "returns": {},
  "timestamp": 1712867552,
  "chain": 137,
  "commit": "f9c0721"
}