{
  "transactions": [
    {
      "hash": "0x0bf970c55769893be722319f2e504bbba027a60bef0c0a58d82465a7b34569ac",
      "transactionType": "CALL",
      "contractName": null,
      "contractAddress": "0x3fD66Aa42C3E68A1A72Afd9bC72e2AD4F806e20d",
      "function": "setPeer(uint32,bytes32)",
      "arguments": [
        "30101",
        "0x0000000000000000000000005d4d4b620488dc5ceb13a73a6e700925f7682b02"
      ],
      "transaction": {
        "type": "0x02",
        "from": "0x8c9c001f821c04513616fd7962b2d8c62f925fd2",
        "to": "0x3fd66aa42c3e68a1a72afd9bc72e2ad4f806e20d",
        "gas": "0xaede",
        "value": "0x0",
        "data": "0x3400288b00000000000000000000000000000000000000000000000000000000000075950000000000000000000000005d4d4b620488dc5ceb13a73a6e700925f7682b02",
        "nonce": "0x6",
        "accessList": []
      },
      "additionalContracts": [],
      "isFixedGasLimit": false
    }
  ],
  "receipts": [
    {
      "transactionHash": "0x0bf970c55769893be722319f2e504bbba027a60bef0c0a58d82465a7b34569ac",
      "transactionIndex": "0x3d",
      "blockHash": "0xd1928b509fa8371d0f00d4e11a6290934e7ecec92c98db8fad4529eac45d2494",
      "blockNumber": "0x3514719",
      "from": "0x8C9C001F821c04513616fd7962B2D8c62f925fD2",
      "to": "0x3fD66Aa42C3E68A1A72Afd9bC72e2AD4F806e20d",
      "cumulativeGasUsed": "0x998a6f",
      "gasUsed": "0x7792",
      "contractAddress": null,
      "logs": [
        {
          "address": "0x3fD66Aa42C3E68A1A72Afd9bC72e2AD4F806e20d",
          "topics": [
            "0x238399d427b947898edb290f5ff0f9109849b1c3ba196a42e35f00c50a54b98b"
          ],
          "data": "0x00000000000000000000000000000000000000000000000000000000000075950000000000000000000000005d4d4b620488dc5ceb13a73a6e700925f7682b02",
          "blockHash": "0xd1928b509fa8371d0f00d4e11a6290934e7ecec92c98db8fad4529eac45d2494",
          "blockNumber": "0x3514719",
          "transactionHash": "0x0bf970c55769893be722319f2e504bbba027a60bef0c0a58d82465a7b34569ac",
          "transactionIndex": "0x3d",
          "logIndex": "0xf5",
          "removed": false
        },
        {
          "address": "0x0000000000000000000000000000000000001010",
          "topics": [
            "0x4dfe1bbbcf077ddc3e01291eea2d5c70c2b422b415d95645b9adcfd678cb1d63",
            "0x0000000000000000000000000000000000000000000000000000000000001010",
            "0x0000000000000000000000008c9c001f821c04513616fd7962b2d8c62f925fd2",
            "0x000000000000000000000000c84c1e8dffe81c8f69f2b655557ef57d5b46beb5"
          ],
          "data": "0x00000000000000000000000000000000000000000000000000038d93bcf5bda200000000000000000000000000000000000000000000000089b524685632cbb4000000000000000000000000000000000000000000000114a71e2a8f73b3cd4e00000000000000000000000000000000000000000000000089b196d4993d0e12000000000000000000000000000000000000000000000114a721b82330a98af0",
          "blockHash": "0xd1928b509fa8371d0f00d4e11a6290934e7ecec92c98db8fad4529eac45d2494",
          "blockNumber": "0x3514719",
          "transactionHash": "0x0bf970c55769893be722319f2e504bbba027a60bef0c0a58d82465a7b34569ac",
          "transactionIndex": "0x3d",
          "logIndex": "0xf6",
          "removed": false
        }
      ],
      "status": "0x1",
      "logsBloom": "0x00000000000000000000000000000800000000000000000000000000000000000000000000000000000000000000000000008000000000000800000000000000000000000000000000000000004000800000800000000000000100000000000000000000000000000000000000000000000000000000000080000000000000000000000040000000000000000000000000000000000000000000000000000000280000000000000000000000000000000004000000000000000082000000004000000000000080000001000000000000000000000000000000140000000000000000800000000000000000000000000000000000000000000000000000100000",
      "type": "0x2",
      "effectiveGasPrice": "0x28cfa5ba4f"
    }
  ],
  "libraries": [],
  "pending": [],
  "returns": {},
  "timestamp": 1712739205,
  "chain": 137,
  "commit": "f9c0721"
}