{
  "transactions": [
    {
      "hash": "0xef01faa13523e689deba42f2c1ab9643c591724bfa9fbfa04aabc02cca566923",
      "transactionType": "CALL",
      "contractName": null,
      "contractAddress": "0x6f5bd6816887F0207d8f575Ab42B6BA637A004F5",
      "function": "setEnforcedOptions((uint32,uint16,bytes)[])",
      "arguments": [
        "[(30101, 1, 0x00030100110100000000000000000000000000030d40), (30101, 2, 0x000301001303000000000000000000000000000000000000)]"
      ],
      "transaction": {
        "type": "0x02",
        "from": "0x8c9c001f821c04513616fd7962b2d8c62f925fd2",
        "to": "0x6f5bd6816887f0207d8f575ab42b6ba637a004f5",
        "gas": "0x1cbc7",
        "value": "0x0",
        "data": "0xb98bd07000000000000000000000000000000000000000000000000000000000000000200000000000000000000000000000000000000000000000000000000000000002000000000000000000000000000000000000000000000000000000000000004000000000000000000000000000000000000000000000000000000000000000e0000000000000000000000000000000000000000000000000000000000000759500000000000000000000000000000000000000000000000000000000000000010000000000000000000000000000000000000000000000000000000000000060000000000000000000000000000000000000000000000000000000000000001600030100110100000000000000000000000000030d400000000000000000000000000000000000000000000000000000000000000000000000000000000075950000000000000000000000000000000000000000000000000000000000000002000000000000000000000000000000000000000000000000000000000000006000000000000000000000000000000000000000000000000000000000000000180003010013030000000000000000000000000000000000000000000000000000",
        "nonce": "0xa",
        "accessList": []
      },
      "additionalContracts": [],
      "isFixedGasLimit": false
    }
  ],
  "receipts": [
    {
      "transactionHash": "0xef01faa13523e689deba42f2c1ab9643c591724bfa9fbfa04aabc02cca566923",
      "transactionIndex": "0x9b",
      "blockHash": "0x1fcab61725301e5ab5945cd3cc158d298c48730f1f631838b6da992bdbc673ec",
      "blockNumber": "0x3514b51",
      "from": "0x8C9C001F821c04513616fd7962B2D8c62f925fD2",
      "to": "0x6f5bd6816887F0207d8f575Ab42B6BA637A004F5",
      "cumulativeGasUsed": "0xd9c030",
      "gasUsed": "0x13a61",
      "contractAddress": null,
      "logs": [
        {
          "address": "0x6f5bd6816887F0207d8f575Ab42B6BA637A004F5",
          "topics": [
            "0xbe4864a8e820971c0247f5992e2da559595f7bf076a21cb5928d443d2a13b674"
          ],
          "data": "0x00000000000000000000000000000000000000000000000000000000000000200000000000000000000000000000000000000000000000000000000000000002000000000000000000000000000000000000000000000000000000000000004000000000000000000000000000000000000000000000000000000000000000e0000000000000000000000000000000000000000000000000000000000000759500000000000000000000000000000000000000000000000000000000000000010000000000000000000000000000000000000000000000000000000000000060000000000000000000000000000000000000000000000000000000000000001600030100110100000000000000000000000000030d400000000000000000000000000000000000000000000000000000000000000000000000000000000075950000000000000000000000000000000000000000000000000000000000000002000000000000000000000000000000000000000000000000000000000000006000000000000000000000000000000000000000000000000000000000000000180003010013030000000000000000000000000000000000000000000000000000",
          "blockHash": "0x1fcab61725301e5ab5945cd3cc158d298c48730f1f631838b6da992bdbc673ec",
          "blockNumber": "0x3514b51",
          "transactionHash": "0xef01faa13523e689deba42f2c1ab9643c591724bfa9fbfa04aabc02cca566923",
          "transactionIndex": "0x9b",
          "logIndex": "0x21d",
          "removed": false
        },
        {
          "address": "0x0000000000000000000000000000000000001010",
          "topics": [
            "0x4dfe1bbbcf077ddc3e01291eea2d5c70c2b422b415d95645b9adcfd678cb1d63",
            "0x0000000000000000000000000000000000000000000000000000000000001010",
            "0x0000000000000000000000008c9c001f821c04513616fd7962b2d8c62f925fd2",
            "0x000000000000000000000000a8b52f02108aa5f4b675bdcc973760022d7c6020"
          ],
          "data": "0x000000000000000000000000000000000000000000000000000a950cc118a6940000000000000000000000000000000000000000000000007d1436fcc62fb4d30000000000000000000000000000000000000000000007e04d6292e148cc37270000000000000000000000000000000000000000000000007d09a1f005170e3f0000000000000000000000000000000000000000000007e04d6d27ee09e4ddbb",
          "blockHash": "0x1fcab61725301e5ab5945cd3cc158d298c48730f1f631838b6da992bdbc673ec",
          "blockNumber": "0x3514b51",
          "transactionHash": "0xef01faa13523e689deba42f2c1ab9643c591724bfa9fbfa04aabc02cca566923",
          "transactionIndex": "0x9b",
          "logIndex": "0x21e",
          "removed": false
        }
      ],
      "status": "0x1",
      "logsBloom": "0x10000000000000000000000000000800000000000000000000000000000000000002000000000000000000000002000000008000000000000000400004000000000000000000000000000000004000800000000000000000000100000000000000000000000000000000000000000000000000000000000080000000000000000000000000000000000000000000000000000000000000040000000000080000200000000000004000000000000000000000000000000000000080000000004000000000000000000001000002000000000000000000000000100000000000000000000000000000000000000000000000000000000000000000000000100000",
      "type": "0x2",
      "effectiveGasPrice": "0x242a9780bb"
    }
  ],
  "libraries": [],
  "pending": [],
  "returns": {},
  "timestamp": 1712741691,
  "chain": 137,
  "commit": "f9c0721"
}