{
  "transactions": [
    {
      "hash": "0x98b04764a3684583ab3decf3376ac2c8a5a1cb706e5ed91b8a85e7df53327315",
      "transactionType": "CALL",
      "contractName": null,
      "contractAddress": "0x1a44076050125825900e736c501f859c50fE728c",
      "function": "setConfig(address,address,(uint32,uint32,bytes)[])",
      "arguments": [
        "0x6f5bd6816887F0207d8f575Ab42B6BA637A004F5",
        "0x6c26c61a97006888ea9E4FA36584c7df57Cd9dA3",
        "[(30101, 2, 0x0000000000000000000000000000000000000000000000000000000000000020000000000000000000000000000000000000000000000000000000000000030000000000000000000000000000000000000000000000000000000000000000040000000000000000000000000000000000000000000000000000000000000000000000000000000000000000000000000000000000000000000000000000000000000000000000000000000000000000000000000000000000000000000000c00000000000000000000000000000000000000000000000000000000000000160000000000000000000000000000000000000000000000000000000000000000400000000000000000000000023de2fe932d9043291f870324b74f820e11dc81a00000000000000000000000031f748a368a893bdb5abb67ec95f232507601a73000000000000000000000000a6f5ddbf0bd4d03334523465439d301080574742000000000000000000000000d56e4eab23cb81f43168f9f45211eb027b9ac7cc0000000000000000000000000000000000000000000000000000000000000000)]"
      ],
      "transaction": {
        "type": "0x02",
        "from": "0x8c9c001f821c04513616fd7962b2d8c62f925fd2",
        "to": "0x1a44076050125825900e736c501f859c50fe728c",
        "gas": "0x3eace",
        "value": "0x0",
        "data": "0x6dbd9f900000000000000000000000006f5bd6816887f0207d8f575ab42b6ba637a004f50000000000000000000000006c26c61a97006888ea9e4fa36584c7df57cd9da300000000000000000000000000000000000000000000000000000000000000600000000000000000000000000000000000000000000000000000000000000001000000000000000000000000000000000000000000000000000000000000002000000000000000000000000000000000000000000000000000000000000075950000000000000000000000000000000000000000000000000000000000000002000000000000000000000000000000000000000000000000000000000000006000000000000000000000000000000000000000000000000000000000000001a00000000000000000000000000000000000000000000000000000000000000020000000000000000000000000000000000000000000000000000000000000030000000000000000000000000000000000000000000000000000000000000000040000000000000000000000000000000000000000000000000000000000000000000000000000000000000000000000000000000000000000000000000000000000000000000000000000000000000000000000000000000000000000000000c00000000000000000000000000000000000000000000000000000000000000160000000000000000000000000000000000000000000000000000000000000000400000000000000000000000023de2fe932d9043291f870324b74f820e11dc81a00000000000000000000000031f748a368a893bdb5abb67ec95f232507601a73000000000000000000000000a6f5ddbf0bd4d03334523465439d301080574742000000000000000000000000d56e4eab23cb81f43168f9f45211eb027b9ac7cc0000000000000000000000000000000000000000000000000000000000000000",
        "nonce": "0xd",
        "accessList": []
      },
      "additionalContracts": [],
      "isFixedGasLimit": false
    },
    {
      "hash": "0xcdbe4cb3d825debb557c5cc44517afe6fec9bec76a6b225f0c040a160701cb6c",
      "transactionType": "CALL",
      "contractName": null,
      "contractAddress": "0x1a44076050125825900e736c501f859c50fE728c",
      "function": "setConfig(address,address,(uint32,uint32,bytes)[])",
      "arguments": [
        "0x6f5bd6816887F0207d8f575Ab42B6BA637A004F5",
        "0x1322871e4ab09Bc7f5717189434f97bBD9546e95",
        "[(30101, 2, 0x0000000000000000000000000000000000000000000000000000000000000020000000000000000000000000000000000000000000000000000000000000030000000000000000000000000000000000000000000000000000000000000000040000000000000000000000000000000000000000000000000000000000000000000000000000000000000000000000000000000000000000000000000000000000000000000000000000000000000000000000000000000000000000000000c00000000000000000000000000000000000000000000000000000000000000160000000000000000000000000000000000000000000000000000000000000000400000000000000000000000023de2fe932d9043291f870324b74f820e11dc81a00000000000000000000000031f748a368a893bdb5abb67ec95f232507601a73000000000000000000000000a6f5ddbf0bd4d03334523465439d301080574742000000000000000000000000d56e4eab23cb81f43168f9f45211eb027b9ac7cc0000000000000000000000000000000000000000000000000000000000000000)]"
      ],
      "transaction": {
        "type": "0x02",
        "from": "0x8c9c001f821c04513616fd7962b2d8c62f925fd2",
        "to": "0x1a44076050125825900e736c501f859c50fe728c",
        "gas": "0x3e994",
        "value": "0x0",
        "data": "0x6dbd9f900000000000000000000000006f5bd6816887f0207d8f575ab42b6ba637a004f50000000000000000000000001322871e4ab09bc7f5717189434f97bbd9546e9500000000000000000000000000000000000000000000000000000000000000600000000000000000000000000000000000000000000000000000000000000001000000000000000000000000000000000000000000000000000000000000002000000000000000000000000000000000000000000000000000000000000075950000000000000000000000000000000000000000000000000000000000000002000000000000000000000000000000000000000000000000000000000000006000000000000000000000000000000000000000000000000000000000000001a00000000000000000000000000000000000000000000000000000000000000020000000000000000000000000000000000000000000000000000000000000030000000000000000000000000000000000000000000000000000000000000000040000000000000000000000000000000000000000000000000000000000000000000000000000000000000000000000000000000000000000000000000000000000000000000000000000000000000000000000000000000000000000000000c00000000000000000000000000000000000000000000000000000000000000160000000000000000000000000000000000000000000000000000000000000000400000000000000000000000023de2fe932d9043291f870324b74f820e11dc81a00000000000000000000000031f748a368a893bdb5abb67ec95f232507601a73000000000000000000000000a6f5ddbf0bd4d03334523465439d301080574742000000000000000000000000d56e4eab23cb81f43168f9f45211eb027b9ac7cc0000000000000000000000000000000000000000000000000000000000000000",
        "nonce": "0xe",
        "accessList": []
      },
      "additionalContracts": [],
      "isFixedGasLimit": false
    }
  ],
  "receipts": [
    {
      "transactionHash": "0x98b04764a3684583ab3decf3376ac2c8a5a1cb706e5ed91b8a85e7df53327315",
      "transactionIndex": "0x0",
      "blockHash": "0x1781c1405136b1ea4da80d7555ad7b3ca4a9e0b75a08fd18cb48cc2edb2f5755",
      "blockNumber": "0x35157fd",
      "from": "0x8C9C001F821c04513616fd7962B2D8c62f925fD2",
      "to": "0x1a44076050125825900e736c501f859c50fE728c",
      "cumulativeGasUsed": "0x2d604",
      "gasUsed": "0x2d604",
      "contractAddress": null,
      "logs": [
        {
          "address": "0x6c26c61a97006888ea9E4FA36584c7df57Cd9dA3",
          "topics": [
            "0x82118522aa536ac0e96cc5c689407ae42b89d592aa133890a01f1509842f5081"
          ],
          "data": "0x0000000000000000000000006f5bd6816887f0207d8f575ab42b6ba637a004f500000000000000000000000000000000000000000000000000000000000075950000000000000000000000000000000000000000000000000000000000000060000000000000000000000000000000000000000000000000000000000000030000000000000000000000000000000000000000000000000000000000000000040000000000000000000000000000000000000000000000000000000000000000000000000000000000000000000000000000000000000000000000000000000000000000000000000000000000000000000000000000000000000000000000c00000000000000000000000000000000000000000000000000000000000000160000000000000000000000000000000000000000000000000000000000000000400000000000000000000000023de2fe932d9043291f870324b74f820e11dc81a00000000000000000000000031f748a368a893bdb5abb67ec95f232507601a73000000000000000000000000a6f5ddbf0bd4d03334523465439d301080574742000000000000000000000000d56e4eab23cb81f43168f9f45211eb027b9ac7cc0000000000000000000000000000000000000000000000000000000000000000",
          "blockHash": "0x1781c1405136b1ea4da80d7555ad7b3ca4a9e0b75a08fd18cb48cc2edb2f5755",
          "blockNumber": "0x35157fd",
          "transactionHash": "0x98b04764a3684583ab3decf3376ac2c8a5a1cb706e5ed91b8a85e7df53327315",
          "transactionIndex": "0x0",
          "logIndex": "0x0",
          "removed": false
        },
        {
          "address": "0x0000000000000000000000000000000000001010",
          "topics": [
            "0x4dfe1bbbcf077ddc3e01291eea2d5c70c2b422b415d95645b9adcfd678cb1d63",
            "0x0000000000000000000000000000000000000000000000000000000000001010",
            "0x0000000000000000000000008c9c001f821c04513616fd7962b2d8c62f925fd2",
            "0x0000000000000000000000001efecb61a2f80aa34d3b9218b564a64d05946290"
          ],
          "data": "0x00000000000000000000000000000000000000000000000000e160a6367e6e300000000000000000000000000000000000000000000000007ca1d30f669822800000000000000000000000000000000000000000000005eaa7b36b6ee2d146730000000000000000000000000000000000000000000000007bc072693019b4500000000000000000000000000000000000000000000005eaa894cc15194fb4a3",
          "blockHash": "0x1781c1405136b1ea4da80d7555ad7b3ca4a9e0b75a08fd18cb48cc2edb2f5755",
          "blockNumber": "0x35157fd",
          "transactionHash": "0x98b04764a3684583ab3decf3376ac2c8a5a1cb706e5ed91b8a85e7df53327315",
          "transactionIndex": "0x0",
          "logIndex": "0x1",
          "removed": false
        }
      ],
      "status": "0x1",
      "logsBloom": "0x00000000000000000000000000000800000000000000000000000000000000000000004000000000000000000000000000008000000000000000000000000000200000000000000000000000004000800000000000000000002100000000000000000000000000000000000000000000000000000000000080000000000000000000000000000000000000000000000000000000000000000000010000000000200000000000000000000002000000000000000000000000000080000000004000000100000000000001000000000000000000000000000000180000000000002000000000000000000000000000000000000000000000000000000000100010",
      "type": "0x2",
      "effectiveGasPrice": "0x746a528800"
    },
    {
      "transactionHash": "0xcdbe4cb3d825debb557c5cc44517afe6fec9bec76a6b225f0c040a160701cb6c",
      "transactionIndex": "0x1",
      "blockHash": "0x1781c1405136b1ea4da80d7555ad7b3ca4a9e0b75a08fd18cb48cc2edb2f5755",
      "blockNumber": "0x35157fd",
      "from": "0x8C9C001F821c04513616fd7962B2D8c62f925fD2",
      "to": "0x1a44076050125825900e736c501f859c50fE728c",
      "cumulativeGasUsed": "0x5ab24",
      "gasUsed": "0x2d520",
      "contractAddress": null,
      "logs": [
        {
          "address": "0x1322871e4ab09Bc7f5717189434f97bBD9546e95",
          "topics": [
            "0x82118522aa536ac0e96cc5c689407ae42b89d592aa133890a01f1509842f5081"
          ],
          "data": "0x0000000000000000000000006f5bd6816887f0207d8f575ab42b6ba637a004f500000000000000000000000000000000000000000000000000000000000075950000000000000000000000000000000000000000000000000000000000000060000000000000000000000000000000000000000000000000000000000000030000000000000000000000000000000000000000000000000000000000000000040000000000000000000000000000000000000000000000000000000000000000000000000000000000000000000000000000000000000000000000000000000000000000000000000000000000000000000000000000000000000000000000c00000000000000000000000000000000000000000000000000000000000000160000000000000000000000000000000000000000000000000000000000000000400000000000000000000000023de2fe932d9043291f870324b74f820e11dc81a00000000000000000000000031f748a368a893bdb5abb67ec95f232507601a73000000000000000000000000a6f5ddbf0bd4d03334523465439d301080574742000000000000000000000000d56e4eab23cb81f43168f9f45211eb027b9ac7cc0000000000000000000000000000000000000000000000000000000000000000",
          "blockHash": "0x1781c1405136b1ea4da80d7555ad7b3ca4a9e0b75a08fd18cb48cc2edb2f5755",
          "blockNumber": "0x35157fd",
          "transactionHash": "0xcdbe4cb3d825debb557c5cc44517afe6fec9bec76a6b225f0c040a160701cb6c",
          "transactionIndex": "0x1",
          "logIndex": "0x2",
          "removed": false
        },
        {
          "address": "0x0000000000000000000000000000000000001010",
          "topics": [
            "0x4dfe1bbbcf077ddc3e01291eea2d5c70c2b422b415d95645b9adcfd678cb1d63",
            "0x0000000000000000000000000000000000000000000000000000000000001010",
            "0x0000000000000000000000008c9c001f821c04513616fd7962b2d8c62f925fd2",
            "0x0000000000000000000000001efecb61a2f80aa34d3b9218b564a64d05946290"
          ],
          "data": "0x00000000000000000000000000000000000000000000000000e119defe74ad800000000000000000000000000000000000000000000000007b57abb7af9e02800000000000000000000000000000000000000000000005eaa894cc15194fb4a30000000000000000000000000000000000000000000000007a7691d8b12955000000000000000000000000000000000000000000000005eaa975e5f417c46223",
          "blockHash": "0x1781c1405136b1ea4da80d7555ad7b3ca4a9e0b75a08fd18cb48cc2edb2f5755",
          "blockNumber": "0x35157fd",
          "transactionHash": "0xcdbe4cb3d825debb557c5cc44517afe6fec9bec76a6b225f0c040a160701cb6c",
          "transactionIndex": "0x1",
          "logIndex": "0x3",
          "removed": false
        }
      ],
      "status": "0x1",
      "logsBloom": "0x00000000000000000000000000000800000000000000000000000000000000000000000000000000000000000004000000008000000000000000000000000000200000000000000000000000004000800000000000000000002100000000000000000000000000000000000000000000000000000000000080000000000000000000000000000000000000000000800000000000000000000000000000000000200000000000000000000002000000000000000000000000000080000000004000000100000000000001000000000000000000000000000000100000000000002000000000000000000000000000800000000000000000000000000000100010",
      "type": "0x2",
      "effectiveGasPrice": "0x746a528800"
    }
  ],
  "libraries": [],
  "pending": [],
  "returns": {},
  "timestamp": 1712749377,
  "chain": 137,
  "commit": "f9c0721"
}