{
  "transactions": [
    {
      "hash": "0x3964191ff3d66b95407483d6e1148c19c30facdb63d5b09d7a248615c2e25962",
      "transactionType": "CALL",
      "contractName": null,
      "contractAddress": "0x6f5bd6816887F0207d8f575Ab42B6BA637A004F5",
      "function": "setPeer(uint32,bytes32)",
      "arguments": [
        "30101",
        "0x0000000000000000000000005d4d4b620488dc5ceb13a73a6e700925f7682b02"
      ],
      "transaction": {
        "type": "0x02",
        "from": "0x8c9c001f821c04513616fd7962b2d8c62f925fd2",
        "to": "0x6f5bd6816887f0207d8f575ab42b6ba637a004f5",
        "gas": "0x1016a",
        "value": "0x0",
        "data": "0x3400288b00000000000000000000000000000000000000000000000000000000000075950000000000000000000000005d4d4b620488dc5ceb13a73a6e700925f7682b02",
        "nonce": "0x9",
        "accessList": []
      },
      "additionalContracts": [],
      "isFixedGasLimit": false
    }
  ],
  "receipts": [
    {
      "transactionHash": "0x3964191ff3d66b95407483d6e1148c19c30facdb63d5b09d7a248615c2e25962",
      "transactionIndex": "0x60",
      "blockHash": "0x13387814b3d3b1de1e0ec3815121209fe3b63cf77c59d034b7fcc5aa7ca9279c",
      "blockNumber": "0x3514b34",
      "from": "0x8C9C001F821c04513616fd7962B2D8c62f925fD2",
      "to": "0x6f5bd6816887F0207d8f575Ab42B6BA637A004F5",
      "cumulativeGasUsed": "0xefedc3",
      "gasUsed": "0xba5e",
      "contractAddress": null,
      "logs": [
        {
          "address": "0x6f5bd6816887F0207d8f575Ab42B6BA637A004F5",
          "topics": [
            "0x238399d427b947898edb290f5ff0f9109849b1c3ba196a42e35f00c50a54b98b"
          ],
          "data": "0x00000000000000000000000000000000000000000000000000000000000075950000000000000000000000005d4d4b620488dc5ceb13a73a6e700925f7682b02",
          "blockHash": "0x13387814b3d3b1de1e0ec3815121209fe3b63cf77c59d034b7fcc5aa7ca9279c",
          "blockNumber": "0x3514b34",
          "transactionHash": "0x3964191ff3d66b95407483d6e1148c19c30facdb63d5b09d7a248615c2e25962",
          "transactionIndex": "0x60",
          "logIndex": "0x1d1",
          "removed": false
        },
        {
          "address": "0x0000000000000000000000000000000000001010",
          "topics": [
            "0x4dfe1bbbcf077ddc3e01291eea2d5c70c2b422b415d95645b9adcfd678cb1d63",
            "0x0000000000000000000000000000000000000000000000000000000000001010",
            "0x0000000000000000000000008c9c001f821c04513616fd7962b2d8c62f925fd2",
            "0x000000000000000000000000794e44d1334a56fea7f4df12633b88820d0c5888"
          ],
          "data": "0x000000000000000000000000000000000000000000000000000546d2467183740000000000000000000000000000000000000000000000007d2e53970524b203000000000000000000000000000000000000000000000096350049de76dc59f30000000000000000000000000000000000000000000000007d290cc4beb32e8f000000000000000000000000000000000000000000000096350590b0bd4ddd67",
          "blockHash": "0x13387814b3d3b1de1e0ec3815121209fe3b63cf77c59d034b7fcc5aa7ca9279c",
          "blockNumber": "0x3514b34",
          "transactionHash": "0x3964191ff3d66b95407483d6e1148c19c30facdb63d5b09d7a248615c2e25962",
          "transactionIndex": "0x60",
          "logIndex": "0x1d2",
          "removed": false
        }
      ],
      "status": "0x1",
      "logsBloom": "0x10000000000000000000000000000800000000000000000000000000000000000002000000001000000000000000000000008000000000000800000004000000000000000000000000000000004000800000000000000000000100020000000000000000000000000000000000000000000000000000000080000000000000000000000000000000000000000000000000000000000000000000000000000000200000000000000000000000000000000000000000000000000082000000004000000000000000000001000000000000000000000000000000140000000000000000000000000000000000000000000000000000000000000000000020100000",
      "type": "0x2",
      "effectiveGasPrice": "0x23de2fb4e8"
    }
  ],
  "libraries": [],
  "pending": [],
  "returns": {},
  "timestamp": 1712741630,
  "chain": 137,
  "commit": "f9c0721"
}