{
  "transactions": [
    {
      "hash": "0x0430395341df256ba7dc223b04a9c6ac2728a4c3ea81bbfcb8042ff001eb4e74",
      "transactionType": "CALL",
      "contractName": null,
      "contractAddress": "0x1a44076050125825900e736c501f859c50fE728c",
      "function": "setConfig(address,address,(uint32,uint32,bytes)[])",
      "arguments": [
        "0xfdf8c03CdbC1851BF5bd42a73F4fBA8102F4b515",
        "0x1322871e4ab09Bc7f5717189434f97bBD9546e95",
        "[(30101, 2, 0x0000000000000000000000000000000000000000000000000000000000000020000000000000000000000000000000000000000000000000000000000000000f00000000000000000000000000000000000000000000000000000000000000040000000000000000000000000000000000000000000000000000000000000000000000000000000000000000000000000000000000000000000000000000000000000000000000000000000000000000000000000000000000000000000000c00000000000000000000000000000000000000000000000000000000000000160000000000000000000000000000000000000000000000000000000000000000400000000000000000000000023de2fe932d9043291f870324b74f820e11dc81a00000000000000000000000031f748a368a893bdb5abb67ec95f232507601a73000000000000000000000000a6f5ddbf0bd4d03334523465439d301080574742000000000000000000000000d56e4eab23cb81f43168f9f45211eb027b9ac7cc0000000000000000000000000000000000000000000000000000000000000000)]"
      ],
      "transaction": {
        "type": "0x02",
        "from": "0x8c9c001f821c04513616fd7962b2d8c62f925fd2",
        "to": "0x1a44076050125825900e736c501f859c50fe728c",
        "gas": "0x3e994",
        "value": "0x0",
        "data": "0x6dbd9f90000000000000000000000000fdf8c03cdbc1851bf5bd42a73f4fba8102f4b5150000000000000000000000001322871e4ab09bc7f5717189434f97bbd9546e9500000000000000000000000000000000000000000000000000000000000000600000000000000000000000000000000000000000000000000000000000000001000000000000000000000000000000000000000000000000000000000000002000000000000000000000000000000000000000000000000000000000000075950000000000000000000000000000000000000000000000000000000000000002000000000000000000000000000000000000000000000000000000000000006000000000000000000000000000000000000000000000000000000000000001a00000000000000000000000000000000000000000000000000000000000000020000000000000000000000000000000000000000000000000000000000000000f00000000000000000000000000000000000000000000000000000000000000040000000000000000000000000000000000000000000000000000000000000000000000000000000000000000000000000000000000000000000000000000000000000000000000000000000000000000000000000000000000000000000000c00000000000000000000000000000000000000000000000000000000000000160000000000000000000000000000000000000000000000000000000000000000400000000000000000000000023de2fe932d9043291f870324b74f820e11dc81a00000000000000000000000031f748a368a893bdb5abb67ec95f232507601a73000000000000000000000000a6f5ddbf0bd4d03334523465439d301080574742000000000000000000000000d56e4eab23cb81f43168f9f45211eb027b9ac7cc0000000000000000000000000000000000000000000000000000000000000000",
        "nonce": "0x10",
        "accessList": []
      },
      "additionalContracts": [],
      "isFixedGasLimit": false
    }
  ],
  "receipts": [
    {
      "transactionHash": "0x0430395341df256ba7dc223b04a9c6ac2728a4c3ea81bbfcb8042ff001eb4e74",
      "transactionIndex": "0x3e",
      "blockHash": "0x502092bda576ea43a0e223ee28252c0849d3bd5fe40c0b6030e16e7ea3315653",
      "blockNumber": "0x3521f18",
      "from": "0x8C9C001F821c04513616fd7962B2D8c62f925fD2",
      "to": "0x1a44076050125825900e736c501f859c50fE728c",
      "cumulativeGasUsed": "0x916a95",
      "gasUsed": "0x2d520",
      "contractAddress": null,
      "logs": [
        {
          "address": "0x1322871e4ab09Bc7f5717189434f97bBD9546e95",
          "topics": [
            "0x82118522aa536ac0e96cc5c689407ae42b89d592aa133890a01f1509842f5081"
          ],
          "data": "0x000000000000000000000000fdf8c03cdbc1851bf5bd42a73f4fba8102f4b51500000000000000000000000000000000000000000000000000000000000075950000000000000000000000000000000000000000000000000000000000000060000000000000000000000000000000000000000000000000000000000000000f00000000000000000000000000000000000000000000000000000000000000040000000000000000000000000000000000000000000000000000000000000000000000000000000000000000000000000000000000000000000000000000000000000000000000000000000000000000000000000000000000000000000000c00000000000000000000000000000000000000000000000000000000000000160000000000000000000000000000000000000000000000000000000000000000400000000000000000000000023de2fe932d9043291f870324b74f820e11dc81a00000000000000000000000031f748a368a893bdb5abb67ec95f232507601a73000000000000000000000000a6f5ddbf0bd4d03334523465439d301080574742000000000000000000000000d56e4eab23cb81f43168f9f45211eb027b9ac7cc0000000000000000000000000000000000000000000000000000000000000000",
          "blockHash": "0x502092bda576ea43a0e223ee28252c0849d3bd5fe40c0b6030e16e7ea3315653",
          "blockNumber": "0x3521f18",
          "transactionHash": "0x0430395341df256ba7dc223b04a9c6ac2728a4c3ea81bbfcb8042ff001eb4e74",
          "transactionIndex": "0x3e",
          "logIndex": "0x124",
          "removed": false
        },
        {
          "address": "0x0000000000000000000000000000000000001010",
          "topics": [
            "0x4dfe1bbbcf077ddc3e01291eea2d5c70c2b422b415d95645b9adcfd678cb1d63",
            "0x0000000000000000000000000000000000000000000000000000000000001010",
            "0x0000000000000000000000008c9c001f821c04513616fd7962b2d8c62f925fd2",
            "0x0000000000000000000000001efecb61a2f80aa34d3b9218b564a64d05946290"
          ],
          "data": "0x00000000000000000000000000000000000000000000000000144397edf80bc00000000000000000000000000000000000000000000000007a044f52f2865c7f0000000000000000000000000000000000000000000006d6c84e9dc0e885fc6f00000000000000000000000000000000000000000000000079f00bbb048e50bf0000000000000000000000000000000000000000000006d6c862e158d67e082f",
          "blockHash": "0x502092bda576ea43a0e223ee28252c0849d3bd5fe40c0b6030e16e7ea3315653",
          "blockNumber": "0x3521f18",
          "transactionHash": "0x0430395341df256ba7dc223b04a9c6ac2728a4c3ea81bbfcb8042ff001eb4e74",
          "transactionIndex": "0x3e",
          "logIndex": "0x125",
          "removed": false
        }
      ],
      "status": "0x1",
      "logsBloom": "0x00000000000000000000000000000800000000000000000000000000000000000000000000000000000000000004000000008000000000000000000000000000200000000000000000000000004000800000000000000000002100000000000000000000000000000000000000000000000000000000000080000000000000000000000000000000000000000000800000000000000000000000000000000000200000000000000000000002000000000000000000000000000080000000004000000100000000000001000000000000000000000000000000100000000000002000000000000000000000000000800000000000000000000000000000100010",
      "type": "0x2",
      "effectiveGasPrice": "0x128f1a46ce"
    }
  ],
  "libraries": [],
  "pending": [],
  "returns": {},
  "timestamp": 1712865569,
  "chain": 137,
  "commit": "f9c0721"
}