{
  "transactions": [
    {
      "hash": "0x7b94febd17bf0daa8cdcb073bd6718c008791bec800906ee64e31f171561046c",
      "transactionType": "CALL",
      "contractName": null,
      "contractAddress": "0x6f5bd6816887F0207d8f575Ab42B6BA637A004F5",
      "function": "setOutboundLimit(uint32,uint256)",
      "arguments": [
        "30101",
        "10000000000000000000"
      ],
      "transaction": {
        "type": "0x02",
        "from": "0x8c9c001f821c04513616fd7962b2d8c62f925fd2",
        "to": "0x6f5bd6816887f0207d8f575ab42b6ba637a004f5",
        "gas": "0x100f0",
        "value": "0x0",
        "data": "0x65d28a6b00000000000000000000000000000000000000000000000000000000000075950000000000000000000000000000000000000000000000008ac7230489e80000",
        "nonce": "0xb",
        "accessList": []
      },
      "additionalContracts": [],
      "isFixedGasLimit": false
    },
    {
      "hash": "0x5ef6a633e74f3cae7ef9dae6f5fdd12d872504ec1576c4644f1d9112fec0a4d3",
      "transactionType": "CALL",
      "contractName": null,
      "contractAddress": "0x6f5bd6816887F0207d8f575Ab42B6BA637A004F5",
      "function": "setInboundLimit(uint32,uint256)",
      "arguments": [
        "30101",
        "10000000000000000000"
      ],
      "transaction": {
        "type": "0x02",
        "from": "0x8c9c001f821c04513616fd7962b2d8c62f925fd2",
        "to": "0x6f5bd6816887f0207d8f575ab42b6ba637a004f5",
        "gas": "0x1104f",
        "value": "0x0",
        "data": "0x9a2fe9e400000000000000000000000000000000000000000000000000000000000075950000000000000000000000000000000000000000000000008ac7230489e80000",
        "nonce": "0xc",
        "accessList": []
      },
      "additionalContracts": [],
      "isFixedGasLimit": false
    }
  ],
  "receipts": [],
  "libraries": [],
  "pending": [],
  "returns": {},
  "timestamp": 1712742529,
  "chain": 137,
  "commit": "f9c0721"
}