{
  "transactions": [
    {
      "hash": "0xfe07ab1ef1dcf0b1e2ff5e979ecf3bb2db01c333d90f57ac513544fc798be383",
      "transactionType": "CALL",
      "contractName": "MocaToken",
      "contractAddress": "0xd5AD232332d02C149A7158C643D1c7BD204bDaB1",
      "function": "approve(address,uint256)",
      "arguments": [
        "0x5D4D4b620488DC5CeB13a73a6e700925F7682b02",
        "10000000000000000000"
      ],
      "transaction": {
        "type": "0x02",
        "from": "0x8c9c001f821c04513616fd7962b2d8c62f925fd2",
        "to": "0xd5ad232332d02c149a7158c643d1c7bd204bdab1",
        "gas": "0x1090a",
        "value": "0x0",
        "data": "0x095ea7b30000000000000000000000005d4d4b620488dc5ceb13a73a6e700925f7682b020000000000000000000000000000000000000000000000008ac7230489e80000",
        "nonce": "0x13",
        "accessList": []
      },
      "additionalContracts": [],
      "isFixedGasLimit": false
    },
    {
      "hash": null,
      "transactionType": "CALL",
      "contractName": "MocaTokenAdapter",
      "contractAddress": "0x5D4D4b620488DC5CeB13a73a6e700925F7682b02",
      "function": "send((uint32,bytes32,uint256,uint256,bytes,bytes,bytes),(uint256,uint256),address)",
      "arguments": [
        "(30109, 0x0000000000000000000000008c9c001f821c04513616fd7962b2d8c62f925fd2, 1000000000000000000, 1000000000000000000, 0x, 0x, 0x)",
        "(127858616789710, 0)",
        "0x8C9C001F821c04513616fd7962B2D8c62f925fD2"
      ],
      "transaction": {
        "type": "0x02",
        "from": "0x8c9c001f821c04513616fd7962b2d8c62f925fd2",
        "to": "0x5d4d4b620488dc5ceb13a73a6e700925f7682b02",
        "gas": "0x775d2",
        "value": "0x7449676f6ace",
        "data": "0xc7c7f5b3000000000000000000000000000000000000000000000000000000000000008000000000000000000000000000000000000000000000000000007449676f6ace00000000000000000000000000000000000000000000000000000000000000000000000000000000000000008c9c001f821c04513616fd7962b2d8c62f925fd2000000000000000000000000000000000000000000000000000000000000759d0000000000000000000000008c9c001f821c04513616fd7962b2d8c62f925fd20000000000000000000000000000000000000000000000000de0b6b3a76400000000000000000000000000000000000000000000000000000de0b6b3a764000000000000000000000000000000000000000000000000000000000000000000e000000000000000000000000000000000000000000000000000000000000001000000000000000000000000000000000000000000000000000000000000000120000000000000000000000000000000000000000000000000000000000000000000000000000000000000000000000000000000000000000000000000000000000000000000000000000000000000000000000000000000000000000000000000",
        "nonce": "0x14",
        "accessList": []
      },
      "additionalContracts": [],
      "isFixedGasLimit": false
    }
  ],
  "receipts": [],
  "libraries": [],
  "pending": [
    "0xfe07ab1ef1dcf0b1e2ff5e979ecf3bb2db01c333d90f57ac513544fc798be383"
  ],
  "returns": {},
  "timestamp": 1712739739,
  "chain": 1,
  "commit": "f9c0721"
}