{
  "transactions": [
    {
      "hash": "0x8cfa801c0209ae3360494e18649bb0dab1b1e72eba72a884cf5a151cc5ecb5d1",
      "transactionType": "CALL",
      "contractName": null,
      "contractAddress": "0x1a44076050125825900e736c501f859c50fE728c",
      "function": "setConfig(address,address,(uint32,uint32,bytes)[])",
      "arguments": [
        "0x23E086A3AD04E8dAb40c263FE18Fa1f32ED28FB7",
        "0xbB2Ea70C9E858123480642Cf96acbcCE1372dCe1",
        "[(30109, 2, 0x0000000000000000000000000000000000000000000000000000000000000020000000000000000000000000000000000000000000000000000000000000000f00000000000000000000000000000000000000000000000000000000000000040000000000000000000000000000000000000000000000000000000000000000000000000000000000000000000000000000000000000000000000000000000000000000000000000000000000000000000000000000000000000000000000c000000000000000000000000000000000000000000000000000000000000001600000000000000000000000000000000000000000000000000000000000000004000000000000000000000000589dedbd617e0cbcb916a9223f4d1300c294236b0000000000000000000000007e65bdd15c8db8995f80abf0d6593b57dc8be437000000000000000000000000a59ba433ac34d2927232918ef5b2eaafcf130ba5000000000000000000000000d56e4eab23cb81f43168f9f45211eb027b9ac7cc0000000000000000000000000000000000000000000000000000000000000000)]"
      ],
      "transaction": {
        "type": "0x02",
        "from": "0x8c9c001f821c04513616fd7962b2d8c62f925fd2",
        "to": "0x1a44076050125825900e736c501f859c50fe728c",
        "gas": "0x3eace",
        "value": "0x0",
        "data": "0x6dbd9f9000000000000000000000000023e086a3ad04e8dab40c263fe18fa1f32ed28fb7000000000000000000000000bb2ea70c9e858123480642cf96acbcce1372dce1000000000000000000000000000000000000000000000000000000000000006000000000000000000000000000000000000000000000000000000000000000010000000000000000000000000000000000000000000000000000000000000020000000000000000000000000000000000000000000000000000000000000759d0000000000000000000000000000000000000000000000000000000000000002000000000000000000000000000000000000000000000000000000000000006000000000000000000000000000000000000000000000000000000000000001a00000000000000000000000000000000000000000000000000000000000000020000000000000000000000000000000000000000000000000000000000000000f00000000000000000000000000000000000000000000000000000000000000040000000000000000000000000000000000000000000000000000000000000000000000000000000000000000000000000000000000000000000000000000000000000000000000000000000000000000000000000000000000000000000000c000000000000000000000000000000000000000000000000000000000000001600000000000000000000000000000000000000000000000000000000000000004000000000000000000000000589dedbd617e0cbcb916a9223f4d1300c294236b0000000000000000000000007e65bdd15c8db8995f80abf0d6593b57dc8be437000000000000000000000000a59ba433ac34d2927232918ef5b2eaafcf130ba5000000000000000000000000d56e4eab23cb81f43168f9f45211eb027b9ac7cc0000000000000000000000000000000000000000000000000000000000000000",
        "nonce": "0x27",
        "accessList": []
      },
      "additionalContracts": [],
      "isFixedGasLimit": false
    }
  ],
  "receipts": [
    {
      "transactionHash": "0x8cfa801c0209ae3360494e18649bb0dab1b1e72eba72a884cf5a151cc5ecb5d1",
      "transactionIndex": "0xa",
      "blockHash": "0xa8d1df5be05800c0e66ce5279dda958dc7c7101f6f12be1d45b637f92b701285",
      "blockNumber": "0x12b99b7",
      "from": "0x8C9C001F821c04513616fd7962B2D8c62f925fD2",
      "to": "0x1a44076050125825900e736c501f859c50fE728c",
      "cumulativeGasUsed": "0x18385f",
      "gasUsed": "0x2d604",
      "contractAddress": null,
      "logs": [
        {
          "address": "0xbB2Ea70C9E858123480642Cf96acbcCE1372dCe1",
          "topics": [
            "0x82118522aa536ac0e96cc5c689407ae42b89d592aa133890a01f1509842f5081"
          ],
          "data": "0x00000000000000000000000023e086a3ad04e8dab40c263fe18fa1f32ed28fb7000000000000000000000000000000000000000000000000000000000000759d0000000000000000000000000000000000000000000000000000000000000060000000000000000000000000000000000000000000000000000000000000000f00000000000000000000000000000000000000000000000000000000000000040000000000000000000000000000000000000000000000000000000000000000000000000000000000000000000000000000000000000000000000000000000000000000000000000000000000000000000000000000000000000000000000c000000000000000000000000000000000000000000000000000000000000001600000000000000000000000000000000000000000000000000000000000000004000000000000000000000000589dedbd617e0cbcb916a9223f4d1300c294236b0000000000000000000000007e65bdd15c8db8995f80abf0d6593b57dc8be437000000000000000000000000a59ba433ac34d2927232918ef5b2eaafcf130ba5000000000000000000000000d56e4eab23cb81f43168f9f45211eb027b9ac7cc0000000000000000000000000000000000000000000000000000000000000000",
          "blockHash": "0xa8d1df5be05800c0e66ce5279dda958dc7c7101f6f12be1d45b637f92b701285",
          "blockNumber": "0x12b99b7",
          "transactionHash": "0x8cfa801c0209ae3360494e18649bb0dab1b1e72eba72a884cf5a151cc5ecb5d1",
          "transactionIndex": "0xa",
          "logIndex": "0x38",
          "removed": false
        }
      ],
      "status": "0x1",
      "logsBloom": "0x00000000000000000000000000000000000000000000000000000000000000000400000000000000000000000000000000000000000000000000000000000000000000000000000000000000000000000000200000000000002000000000000000000000000000000000000000000000000000000000000000000000000000000000000000000000001000000000000000000000000000000000000000000000000000000000000000000002000000000000000000000000000000000000000000000000000000000000000000000000000000000000000000000000000000000000000000000000000000000000000000000000000000000000000000000010",
      "type": "0x2",
      "effectiveGasPrice": "0x4ddbb61f2"
    }
  ],
  "libraries": [],
  "pending": [],
  "returns": {},
  "timestamp": 1712865566,
  "chain": 1,
  "commit": "f9c0721"
}