{
  "transactions": [
    {
      "hash": "0x3a8816394a759b9b9523c1a6492d0f9f9dda20c346e9a0b2f900277bfeab042e",
      "transactionType": "CALL",
      "contractName": "MocaTokenAdapter",
      "contractAddress": "0xCC76Dd68ff8f702D1D0CED0a6F221835C07a10Af",
      "function": "setEnforcedOptions((uint32,uint16,bytes)[])",
      "arguments": [
        "[(30109, 1, 0x00030100110100000000000000000000000000030d40), (30109, 2, 0x000301001303000000000000000000000000000000000000)]"
      ],
      "transaction": {
        "type": "0x02",
        "from": "0x8c9c001f821c04513616fd7962b2d8c62f925fd2",
        "to": "0xcc76dd68ff8f702d1d0ced0a6f221835c07a10af",
        "gas": "0x1b25a",
        "value": "0x0",
        "data": "0xb98bd07000000000000000000000000000000000000000000000000000000000000000200000000000000000000000000000000000000000000000000000000000000002000000000000000000000000000000000000000000000000000000000000004000000000000000000000000000000000000000000000000000000000000000e0000000000000000000000000000000000000000000000000000000000000759d00000000000000000000000000000000000000000000000000000000000000010000000000000000000000000000000000000000000000000000000000000060000000000000000000000000000000000000000000000000000000000000001600030100110100000000000000000000000000030d4000000000000000000000000000000000000000000000000000000000000000000000000000000000759d0000000000000000000000000000000000000000000000000000000000000002000000000000000000000000000000000000000000000000000000000000006000000000000000000000000000000000000000000000000000000000000000180003010013030000000000000000000000000000000000000000000000000000",
        "nonce": "0x5",
        "accessList": []
      },
      "additionalContracts": [],
      "isFixedGasLimit": false
    }
  ],
  "receipts": [
    {
      "transactionHash": "0x3a8816394a759b9b9523c1a6492d0f9f9dda20c346e9a0b2f900277bfeab042e",
      "transactionIndex": "0xf",
      "blockHash": "0x8d7c1069689c24d7b8b290d85abeec58736fb82dfee942dfed49a3df335809fa",
      "blockNumber": "0x12b7089",
      "from": "0x8C9C001F821c04513616fd7962B2D8c62f925fD2",
      "to": "0xCC76Dd68ff8f702D1D0CED0a6F221835C07a10Af",
      "cumulativeGasUsed": "0x2ae1e5",
      "gasUsed": "0x13a77",
      "contractAddress": null,
      "logs": [
        {
          "address": "0xCC76Dd68ff8f702D1D0CED0a6F221835C07a10Af",
          "topics": [
            "0xbe4864a8e820971c0247f5992e2da559595f7bf076a21cb5928d443d2a13b674"
          ],
          "data": "0x00000000000000000000000000000000000000000000000000000000000000200000000000000000000000000000000000000000000000000000000000000002000000000000000000000000000000000000000000000000000000000000004000000000000000000000000000000000000000000000000000000000000000e0000000000000000000000000000000000000000000000000000000000000759d00000000000000000000000000000000000000000000000000000000000000010000000000000000000000000000000000000000000000000000000000000060000000000000000000000000000000000000000000000000000000000000001600030100110100000000000000000000000000030d4000000000000000000000000000000000000000000000000000000000000000000000000000000000759d0000000000000000000000000000000000000000000000000000000000000002000000000000000000000000000000000000000000000000000000000000006000000000000000000000000000000000000000000000000000000000000000180003010013030000000000000000000000000000000000000000000000000000",
          "blockHash": "0x8d7c1069689c24d7b8b290d85abeec58736fb82dfee942dfed49a3df335809fa",
          "blockNumber": "0x12b7089",
          "transactionHash": "0x3a8816394a759b9b9523c1a6492d0f9f9dda20c346e9a0b2f900277bfeab042e",
          "transactionIndex": "0xf",
          "logIndex": "0x6c",
          "removed": false
        }
      ],
      "status": "0x1",
      "logsBloom": "0x00000000000000000000000000000000000000000000000000000000000000000000000000000000000000000000000000000000000000000000400000000000000000000000000000000000000000000000000000200000000000000000008000000000000000000000000000000000000000000000000000000000000000000000000000000000000000000000000000000000000000000000000000080000000000000000000000000000000000000000000000000000000000000000000000000000000000000000000002000000000000000000000000000000000000000000010000000000000000000000000000000000000000000000000000000000",
      "type": "0x2",
      "effectiveGasPrice": "0x39e9a0179"
    }
  ],
  "libraries": [],
  "pending": [],
  "returns": {},
  "timestamp": 1712738126,
  "chain": 1,
  "commit": "f9c0721"
}