{
  "transactions": [
    {
      "hash": "0x38ea7776a98745bc60d3a63e27d007f17a9a140513516bf37b29a3bae83c8017",
      "transactionType": "CALL",
      "contractName": "MocaToken",
      "contractAddress": "0xd5AD232332d02C149A7158C643D1c7BD204bDaB1",
      "function": "approve(address,uint256)",
      "arguments": [
        "0x5D4D4b620488DC5CeB13a73a6e700925F7682b02",
        "10000000000000000000"
      ],
      "transaction": {
        "type": "0x02",
        "from": "0x8c9c001f821c04513616fd7962b2d8c62f925fd2",
        "to": "0xd5ad232332d02c149a7158c643d1c7bd204bdab1",
        "gas": "0x8ef1",
        "value": "0x0",
        "data": "0x095ea7b30000000000000000000000005d4d4b620488dc5ceb13a73a6e700925f7682b020000000000000000000000000000000000000000000000008ac7230489e80000",
        "nonce": "0x14",
        "accessList": []
      },
      "additionalContracts": [],
      "isFixedGasLimit": false
    },
    {
      "hash": "0xbae131c00d4a13087cf8e44754c444e58c48722344491df4a342a042c6b3b1b4",
      "transactionType": "CALL",
      "contractName": "MocaTokenAdapter",
      "contractAddress": "0x5D4D4b620488DC5CeB13a73a6e700925F7682b02",
      "function": "send((uint32,bytes32,uint256,uint256,bytes,bytes,bytes),(uint256,uint256),address)",
      "arguments": [
        "(30109, 0x0000000000000000000000008c9c001f821c04513616fd7962b2d8c62f925fd2, 1000000000000000000, 1000000000000000000, 0x, 0x, 0x)",
        "(127858616789710, 0)",
        "0x8C9C001F821c04513616fd7962B2D8c62f925fD2"
      ],
      "transaction": {
        "type": "0x02",
        "from": "0x8c9c001f821c04513616fd7962b2d8c62f925fd2",
        "to": "0x5d4d4b620488dc5ceb13a73a6e700925f7682b02",
        "gas": "0x775d2",
        "value": "0x7449676f6ace",
        "data": "0xc7c7f5b3000000000000000000000000000000000000000000000000000000000000008000000000000000000000000000000000000000000000000000007449676f6ace00000000000000000000000000000000000000000000000000000000000000000000000000000000000000008c9c001f821c04513616fd7962b2d8c62f925fd2000000000000000000000000000000000000000000000000000000000000759d0000000000000000000000008c9c001f821c04513616fd7962b2d8c62f925fd20000000000000000000000000000000000000000000000000de0b6b3a76400000000000000000000000000000000000000000000000000000de0b6b3a764000000000000000000000000000000000000000000000000000000000000000000e000000000000000000000000000000000000000000000000000000000000001000000000000000000000000000000000000000000000000000000000000000120000000000000000000000000000000000000000000000000000000000000000000000000000000000000000000000000000000000000000000000000000000000000000000000000000000000000000000000000000000000000000000000000",
        "nonce": "0x15",
        "accessList": []
      },
      "additionalContracts": [],
      "isFixedGasLimit": false
    }
  ],
  "receipts": [
    {
      "transactionHash": "0x38ea7776a98745bc60d3a63e27d007f17a9a140513516bf37b29a3bae83c8017",
      "transactionIndex": "0x19",
      "blockHash": "0x920af2665a7a5cd310fde38d5a93c78138b1b5425e901aedef64582d5fffb996",
      "blockNumber": "0x12b711f",
      "from": "0x8C9C001F821c04513616fd7962B2D8c62f925fD2",
      "to": "0xd5AD232332d02C149A7158C643D1c7BD204bDaB1",
      "cumulativeGasUsed": "0x289112",
      "gasUsed": "0x677e",
      "contractAddress": null,
      "logs": [
        {
          "address": "0xd5AD232332d02C149A7158C643D1c7BD204bDaB1",
          "topics": [
            "0x8c5be1e5ebec7d5bd14f71427d1e84f3dd0314c0f7b2291e5b200ac8c7c3b925",
            "0x0000000000000000000000008c9c001f821c04513616fd7962b2d8c62f925fd2",
            "0x0000000000000000000000005d4d4b620488dc5ceb13a73a6e700925f7682b02"
          ],
          "data": "0x0000000000000000000000000000000000000000000000008ac7230489e80000",
          "blockHash": "0x920af2665a7a5cd310fde38d5a93c78138b1b5425e901aedef64582d5fffb996",
          "blockNumber": "0x12b711f",
          "transactionHash": "0x38ea7776a98745bc60d3a63e27d007f17a9a140513516bf37b29a3bae83c8017",
          "transactionIndex": "0x19",
          "logIndex": "0x5d",
          "removed": false
        }
      ],
      "status": "0x1",
      "logsBloom": "0x00000000000000000000000000000800000000000000000000000000000000000000000000000000000000000000000000000000000000000200000000200000000000000000000000000000004000000000000000402000000000000000000000200000000000000000000000000000000000000000000000000000000000000000000000000000000000000000000000000000000000000000000000000000020000000000000000000020000000000000000000000000000080000000000000000000000000000000000000000000000000000000000000000000000000000010000000000000000000000000000000000000000000000008000000000000",
      "type": "0x2",
      "effectiveGasPrice": "0x3b474aff3"
    },
    {
      "transactionHash": "0xbae131c00d4a13087cf8e44754c444e58c48722344491df4a342a042c6b3b1b4",
      "transactionIndex": "0x1a",
      "blockHash": "0x920af2665a7a5cd310fde38d5a93c78138b1b5425e901aedef64582d5fffb996",
      "blockNumber": "0x12b711f",
      "from": "0x8C9C001F821c04513616fd7962B2D8c62f925fD2",
      "to": "0x5D4D4b620488DC5CeB13a73a6e700925F7682b02",
      "cumulativeGasUsed": "0x2df7c0",
      "gasUsed": "0x566ae",
      "contractAddress": null,
      "logs": [
        {
          "address": "0xd5AD232332d02C149A7158C643D1c7BD204bDaB1",
          "topics": [
            "0xddf252ad1be2c89b69c2b068fc378daa952ba7f163c4a11628f55a4df523b3ef",
            "0x0000000000000000000000008c9c001f821c04513616fd7962b2d8c62f925fd2",
            "0x0000000000000000000000005d4d4b620488dc5ceb13a73a6e700925f7682b02"
          ],
          "data": "0x0000000000000000000000000000000000000000000000000de0b6b3a7640000",
          "blockHash": "0x920af2665a7a5cd310fde38d5a93c78138b1b5425e901aedef64582d5fffb996",
          "blockNumber": "0x12b711f",
          "transactionHash": "0xbae131c00d4a13087cf8e44754c444e58c48722344491df4a342a042c6b3b1b4",
          "transactionIndex": "0x1a",
          "logIndex": "0x5e",
          "removed": false
        },
        {
          "address": "0xbB2Ea70C9E858123480642Cf96acbcCE1372dCe1",
          "topics": [
            "0x61ed099e74a97a1d7f8bb0952a88ca8b7b8ebd00c126ea04671f92a81213318a"
          ],
          "data": "0x000000000000000000000000173272739bd7aa6e4e214714048a9fe69945305900000000000000000000000000000000000000000000000000006c0180b37c62",
          "blockHash": "0x920af2665a7a5cd310fde38d5a93c78138b1b5425e901aedef64582d5fffb996",
          "blockNumber": "0x12b711f",
          "transactionHash": "0xbae131c00d4a13087cf8e44754c444e58c48722344491df4a342a042c6b3b1b4",
          "transactionIndex": "0x1a",
          "logIndex": "0x5f",
          "removed": false
        },
        {
          "address": "0xbB2Ea70C9E858123480642Cf96acbcCE1372dCe1",
          "topics": [
            "0x07ea52d82345d6e838192107d8fd7123d9c2ec8e916cd0aad13fd2b60db24644"
          ],
          "data": "0x000000000000000000000000000000000000000000000000000000000000006000000000000000000000000000000000000000000000000000000000000000c000000000000000000000000000000000000000000000000000000000000000e00000000000000000000000000000000000000000000000000000000000000002000000000000000000000000589dedbd617e0cbcb916a9223f4d1300c294236b000000000000000000000000d56e4eab23cb81f43168f9f45211eb027b9ac7cc0000000000000000000000000000000000000000000000000000000000000000000000000000000000000000000000000000000000000000000000000000000200000000000000000000000000000000000000000000000000000423f35df73600000000000000000000000000000000000000000000000000000423f35df736",
          "blockHash": "0x920af2665a7a5cd310fde38d5a93c78138b1b5425e901aedef64582d5fffb996",
          "blockNumber": "0x12b711f",
          "transactionHash": "0xbae131c00d4a13087cf8e44754c444e58c48722344491df4a342a042c6b3b1b4",
          "transactionIndex": "0x1a",
          "logIndex": "0x60",
          "removed": false
        },
        {
          "address": "0x1a44076050125825900e736c501f859c50fE728c",
          "topics": [
            "0x1ab700d4ced0c005b164c0f789fd09fcbb0156d4c2041b8a3bfbcd961cd1567f"
          ],
          "data": "0x00000000000000000000000000000000000000000000000000000000000000600000000000000000000000000000000000000000000000000000000000000120000000000000000000000000bb2ea70c9e858123480642cf96acbcce1372dce10000000000000000000000000000000000000000000000000000000000000099010000000000000001000075950000000000000000000000005d4d4b620488dc5ceb13a73a6e700925f7682b020000759d0000000000000000000000003fd66aa42c3e68a1a72afd9bc72e2ad4f806e20d6485e362c0cbf35aba6f865fb1b8a4fd5879091f2d1514caf5d2ee715a57b9b70000000000000000000000008c9c001f821c04513616fd7962b2d8c62f925fd200000000000f424000000000000000000000000000000000000000000000000000000000000000000000000000001600030100110100000000000000000000000000030d4000000000000000000000",
          "blockHash": "0x920af2665a7a5cd310fde38d5a93c78138b1b5425e901aedef64582d5fffb996",
          "blockNumber": "0x12b711f",
          "transactionHash": "0xbae131c00d4a13087cf8e44754c444e58c48722344491df4a342a042c6b3b1b4",
          "transactionIndex": "0x1a",
          "logIndex": "0x61",
          "removed": false
        },
        {
          "address": "0x5D4D4b620488DC5CeB13a73a6e700925F7682b02",
          "topics": [
            "0xfff873bb909b73d08a8c1af4b21779e87103bb8ea8cf3b3a0067eb8526b8b80a",
            "0x6485e362c0cbf35aba6f865fb1b8a4fd5879091f2d1514caf5d2ee715a57b9b7",
            "0x0000000000000000000000008c9c001f821c04513616fd7962b2d8c62f925fd2"
          ],
          "data": "0x000000000000000000000000000000000000000000000000000000000000759d0000000000000000000000000000000000000000000000000de0b6b3a7640000",
          "blockHash": "0x920af2665a7a5cd310fde38d5a93c78138b1b5425e901aedef64582d5fffb996",
          "blockNumber": "0x12b711f",
          "transactionHash": "0xbae131c00d4a13087cf8e44754c444e58c48722344491df4a342a042c6b3b1b4",
          "transactionIndex": "0x1a",
          "logIndex": "0x62",
          "removed": false
        }
      ],
      "status": "0x1",
      "logsBloom": "0x000000000000000000000000040008000000000000000000300000000010000004000000000000000000000000800000000000000000000002000000000000000000000000000000000000080040000000002000004020000000000000000000002000000000000080000000000004000000000000120000000000100000000000000000000000000010000800000000000000000000000000000000000020000000000080000000001000202000000000000000004000000004c0000000000000000002000000000000000000000000000000000000000000000000000000000000040000000000000000000000002000000040010000000008000000000000",
      "type": "0x2",
      "effectiveGasPrice": "0x3b474aff3"
    }
  ],
  "libraries": [],
  "pending": [],
  "returns": {},
  "timestamp": 1712739925,
  "chain": 1,
  "commit": "f9c0721"
}