{
  "transactions": [
    {
      "hash": "0x1b483be8db6322a49860213a0f4cf7bd4669a2e9fba94943f54a2e3e5358316c",
      "transactionType": "CALL",
      "contractName": "MocaToken",
      "contractAddress": "0xd5AD232332d02C149A7158C643D1c7BD204bDaB1",
      "function": "approve(address,uint256)",
      "arguments": [
        "0x5D4D4b620488DC5CeB13a73a6e700925F7682b02",
        "1000000000000000000"
      ],
      "transaction": {
        "type": "0x02",
        "from": "0x8c9c001f821c04513616fd7962b2d8c62f925fd2",
        "to": "0xd5ad232332d02c149a7158c643d1c7bd204bdab1",
        "gas": "0x9e0d",
        "value": "0x0",
        "data": "0x095ea7b30000000000000000000000005d4d4b620488dc5ceb13a73a6e700925f7682b020000000000000000000000000000000000000000000000000de0b6b3a7640000",
        "nonce": "0x22",
        "accessList": []
      },
      "additionalContracts": [],
      "isFixedGasLimit": false
    },
    {
      "hash": null,
      "transactionType": "CALL",
      "contractName": "MocaTokenAdapter",
      "contractAddress": "0x5D4D4b620488DC5CeB13a73a6e700925F7682b02",
      "function": "send((uint32,bytes32,uint256,uint256,bytes,bytes,bytes),(uint256,uint256),address)",
      "arguments": [
        "(30109, 0x0000000000000000000000008c9c001f821c04513616fd7962b2d8c62f925fd2, 100000000000000000, 100000000000000000, 0x0003010031020000000000000002455461b70d5c36d20000000000000000000000008c9c001f821c04513616fd7962b2d8c62f925fd2, 0x, 0x)",
        "(12812126488738160, 0)",
        "0x8C9C001F821c04513616fd7962B2D8c62f925fD2"
      ],
      "transaction": {
        "type": "0x02",
        "from": "0x8c9c001f821c04513616fd7962b2d8c62f925fd2",
        "to": "0x5d4d4b620488dc5ceb13a73a6e700925f7682b02",
        "gas": "0x81387",
        "value": "0x2d848fa82db970",
        "data": "0xc7c7f5b30000000000000000000000000000000000000000000000000000000000000080000000000000000000000000000000000000000000000000002d848fa82db97000000000000000000000000000000000000000000000000000000000000000000000000000000000000000008c9c001f821c04513616fd7962b2d8c62f925fd2000000000000000000000000000000000000000000000000000000000000759d0000000000000000000000008c9c001f821c04513616fd7962b2d8c62f925fd2000000000000000000000000000000000000000000000000016345785d8a0000000000000000000000000000000000000000000000000000016345785d8a000000000000000000000000000000000000000000000000000000000000000000e00000000000000000000000000000000000000000000000000000000000000140000000000000000000000000000000000000000000000000000000000000016000000000000000000000000000000000000000000000000000000000000000360003010031020000000000000002455461b70d5c36d20000000000000000000000008c9c001f821c04513616fd7962b2d8c62f925fd20000000000000000000000000000000000000000000000000000000000000000000000000000000000000000000000000000000000000000000000000000000000000000000000000000",
        "nonce": "0x23",
        "accessList": []
      },
      "additionalContracts": [],
      "isFixedGasLimit": false
    }
  ],
  "receipts": [],
  "libraries": [],
  "pending": [
    "0x1b483be8db6322a49860213a0f4cf7bd4669a2e9fba94943f54a2e3e5358316c"
  ],
  "returns": {},
  "timestamp": 1712751591,
  "chain": 1,
  "commit": "f9c0721"
}