{
  "transactions": [
    {
      "hash": "0x61823d3e6e526f37f4801b52e644dda92ed255d97c831ba005e2421f520f463e",
      "transactionType": "CALL",
      "contractName": "MocaTokenAdapter",
      "contractAddress": "0x5D4D4b620488DC5CeB13a73a6e700925F7682b02",
      "function": "setPeer(uint32,bytes32)",
      "arguments": [
        "30109",
        "0x0000000000000000000000003fd66aa42c3e68a1a72afd9bc72e2ad4f806e20d"
      ],
      "transaction": {
        "type": "0x02",
        "from": "0x8c9c001f821c04513616fd7962b2d8c62f925fd2",
        "to": "0x5d4d4b620488dc5ceb13a73a6e700925f7682b02",
        "gas": "0x1016a",
        "value": "0x0",
        "data": "0x3400288b000000000000000000000000000000000000000000000000000000000000759d0000000000000000000000003fd66aa42c3e68a1a72afd9bc72e2ad4f806e20d",
        "nonce": "0xe",
        "accessList": []
      },
      "additionalContracts": [],
      "isFixedGasLimit": false
    }
  ],
  "receipts": [
    {
      "transactionHash": "0x61823d3e6e526f37f4801b52e644dda92ed255d97c831ba005e2421f520f463e",
      "transactionIndex": "0x1e",
      "blockHash": "0x866ae6c68a2a2041f1f90ec474b8432134a0eacc17e1cb07b3c50b3b962828cd",
      "blockNumber": "0x12b70e2",
      "from": "0x8C9C001F821c04513616fd7962B2D8c62f925fD2",
      "to": "0x5D4D4b620488DC5CeB13a73a6e700925F7682b02",
      "cumulativeGasUsed": "0x3eb140",
      "gasUsed": "0xba5e",
      "contractAddress": null,
      "logs": [
        {
          "address": "0x5D4D4b620488DC5CeB13a73a6e700925F7682b02",
          "topics": [
            "0x238399d427b947898edb290f5ff0f9109849b1c3ba196a42e35f00c50a54b98b"
          ],
          "data": "0x000000000000000000000000000000000000000000000000000000000000759d0000000000000000000000003fd66aa42c3e68a1a72afd9bc72e2ad4f806e20d",
          "blockHash": "0x866ae6c68a2a2041f1f90ec474b8432134a0eacc17e1cb07b3c50b3b962828cd",
          "blockNumber": "0x12b70e2",
          "transactionHash": "0x61823d3e6e526f37f4801b52e644dda92ed255d97c831ba005e2421f520f463e",
          "transactionIndex": "0x1e",
          "logIndex": "0x88",
          "removed": false
        }
      ],
      "status": "0x1",
      "logsBloom": "0x00000000000000000000000000000000000000000000000000000000000000000000000000000000000000000000000000000000000000000800000000000000000000000000000000000000000000000000000000000000000000000000000000000000000000000000000000000400000000000002000000000000000000000000000000000000000000000000000000000000000000000000000000000000000000000000000000000000200000000000000000000000000002000000000000000000000000000000000000000000000000000000000000040000000000000000000000000000000000000000000000000000000000000000000000000000",
      "type": "0x2",
      "effectiveGasPrice": "0x39ce6404c"
    }
  ],
  "libraries": [],
  "pending": [],
  "returns": {},
  "timestamp": 1712739193,
  "chain": 1,
  "commit": "f9c0721"
}