{
  "transactions": [
    {
      "hash": "0x33c2e968c2b9c2d5a77be2fb024c12167d70f1121a5f08dbfb6606ff5c6adb16",
      "transactionType": "CALL",
      "contractName": "MocaTokenAdapter",
      "contractAddress": "0x5D4D4b620488DC5CeB13a73a6e700925F7682b02",
      "function": "setPeer(uint32,bytes32)",
      "arguments": [
        "30109",
        "0x0000000000000000000000003fd66aa42c3e68a1a72afd9bc72e2ad4f806e20d"
      ],
      "transaction": {
        "type": "0x02",
        "from": "0x8c9c001f821c04513616fd7962b2d8c62f925fd2",
        "to": "0x5d4d4b620488dc5ceb13a73a6e700925f7682b02",
        "gas": "0x9edf",
        "value": "0x0",
        "data": "0x3400288b000000000000000000000000000000000000000000000000000000000000759d0000000000000000000000003fd66aa42c3e68a1a72afd9bc72e2ad4f806e20d",
        "nonce": "0x18",
        "accessList": []
      },
      "additionalContracts": [],
      "isFixedGasLimit": false
    }
  ],
  "receipts": [
    {
      "transactionHash": "0x33c2e968c2b9c2d5a77be2fb024c12167d70f1121a5f08dbfb6606ff5c6adb16",
      "transactionIndex": "0x8",
      "blockHash": "0xb9b97c8d7d75a4c5e5f3242f108d5e80cc709683029cad241b2cdfcf85ae1683",
      "blockNumber": "0x12b716f",
      "from": "0x8C9C001F821c04513616fd7962B2D8c62f925fD2",
      "to": "0x5D4D4b620488DC5CeB13a73a6e700925F7682b02",
      "cumulativeGasUsed": "0x621b6",
      "gasUsed": "0x6ca2",
      "contractAddress": null,
      "logs": [
        {
          "address": "0x5D4D4b620488DC5CeB13a73a6e700925F7682b02",
          "topics": [
            "0x238399d427b947898edb290f5ff0f9109849b1c3ba196a42e35f00c50a54b98b"
          ],
          "data": "0x000000000000000000000000000000000000000000000000000000000000759d0000000000000000000000003fd66aa42c3e68a1a72afd9bc72e2ad4f806e20d",
          "blockHash": "0xb9b97c8d7d75a4c5e5f3242f108d5e80cc709683029cad241b2cdfcf85ae1683",
          "blockNumber": "0x12b716f",
          "transactionHash": "0x33c2e968c2b9c2d5a77be2fb024c12167d70f1121a5f08dbfb6606ff5c6adb16",
          "transactionIndex": "0x8",
          "logIndex": "0x7",
          "removed": false
        }
      ],
      "status": "0x1",
      "logsBloom": "0x00000000000000000000000000000000000000000000000000000000000000000000000000000000000000000000000000000000000000000800000000000000000000000000000000000000000000000000000000000000000000000000000000000000000000000000000000000400000000000002000000000000000000000000000000000000000000000000000000000000000000000000000000000000000000000000000000000000200000000000000000000000000002000000000000000000000000000000000000000000000000000000000000040000000000000000000000000000000000000000000000000000000000000000000000000000",
      "type": "0x2",
      "effectiveGasPrice": "0x3bad18097"
    }
  ],
  "libraries": [],
  "pending": [],
  "returns": {},
  "timestamp": 1712740889,
  "chain": 1,
  "commit": "f9c0721"
}