{
  "transactions": [
    {
      "hash": "0xdecf6d881c6ae04b6c97cdeb83ded69a248daff941715aa3fe5c06724e171cd1",
      "transactionType": "CALL",
      "contractName": "MocaTokenAdapter",
      "contractAddress": "0xCC76Dd68ff8f702D1D0CED0a6F221835C07a10Af",
      "function": "setPeer(uint32,bytes32)",
      "arguments": [
        "30109",
        "0x0000000000000000000000003fd66aa42c3e68a1a72afd9bc72e2ad4f806e20d"
      ],
      "transaction": {
        "type": "0x02",
        "from": "0x8c9c001f821c04513616fd7962b2d8c62f925fd2",
        "to": "0xcc76dd68ff8f702d1d0ced0a6f221835c07a10af",
        "gas": "0x1016a",
        "value": "0x0",
        "data": "0x3400288b000000000000000000000000000000000000000000000000000000000000759d0000000000000000000000003fd66aa42c3e68a1a72afd9bc72e2ad4f806e20d",
        "nonce": "0x4",
        "accessList": []
      },
      "additionalContracts": [],
      "isFixedGasLimit": false
    }
  ],
  "receipts": [
    {
      "transactionHash": "0xdecf6d881c6ae04b6c97cdeb83ded69a248daff941715aa3fe5c06724e171cd1",
      "transactionIndex": "0xf",
      "blockHash": "0x8ba1ab56da5d4a4369ff28689075769967e5f104710661e9f9e71725d07c9e0c",
      "blockNumber": "0x12b7080",
      "from": "0x8C9C001F821c04513616fd7962B2D8c62f925fD2",
      "to": "0xCC76Dd68ff8f702D1D0CED0a6F221835C07a10Af",
      "cumulativeGasUsed": "0x16e17b",
      "gasUsed": "0xba5e",
      "contractAddress": null,
      "logs": [
        {
          "address": "0xCC76Dd68ff8f702D1D0CED0a6F221835C07a10Af",
          "topics": [
            "0x238399d427b947898edb290f5ff0f9109849b1c3ba196a42e35f00c50a54b98b"
          ],
          "data": "0x000000000000000000000000000000000000000000000000000000000000759d0000000000000000000000003fd66aa42c3e68a1a72afd9bc72e2ad4f806e20d",
          "blockHash": "0x8ba1ab56da5d4a4369ff28689075769967e5f104710661e9f9e71725d07c9e0c",
          "blockNumber": "0x12b7080",
          "transactionHash": "0xdecf6d881c6ae04b6c97cdeb83ded69a248daff941715aa3fe5c06724e171cd1",
          "transactionIndex": "0xf",
          "logIndex": "0x29",
          "removed": false
        }
      ],
      "status": "0x1",
      "logsBloom": "0x00000000000000000000000000000000000000000000000000000000000000000000000000000000000000000000000000000000000000000800000000000000000000000000000000000000000000000000000000200000000000000000008000000000000000000000000000000000000000000000000000000000000000000000000000000000000000000000000000000000000000000000000000000000000000000000000000000000000000000000000000000000000002000000000000000000000000000000000000000000000000000000000000040000000000000000010000000000000000000000000000000000000000000000000000000000",
      "type": "0x2",
      "effectiveGasPrice": "0x3dc1e0aa2"
    }
  ],
  "libraries": [],
  "pending": [],
  "returns": {},
  "timestamp": 1712738017,
  "chain": 1,
  "commit": "f9c0721"
}