{
  "transactions": [
    {
      "hash": "0x8a88e8d5435c955cf93cbc6c0d39286eaee719df0bb529fef21e6513a02fea4f",
      "transactionType": "CALL",
      "contractName": "MocaTokenAdapter",
      "contractAddress": "0x5D4D4b620488DC5CeB13a73a6e700925F7682b02",
      "function": "setPeer(uint32,bytes32)",
      "arguments": [
        "30109",
        "0x0000000000000000000000006f5bd6816887f0207d8f575ab42b6ba637a004f5"
      ],
      "transaction": {
        "type": "0x02",
        "from": "0x8c9c001f821c04513616fd7962b2d8c62f925fd2",
        "to": "0x5d4d4b620488dc5ceb13a73a6e700925f7682b02",
        "gas": "0xaede",
        "value": "0x0",
        "data": "0x3400288b000000000000000000000000000000000000000000000000000000000000759d0000000000000000000000006f5bd6816887f0207d8f575ab42b6ba637a004f5",
        "nonce": "0x1a",
        "accessList": []
      },
      "additionalContracts": [],
      "isFixedGasLimit": false
    }
  ],
  "receipts": [
    {
      "transactionHash": "0x8a88e8d5435c955cf93cbc6c0d39286eaee719df0bb529fef21e6513a02fea4f",
      "transactionIndex": "0x22",
      "blockHash": "0xdacd6469a0b2763fe66f37820109881868ae00ea97fac5ce91d105fd61a0bb1d",
      "blockNumber": "0x12b71ad",
      "from": "0x8C9C001F821c04513616fd7962B2D8c62f925fD2",
      "to": "0x5D4D4b620488DC5CeB13a73a6e700925F7682b02",
      "cumulativeGasUsed": "0x43d576",
      "gasUsed": "0x7792",
      "contractAddress": null,
      "logs": [
        {
          "address": "0x5D4D4b620488DC5CeB13a73a6e700925F7682b02",
          "topics": [
            "0x238399d427b947898edb290f5ff0f9109849b1c3ba196a42e35f00c50a54b98b"
          ],
          "data": "0x000000000000000000000000000000000000000000000000000000000000759d0000000000000000000000006f5bd6816887f0207d8f575ab42b6ba637a004f5",
          "blockHash": "0xdacd6469a0b2763fe66f37820109881868ae00ea97fac5ce91d105fd61a0bb1d",
          "blockNumber": "0x12b71ad",
          "transactionHash": "0x8a88e8d5435c955cf93cbc6c0d39286eaee719df0bb529fef21e6513a02fea4f",
          "transactionIndex": "0x22",
          "logIndex": "0x9b",
          "removed": false
        }
      ],
      "status": "0x1",
      "logsBloom": "0x00000000000000000000000000000000000000000000000000000000000000000000000000000000000000000000000000000000000000000800000000000000000000000000000000000000000000000000000000000000000000000000000000000000000000000000000000000400000000000002000000000000000000000000000000000000000000000000000000000000000000000000000000000000000000000000000000000000200000000000000000000000000002000000000000000000000000000000000000000000000000000000000000040000000000000000000000000000000000000000000000000000000000000000000000000000",
      "type": "0x2",
      "effectiveGasPrice": "0x3fa78e191"
    }
  ],
  "libraries": [],
  "pending": [],
  "returns": {},
  "timestamp": 1712741632,
  "chain": 1,
  "commit": "f9c0721"
}