{
  "transactions": [
    {
      "hash": "0x06f5e40c067214c2ba462d291b4da88d4389b41c565ad142ae48ce9f75f545e7",
      "transactionType": "CALL",
      "contractName": null,
      "contractAddress": "0x1a44076050125825900e736c501f859c50fE728c",
      "function": "setConfig(address,address,(uint32,uint32,bytes)[])",
      "arguments": [
        "0x5D4D4b620488DC5CeB13a73a6e700925F7682b02",
        "0xbB2Ea70C9E858123480642Cf96acbcCE1372dCe1",
        "[(30109, 2, 0x0000000000000000000000000000000000000000000000000000000000000020000000000000000000000000000000000000000000000000000000000000000f00000000000000000000000000000000000000000000000000000000000000040000000000000000000000000000000000000000000000000000000000000000000000000000000000000000000000000000000000000000000000000000000000000000000000000000000000000000000000000000000000000000000000c000000000000000000000000000000000000000000000000000000000000001600000000000000000000000000000000000000000000000000000000000000004000000000000000000000000589dedbd617e0cbcb916a9223f4d1300c294236b0000000000000000000000007e65bdd15c8db8995f80abf0d6593b57dc8be437000000000000000000000000a59ba433ac34d2927232918ef5b2eaafcf130ba5000000000000000000000000d56e4eab23cb81f43168f9f45211eb027b9ac7cc0000000000000000000000000000000000000000000000000000000000000000)]"
      ],
      "transaction": {
        "type": "0x02",
        "from": "0x8c9c001f821c04513616fd7962b2d8c62f925fd2",
        "to": "0x1a44076050125825900e736c501f859c50fe728c",
        "gas": "0x16694",
        "value": "0x0",
        "data": "0x6dbd9f900000000000000000000000005d4d4b620488dc5ceb13a73a6e700925f7682b02000000000000000000000000bb2ea70c9e858123480642cf96acbcce1372dce1000000000000000000000000000000000000000000000000000000000000006000000000000000000000000000000000000000000000000000000000000000010000000000000000000000000000000000000000000000000000000000000020000000000000000000000000000000000000000000000000000000000000759d0000000000000000000000000000000000000000000000000000000000000002000000000000000000000000000000000000000000000000000000000000006000000000000000000000000000000000000000000000000000000000000001a00000000000000000000000000000000000000000000000000000000000000020000000000000000000000000000000000000000000000000000000000000000f00000000000000000000000000000000000000000000000000000000000000040000000000000000000000000000000000000000000000000000000000000000000000000000000000000000000000000000000000000000000000000000000000000000000000000000000000000000000000000000000000000000000000c000000000000000000000000000000000000000000000000000000000000001600000000000000000000000000000000000000000000000000000000000000004000000000000000000000000589dedbd617e0cbcb916a9223f4d1300c294236b0000000000000000000000007e65bdd15c8db8995f80abf0d6593b57dc8be437000000000000000000000000a59ba433ac34d2927232918ef5b2eaafcf130ba5000000000000000000000000d56e4eab23cb81f43168f9f45211eb027b9ac7cc0000000000000000000000000000000000000000000000000000000000000000",
        "nonce": "0x1f",
        "accessList": []
      },
      "additionalContracts": [],
      "isFixedGasLimit": false
    },
    {
      "hash": "0xa68a3b9b9f0aa244ebd57cdd797a42782f0415551b1b7c0ff4563e8c50a5a4b7",
      "transactionType": "CALL",
      "contractName": null,
      "contractAddress": "0x1a44076050125825900e736c501f859c50fE728c",
      "function": "setConfig(address,address,(uint32,uint32,bytes)[])",
      "arguments": [
        "0x5D4D4b620488DC5CeB13a73a6e700925F7682b02",
        "0xc02Ab410f0734EFa3F14628780e6e695156024C2",
        "[(30109, 2, 0x0000000000000000000000000000000000000000000000000000000000000020000000000000000000000000000000000000000000000000000000000000000f00000000000000000000000000000000000000000000000000000000000000040000000000000000000000000000000000000000000000000000000000000000000000000000000000000000000000000000000000000000000000000000000000000000000000000000000000000000000000000000000000000000000000c000000000000000000000000000000000000000000000000000000000000001600000000000000000000000000000000000000000000000000000000000000004000000000000000000000000589dedbd617e0cbcb916a9223f4d1300c294236b0000000000000000000000007e65bdd15c8db8995f80abf0d6593b57dc8be437000000000000000000000000a59ba433ac34d2927232918ef5b2eaafcf130ba5000000000000000000000000d56e4eab23cb81f43168f9f45211eb027b9ac7cc0000000000000000000000000000000000000000000000000000000000000000)]"
      ],
      "transaction": {
        "type": "0x02",
        "from": "0x8c9c001f821c04513616fd7962b2d8c62f925fd2",
        "to": "0x1a44076050125825900e736c501f859c50fe728c",
        "gas": "0x3e983",
        "value": "0x0",
        "data": "0x6dbd9f900000000000000000000000005d4d4b620488dc5ceb13a73a6e700925f7682b02000000000000000000000000c02ab410f0734efa3f14628780e6e695156024c2000000000000000000000000000000000000000000000000000000000000006000000000000000000000000000000000000000000000000000000000000000010000000000000000000000000000000000000000000000000000000000000020000000000000000000000000000000000000000000000000000000000000759d0000000000000000000000000000000000000000000000000000000000000002000000000000000000000000000000000000000000000000000000000000006000000000000000000000000000000000000000000000000000000000000001a00000000000000000000000000000000000000000000000000000000000000020000000000000000000000000000000000000000000000000000000000000000f00000000000000000000000000000000000000000000000000000000000000040000000000000000000000000000000000000000000000000000000000000000000000000000000000000000000000000000000000000000000000000000000000000000000000000000000000000000000000000000000000000000000000c000000000000000000000000000000000000000000000000000000000000001600000000000000000000000000000000000000000000000000000000000000004000000000000000000000000589dedbd617e0cbcb916a9223f4d1300c294236b0000000000000000000000007e65bdd15c8db8995f80abf0d6593b57dc8be437000000000000000000000000a59ba433ac34d2927232918ef5b2eaafcf130ba5000000000000000000000000d56e4eab23cb81f43168f9f45211eb027b9ac7cc0000000000000000000000000000000000000000000000000000000000000000",
        "nonce": "0x20",
        "accessList": []
      },
      "additionalContracts": [],
      "isFixedGasLimit": false
    }
  ],
  "receipts": [
    {
      "transactionHash": "0x06f5e40c067214c2ba462d291b4da88d4389b41c565ad142ae48ce9f75f545e7",
      "transactionIndex": "0x12",
      "blockHash": "0x5f9c18aef813d277983073e5caf151240a96d9d35e5607c621f160ac9c170a4d",
      "blockNumber": "0x12b724d",
      "from": "0x8C9C001F821c04513616fd7962B2D8c62f925fD2",
      "to": "0x1a44076050125825900e736c501f859c50fE728c",
      "cumulativeGasUsed": "0x16d883",
      "gasUsed": "0x1039c",
      "contractAddress": null,
      "logs": [
        {
          "address": "0xbB2Ea70C9E858123480642Cf96acbcCE1372dCe1",
          "topics": [
            "0x82118522aa536ac0e96cc5c689407ae42b89d592aa133890a01f1509842f5081"
          ],
          "data": "0x0000000000000000000000005d4d4b620488dc5ceb13a73a6e700925f7682b02000000000000000000000000000000000000000000000000000000000000759d0000000000000000000000000000000000000000000000000000000000000060000000000000000000000000000000000000000000000000000000000000000f00000000000000000000000000000000000000000000000000000000000000040000000000000000000000000000000000000000000000000000000000000000000000000000000000000000000000000000000000000000000000000000000000000000000000000000000000000000000000000000000000000000000000c000000000000000000000000000000000000000000000000000000000000001600000000000000000000000000000000000000000000000000000000000000004000000000000000000000000589dedbd617e0cbcb916a9223f4d1300c294236b0000000000000000000000007e65bdd15c8db8995f80abf0d6593b57dc8be437000000000000000000000000a59ba433ac34d2927232918ef5b2eaafcf130ba5000000000000000000000000d56e4eab23cb81f43168f9f45211eb027b9ac7cc0000000000000000000000000000000000000000000000000000000000000000",
          "blockHash": "0x5f9c18aef813d277983073e5caf151240a96d9d35e5607c621f160ac9c170a4d",
          "blockNumber": "0x12b724d",
          "transactionHash": "0x06f5e40c067214c2ba462d291b4da88d4389b41c565ad142ae48ce9f75f545e7",
          "transactionIndex": "0x12",
          "logIndex": "0x33",
          "removed": false
        }
      ],
      "status": "0x1",
      "logsBloom": "0x00000000000000000000000000000000000000000000000000000000000000000400000000000000000000000000000000000000000000000000000000000000000000000000000000000000000000000000200000000000002000000000000000000000000000000000000000000000000000000000000000000000000000000000000000000000001000000000000000000000000000000000000000000000000000000000000000000002000000000000000000000000000000000000000000000000000000000000000000000000000000000000000000000000000000000000000000000000000000000000000000000000000000000000000000000010",
      "type": "0x2",
      "effectiveGasPrice": "0x58a74a974"
    },
    {
      "transactionHash": "0xa68a3b9b9f0aa244ebd57cdd797a42782f0415551b1b7c0ff4563e8c50a5a4b7",
      "transactionIndex": "0x13",
      "blockHash": "0x5f9c18aef813d277983073e5caf151240a96d9d35e5607c621f160ac9c170a4d",
      "blockNumber": "0x12b724d",
      "from": "0x8C9C001F821c04513616fd7962B2D8c62f925fD2",
      "to": "0x1a44076050125825900e736c501f859c50fE728c",
      "cumulativeGasUsed": "0x19ad97",
      "gasUsed": "0x2d514",
      "contractAddress": null,
      "logs": [
        {
          "address": "0xc02Ab410f0734EFa3F14628780e6e695156024C2",
          "topics": [
            "0x82118522aa536ac0e96cc5c689407ae42b89d592aa133890a01f1509842f5081"
          ],
          "data": "0x0000000000000000000000005d4d4b620488dc5ceb13a73a6e700925f7682b02000000000000000000000000000000000000000000000000000000000000759d0000000000000000000000000000000000000000000000000000000000000060000000000000000000000000000000000000000000000000000000000000000f00000000000000000000000000000000000000000000000000000000000000040000000000000000000000000000000000000000000000000000000000000000000000000000000000000000000000000000000000000000000000000000000000000000000000000000000000000000000000000000000000000000000000c000000000000000000000000000000000000000000000000000000000000001600000000000000000000000000000000000000000000000000000000000000004000000000000000000000000589dedbd617e0cbcb916a9223f4d1300c294236b0000000000000000000000007e65bdd15c8db8995f80abf0d6593b57dc8be437000000000000000000000000a59ba433ac34d2927232918ef5b2eaafcf130ba5000000000000000000000000d56e4eab23cb81f43168f9f45211eb027b9ac7cc0000000000000000000000000000000000000000000000000000000000000000",
          "blockHash": "0x5f9c18aef813d277983073e5caf151240a96d9d35e5607c621f160ac9c170a4d",
          "blockNumber": "0x12b724d",
          "transactionHash": "0xa68a3b9b9f0aa244ebd57cdd797a42782f0415551b1b7c0ff4563e8c50a5a4b7",
          "transactionIndex": "0x13",
          "logIndex": "0x34",
          "removed": false
        }
      ],
      "status": "0x1",
      "logsBloom": "0x00000000000000000000000000000000000000000000000000000000000000000000000000000004000000000000000000000000000000000000000000000000000000000000000000000000000000000000000000000000002000000000000000000000000000000000000000000000000000000000000000000000000000000000000100000000000010000000000000000000000000000000000000000000000000000000000000000002000000000000000000000000000000000000000000000000000000000000000000000000000000000000000000000000000000000000000000000000000000000000000000000000000000000000000000000010",
      "type": "0x2",
      "effectiveGasPrice": "0x58a74a974"
    }
  ],
  "libraries": [],
  "pending": [],
  "returns": {},
  "timestamp": 1712743552,
  "chain": 1,
  "commit": "f9c0721"
}