{
  "transactions": [
    {
      "hash": "0x414aa5cb286a24f6dd245af521098f0592d4058c3f3fccc7d74548adcd002583",
      "transactionType": "CALL",
      "contractName": null,
      "contractAddress": "0x1a44076050125825900e736c501f859c50fE728c",
      "function": "setConfig(address,address,(uint32,uint32,bytes)[])",
      "arguments": [
        "0xCC76Dd68ff8f702D1D0CED0a6F221835C07a10Af",
        "0xbB2Ea70C9E858123480642Cf96acbcCE1372dCe1",
        "[(30109, 2, 0x0000000000000000000000000000000000000000000000000000000000000020000000000000000000000000000000000000000000000000000000000000000f00000000000000000000000000000000000000000000000000000000000000040000000000000000000000000000000000000000000000000000000000000000000000000000000000000000000000000000000000000000000000000000000000000000000000000000000000000000000000000000000000000000000000c000000000000000000000000000000000000000000000000000000000000001600000000000000000000000000000000000000000000000000000000000000004000000000000000000000000589dedbd617e0cbcb916a9223f4d1300c294236b0000000000000000000000007e65bdd15c8db8995f80abf0d6593b57dc8be437000000000000000000000000a59ba433ac34d2927232918ef5b2eaafcf130ba5000000000000000000000000d56e4eab23cb81f43168f9f45211eb027b9ac7cc0000000000000000000000000000000000000000000000000000000000000000)]"
      ],
      "transaction": {
        "type": "0x02",
        "from": "0x8c9c001f821c04513616fd7962b2d8c62f925fd2",
        "to": "0x1a44076050125825900e736c501f859c50fe728c",
        "gas": "0x3eace",
        "value": "0x0",
        "data": "0x6dbd9f90000000000000000000000000cc76dd68ff8f702d1d0ced0a6f221835c07a10af000000000000000000000000bb2ea70c9e858123480642cf96acbcce1372dce1000000000000000000000000000000000000000000000000000000000000006000000000000000000000000000000000000000000000000000000000000000010000000000000000000000000000000000000000000000000000000000000020000000000000000000000000000000000000000000000000000000000000759d0000000000000000000000000000000000000000000000000000000000000002000000000000000000000000000000000000000000000000000000000000006000000000000000000000000000000000000000000000000000000000000001a00000000000000000000000000000000000000000000000000000000000000020000000000000000000000000000000000000000000000000000000000000000f00000000000000000000000000000000000000000000000000000000000000040000000000000000000000000000000000000000000000000000000000000000000000000000000000000000000000000000000000000000000000000000000000000000000000000000000000000000000000000000000000000000000000c000000000000000000000000000000000000000000000000000000000000001600000000000000000000000000000000000000000000000000000000000000004000000000000000000000000589dedbd617e0cbcb916a9223f4d1300c294236b0000000000000000000000007e65bdd15c8db8995f80abf0d6593b57dc8be437000000000000000000000000a59ba433ac34d2927232918ef5b2eaafcf130ba5000000000000000000000000d56e4eab23cb81f43168f9f45211eb027b9ac7cc0000000000000000000000000000000000000000000000000000000000000000",
        "nonce": "0x9",
        "accessList": []
      },
      "additionalContracts": [],
      "isFixedGasLimit": false
    },
    {
      "hash": "0x6cf307bc3915be87a8b43422801be9710b5a15344e0c2d5dd33cebb110b9cd3b",
      "transactionType": "CALL",
      "contractName": null,
      "contractAddress": "0x1a44076050125825900e736c501f859c50fE728c",
      "function": "setConfig(address,address,(uint32,uint32,bytes)[])",
      "arguments": [
        "0xCC76Dd68ff8f702D1D0CED0a6F221835C07a10Af",
        "0xc02Ab410f0734EFa3F14628780e6e695156024C2",
        "[(30109, 2, 0x0000000000000000000000000000000000000000000000000000000000000020000000000000000000000000000000000000000000000000000000000000000f00000000000000000000000000000000000000000000000000000000000000040000000000000000000000000000000000000000000000000000000000000000000000000000000000000000000000000000000000000000000000000000000000000000000000000000000000000000000000000000000000000000000000c000000000000000000000000000000000000000000000000000000000000001600000000000000000000000000000000000000000000000000000000000000004000000000000000000000000589dedbd617e0cbcb916a9223f4d1300c294236b0000000000000000000000007e65bdd15c8db8995f80abf0d6593b57dc8be437000000000000000000000000a59ba433ac34d2927232918ef5b2eaafcf130ba5000000000000000000000000d56e4eab23cb81f43168f9f45211eb027b9ac7cc0000000000000000000000000000000000000000000000000000000000000000)]"
      ],
      "transaction": {
        "type": "0x02",
        "from": "0x8c9c001f821c04513616fd7962b2d8c62f925fd2",
        "to": "0x1a44076050125825900e736c501f859c50fe728c",
        "gas": "0x3e983",
        "value": "0x0",
        "data": "0x6dbd9f90000000000000000000000000cc76dd68ff8f702d1d0ced0a6f221835c07a10af000000000000000000000000c02ab410f0734efa3f14628780e6e695156024c2000000000000000000000000000000000000000000000000000000000000006000000000000000000000000000000000000000000000000000000000000000010000000000000000000000000000000000000000000000000000000000000020000000000000000000000000000000000000000000000000000000000000759d0000000000000000000000000000000000000000000000000000000000000002000000000000000000000000000000000000000000000000000000000000006000000000000000000000000000000000000000000000000000000000000001a00000000000000000000000000000000000000000000000000000000000000020000000000000000000000000000000000000000000000000000000000000000f00000000000000000000000000000000000000000000000000000000000000040000000000000000000000000000000000000000000000000000000000000000000000000000000000000000000000000000000000000000000000000000000000000000000000000000000000000000000000000000000000000000000000c000000000000000000000000000000000000000000000000000000000000001600000000000000000000000000000000000000000000000000000000000000004000000000000000000000000589dedbd617e0cbcb916a9223f4d1300c294236b0000000000000000000000007e65bdd15c8db8995f80abf0d6593b57dc8be437000000000000000000000000a59ba433ac34d2927232918ef5b2eaafcf130ba5000000000000000000000000d56e4eab23cb81f43168f9f45211eb027b9ac7cc0000000000000000000000000000000000000000000000000000000000000000",
        "nonce": "0xa",
        "accessList": []
      },
      "additionalContracts": [],
      "isFixedGasLimit": false
    }
  ],
  "receipts": [
    {
      "transactionHash": "0x414aa5cb286a24f6dd245af521098f0592d4058c3f3fccc7d74548adcd002583",
      "transactionIndex": "0x2b",
      "blockHash": "0x5639eb5ac779a7fb1b8842b14871aaa448db9de2540be751fca190ba3991fa65",
      "blockNumber": "0x12b70a6",
      "from": "0x8C9C001F821c04513616fd7962B2D8c62f925fD2",
      "to": "0x1a44076050125825900e736c501f859c50fE728c",
      "cumulativeGasUsed": "0x3a9600",
      "gasUsed": "0x2d604",
      "contractAddress": null,
      "logs": [
        {
          "address": "0xbB2Ea70C9E858123480642Cf96acbcCE1372dCe1",
          "topics": [
            "0x82118522aa536ac0e96cc5c689407ae42b89d592aa133890a01f1509842f5081"
          ],
          "data": "0x000000000000000000000000cc76dd68ff8f702d1d0ced0a6f221835c07a10af000000000000000000000000000000000000000000000000000000000000759d0000000000000000000000000000000000000000000000000000000000000060000000000000000000000000000000000000000000000000000000000000000f00000000000000000000000000000000000000000000000000000000000000040000000000000000000000000000000000000000000000000000000000000000000000000000000000000000000000000000000000000000000000000000000000000000000000000000000000000000000000000000000000000000000000c000000000000000000000000000000000000000000000000000000000000001600000000000000000000000000000000000000000000000000000000000000004000000000000000000000000589dedbd617e0cbcb916a9223f4d1300c294236b0000000000000000000000007e65bdd15c8db8995f80abf0d6593b57dc8be437000000000000000000000000a59ba433ac34d2927232918ef5b2eaafcf130ba5000000000000000000000000d56e4eab23cb81f43168f9f45211eb027b9ac7cc0000000000000000000000000000000000000000000000000000000000000000",
          "blockHash": "0x5639eb5ac779a7fb1b8842b14871aaa448db9de2540be751fca190ba3991fa65",
          "blockNumber": "0x12b70a6",
          "transactionHash": "0x414aa5cb286a24f6dd245af521098f0592d4058c3f3fccc7d74548adcd002583",
          "transactionIndex": "0x2b",
          "logIndex": "0x68",
          "removed": false
        }
      ],
      "status": "0x1",
      "logsBloom": "0x00000000000000000000000000000000000000000000000000000000000000000400000000000000000000000000000000000000000000000000000000000000000000000000000000000000000000000000200000000000002000000000000000000000000000000000000000000000000000000000000000000000000000000000000000000000001000000000000000000000000000000000000000000000000000000000000000000002000000000000000000000000000000000000000000000000000000000000000000000000000000000000000000000000000000000000000000000000000000000000000000000000000000000000000000000010",
      "type": "0x2",
      "effectiveGasPrice": "0x363de3bfe"
    },
    {
      "transactionHash": "0x6cf307bc3915be87a8b43422801be9710b5a15344e0c2d5dd33cebb110b9cd3b",
      "transactionIndex": "0x2c",
      "blockHash": "0x5639eb5ac779a7fb1b8842b14871aaa448db9de2540be751fca190ba3991fa65",
      "blockNumber": "0x12b70a6",
      "from": "0x8C9C001F821c04513616fd7962B2D8c62f925fD2",
      "to": "0x1a44076050125825900e736c501f859c50fE728c",
      "cumulativeGasUsed": "0x3d6b14",
      "gasUsed": "0x2d514",
      "contractAddress": null,
      "logs": [
        {
          "address": "0xc02Ab410f0734EFa3F14628780e6e695156024C2",
          "topics": [
            "0x82118522aa536ac0e96cc5c689407ae42b89d592aa133890a01f1509842f5081"
          ],
          "data": "0x000000000000000000000000cc76dd68ff8f702d1d0ced0a6f221835c07a10af000000000000000000000000000000000000000000000000000000000000759d0000000000000000000000000000000000000000000000000000000000000060000000000000000000000000000000000000000000000000000000000000000f00000000000000000000000000000000000000000000000000000000000000040000000000000000000000000000000000000000000000000000000000000000000000000000000000000000000000000000000000000000000000000000000000000000000000000000000000000000000000000000000000000000000000c000000000000000000000000000000000000000000000000000000000000001600000000000000000000000000000000000000000000000000000000000000004000000000000000000000000589dedbd617e0cbcb916a9223f4d1300c294236b0000000000000000000000007e65bdd15c8db8995f80abf0d6593b57dc8be437000000000000000000000000a59ba433ac34d2927232918ef5b2eaafcf130ba5000000000000000000000000d56e4eab23cb81f43168f9f45211eb027b9ac7cc0000000000000000000000000000000000000000000000000000000000000000",
          "blockHash": "0x5639eb5ac779a7fb1b8842b14871aaa448db9de2540be751fca190ba3991fa65",
          "blockNumber": "0x12b70a6",
          "transactionHash": "0x6cf307bc3915be87a8b43422801be9710b5a15344e0c2d5dd33cebb110b9cd3b",
          "transactionIndex": "0x2c",
          "logIndex": "0x69",
          "removed": false
        }
      ],
      "status": "0x1",
      "logsBloom": "0x00000000000000000000000000000000000000000000000000000000000000000000000000000004000000000000000000000000000000000000000000000000000000000000000000000000000000000000000000000000002000000000000000000000000000000000000000000000000000000000000000000000000000000000000100000000000010000000000000000000000000000000000000000000000000000000000000000002000000000000000000000000000000000000000000000000000000000000000000000000000000000000000000000000000000000000000000000000000000000000000000000000000000000000000000000010",
      "type": "0x2",
      "effectiveGasPrice": "0x363de3bfe"
    }
  ],
  "libraries": [],
  "pending": [],
  "returns": {},
  "timestamp": 1712738474,
  "chain": 1,
  "commit": "f9c0721"
}