{
  "transactions": [
    {
      "hash": "0xe972c5ae002ece8d6ac8c2622d0f561edae6d2e0722fe89fbc7844975121566f",
      "transactionType": "CALL",
      "contractName": "MocaToken",
      "contractAddress": "0xE8d8fC1eB5BAbDE5FccFD5EFB788f075738E1044",
      "function": "approve(address,uint256)",
      "arguments": [
        "0x23E086A3AD04E8dAb40c263FE18Fa1f32ED28FB7",
        "10000000000000000000"
      ],
      "transaction": {
        "type": "0x02",
        "from": "0x8c9c001f821c04513616fd7962b2d8c62f925fd2",
        "to": "0xe8d8fc1eb5babde5fccfd5efb788f075738e1044",
        "gas": "0x9e0d",
        "value": "0x0",
        "data": "0x095ea7b300000000000000000000000023e086a3ad04e8dab40c263fe18fa1f32ed28fb70000000000000000000000000000000000000000000000008ac7230489e80000",
        "nonce": "0x28",
        "accessList": []
      },
      "additionalContracts": [],
      "isFixedGasLimit": false
    },
    {
      "hash": null,
      "transactionType": "CALL",
      "contractName": "MocaTokenAdapter",
      "contractAddress": "0x23E086A3AD04E8dAb40c263FE18Fa1f32ED28FB7",
      "function": "send((uint32,bytes32,uint256,uint256,bytes,bytes,bytes),(uint256,uint256),address)",
      "arguments": [
        "(30109, 0x0000000000000000000000008c9c001f821c04513616fd7962b2d8c62f925fd2, 1000000000000000000, 1000000000000000000, 0x, 0x, 0x)",
        "(123744137102061, 0)",
        "0x8C9C001F821c04513616fd7962B2D8c62f925fD2"
      ],
      "transaction": {
        "type": "0x02",
        "from": "0x8c9c001f821c04513616fd7962b2d8c62f925fd2",
        "to": "0x23e086a3ad04e8dab40c263fe18fa1f32ed28fb7",
        "gas": "0x78758",
        "value": "0x708b6d55c2ed",
        "data": "0xc7c7f5b300000000000000000000000000000000000000000000000000000000000000800000000000000000000000000000000000000000000000000000708b6d55c2ed00000000000000000000000000000000000000000000000000000000000000000000000000000000000000008c9c001f821c04513616fd7962b2d8c62f925fd2000000000000000000000000000000000000000000000000000000000000759d0000000000000000000000008c9c001f821c04513616fd7962b2d8c62f925fd20000000000000000000000000000000000000000000000000de0b6b3a76400000000000000000000000000000000000000000000000000000de0b6b3a764000000000000000000000000000000000000000000000000000000000000000000e000000000000000000000000000000000000000000000000000000000000001000000000000000000000000000000000000000000000000000000000000000120000000000000000000000000000000000000000000000000000000000000000000000000000000000000000000000000000000000000000000000000000000000000000000000000000000000000000000000000000000000000000000000000",
        "nonce": "0x29",
        "accessList": []
      },
      "additionalContracts": [],
      "isFixedGasLimit": false
    }
  ],
  "receipts": [],
  "libraries": [],
  "pending": [
    "0xe972c5ae002ece8d6ac8c2622d0f561edae6d2e0722fe89fbc7844975121566f"
  ],
  "returns": {},
  "timestamp": 1712865687,
  "chain": 1,
  "commit": "f9c0721"
}