{
  "transactions": [
    {
      "hash": "0x44dfacb9e1fa458dcf6848297397b7e909eb8d5dca9d92bab05c2ca9878044d3",
      "transactionType": "CALL",
      "contractName": "MocaTokenAdapter",
      "contractAddress": "0x5D4D4b620488DC5CeB13a73a6e700925F7682b02",
      "function": "send((uint32,bytes32,uint256,uint256,bytes,bytes,bytes),(uint256,uint256),address)",
      "arguments": [
        "(30109, 0x0000000000000000000000008c9c001f821c04513616fd7962b2d8c62f925fd2, 1000000000000000000, 1000000000000000000, 0x, 0x, 0x)",
        "(127858616789710, 0)",
        "0x8C9C001F821c04513616fd7962B2D8c62f925fD2"
      ],
      "transaction": {
        "type": "0x02",
        "from": "0x8c9c001f821c04513616fd7962b2d8c62f925fd2",
        "to": "0x5d4d4b620488dc5ceb13a73a6e700925f7682b02",
        "gas": "0x5f571",
        "value": "0x7449676f6ace",
        "data": "0xc7c7f5b3000000000000000000000000000000000000000000000000000000000000008000000000000000000000000000000000000000000000000000007449676f6ace00000000000000000000000000000000000000000000000000000000000000000000000000000000000000008c9c001f821c04513616fd7962b2d8c62f925fd2000000000000000000000000000000000000000000000000000000000000759d0000000000000000000000008c9c001f821c04513616fd7962b2d8c62f925fd20000000000000000000000000000000000000000000000000de0b6b3a76400000000000000000000000000000000000000000000000000000de0b6b3a764000000000000000000000000000000000000000000000000000000000000000000e000000000000000000000000000000000000000000000000000000000000001000000000000000000000000000000000000000000000000000000000000000120000000000000000000000000000000000000000000000000000000000000000000000000000000000000000000000000000000000000000000000000000000000000000000000000000000000000000000000000000000000000000000000000",
        "nonce": "0x17",
        "accessList": []
      },
      "additionalContracts": [],
      "isFixedGasLimit": false
    }
  ],
  "receipts": [
    {
      "transactionHash": "0x44dfacb9e1fa458dcf6848297397b7e909eb8d5dca9d92bab05c2ca9878044d3",
      "transactionIndex": "0x7",
      "blockHash": "0xbf9e288691bcb3a9a2e2845f7cfc558a2ed2a597641c9f545b5ef22b87eb5b35",
      "blockNumber": "0x12b7152",
      "from": "0x8C9C001F821c04513616fd7962B2D8c62f925fD2",
      "to": "0x5D4D4b620488DC5CeB13a73a6e700925F7682b02",
      "cumulativeGasUsed": "0x261aca",
      "gasUsed": "0x45065",
      "contractAddress": null,
      "logs": [
        {
          "address": "0xd5AD232332d02C149A7158C643D1c7BD204bDaB1",
          "topics": [
            "0xddf252ad1be2c89b69c2b068fc378daa952ba7f163c4a11628f55a4df523b3ef",
            "0x0000000000000000000000008c9c001f821c04513616fd7962b2d8c62f925fd2",
            "0x0000000000000000000000005d4d4b620488dc5ceb13a73a6e700925f7682b02"
          ],
          "data": "0x0000000000000000000000000000000000000000000000000de0b6b3a7640000",
          "blockHash": "0xbf9e288691bcb3a9a2e2845f7cfc558a2ed2a597641c9f545b5ef22b87eb5b35",
          "blockNumber": "0x12b7152",
          "transactionHash": "0x44dfacb9e1fa458dcf6848297397b7e909eb8d5dca9d92bab05c2ca9878044d3",
          "transactionIndex": "0x7",
          "logIndex": "0x55",
          "removed": false
        },
        {
          "address": "0xbB2Ea70C9E858123480642Cf96acbcCE1372dCe1",
          "topics": [
            "0x61ed099e74a97a1d7f8bb0952a88ca8b7b8ebd00c126ea04671f92a81213318a"
          ],
          "data": "0x000000000000000000000000173272739bd7aa6e4e214714048a9fe69945305900000000000000000000000000000000000000000000000000006c0180b37c62",
          "blockHash": "0xbf9e288691bcb3a9a2e2845f7cfc558a2ed2a597641c9f545b5ef22b87eb5b35",
          "blockNumber": "0x12b7152",
          "transactionHash": "0x44dfacb9e1fa458dcf6848297397b7e909eb8d5dca9d92bab05c2ca9878044d3",
          "transactionIndex": "0x7",
          "logIndex": "0x56",
          "removed": false
        },
        {
          "address": "0xbB2Ea70C9E858123480642Cf96acbcCE1372dCe1",
          "topics": [
            "0x07ea52d82345d6e838192107d8fd7123d9c2ec8e916cd0aad13fd2b60db24644"
          ],
          "data": "0x000000000000000000000000000000000000000000000000000000000000006000000000000000000000000000000000000000000000000000000000000000c000000000000000000000000000000000000000000000000000000000000000e00000000000000000000000000000000000000000000000000000000000000002000000000000000000000000589dedbd617e0cbcb916a9223f4d1300c294236b000000000000000000000000d56e4eab23cb81f43168f9f45211eb027b9ac7cc0000000000000000000000000000000000000000000000000000000000000000000000000000000000000000000000000000000000000000000000000000000200000000000000000000000000000000000000000000000000000423f35df73600000000000000000000000000000000000000000000000000000423f35df736",
          "blockHash": "0xbf9e288691bcb3a9a2e2845f7cfc558a2ed2a597641c9f545b5ef22b87eb5b35",
          "blockNumber": "0x12b7152",
          "transactionHash": "0x44dfacb9e1fa458dcf6848297397b7e909eb8d5dca9d92bab05c2ca9878044d3",
          "transactionIndex": "0x7",
          "logIndex": "0x57",
          "removed": false
        },
        {
          "address": "0x1a44076050125825900e736c501f859c50fE728c",
          "topics": [
            "0x1ab700d4ced0c005b164c0f789fd09fcbb0156d4c2041b8a3bfbcd961cd1567f"
          ],
          "data": "0x00000000000000000000000000000000000000000000000000000000000000600000000000000000000000000000000000000000000000000000000000000120000000000000000000000000bb2ea70c9e858123480642cf96acbcce1372dce10000000000000000000000000000000000000000000000000000000000000099010000000000000002000075950000000000000000000000005d4d4b620488dc5ceb13a73a6e700925f7682b020000759d0000000000000000000000003fd66aa42c3e68a1a72afd9bc72e2ad4f806e20dbee3a5e971ecba5520e8cd1c3407245aa57af2d897f7a776d57724c7f22493c40000000000000000000000008c9c001f821c04513616fd7962b2d8c62f925fd200000000000f424000000000000000000000000000000000000000000000000000000000000000000000000000001600030100110100000000000000000000000000030d4000000000000000000000",
          "blockHash": "0xbf9e288691bcb3a9a2e2845f7cfc558a2ed2a597641c9f545b5ef22b87eb5b35",
          "blockNumber": "0x12b7152",
          "transactionHash": "0x44dfacb9e1fa458dcf6848297397b7e909eb8d5dca9d92bab05c2ca9878044d3",
          "transactionIndex": "0x7",
          "logIndex": "0x58",
          "removed": false
        },
        {
          "address": "0x5D4D4b620488DC5CeB13a73a6e700925F7682b02",
          "topics": [
            "0xfff873bb909b73d08a8c1af4b21779e87103bb8ea8cf3b3a0067eb8526b8b80a",
            "0xbee3a5e971ecba5520e8cd1c3407245aa57af2d897f7a776d57724c7f22493c4",
            "0x0000000000000000000000008c9c001f821c04513616fd7962b2d8c62f925fd2"
          ],
          "data": "0x000000000000000000000000000000000000000000000000000000000000759d0000000000000000000000000000000000000000000000000de0b6b3a7640000",
          "blockHash": "0xbf9e288691bcb3a9a2e2845f7cfc558a2ed2a597641c9f545b5ef22b87eb5b35",
          "blockNumber": "0x12b7152",
          "transactionHash": "0x44dfacb9e1fa458dcf6848297397b7e909eb8d5dca9d92bab05c2ca9878044d3",
          "transactionIndex": "0x7",
          "logIndex": "0x59",
          "removed": false
        }
      ],
      "status": "0x1",
      "logsBloom": "0x000000000000000000000004000008000000000000000000300000000010000004000000000000000000000000800000000000000000000002000000000000000000000000000000000000080040000000002000004020000000000000000000002000000000000080000000000004000000000000120000000000100000000000000000000000000010080800000000000000000000000000000000000000000000000080000000001000202000000000000000004000000004c0000000000000000002000000000000000000000000000000000000000000000000000000000000040400000000000000000000002000000000010000000008000000000000",
      "type": "0x2",
      "effectiveGasPrice": "0x3ffa5dfab"
    }
  ],
  "libraries": [],
  "pending": [],
  "returns": {},
  "timestamp": 1712740538,
  "chain": 1,
  "commit": "f9c0721"
}