{
  "transactions": [
    {
      "hash": "0x66bd862806d1342f83d33eee4952bf64b880f2b24a3e4b21d5d924b87d2c85b2",
      "transactionType": "CALL",
      "contractName": "MocaTokenAdapter",
      "contractAddress": "0x2B11834Ed1FeAEd4b4b3a86A6F571315E25A884D",
      "function": "setPeer(uint32,bytes32)",
      "arguments": [
        "30109",
        "0x000000000000000000000000f944e35f95e819e752f3ccb5faf40957d311e8c5"
      ],
      "transaction": {
        "type": "0x02",
        "from": "0x84db3d1de9a43aa144c21b248ad31a1c83d8334d",
        "to": "0x2b11834ed1feaed4b4b3a86a6f571315e25a884d",
        "gas": "0x1016a",
        "value": "0x0",
        "data": "0x3400288b000000000000000000000000000000000000000000000000000000000000759d000000000000000000000000f944e35f95e819e752f3ccb5faf40957d311e8c5",
        "nonce": "0x2",
        "accessList": []
      },
      "additionalContracts": [],
      "isFixedGasLimit": false
    }
  ],
  "receipts": [
    {
      "transactionHash": "0x66bd862806d1342f83d33eee4952bf64b880f2b24a3e4b21d5d924b87d2c85b2",
      "transactionIndex": "0x1b",
      "blockHash": "0xc969017d17defa6b56943c0aab67b3237b7fb1374d6d48e69d32a35b97e735de",
      "blockNumber": "0x12d0ea0",
      "from": "0x84Db3d1de9a43Aa144C21b248AD31a1c83d8334D",
      "to": "0x2B11834Ed1FeAEd4b4b3a86A6F571315E25A884D",
      "cumulativeGasUsed": "0x32b1a0",
      "gasUsed": "0xba5e",
      "contractAddress": null,
      "logs": [
        {
          "address": "0x2B11834Ed1FeAEd4b4b3a86A6F571315E25A884D",
          "topics": [
            "0x238399d427b947898edb290f5ff0f9109849b1c3ba196a42e35f00c50a54b98b"
          ],
          "data": "0x000000000000000000000000000000000000000000000000000000000000759d000000000000000000000000f944e35f95e819e752f3ccb5faf40957d311e8c5",
          "blockHash": "0xc969017d17defa6b56943c0aab67b3237b7fb1374d6d48e69d32a35b97e735de",
          "blockNumber": "0x12d0ea0",
          "transactionHash": "0x66bd862806d1342f83d33eee4952bf64b880f2b24a3e4b21d5d924b87d2c85b2",
          "transactionIndex": "0x1b",
          "logIndex": "0x5e",
          "removed": false
        }
      ],
      "status": "0x1",
      "logsBloom": "0x00000000000000000000000000000000000000000000000000000000000000000000000000000000000000000000080000000000002000000800000000000000000000000000000000000000000000000000000000000000000000000000000000000000000000000000000000000000000000000000000000000000000000000000000000000000000000000000000000000000000000000000000000000000000000000000000000000000020000000000000000000000000002000000000000000000000000000000000000000000000000000000000000040000000000000000000000000000000000000000000000000000000000000000000000000000",
      "type": "0x2",
      "effectiveGasPrice": "0x235298ee7"
    }
  ],
  "libraries": [],
  "pending": [],
  "returns": {},
  "timestamp": 1714020327,
  "chain": 1,
  "commit": "f9c0721"
}