{
  "transactions": [
    {
      "hash": "0xcbae07571478ab395f20f84e0c9ed71ea819480ab187aa7d6049bbd72144eb67",
      "transactionType": "CALL",
      "contractName": "MocaTokenAdapter",
      "contractAddress": "0xF49880d03567302Cb20B4A668bD69321B0b1bF59",
      "function": "setPeer(uint32,bytes32)",
      "arguments": [
        "40109",
        "0x000000000000000000000000dfbfee56ab39e39fb7f0efee329e96c57b39ba44"
      ],
      "transaction": {
        "type": "0x02",
        "from": "0xde05a1abb121113a33eed248bd91ddc254d5e9db",
        "to": "0xf49880d03567302cb20b4a668bd69321b0b1bf59",
        "gas": "0x9edf",
        "value": "0x0",
        "data": "0x3400288b0000000000000000000000000000000000000000000000000000000000009cad000000000000000000000000dfbfee56ab39e39fb7f0efee329e96c57b39ba44",
        "nonce": "0x161",
        "accessList": []
      },
      "additionalContracts": [],
      "isFixedGasLimit": false
    }
  ],
  "receipts": [
    {
      "transactionHash": "0xcbae07571478ab395f20f84e0c9ed71ea819480ab187aa7d6049bbd72144eb67",
      "transactionIndex": "0x8",
      "blockHash": "0xbbfe5050776971f6d3aba1e8ca77b32207b121b1928c39f98ffc9b89c7cc07d1",
      "blockNumber": "0x56463c",
      "from": "0xdE05a1Abb121113a33eeD248BD91ddC254d5E9Db",
      "to": "0xF49880d03567302Cb20B4A668bD69321B0b1bF59",
      "cumulativeGasUsed": "0x4c431",
      "gasUsed": "0x6ca2",
      "contractAddress": null,
      "logs": [
        {
          "address": "0xF49880d03567302Cb20B4A668bD69321B0b1bF59",
          "topics": [
            "0x238399d427b947898edb290f5ff0f9109849b1c3ba196a42e35f00c50a54b98b"
          ],
          "data": "0x0000000000000000000000000000000000000000000000000000000000009cad000000000000000000000000dfbfee56ab39e39fb7f0efee329e96c57b39ba44",
          "blockHash": "0xbbfe5050776971f6d3aba1e8ca77b32207b121b1928c39f98ffc9b89c7cc07d1",
          "blockNumber": "0x56463c",
          "transactionHash": "0xcbae07571478ab395f20f84e0c9ed71ea819480ab187aa7d6049bbd72144eb67",
          "transactionIndex": "0x8",
          "logIndex": "0x6",
          "removed": false
        }
      ],
      "status": "0x1",
      "logsBloom": "0x00000000000000000000000000000000000000000000000000000000800080000000000000000000000000000000000000000000000000000800000000000000000000000000000000000000000000000000000000000000000000000000000000000000000000000000000000000000000000000000000000000000000000000000000000000000000000000000000000000000000000000000000000000000000000000000000000000000000000000000000000000001000002000000000000000000000000000000000000000000000000000000000000040000000000000000000000000000000000000000000000000000000000000000000000000000",
      "type": "0x2",
      "effectiveGasPrice": "0xb31203ef"
    }
  ],
  "libraries": [],
  "pending": [],
  "returns": {},
  "timestamp": 1712577257,
  "chain": 11155111,
  "commit": "93605f9"
}