{
  "transactions": [
    {
      "hash": "0xe85cbb35f6d4daa60a8b988fa0bd5c86aa3ebd213162edbb2bf683e2f6998414",
      "transactionType": "CALL",
      "contractName": "MocaToken",
      "contractAddress": "0x7C5FCc377D2116a8eA94Ea527774a324E73D185B",
      "function": "approve(address,uint256)",
      "arguments": [
        "0x73ff46a2F756276269B2a2630C6288623d9c1bc9",
        "1000000000000000000"
      ],
      "transaction": {
        "type": "0x02",
        "from": "0xde05a1abb121113a33eed248bd91ddc254d5e9db",
        "to": "0x7c5fcc377d2116a8ea94ea527774a324e73d185b",
        "gas": "0x1090a",
        "value": "0x0",
        "data": "0x095ea7b300000000000000000000000073ff46a2f756276269b2a2630c6288623d9c1bc90000000000000000000000000000000000000000000000000de0b6b3a7640000",
        "nonce": "0x183",
        "accessList": []
      },
      "additionalContracts": [],
      "isFixedGasLimit": false
    },
    {
      "hash": "0xb22081da9d00df2b6354330bea482af9d8cc5c7cb1a7cc11e8563f01dfb5e2a8",
      "transactionType": "CALL",
      "contractName": "MocaTokenAdapter",
      "contractAddress": "0x73ff46a2F756276269B2a2630C6288623d9c1bc9",
      "function": "send((uint32,bytes32,uint256,uint256,bytes,bytes,bytes),(uint256,uint256),address)",
      "arguments": [
        "(40109, 0x000000000000000000000000de05a1abb121113a33eed248bd91ddc254d5e9db, 1000000000000000000, 1000000000000000000, 0x, 0x, 0x)",
        "(59506798384832, 0)",
        "0xdE05a1Abb121113a33eeD248BD91ddC254d5E9Db"
      ],
      "transaction": {
        "type": "0x02",
        "from": "0xde05a1abb121113a33eed248bd91ddc254d5e9db",
        "to": "0x73ff46a2f756276269b2a2630c6288623d9c1bc9",
        "gas": "0x686a5",
        "value": "0x361f019456c0",
        "data": "0xc7c7f5b300000000000000000000000000000000000000000000000000000000000000800000000000000000000000000000000000000000000000000000361f019456c00000000000000000000000000000000000000000000000000000000000000000000000000000000000000000de05a1abb121113a33eed248bd91ddc254d5e9db0000000000000000000000000000000000000000000000000000000000009cad000000000000000000000000de05a1abb121113a33eed248bd91ddc254d5e9db0000000000000000000000000000000000000000000000000de0b6b3a76400000000000000000000000000000000000000000000000000000de0b6b3a764000000000000000000000000000000000000000000000000000000000000000000e000000000000000000000000000000000000000000000000000000000000001000000000000000000000000000000000000000000000000000000000000000120000000000000000000000000000000000000000000000000000000000000000000000000000000000000000000000000000000000000000000000000000000000000000000000000000000000000000000000000000000000000000000000000",
        "nonce": "0x184",
        "accessList": []
      },
      "additionalContracts": [],
      "isFixedGasLimit": false
    }
  ],
  "receipts": [
    {
      "transactionHash": "0xe85cbb35f6d4daa60a8b988fa0bd5c86aa3ebd213162edbb2bf683e2f6998414",
      "transactionIndex": "0x3",
      "blockHash": "0xcf4e65ce38c734b0fb02f2a9ca4bf92c23b668eba92fdb607db273812c336acf",
      "blockNumber": "0x567a73",
      "from": "0xdE05a1Abb121113a33eeD248BD91ddC254d5E9Db",
      "to": "0x7C5FCc377D2116a8eA94Ea527774a324E73D185B",
      "cumulativeGasUsed": "0x1de7b",
      "gasUsed": "0xb53a",
      "contractAddress": null,
      "logs": [
        {
          "address": "0x7C5FCc377D2116a8eA94Ea527774a324E73D185B",
          "topics": [
            "0x8c5be1e5ebec7d5bd14f71427d1e84f3dd0314c0f7b2291e5b200ac8c7c3b925",
            "0x000000000000000000000000de05a1abb121113a33eed248bd91ddc254d5e9db",
            "0x00000000000000000000000073ff46a2f756276269b2a2630c6288623d9c1bc9"
          ],
          "data": "0x0000000000000000000000000000000000000000000000000de0b6b3a7640000",
          "blockHash": "0xcf4e65ce38c734b0fb02f2a9ca4bf92c23b668eba92fdb607db273812c336acf",
          "blockNumber": "0x567a73",
          "transactionHash": "0xe85cbb35f6d4daa60a8b988fa0bd5c86aa3ebd213162edbb2bf683e2f6998414",
          "transactionIndex": "0x3",
          "logIndex": "0x1",
          "removed": false
        }
      ],
      "status": "0x1",
      "logsBloom": "0x00000000000000000000000000000000000000000000000000100000000000000000000000000000000000000000040000000000000000000000000000200000000000000000000000000000000000000000000000000000000000000000000000000000000000000000000000000000000000000000004000000000000000000000000000000020000000000000000000000000000000000000000000000000020000000000000000000000000000000000000000000000000000000000004000000000000000000000000000004000000000000000000000000000000000000010100000000000000000000000008000000000000000000000000000000080",
      "type": "0x2",
      "effectiveGasPrice": "0xb2f49b0a"
    },
    {
      "transactionHash": "0xb22081da9d00df2b6354330bea482af9d8cc5c7cb1a7cc11e8563f01dfb5e2a8",
      "transactionIndex": "0x4",
      "blockHash": "0xcf4e65ce38c734b0fb02f2a9ca4bf92c23b668eba92fdb607db273812c336acf",
      "blockNumber": "0x567a73",
      "from": "0xdE05a1Abb121113a33eeD248BD91ddC254d5E9Db",
      "to": "0x73ff46a2F756276269B2a2630C6288623d9c1bc9",
      "cumulativeGasUsed": "0x69800",
      "gasUsed": "0x4b985",
      "contractAddress": null,
      "logs": [
        {
          "address": "0x7C5FCc377D2116a8eA94Ea527774a324E73D185B",
          "topics": [
            "0xddf252ad1be2c89b69c2b068fc378daa952ba7f163c4a11628f55a4df523b3ef",
            "0x000000000000000000000000de05a1abb121113a33eed248bd91ddc254d5e9db",
            "0x00000000000000000000000073ff46a2f756276269b2a2630c6288623d9c1bc9"
          ],
          "data": "0x0000000000000000000000000000000000000000000000000de0b6b3a7640000",
          "blockHash": "0xcf4e65ce38c734b0fb02f2a9ca4bf92c23b668eba92fdb607db273812c336acf",
          "blockNumber": "0x567a73",
          "transactionHash": "0xb22081da9d00df2b6354330bea482af9d8cc5c7cb1a7cc11e8563f01dfb5e2a8",
          "transactionIndex": "0x4",
          "logIndex": "0x2",
          "removed": false
        },
        {
          "address": "0xcc1ae8Cf5D3904Cef3360A9532B477529b177cCE",
          "topics": [
            "0x61ed099e74a97a1d7f8bb0952a88ca8b7b8ebd00c126ea04671f92a81213318a"
          ],
          "data": "0x000000000000000000000000718b92b5cb0a5552039b593faf724d182a881eda00000000000000000000000000000000000000000000000000003345839359e7",
          "blockHash": "0xcf4e65ce38c734b0fb02f2a9ca4bf92c23b668eba92fdb607db273812c336acf",
          "blockNumber": "0x567a73",
          "transactionHash": "0xb22081da9d00df2b6354330bea482af9d8cc5c7cb1a7cc11e8563f01dfb5e2a8",
          "transactionIndex": "0x4",
          "logIndex": "0x3",
          "removed": false
        },
        {
          "address": "0xcc1ae8Cf5D3904Cef3360A9532B477529b177cCE",
          "topics": [
            "0x07ea52d82345d6e838192107d8fd7123d9c2ec8e916cd0aad13fd2b60db24644"
          ],
          "data": "0x000000000000000000000000000000000000000000000000000000000000006000000000000000000000000000000000000000000000000000000000000000a000000000000000000000000000000000000000000000000000000000000000c000000000000000000000000000000000000000000000000000000000000000010000000000000000000000008eebf8b423b73bfca51a1db4b7354aa0bfca919300000000000000000000000000000000000000000000000000000000000000000000000000000000000000000000000000000000000000000000000000000001000000000000000000000000000000000000000000000000000002d97e00fcd9",
          "blockHash": "0xcf4e65ce38c734b0fb02f2a9ca4bf92c23b668eba92fdb607db273812c336acf",
          "blockNumber": "0x567a73",
          "transactionHash": "0xb22081da9d00df2b6354330bea482af9d8cc5c7cb1a7cc11e8563f01dfb5e2a8",
          "transactionIndex": "0x4",
          "logIndex": "0x4",
          "removed": false
        },
        {
          "address": "0x6EDCE65403992e310A62460808c4b910D972f10f",
          "topics": [
            "0x1ab700d4ced0c005b164c0f789fd09fcbb0156d4c2041b8a3bfbcd961cd1567f"
          ],
          "data": "0x00000000000000000000000000000000000000000000000000000000000000600000000000000000000000000000000000000000000000000000000000000120000000000000000000000000cc1ae8cf5d3904cef3360a9532b477529b177cce000000000000000000000000000000000000000000000000000000000000009901000000000000000100009ce100000000000000000000000073ff46a2f756276269b2a2630c6288623d9c1bc900009cad00000000000000000000000045e8c7b75ba86a27562ee3760011c4adc36c076b2b9f0482f8fa6979a08ac41298e7f207d614a46795aa46382b2b7bcc5a7c40aa000000000000000000000000de05a1abb121113a33eed248bd91ddc254d5e9db00000000000f424000000000000000000000000000000000000000000000000000000000000000000000000000001600030100110100000000000000000000000000030d4000000000000000000000",
          "blockHash": "0xcf4e65ce38c734b0fb02f2a9ca4bf92c23b668eba92fdb607db273812c336acf",
          "blockNumber": "0x567a73",
          "transactionHash": "0xb22081da9d00df2b6354330bea482af9d8cc5c7cb1a7cc11e8563f01dfb5e2a8",
          "transactionIndex": "0x4",
          "logIndex": "0x5",
          "removed": false
        },
        {
          "address": "0x73ff46a2F756276269B2a2630C6288623d9c1bc9",
          "topics": [
            "0xfff873bb909b73d08a8c1af4b21779e87103bb8ea8cf3b3a0067eb8526b8b80a",
            "0x2b9f0482f8fa6979a08ac41298e7f207d614a46795aa46382b2b7bcc5a7c40aa",
            "0x000000000000000000000000de05a1abb121113a33eed248bd91ddc254d5e9db"
          ],
          "data": "0x0000000000000000000000000000000000000000000000000000000000009cad0000000000000000000000000000000000000000000000000de0b6b3a7640000",
          "blockHash": "0xcf4e65ce38c734b0fb02f2a9ca4bf92c23b668eba92fdb607db273812c336acf",
          "blockNumber": "0x567a73",
          "transactionHash": "0xb22081da9d00df2b6354330bea482af9d8cc5c7cb1a7cc11e8563f01dfb5e2a8",
          "transactionIndex": "0x4",
          "logIndex": "0x6",
          "removed": false
        }
      ],
      "status": "0x1",
      "logsBloom": "0x0000001000000000000000002000000000000000000000003010000000010000000000000000000020000400008004000000000000000000000000000000000000000008000000000000000800000000000000000000000000000000000000000000000000000000820000000000000000000000000000400000001000000000000000000000002000000008000000000000000000000000000000000000000000000000800000000010000000000000000000000040000000044000000000400000200200000000000000000000400000000008000000000000000000000000000014000000000000000800000000a0000000000000000000000000000000a0",
      "type": "0x2",
      "effectiveGasPrice": "0xb2f49b0a"
    }
  ],
  "libraries": [],
  "pending": [],
  "returns": {},
  "timestamp": 1712744544,
  "chain": 11155111,
  "commit": "f9c0721"
}