{
  "transactions": [
    {
      "hash": "0xf02ae8c797ae0dba5b9e6926f17e36f9be6f5460246d16557bdffe6f4a692fd0",
      "transactionType": "CALL",
      "contractName": "MocaTokenAdapter",
      "contractAddress": "0xF49880d03567302Cb20B4A668bD69321B0b1bF59",
      "function": "setPeer(uint32,bytes32)",
      "arguments": [
        "40109",
        "0x000000000000000000000000dfbfee56ab39e39fb7f0efee329e96c57b39ba44"
      ],
      "transaction": {
        "type": "0x02",
        "from": "0xde05a1abb121113a33eed248bd91ddc254d5e9db",
        "to": "0xf49880d03567302cb20b4a668bd69321b0b1bf59",
        "gas": "0x9edf",
        "value": "0x0",
        "data": "0x3400288b0000000000000000000000000000000000000000000000000000000000009cad000000000000000000000000dfbfee56ab39e39fb7f0efee329e96c57b39ba44",
        "nonce": "0x164",
        "accessList": []
      },
      "additionalContracts": [],
      "isFixedGasLimit": false
    }
  ],
  "receipts": [
    {
      "transactionHash": "0xf02ae8c797ae0dba5b9e6926f17e36f9be6f5460246d16557bdffe6f4a692fd0",
      "transactionIndex": "0x2",
      "blockHash": "0xb05d15c12c7ca61b70a8b45792d3bc0d8cbf89a2761c02740b19c840af4ffea2",
      "blockNumber": "0x566e69",
      "from": "0xdE05a1Abb121113a33eeD248BD91ddC254d5E9Db",
      "to": "0xF49880d03567302Cb20B4A668bD69321B0b1bF59",
      "cumulativeGasUsed": "0x143db",
      "gasUsed": "0x6ca2",
      "contractAddress": null,
      "logs": [
        {
          "address": "0xF49880d03567302Cb20B4A668bD69321B0b1bF59",
          "topics": [
            "0x238399d427b947898edb290f5ff0f9109849b1c3ba196a42e35f00c50a54b98b"
          ],
          "data": "0x0000000000000000000000000000000000000000000000000000000000009cad000000000000000000000000dfbfee56ab39e39fb7f0efee329e96c57b39ba44",
          "blockHash": "0xb05d15c12c7ca61b70a8b45792d3bc0d8cbf89a2761c02740b19c840af4ffea2",
          "blockNumber": "0x566e69",
          "transactionHash": "0xf02ae8c797ae0dba5b9e6926f17e36f9be6f5460246d16557bdffe6f4a692fd0",
          "transactionIndex": "0x2",
          "logIndex": "0x1",
          "removed": false
        }
      ],
      "status": "0x1",
      "logsBloom": "0x00000000000000000000000000000000000000000000000000000000800080000000000000000000000000000000000000000000000000000800000000000000000000000000000000000000000000000000000000000000000000000000000000000000000000000000000000000000000000000000000000000000000000000000000000000000000000000000000000000000000000000000000000000000000000000000000000000000000000000000000000000001000002000000000000000000000000000000000000000000000000000000000000040000000000000000000000000000000000000000000000000000000000000000000000000000",
      "type": "0x2",
      "effectiveGasPrice": "0xb2d65ec9"
    }
  ],
  "libraries": [],
  "pending": [],
  "returns": {},
  "timestamp": 1712706229,
  "chain": 11155111,
  "commit": "4d0d3af"
}