{
  "transactions": [
    {
      "hash": "0x92b5a8b8e400d38740714d7240e96cf0e30c64fa921ac0680d31549c2e6eb824",
      "transactionType": "CALL",
      "contractName": null,
      "contractAddress": "0x6EDCE65403992e310A62460808c4b910D972f10f",
      "function": "setConfig(address,address,(uint32,uint32,bytes)[])",
      "arguments": [
        "0xF49880d03567302Cb20B4A668bD69321B0b1bF59",
        "0xcc1ae8Cf5D3904Cef3360A9532B477529b177cCE",
        "[(40109, 2, 0x0000000000000000000000000000000000000000000000000000000000000020000000000000000000000000000000000000000000000000000000000000000f00000000000000000000000000000000000000000000000000000000000000020000000000000000000000000000000000000000000000000000000000000000000000000000000000000000000000000000000000000000000000000000000000000000000000000000000000000000000000000000000000000000000000c00000000000000000000000000000000000000000000000000000000000000120000000000000000000000000000000000000000000000000000000000000000200000000000000000000000067a822f55c5f6e439550b9c4ea39e406480a40f3000000000000000000000000715a4451be19106bb7cefd81e507813e23c307680000000000000000000000000000000000000000000000000000000000000000)]"
      ],
      "transaction": {
        "type": "0x02",
        "from": "0xde05a1abb121113a33eed248bd91ddc254d5e9db",
        "to": "0x6edce65403992e310a62460808c4b910d972f10f",
        "gas": "0x2eec9",
        "value": "0x0",
        "data": "0x6dbd9f90000000000000000000000000f49880d03567302cb20b4a668bd69321b0b1bf59000000000000000000000000cc1ae8cf5d3904cef3360a9532b477529b177cce0000000000000000000000000000000000000000000000000000000000000060000000000000000000000000000000000000000000000000000000000000000100000000000000000000000000000000000000000000000000000000000000200000000000000000000000000000000000000000000000000000000000009cad0000000000000000000000000000000000000000000000000000000000000002000000000000000000000000000000000000000000000000000000000000006000000000000000000000000000000000000000000000000000000000000001600000000000000000000000000000000000000000000000000000000000000020000000000000000000000000000000000000000000000000000000000000000f00000000000000000000000000000000000000000000000000000000000000020000000000000000000000000000000000000000000000000000000000000000000000000000000000000000000000000000000000000000000000000000000000000000000000000000000000000000000000000000000000000000000000c00000000000000000000000000000000000000000000000000000000000000120000000000000000000000000000000000000000000000000000000000000000200000000000000000000000067a822f55c5f6e439550b9c4ea39e406480a40f3000000000000000000000000715a4451be19106bb7cefd81e507813e23c307680000000000000000000000000000000000000000000000000000000000000000",
        "nonce": "0x17b",
        "accessList": []
      },
      "additionalContracts": [],
      "isFixedGasLimit": false
    },
    {
      "hash": "0xefedc88e2354291dfb807fe0ca97b2d68b286237c24d19a191408c7ef39ba9a7",
      "transactionType": "CALL",
      "contractName": null,
      "contractAddress": "0x6EDCE65403992e310A62460808c4b910D972f10f",
      "function": "setConfig(address,address,(uint32,uint32,bytes)[])",
      "arguments": [
        "0xF49880d03567302Cb20B4A668bD69321B0b1bF59",
        "0xdAf00F5eE2158dD58E0d3857851c432E34A3A851",
        "[(40109, 2, 0x0000000000000000000000000000000000000000000000000000000000000020000000000000000000000000000000000000000000000000000000000000000f00000000000000000000000000000000000000000000000000000000000000020000000000000000000000000000000000000000000000000000000000000000000000000000000000000000000000000000000000000000000000000000000000000000000000000000000000000000000000000000000000000000000000c00000000000000000000000000000000000000000000000000000000000000120000000000000000000000000000000000000000000000000000000000000000200000000000000000000000067a822f55c5f6e439550b9c4ea39e406480a40f3000000000000000000000000715a4451be19106bb7cefd81e507813e23c307680000000000000000000000000000000000000000000000000000000000000000)]"
      ],
      "transaction": {
        "type": "0x02",
        "from": "0xde05a1abb121113a33eed248bd91ddc254d5e9db",
        "to": "0x6edce65403992e310a62460808c4b910d972f10f",
        "gas": "0x31983",
        "value": "0x0",
        "data": "0x6dbd9f90000000000000000000000000f49880d03567302cb20b4a668bd69321b0b1bf59000000000000000000000000daf00f5ee2158dd58e0d3857851c432e34a3a8510000000000000000000000000000000000000000000000000000000000000060000000000000000000000000000000000000000000000000000000000000000100000000000000000000000000000000000000000000000000000000000000200000000000000000000000000000000000000000000000000000000000009cad0000000000000000000000000000000000000000000000000000000000000002000000000000000000000000000000000000000000000000000000000000006000000000000000000000000000000000000000000000000000000000000001600000000000000000000000000000000000000000000000000000000000000020000000000000000000000000000000000000000000000000000000000000000f00000000000000000000000000000000000000000000000000000000000000020000000000000000000000000000000000000000000000000000000000000000000000000000000000000000000000000000000000000000000000000000000000000000000000000000000000000000000000000000000000000000000000c00000000000000000000000000000000000000000000000000000000000000120000000000000000000000000000000000000000000000000000000000000000200000000000000000000000067a822f55c5f6e439550b9c4ea39e406480a40f3000000000000000000000000715a4451be19106bb7cefd81e507813e23c307680000000000000000000000000000000000000000000000000000000000000000",
        "nonce": "0x17c",
        "accessList": []
      },
      "additionalContracts": [],
      "isFixedGasLimit": false
    }
  ],
  "receipts": [
    {
      "transactionHash": "0x92b5a8b8e400d38740714d7240e96cf0e30c64fa921ac0680d31549c2e6eb824",
      "transactionIndex": "0x15",
      "blockHash": "0xf1ee282dea6872010cbd16d4d7d7fe5ecc94955c43998b2341143e7f75b4ff20",
      "blockNumber": "0x567223",
      "from": "0xdE05a1Abb121113a33eeD248BD91ddC254d5E9Db",
      "to": "0x6EDCE65403992e310A62460808c4b910D972f10f",
      "cumulativeGasUsed": "0x9e347",
      "gasUsed": "0x21f8f",
      "contractAddress": null,
      "logs": [
        {
          "address": "0xcc1ae8Cf5D3904Cef3360A9532B477529b177cCE",
          "topics": [
            "0x82118522aa536ac0e96cc5c689407ae42b89d592aa133890a01f1509842f5081"
          ],
          "data": "0x000000000000000000000000f49880d03567302cb20b4a668bd69321b0b1bf590000000000000000000000000000000000000000000000000000000000009cad0000000000000000000000000000000000000000000000000000000000000060000000000000000000000000000000000000000000000000000000000000000f00000000000000000000000000000000000000000000000000000000000000020000000000000000000000000000000000000000000000000000000000000000000000000000000000000000000000000000000000000000000000000000000000000000000000000000000000000000000000000000000000000000000000c00000000000000000000000000000000000000000000000000000000000000120000000000000000000000000000000000000000000000000000000000000000200000000000000000000000067a822f55c5f6e439550b9c4ea39e406480a40f3000000000000000000000000715a4451be19106bb7cefd81e507813e23c307680000000000000000000000000000000000000000000000000000000000000000",
          "blockHash": "0xf1ee282dea6872010cbd16d4d7d7fe5ecc94955c43998b2341143e7f75b4ff20",
          "blockNumber": "0x567223",
          "transactionHash": "0x92b5a8b8e400d38740714d7240e96cf0e30c64fa921ac0680d31549c2e6eb824",
          "transactionIndex": "0x15",
          "logIndex": "0x2",
          "removed": false
        }
      ],
      "status": "0x1",
      "logsBloom": "0x00000000000000000000000000000000000000000000000000000000000100000000000000000000000000000000000000000000000000000000000000000000000000000000000000000000000000000000000000000000002000000000000000000000000000000000000000000000000000000000000000000000000000000000000000000000000000000000000000000000000000000000000000000000000000000000000000000002000000000000000000000000000000000000000000000000000000000000000000000000000000080000000000000000000000000000000000000000000000000000000000000000000000000000000000000030",
      "type": "0x2",
      "effectiveGasPrice": "0xb2d83325"
    },
    {
      "transactionHash": "0xefedc88e2354291dfb807fe0ca97b2d68b286237c24d19a191408c7ef39ba9a7",
      "transactionIndex": "0x16",
      "blockHash": "0xf1ee282dea6872010cbd16d4d7d7fe5ecc94955c43998b2341143e7f75b4ff20",
      "blockNumber": "0x567223",
      "from": "0xdE05a1Abb121113a33eeD248BD91ddC254d5E9Db",
      "to": "0x6EDCE65403992e310A62460808c4b910D972f10f",
      "cumulativeGasUsed": "0xc01da",
      "gasUsed": "0x21e93",
      "contractAddress": null,
      "logs": [
        {
          "address": "0xdAf00F5eE2158dD58E0d3857851c432E34A3A851",
          "topics": [
            "0x82118522aa536ac0e96cc5c689407ae42b89d592aa133890a01f1509842f5081"
          ],
          "data": "0x000000000000000000000000f49880d03567302cb20b4a668bd69321b0b1bf590000000000000000000000000000000000000000000000000000000000009cad0000000000000000000000000000000000000000000000000000000000000060000000000000000000000000000000000000000000000000000000000000000f00000000000000000000000000000000000000000000000000000000000000020000000000000000000000000000000000000000000000000000000000000000000000000000000000000000000000000000000000000000000000000000000000000000000000000000000000000000000000000000000000000000000000c00000000000000000000000000000000000000000000000000000000000000120000000000000000000000000000000000000000000000000000000000000000200000000000000000000000067a822f55c5f6e439550b9c4ea39e406480a40f3000000000000000000000000715a4451be19106bb7cefd81e507813e23c307680000000000000000000000000000000000000000000000000000000000000000",
          "blockHash": "0xf1ee282dea6872010cbd16d4d7d7fe5ecc94955c43998b2341143e7f75b4ff20",
          "blockNumber": "0x567223",
          "transactionHash": "0xefedc88e2354291dfb807fe0ca97b2d68b286237c24d19a191408c7ef39ba9a7",
          "transactionIndex": "0x16",
          "logIndex": "0x3",
          "removed": false
        }
      ],
      "status": "0x1",
      "logsBloom": "0x00000000000000000000000000000000000000000000000000000000000000000000000000800000000000000000000000000000000000000000000000000000000000000000000000000000000000000000000000000000002000000000000000000000000000000000000000000000000000000000000000000000000000000000000000000000000000000000000000000000000000000000000000000000000000000000000000000002000000000000000000000000000000000000000000000000000000000000000000000000000000000000000000000000000000000000000000001000000000000000000000000000000000100000000000000010",
      "type": "0x2",
      "effectiveGasPrice": "0xb2d83325"
    }
  ],
  "libraries": [],
  "pending": [],
  "returns": {},
  "timestamp": 1712717898,
  "chain": 11155111,
  "commit": "4d0d3af"
}