{
  "transactions": [
    {
      "hash": "0xb6a2f49007752add8930a74089f93a5ce7e2fbda4cbd046ef886ba5795ce1e6e",
      "transactionType": "CALL",
      "contractName": "MocaTokenAdapter",
      "contractAddress": "0xF49880d03567302Cb20B4A668bD69321B0b1bF59",
      "function": "setOutboundLimit(uint32,uint256)",
      "arguments": [
        "40109",
        "10000000000000000000"
      ],
      "transaction": {
        "type": "0x02",
        "from": "0xde05a1abb121113a33eed248bd91ddc254d5e9db",
        "to": "0xf49880d03567302cb20b4a668bd69321b0b1bf59",
        "gas": "0x100f0",
        "value": "0x0",
        "data": "0x65d28a6b0000000000000000000000000000000000000000000000000000000000009cad0000000000000000000000000000000000000000000000008ac7230489e80000",
        "nonce": "0x151",
        "accessList": []
      },
      "additionalContracts": [],
      "isFixedGasLimit": false
    },
    {
      "hash": "0x6d695cf28ec3b80c78fafe2af5666f2023b785d4af478fe464c91dab08ff8d53",
      "transactionType": "CALL",
      "contractName": "MocaTokenAdapter",
      "contractAddress": "0xF49880d03567302Cb20B4A668bD69321B0b1bF59",
      "function": "setInboundLimit(uint32,uint256)",
      "arguments": [
        "40109",
        "10000000000000000000"
      ],
      "transaction": {
        "type": "0x02",
        "from": "0xde05a1abb121113a33eed248bd91ddc254d5e9db",
        "to": "0xf49880d03567302cb20b4a668bd69321b0b1bf59",
        "gas": "0x1014c",
        "value": "0x0",
        "data": "0x9a2fe9e40000000000000000000000000000000000000000000000000000000000009cad0000000000000000000000000000000000000000000000008ac7230489e80000",
        "nonce": "0x152",
        "accessList": []
      },
      "additionalContracts": [],
      "isFixedGasLimit": false
    }
  ],
  "receipts": [
    {
      "transactionHash": "0xb6a2f49007752add8930a74089f93a5ce7e2fbda4cbd046ef886ba5795ce1e6e",
      "transactionIndex": "0x13",
      "blockHash": "0x4e5d132ee357dfb318b663892a7f862443b66b9f4d66689df13ecd040c0b93b9",
      "blockNumber": "0x563e5e",
      "from": "0xdE05a1Abb121113a33eeD248BD91ddC254d5E9Db",
      "to": "0xF49880d03567302Cb20B4A668bD69321B0b1bF59",
      "cumulativeGasUsed": "0x6318e8",
      "gasUsed": "0xba05",
      "contractAddress": null,
      "logs": [
        {
          "address": "0xF49880d03567302Cb20B4A668bD69321B0b1bF59",
          "topics": [
            "0x7628c1599617e8f71acfbf363d8064a2a32bdb6e63e074de3250cab57047bf79",
            "0x0000000000000000000000000000000000000000000000000000000000009cad"
          ],
          "data": "0x0000000000000000000000000000000000000000000000008ac7230489e80000",
          "blockHash": "0x4e5d132ee357dfb318b663892a7f862443b66b9f4d66689df13ecd040c0b93b9",
          "blockNumber": "0x563e5e",
          "transactionHash": "0xb6a2f49007752add8930a74089f93a5ce7e2fbda4cbd046ef886ba5795ce1e6e",
          "transactionIndex": "0x13",
          "logIndex": "0x35",
          "removed": false
        }
      ],
      "status": "0x1",
      "logsBloom": "0x00000000000000000000000000000000000000000000000000000000800080000000000000000000000000000000000000000000000000000000000000000000000000000000100000000000000000000000000000000000000000000000800000000002000000000000000000000000000000000000000000000000000000000000000000000000000000000000000000000000000000000000000000000000000000000000000000000000000000000000000000000001000000000000000000000000000000000000000000080000000000000000008000000000000000000000000000000000000000000000000000000010000000000000000000000000",
      "type": "0x2",
      "effectiveGasPrice": "0xb2d9304e"
    },
    {
      "transactionHash": "0x6d695cf28ec3b80c78fafe2af5666f2023b785d4af478fe464c91dab08ff8d53",
      "transactionIndex": "0x14",
      "blockHash": "0x4e5d132ee357dfb318b663892a7f862443b66b9f4d66689df13ecd040c0b93b9",
      "blockNumber": "0x563e5e",
      "from": "0xdE05a1Abb121113a33eeD248BD91ddC254d5E9Db",
      "to": "0xF49880d03567302Cb20B4A668bD69321B0b1bF59",
      "cumulativeGasUsed": "0x63d330",
      "gasUsed": "0xba48",
      "contractAddress": null,
      "logs": [
        {
          "address": "0xF49880d03567302Cb20B4A668bD69321B0b1bF59",
          "topics": [
            "0x9cc3784ef7ab64c61f0abf58d72c2a40ef45b319db540006be0aa3e4610b8433",
            "0x0000000000000000000000000000000000000000000000000000000000009cad"
          ],
          "data": "0x0000000000000000000000000000000000000000000000008ac7230489e80000",
          "blockHash": "0x4e5d132ee357dfb318b663892a7f862443b66b9f4d66689df13ecd040c0b93b9",
          "blockNumber": "0x563e5e",
          "transactionHash": "0x6d695cf28ec3b80c78fafe2af5666f2023b785d4af478fe464c91dab08ff8d53",
          "transactionIndex": "0x14",
          "logIndex": "0x36",
          "removed": false
        }
      ],
      "status": "0x1",
      "logsBloom": "0x00000000000000000000000000000000000000000000000000000000800080000000000000000000000000000000000000000000000000000001000000000000000000000000100000000000000000000000000000000000000000000000000000000002000000000000000000000000000000000000000000000000000000000000000000000000000000000000000000000000000000000000000000008000000000000000000004000000000000000000000000000001000000000000000000000000000000000000000000000000000000000000000000000000000000000000000000000000000000000000000000000010000000000000000000000000",
      "type": "0x2",
      "effectiveGasPrice": "0xb2d9304e"
    }
  ],
  "libraries": [],
  "pending": [],
  "returns": {},
  "timestamp": 1712551980,
  "chain": 11155111,
  "commit": "93605f9"
}