{
  "transactions": [
    {
      "hash": "0xaf7b981fa06109dd874011ec59e41cc09aa50c9e1d5c8e4eff0d7a57a72709f7",
      "transactionType": "CALL",
      "contractName": "MocaTokenAdapter",
      "contractAddress": "0x73ff46a2F756276269B2a2630C6288623d9c1bc9",
      "function": "setPeer(uint32,bytes32)",
      "arguments": [
        "40109",
        "0x00000000000000000000000045e8c7b75ba86a27562ee3760011c4adc36c076b"
      ],
      "transaction": {
        "type": "0x02",
        "from": "0xde05a1abb121113a33eed248bd91ddc254d5e9db",
        "to": "0x73ff46a2f756276269b2a2630c6288623d9c1bc9",
        "gas": "0x1107e",
        "value": "0x0",
        "data": "0x3400288b0000000000000000000000000000000000000000000000000000000000009cad00000000000000000000000045e8c7b75ba86a27562ee3760011c4adc36c076b",
        "nonce": "0x17f",
        "accessList": []
      },
      "additionalContracts": [],
      "isFixedGasLimit": false
    }
  ],
  "receipts": [
    {
      "transactionHash": "0xaf7b981fa06109dd874011ec59e41cc09aa50c9e1d5c8e4eff0d7a57a72709f7",
      "transactionIndex": "0x6",
      "blockHash": "0x67a50a24f74287ef80779609ebe0e1a3860b1644f7df8087f17fbc0e02d6cada",
      "blockNumber": "0x567a62",
      "from": "0xdE05a1Abb121113a33eeD248BD91ddC254d5E9Db",
      "to": "0x73ff46a2F756276269B2a2630C6288623d9c1bc9",
      "cumulativeGasUsed": "0x2d9ab",
      "gasUsed": "0xba52",
      "contractAddress": null,
      "logs": [
        {
          "address": "0x73ff46a2F756276269B2a2630C6288623d9c1bc9",
          "topics": [
            "0x238399d427b947898edb290f5ff0f9109849b1c3ba196a42e35f00c50a54b98b"
          ],
          "data": "0x0000000000000000000000000000000000000000000000000000000000009cad00000000000000000000000045e8c7b75ba86a27562ee3760011c4adc36c076b",
          "blockHash": "0x67a50a24f74287ef80779609ebe0e1a3860b1644f7df8087f17fbc0e02d6cada",
          "blockNumber": "0x567a62",
          "transactionHash": "0xaf7b981fa06109dd874011ec59e41cc09aa50c9e1d5c8e4eff0d7a57a72709f7",
          "transactionIndex": "0x6",
          "logIndex": "0x1",
          "removed": false
        }
      ],
      "status": "0x1",
      "logsBloom": "0x00000010000000000000000000000000000000000000000000000000000000000000000000000000000004000000000000000000000000000800000000000000000000000000000000000000000000000000000000000000000000000000000000000000000000000000000000000000000000000000000000000000000000000000000000000000000000000000000000000000000000000000000000000000000000000000000000000000000000000000000000000000000002000000000000002000000000000000000000000000000000000000000000040000000000000000000000000000000000000000000000000000000000000000000000000000",
      "type": "0x2",
      "effectiveGasPrice": "0xb3052a6d"
    }
  ],
  "libraries": [],
  "pending": [],
  "returns": {},
  "timestamp": 1712744331,
  "chain": 11155111,
  "commit": "f9c0721"
}