{
  "transactions": [
    {
      "hash": "0x18a152c39836e7c300ce28f721e38a2f88a73c6be13c035764693f57b482167f",
      "transactionType": "CALL",
      "contractName": "MocaTokenAdapter",
      "contractAddress": "0xF49880d03567302Cb20B4A668bD69321B0b1bF59",
      "function": "setPeer(uint32,bytes32)",
      "arguments": [
        "40109",
        "0x000000000000000000000000dfbfee56ab39e39fb7f0efee329e96c57b39ba44"
      ],
      "transaction": {
        "type": "0x02",
        "from": "0xde05a1abb121113a33eed248bd91ddc254d5e9db",
        "to": "0xf49880d03567302cb20b4a668bd69321b0b1bf59",
        "gas": "0x1016a",
        "value": "0x0",
        "data": "0x3400288b0000000000000000000000000000000000000000000000000000000000009cad000000000000000000000000dfbfee56ab39e39fb7f0efee329e96c57b39ba44",
        "nonce": "0x14f",
        "accessList": []
      },
      "additionalContracts": [],
      "isFixedGasLimit": false
    }
  ],
  "receipts": [
    {
      "transactionHash": "0x18a152c39836e7c300ce28f721e38a2f88a73c6be13c035764693f57b482167f",
      "transactionIndex": "0x4",
      "blockHash": "0x5d42014c17aae4393bb0aa02f1dcef26b074ed1bed9b86cd80170eb03ea68446",
      "blockNumber": "0x563e53",
      "from": "0xdE05a1Abb121113a33eeD248BD91ddC254d5E9Db",
      "to": "0xF49880d03567302Cb20B4A668bD69321B0b1bF59",
      "cumulativeGasUsed": "0x4e082",
      "gasUsed": "0xba5e",
      "contractAddress": null,
      "logs": [
        {
          "address": "0xF49880d03567302Cb20B4A668bD69321B0b1bF59",
          "topics": [
            "0x238399d427b947898edb290f5ff0f9109849b1c3ba196a42e35f00c50a54b98b"
          ],
          "data": "0x0000000000000000000000000000000000000000000000000000000000009cad000000000000000000000000dfbfee56ab39e39fb7f0efee329e96c57b39ba44",
          "blockHash": "0x5d42014c17aae4393bb0aa02f1dcef26b074ed1bed9b86cd80170eb03ea68446",
          "blockNumber": "0x563e53",
          "transactionHash": "0x18a152c39836e7c300ce28f721e38a2f88a73c6be13c035764693f57b482167f",
          "transactionIndex": "0x4",
          "logIndex": "0x6",
          "removed": false
        }
      ],
      "status": "0x1",
      "logsBloom": "0x00000000000000000000000000000000000000000000000000000000800080000000000000000000000000000000000000000000000000000800000000000000000000000000000000000000000000000000000000000000000000000000000000000000000000000000000000000000000000000000000000000000000000000000000000000000000000000000000000000000000000000000000000000000000000000000000000000000000000000000000000000001000002000000000000000000000000000000000000000000000000000000000000040000000000000000000000000000000000000000000000000000000000000000000000000000",
      "type": "0x2",
      "effectiveGasPrice": "0xb2d848f6"
    }
  ],
  "libraries": [],
  "pending": [],
  "returns": {},
  "timestamp": 1712551826,
  "chain": 11155111,
  "commit": "93605f9"
}