{
  "transactions": [
    {
      "hash": "0x32a7e6c868d7a262a494453b36b918069b1b548ae67a19f1f7b086e173328f82",
      "transactionType": "CALL",
      "contractName": "MocaToken",
      "contractAddress": "0x7C5FCc377D2116a8eA94Ea527774a324E73D185B",
      "function": "approve(address,uint256)",
      "arguments": [
        "0x73ff46a2F756276269B2a2630C6288623d9c1bc9",
        "1000000000000000000"
      ],
      "transaction": {
        "type": "0x02",
        "from": "0xde05a1abb121113a33eed248bd91ddc254d5e9db",
        "to": "0x7c5fcc377d2116a8ea94ea527774a324e73d185b",
        "gas": "0x1090a",
        "value": "0x0",
        "data": "0x095ea7b300000000000000000000000073ff46a2f756276269b2a2630c6288623d9c1bc90000000000000000000000000000000000000000000000000de0b6b3a7640000",
        "nonce": "0x18b",
        "accessList": []
      },
      "additionalContracts": [],
      "isFixedGasLimit": false
    },
    {
      "hash": "0x358b14ede8ae2bd4b5e66775d4435e1d85addbabab4c5c0aa43a8501658d203a",
      "transactionType": "CALL",
      "contractName": "MocaTokenAdapter",
      "contractAddress": "0x73ff46a2F756276269B2a2630C6288623d9c1bc9",
      "function": "send((uint32,bytes32,uint256,uint256,bytes,bytes,bytes),(uint256,uint256),address)",
      "arguments": [
        "(40109, 0x000000000000000000000000de05a1abb121113a33eed248bd91ddc254d5e9db, 100000000000000000, 100000000000000000, 0x0003010031020000000000000000001550f7dca70000000000000000000000000000de05a1abb121113a33eed248bd91ddc254d5e9db, 0x, 0x)",
        "(61437087133091, 0)",
        "0xdE05a1Abb121113a33eeD248BD91ddC254d5E9Db"
      ],
      "transaction": {
        "type": "0x02",
        "from": "0xde05a1abb121113a33eed248bd91ddc254d5e9db",
        "to": "0x73ff46a2f756276269b2a2630c6288623d9c1bc9",
        "gas": "0x539ce",
        "value": "0x37e06fc12da3",
        "data": "0xc7c7f5b30000000000000000000000000000000000000000000000000000000000000080000000000000000000000000000000000000000000000000000037e06fc12da30000000000000000000000000000000000000000000000000000000000000000000000000000000000000000de05a1abb121113a33eed248bd91ddc254d5e9db0000000000000000000000000000000000000000000000000000000000009cad000000000000000000000000de05a1abb121113a33eed248bd91ddc254d5e9db000000000000000000000000000000000000000000000000016345785d8a0000000000000000000000000000000000000000000000000000016345785d8a000000000000000000000000000000000000000000000000000000000000000000e00000000000000000000000000000000000000000000000000000000000000140000000000000000000000000000000000000000000000000000000000000016000000000000000000000000000000000000000000000000000000000000000360003010031020000000000000000001550f7dca70000000000000000000000000000de05a1abb121113a33eed248bd91ddc254d5e9db0000000000000000000000000000000000000000000000000000000000000000000000000000000000000000000000000000000000000000000000000000000000000000000000000000",
        "nonce": "0x18c",
        "accessList": []
      },
      "additionalContracts": [],
      "isFixedGasLimit": false
    }
  ],
  "receipts": [
    {
      "transactionHash": "0x32a7e6c868d7a262a494453b36b918069b1b548ae67a19f1f7b086e173328f82",
      "transactionIndex": "0x5",
      "blockHash": "0x41ad430a14b620aef6cc645a14cea77fb3591db6f6056c68ab685b3a5af9ca30",
      "blockNumber": "0x567ae9",
      "from": "0xdE05a1Abb121113a33eeD248BD91ddC254d5E9Db",
      "to": "0x7C5FCc377D2116a8eA94Ea527774a324E73D185B",
      "cumulativeGasUsed": "0x4c109",
      "gasUsed": "0xb53a",
      "contractAddress": null,
      "logs": [
        {
          "address": "0x7C5FCc377D2116a8eA94Ea527774a324E73D185B",
          "topics": [
            "0x8c5be1e5ebec7d5bd14f71427d1e84f3dd0314c0f7b2291e5b200ac8c7c3b925",
            "0x000000000000000000000000de05a1abb121113a33eed248bd91ddc254d5e9db",
            "0x00000000000000000000000073ff46a2f756276269b2a2630c6288623d9c1bc9"
          ],
          "data": "0x0000000000000000000000000000000000000000000000000de0b6b3a7640000",
          "blockHash": "0x41ad430a14b620aef6cc645a14cea77fb3591db6f6056c68ab685b3a5af9ca30",
          "blockNumber": "0x567ae9",
          "transactionHash": "0x32a7e6c868d7a262a494453b36b918069b1b548ae67a19f1f7b086e173328f82",
          "transactionIndex": "0x5",
          "logIndex": "0x4",
          "removed": false
        }
      ],
      "status": "0x1",
      "logsBloom": "0x00000000000000000000000000000000000000000000000000100000000000000000000000000000000000000000040000000000000000000000000000200000000000000000000000000000000000000000000000000000000000000000000000000000000000000000000000000000000000000000004000000000000000000000000000000020000000000000000000000000000000000000000000000000020000000000000000000000000000000000000000000000000000000000004000000000000000000000000000004000000000000000000000000000000000000010100000000000000000000000008000000000000000000000000000000080",
      "type": "0x2",
      "effectiveGasPrice": "0xb2d80e05"
    },
    {
      "transactionHash": "0x358b14ede8ae2bd4b5e66775d4435e1d85addbabab4c5c0aa43a8501658d203a",
      "transactionIndex": "0x6",
      "blockHash": "0x41ad430a14b620aef6cc645a14cea77fb3591db6f6056c68ab685b3a5af9ca30",
      "blockNumber": "0x567ae9",
      "from": "0xdE05a1Abb121113a33eeD248BD91ddC254d5E9Db",
      "to": "0x73ff46a2F756276269B2a2630C6288623d9c1bc9",
      "cumulativeGasUsed": "0x88996",
      "gasUsed": "0x3c88d",
      "contractAddress": null,
      "logs": [
        {
          "address": "0x7C5FCc377D2116a8eA94Ea527774a324E73D185B",
          "topics": [
            "0xddf252ad1be2c89b69c2b068fc378daa952ba7f163c4a11628f55a4df523b3ef",
            "0x000000000000000000000000de05a1abb121113a33eed248bd91ddc254d5e9db",
            "0x00000000000000000000000073ff46a2f756276269b2a2630c6288623d9c1bc9"
          ],
          "data": "0x000000000000000000000000000000000000000000000000016345785d8a0000",
          "blockHash": "0x41ad430a14b620aef6cc645a14cea77fb3591db6f6056c68ab685b3a5af9ca30",
          "blockNumber": "0x567ae9",
          "transactionHash": "0x358b14ede8ae2bd4b5e66775d4435e1d85addbabab4c5c0aa43a8501658d203a",
          "transactionIndex": "0x6",
          "logIndex": "0x5",
          "removed": false
        },
        {
          "address": "0xcc1ae8Cf5D3904Cef3360A9532B477529b177cCE",
          "topics": [
            "0x61ed099e74a97a1d7f8bb0952a88ca8b7b8ebd00c126ea04671f92a81213318a"
          ],
          "data": "0x000000000000000000000000718b92b5cb0a5552039b593faf724d182a881eda00000000000000000000000000000000000000000000000000003506f1c030ca",
          "blockHash": "0x41ad430a14b620aef6cc645a14cea77fb3591db6f6056c68ab685b3a5af9ca30",
          "blockNumber": "0x567ae9",
          "transactionHash": "0x358b14ede8ae2bd4b5e66775d4435e1d85addbabab4c5c0aa43a8501658d203a",
          "transactionIndex": "0x6",
          "logIndex": "0x6",
          "removed": false
        },
        {
          "address": "0xcc1ae8Cf5D3904Cef3360A9532B477529b177cCE",
          "topics": [
            "0x07ea52d82345d6e838192107d8fd7123d9c2ec8e916cd0aad13fd2b60db24644"
          ],
          "data": "0x000000000000000000000000000000000000000000000000000000000000006000000000000000000000000000000000000000000000000000000000000000a000000000000000000000000000000000000000000000000000000000000000c000000000000000000000000000000000000000000000000000000000000000010000000000000000000000008eebf8b423b73bfca51a1db4b7354aa0bfca919300000000000000000000000000000000000000000000000000000000000000000000000000000000000000000000000000000000000000000000000000000001000000000000000000000000000000000000000000000000000002d97e00fcd9",
          "blockHash": "0x41ad430a14b620aef6cc645a14cea77fb3591db6f6056c68ab685b3a5af9ca30",
          "blockNumber": "0x567ae9",
          "transactionHash": "0x358b14ede8ae2bd4b5e66775d4435e1d85addbabab4c5c0aa43a8501658d203a",
          "transactionIndex": "0x6",
          "logIndex": "0x7",
          "removed": false
        },
        {
          "address": "0x6EDCE65403992e310A62460808c4b910D972f10f",
          "topics": [
            "0x1ab700d4ced0c005b164c0f789fd09fcbb0156d4c2041b8a3bfbcd961cd1567f"
          ],
          "data": "0x00000000000000000000000000000000000000000000000000000000000000600000000000000000000000000000000000000000000000000000000000000120000000000000000000000000cc1ae8cf5d3904cef3360a9532b477529b177cce000000000000000000000000000000000000000000000000000000000000009901000000000000000500009ce100000000000000000000000073ff46a2f756276269b2a2630c6288623d9c1bc900009cad00000000000000000000000045e8c7b75ba86a27562ee3760011c4adc36c076b6a59739269ab904b19804a9431357f033abf35dbfb76864c241c3a3ae868d1f1000000000000000000000000de05a1abb121113a33eed248bd91ddc254d5e9db00000000000186a000000000000000000000000000000000000000000000000000000000000000000000000000004a00030100110100000000000000000000000000030d40010031020000000000000000001550f7dca70000000000000000000000000000de05a1abb121113a33eed248bd91ddc254d5e9db00000000000000000000000000000000000000000000",
          "blockHash": "0x41ad430a14b620aef6cc645a14cea77fb3591db6f6056c68ab685b3a5af9ca30",
          "blockNumber": "0x567ae9",
          "transactionHash": "0x358b14ede8ae2bd4b5e66775d4435e1d85addbabab4c5c0aa43a8501658d203a",
          "transactionIndex": "0x6",
          "logIndex": "0x8",
          "removed": false
        },
        {
          "address": "0x73ff46a2F756276269B2a2630C6288623d9c1bc9",
          "topics": [
            "0xfff873bb909b73d08a8c1af4b21779e87103bb8ea8cf3b3a0067eb8526b8b80a",
            "0x6a59739269ab904b19804a9431357f033abf35dbfb76864c241c3a3ae868d1f1",
            "0x000000000000000000000000de05a1abb121113a33eed248bd91ddc254d5e9db"
          ],
          "data": "0x0000000000000000000000000000000000000000000000000000000000009cad000000000000000000000000000000000000000000000000016345785d8a0000",
          "blockHash": "0x41ad430a14b620aef6cc645a14cea77fb3591db6f6056c68ab685b3a5af9ca30",
          "blockNumber": "0x567ae9",
          "transactionHash": "0x358b14ede8ae2bd4b5e66775d4435e1d85addbabab4c5c0aa43a8501658d203a",
          "transactionIndex": "0x6",
          "logIndex": "0x9",
          "removed": false
        }
      ],
      "status": "0x1",
      "logsBloom": "0x0000001000000000000000000000000000000000000000003010000000010000000000000000000020000400008004000000000000000000000000000000002000000000000000000000000800000000000000000000000000000000000000000000000000000000820000000000000000000000000000400000001100000000000000000000002000000008000000000000000000000000000000000000000000000000800000000010000000000000000000000040000000044000000000401000200200000000000000000000400000000008000000000000000000000000000014000000000000000000000000a0000000000000000000000000000000a0",
      "type": "0x2",
      "effectiveGasPrice": "0xb2d80e05"
    }
  ],
  "libraries": [],
  "pending": [],
  "returns": {},
  "timestamp": 1712746008,
  "chain": 11155111,
  "commit": "f9c0721"
}