{
  "transactions": [
    {
      "hash": "0xf90803be46a6e03f9a918054204a497d5ab37210bd4e72bec0d2c6373028dc39",
      "transactionType": "CALL",
      "contractName": "MocaToken",
      "contractAddress": "0xB9B3282D15D86BfFEbf3e2BdEb564E071834fAb3",
      "function": "approve(address,uint256)",
      "arguments": [
        "0xF49880d03567302Cb20B4A668bD69321B0b1bF59",
        "1000000000000000000"
      ],
      "transaction": {
        "type": "0x02",
        "from": "0xde05a1abb121113a33eed248bd91ddc254d5e9db",
        "to": "0xb9b3282d15d86bffebf3e2bdeb564e071834fab3",
        "gas": "0x1090a",
        "value": "0x0",
        "data": "0x095ea7b3000000000000000000000000f49880d03567302cb20b4a668bd69321b0b1bf590000000000000000000000000000000000000000000000000de0b6b3a7640000",
        "nonce": "0x159",
        "accessList": []
      },
      "additionalContracts": [],
      "isFixedGasLimit": false
    },
    {
      "hash": "0x785b7f91a7a1459631c015a91ed5d8cf32f79fab4836ebed42bd4e27c680c644",
      "transactionType": "CALL",
      "contractName": "MocaTokenAdapter",
      "contractAddress": "0xF49880d03567302Cb20B4A668bD69321B0b1bF59",
      "function": "send((uint32,bytes32,uint256,uint256,bytes,bytes,bytes),(uint256,uint256),address)",
      "arguments": [
        "(40109, 0x000000000000000000000000de05a1abb121113a33eed248bd91ddc254d5e9db, 1000000000000000000, 1000000000000000000, 0x, 0x, 0x)",
        "(59506798384832, 0)",
        "0xdE05a1Abb121113a33eeD248BD91ddC254d5E9Db"
      ],
      "transaction": {
        "type": "0x02",
        "from": "0xde05a1abb121113a33eed248bd91ddc254d5e9db",
        "to": "0xf49880d03567302cb20b4a668bd69321b0b1bf59",
        "gas": "0x50643",
        "value": "0x361f019456c0",
        "data": "0xc7c7f5b300000000000000000000000000000000000000000000000000000000000000800000000000000000000000000000000000000000000000000000361f019456c00000000000000000000000000000000000000000000000000000000000000000000000000000000000000000de05a1abb121113a33eed248bd91ddc254d5e9db0000000000000000000000000000000000000000000000000000000000009cad000000000000000000000000de05a1abb121113a33eed248bd91ddc254d5e9db0000000000000000000000000000000000000000000000000de0b6b3a76400000000000000000000000000000000000000000000000000000de0b6b3a764000000000000000000000000000000000000000000000000000000000000000000e000000000000000000000000000000000000000000000000000000000000001000000000000000000000000000000000000000000000000000000000000000120000000000000000000000000000000000000000000000000000000000000000000000000000000000000000000000000000000000000000000000000000000000000000000000000000000000000000000000000000000000000000000000000",
        "nonce": "0x15a",
        "accessList": []
      },
      "additionalContracts": [],
      "isFixedGasLimit": false
    }
  ],
  "receipts": [
    {
      "transactionHash": "0xf90803be46a6e03f9a918054204a497d5ab37210bd4e72bec0d2c6373028dc39",
      "transactionIndex": "0x6",
      "blockHash": "0x5f4e49014fc3053af595e4279907d41783dec6c539ffd3e878a86d39de8b36de",
      "blockNumber": "0x56453b",
      "from": "0xdE05a1Abb121113a33eeD248BD91ddC254d5E9Db",
      "to": "0xB9B3282D15D86BfFEbf3e2BdEb564E071834fAb3",
      "cumulativeGasUsed": "0x607dc",
      "gasUsed": "0xb53a",
      "contractAddress": null,
      "logs": [
        {
          "address": "0xB9B3282D15D86BfFEbf3e2BdEb564E071834fAb3",
          "topics": [
            "0x8c5be1e5ebec7d5bd14f71427d1e84f3dd0314c0f7b2291e5b200ac8c7c3b925",
            "0x000000000000000000000000de05a1abb121113a33eed248bd91ddc254d5e9db",
            "0x000000000000000000000000f49880d03567302cb20b4a668bd69321b0b1bf59"
          ],
          "data": "0x0000000000000000000000000000000000000000000000000de0b6b3a7640000",
          "blockHash": "0x5f4e49014fc3053af595e4279907d41783dec6c539ffd3e878a86d39de8b36de",
          "blockNumber": "0x56453b",
          "transactionHash": "0xf90803be46a6e03f9a918054204a497d5ab37210bd4e72bec0d2c6373028dc39",
          "transactionIndex": "0x6",
          "logIndex": "0x5",
          "removed": false
        }
      ],
      "status": "0x1",
      "logsBloom": "0x80000000000000000000000000000000000080000000100000100000000000000000000000000000000000000000000000000000000000000000000000200000000000000000000000000000000000000000000000000000000000000000000000000000000000000000000000008000000000000000004000200000000000000000000000000020000000000000000000000000000000000000000000000000020000000000000000000000000000000000000000000000000000000000000000000000000000000000000000000000000000000000000000000000000000000010000000000000000000000000000000000000000000000000000000004000",
      "type": "0x2",
      "effectiveGasPrice": "0xb4ab7aaa"
    },
    {
      "transactionHash": "0x785b7f91a7a1459631c015a91ed5d8cf32f79fab4836ebed42bd4e27c680c644",
      "transactionIndex": "0x7",
      "blockHash": "0x5f4e49014fc3053af595e4279907d41783dec6c539ffd3e878a86d39de8b36de",
      "blockNumber": "0x56453b",
      "from": "0xdE05a1Abb121113a33eeD248BD91ddC254d5E9Db",
      "to": "0xF49880d03567302Cb20B4A668bD69321B0b1bF59",
      "cumulativeGasUsed": "0x9ab18",
      "gasUsed": "0x3a33c",
      "contractAddress": null,
      "logs": [
        {
          "address": "0xB9B3282D15D86BfFEbf3e2BdEb564E071834fAb3",
          "topics": [
            "0xddf252ad1be2c89b69c2b068fc378daa952ba7f163c4a11628f55a4df523b3ef",
            "0x000000000000000000000000de05a1abb121113a33eed248bd91ddc254d5e9db",
            "0x000000000000000000000000f49880d03567302cb20b4a668bd69321b0b1bf59"
          ],
          "data": "0x0000000000000000000000000000000000000000000000000de0b6b3a7640000",
          "blockHash": "0x5f4e49014fc3053af595e4279907d41783dec6c539ffd3e878a86d39de8b36de",
          "blockNumber": "0x56453b",
          "transactionHash": "0x785b7f91a7a1459631c015a91ed5d8cf32f79fab4836ebed42bd4e27c680c644",
          "transactionIndex": "0x7",
          "logIndex": "0x6",
          "removed": false
        },
        {
          "address": "0xcc1ae8Cf5D3904Cef3360A9532B477529b177cCE",
          "topics": [
            "0x61ed099e74a97a1d7f8bb0952a88ca8b7b8ebd00c126ea04671f92a81213318a"
          ],
          "data": "0x000000000000000000000000718b92b5cb0a5552039b593faf724d182a881eda00000000000000000000000000000000000000000000000000003345839359e7",
          "blockHash": "0x5f4e49014fc3053af595e4279907d41783dec6c539ffd3e878a86d39de8b36de",
          "blockNumber": "0x56453b",
          "transactionHash": "0x785b7f91a7a1459631c015a91ed5d8cf32f79fab4836ebed42bd4e27c680c644",
          "transactionIndex": "0x7",
          "logIndex": "0x7",
          "removed": false
        },
        {
          "address": "0xcc1ae8Cf5D3904Cef3360A9532B477529b177cCE",
          "topics": [
            "0x07ea52d82345d6e838192107d8fd7123d9c2ec8e916cd0aad13fd2b60db24644"
          ],
          "data": "0x000000000000000000000000000000000000000000000000000000000000006000000000000000000000000000000000000000000000000000000000000000a000000000000000000000000000000000000000000000000000000000000000c000000000000000000000000000000000000000000000000000000000000000010000000000000000000000008eebf8b423b73bfca51a1db4b7354aa0bfca919300000000000000000000000000000000000000000000000000000000000000000000000000000000000000000000000000000000000000000000000000000001000000000000000000000000000000000000000000000000000002d97e00fcd9",
          "blockHash": "0x5f4e49014fc3053af595e4279907d41783dec6c539ffd3e878a86d39de8b36de",
          "blockNumber": "0x56453b",
          "transactionHash": "0x785b7f91a7a1459631c015a91ed5d8cf32f79fab4836ebed42bd4e27c680c644",
          "transactionIndex": "0x7",
          "logIndex": "0x8",
          "removed": false
        },
        {
          "address": "0x6EDCE65403992e310A62460808c4b910D972f10f",
          "topics": [
            "0x1ab700d4ced0c005b164c0f789fd09fcbb0156d4c2041b8a3bfbcd961cd1567f"
          ],
          "data": "0x00000000000000000000000000000000000000000000000000000000000000600000000000000000000000000000000000000000000000000000000000000120000000000000000000000000cc1ae8cf5d3904cef3360a9532b477529b177cce000000000000000000000000000000000000000000000000000000000000009901000000000000000400009ce1000000000000000000000000f49880d03567302cb20b4a668bd69321b0b1bf5900009cad000000000000000000000000dfbfee56ab39e39fb7f0efee329e96c57b39ba44ac6b0c5a818906710c9789396b2975f7c479c58d596b3bc1ea78b5ab1406a253000000000000000000000000de05a1abb121113a33eed248bd91ddc254d5e9db00000000000f424000000000000000000000000000000000000000000000000000000000000000000000000000001600030100110100000000000000000000000000030d4000000000000000000000",
          "blockHash": "0x5f4e49014fc3053af595e4279907d41783dec6c539ffd3e878a86d39de8b36de",
          "blockNumber": "0x56453b",
          "transactionHash": "0x785b7f91a7a1459631c015a91ed5d8cf32f79fab4836ebed42bd4e27c680c644",
          "transactionIndex": "0x7",
          "logIndex": "0x9",
          "removed": false
        },
        {
          "address": "0xF49880d03567302Cb20B4A668bD69321B0b1bF59",
          "topics": [
            "0xfff873bb909b73d08a8c1af4b21779e87103bb8ea8cf3b3a0067eb8526b8b80a",
            "0xac6b0c5a818906710c9789396b2975f7c479c58d596b3bc1ea78b5ab1406a253",
            "0x000000000000000000000000de05a1abb121113a33eed248bd91ddc254d5e9db"
          ],
          "data": "0x0000000000000000000000000000000000000000000000000000000000009cad0000000000000000000000000000000000000000000000000de0b6b3a7640000",
          "blockHash": "0x5f4e49014fc3053af595e4279907d41783dec6c539ffd3e878a86d39de8b36de",
          "blockNumber": "0x56453b",
          "transactionHash": "0x785b7f91a7a1459631c015a91ed5d8cf32f79fab4836ebed42bd4e27c680c644",
          "transactionIndex": "0x7",
          "logIndex": "0xa",
          "removed": false
        }
      ],
      "status": "0x1",
      "logsBloom": "0x80000000000000000000000000000000000080000000100032100000800180000000000000000000200000000080000000000000000000000000000000000000000000000000000000000008000000000000000000000000000000000000000000000000000000008200000000008000000000000000004000200010000000000000000000000020000000080000000000000000000000000000000000000000000000008000000000100000000000000000000000400001000440000000000000000002020000000000000000000000000000080000000000000000000000040000040000000000000000000000002000000000000000000000000000004020",
      "type": "0x2",
      "effectiveGasPrice": "0xb4ab7aaa"
    }
  ],
  "libraries": [],
  "pending": [],
  "returns": {},
  "timestamp": 1712574040,
  "chain": 11155111,
  "commit": "93605f9"
}